:020000040800F2
:1000000070060020350200083D0200083F0200088B
:1000100041020008430200084502000800000000F9
:10002000000000000000000000000000470200087F
:1000300049020008000000004B0200084D020008C1
:100040004F0200084F0200084F0200084F0200084C
:100050004F0200084F020008F10200084F0200089A
:100060004F0200084F0200084F0200084F0200082C
:100070004F0200084F0200084F0200084F0200081C
:100080004F0200084F0200084F0200080000000065
:100090000000000000000000000000004F02000807
:1000A0004F0200084F0200084F0200084F020008EC
:1000B0004F0200084F0200084F0200084F020008DC
:1000C0004F0200084F0200084F0200084F020008CC
:1000D0004F0200084F0200084F0200080000000015
:1000E0004F0200084F0200084F0200080000000005
:1000F0000000000000000000000000004F020008A7
:10010000000000004F0200084F0200084F020008E4
:1001100000000000000000000000000000000000DF
:100120004F0200084F0200084F0200084F0200086B
:100130004F02000800000000000000000000000066
:100140000000000000000000000000004F02000856
:100150004F0200084F0200084F0200084F0200083B
:100160004F0200084F0200080000000000000000DD
:10017000000000000000000000000000000000007F
:10018000000000004F020008000000000000000016
:100190004F02000800F002F800F03CF80AA090E8D6
:1001A000000C82448344AAF10107DA4501D100F032
:1001B00031F8AFF2090EBAE80F0013F0010F18BFC3
:1001C000FB1A43F00103184794020000B402000038
:1001D000103A24BF78C878C1FAD8520724BF30C873
:1001E00030C144BF04680C60704700000023002445
:1001F00000250026103A28BF78C1FBD8520728BF37
:1002000030C148BF0B6070471FB500F011F91FBD2A
:1002100010B510BD00F036F81146FFF7F5FF00F0FD
:10022000BDF800F054F803B4FFF7F2FF03BC00F090
:1002300057F800000948804709480047FEE7FEE7F5
:10024000FEE7FEE7FEE7FEE7FEE7FEE7FEE7FEE786
:1002500004480549054A064B704700008903000819
:100260009501000870000020700600207002002038
:1002700070020020704770477047000000487047C8
:10028000080000207546FFF7F9FFAE4605006946F5
:10029000534620F00700854618B020B5FFF7D8FF79
:1002A000BDE820404FF000064FF000074FF0000877
:1002B0004FF0000BAC46ACE8C009ACE8C009ACE8B4
:1002C000C009ACE8C00921F007018D46704710B5A0
:1002D0000446AFF300802046BDE81040FFF7A3BFFF
:1002E00001491820ABBEFEE726000200704700005F
:1002F00040F26800C2F200000168013101607047FD
:1003000080B543F60400C4F20200416801F00C021B
:1003100042F20041082AC0F2F40106D0042A20D19A
:1003200047F64001C0F27D111BE0D0F800C0036821
:10033000026803F03F03C2F3881E5FEA4C2247F6CF
:100340004002C0F27D1258BF0A46B2FBF3F10268C8
:100350000223C2F301420EFB01F103EB4202B1FBA7
:10036000F2F140F20002C2F200021160406840F275
:100370004A41C0F30310C0F60001085C116821FA7D
:1003800000F0106080BD00004EF68850CEF20000F4
:10039000016841F4700101607047000043F64400B9
:1003A000C4F202000F2140F8141C01684EF2100440
:1003B00041F48041016040F20C40C4F2020002218D
:1003C000016045F25551C0F25551C0F8F41343F69F
:1003D0000800C4F201000168CEF2000441F00101FE
:1003E0000160D0F8F81341F01701C0F8F813D0F805
:1003F000001441F01701C0F800144020C4F8F000C8
:10040000FFF77EFF40F20000C2F200000068411ECC
:100410000020B0EB116F09D161604EF62351CEF28E
:100420000001F0220A70A0600720206000BFFDE7F5
:10043000F1EE100A4FF6FF71C0F2C03120EA010060
:1004400040F04070E1EE100A70470000000000002C
:100450000000010203040607080900007C040008EC
:100460000000002004000000D00100088004000803
:100470000800002068060000EC0100080024F400D9
:0400000508000235B8
:00000001FF
