:020000040800F2
:10000000B8060020350200083D0200083F02000843
:1000100041020008430200084502000800000000F9
:10002000000000000000000000000000470200087F
:1000300049020008000000004B020008F10200081D
:100040004F0200084F0200084F0200084F0200084C
:100050004F0200084F0200084F0200084F0200083C
:100060004F0200084F0200084F0200084F0200082C
:100070004F0200084F0200084F0200084F0200081C
:100080004F0200084F0200084F0200080000000065
:100090000000000000000000000000004F02000807
:1000A0004F0200084F0200084F0200084F020008EC
:1000B0004F0200084F0200084F0200084F020008DC
:1000C0004F0200084F0200084F0200084F020008CC
:1000D0004F0200084F0200084F0200080000000015
:1000E0004F0200084F0200084F0200080000000005
:1000F0000000000000000000000000004F020008A7
:10010000000000004F0200084F0200084F020008E4
:1001100000000000000000000000000000000000DF
:100120004F0200084F0200084F0200084F0200086B
:100130004F02000800000000000000000000000066
:100140000000000000000000000000004F02000856
:100150004F0200084F0200084F0200084F0200083B
:100160004F0200084F0200080000000000000000DD
:10017000000000000000000000000000000000007F
:10018000000000004F020008000000000000000016
:100190004F02000800F002F800F03CF80AA090E8D6
:1001A000000C82448344AAF10107DA4501D100F032
:1001B00031F8AFF2090EBAE80F0013F0010F18BFC3
:1001C000FB1A43F0010318474004000060040000DC
:1001D000103A24BF78C878C1FAD8520724BF30C873
:1001E00030C144BF04680C60704700000023002445
:1001F00000250026103A28BF78C1FBD8520728BF37
:1002000030C148BF0B6070471FB500F0F7F91FBD44
:1002100010B510BD00F031F81146FFF7F5FF00F002
:10022000E7F900F04FF803B4FFF7F2FF03BC00F06A
:1002300057F800000948804709480047FEE7FEE7F5
:10024000FEE7FEE7FEE7FEE7FEE7FEE7FEE7FEE786
:1002500004480549054A064B70470000050300089D
:1002600095010008B8000020B8060020B802002060
:10027000B8020020704770477047754600F02CF8B0
:10028000AE4605006946534620F00700854618B083
:1002900020B5FFF7DDFFBDE820404FF000064FF02E
:1002A00000074FF000084FF0000B21F00701AC46AB
:1002B000ACE8C009ACE8C009ACE8C009ACE8C009CA
:1002C0008D46704710B50446AFF300802046BDE868
:1002D0001040FFF7A8BF00000048704754000020FE
:1002E00001491820ABBEFEE726000200704700005F
:1002F0000348006880F00100014908607047000071
:10030000140402400348006840F47000014908608A
:100310007047000088ED00E010B504460E48006804
:1003200000F47F400C4908600846006820430860DC
:100330000846006820F4807008600846006840F4B1
:10034000007008600A2000F091F80348006820F46B
:1003500000700149086010BD1408024010B5072064
:100360003549086035480068354908433349086015
:1003700031481430006840F480402F49143108603F
:100380000846006840F4807008602E48006845F216
:10039000050108432B4908602B48006840F0030022
:1003A000294908600846006808604B204FF0E021AA
:1003B000486100208861032008612448406823497F
:1003C000486000204863886000BF00E0401C41F2A4
:1003D00088318842FADB01201C4988601C4800787B
:1003E000FFF79AFF1B480078FFF796FF1A4800783E
:1003F000FFF792FF19480078FFF78EFF142000F0F6
:1004000035F817480078FFF787FF002407E0154903
:10041000085D00F0CBF8012000F028F8641C1248B9
:100420000068A042F3DC0E4909780F4A12781144A3
:10043000C8B2FFF771FF10BD30380240000802401B
:1004400055555505000402400000024000200140BF
:10045000310000202F0000202A000020280000206A
:1004600033000020440000205000002008B5002187
:10047000009103E000BF0099491C0091AF21414366
:10048000009AB2EB810FF5DB08BD000000B53B48D8
:10049000806840F080403949886000E000BF3748FC
:1004A000006800F002000128F8D03448C06C00EE6B
:1004B000100AB8EE400A324880ED000A90ED000ABA
:1004C000DFED300A60EE200A9FED2F1A80EE810AE0
:1004D000F2EE040A70EE200AB2EE041AB1EE0C0A33
:1004E00010EE810ABDEEC00A284880ED000A0068BF
:1004F000642190FBF1F026490860244800686421DB
:1005000090FBF1F201FB12002249086008460068E6
:100510000A2190FBF1F000EE100AB8EEC00A1E4866
:1005200080ED000A1948006890FBF1F201FB12000F
:1005300000EE100AB8EEC00A184880ED000A18490B
:100540000978184A12781144491CC8B2FFF7E4FE32
:100550000F4909783031C8B200F028F80E4991ED02
:10056000000ADFED110A30EE200ABCEEC00A10EEE0
:10057000101AC8B200F01AF800BD000000200140B7
:100580001400002000C0FB4580F9C6481000002080
:1005900020000020240000201C0000201800002063
:1005A00033000020500000200000404210B50446F7
:1005B0000E48006800F47F400C4908600846006857
:1005C000204308600846006840F4807008600846D0
:1005D000006840F4007008600A20FFF747FF0348F6
:1005E000006820F400700149086010BD1408024042
:1005F000FFF7B4FE01E0FFF749FFFCE74FF0407062
:10060000E1EE100A704700002806000800000020F4
:1006100054000000D00100087C06000854000020AF
:1006200064060000EC01000800000000000000006B
:1006300000000000000000000000000000000000BA
:1006400000000000000000000000000000000000AA
:100650000102060405070F0C0E382880C0404850E0
:1006600058000000100000001400000048756D657F
:0C0670006461643A000000000800000013
:0400000508000235B8
:00000001FF
