:020000040800F2
:10000000900B00204D020008BD240008F1210008DB
:10001000B9240008AD0C0008112A000800000000F7
:10002000000000000000000000000000F5290008AA
:10003000B10C000800000000C1240008F9290008E4
:1000400067020008670200086702000867020008EC
:1000500067020008670200086702000867020008DC
:1000600067020008670200086702000867020008CC
:1000700067020008670200086702000867020008BC
:10008000670200086702000867020008000000001D
:1000900000000000000000000000000067020008EF
:1000A000670200086702000867020008670200088C
:1000B000670200086702000867020008670200087C
:1000C000670200086702000867020008670200086C
:1000D00067020008670200086702000800000000CD
:1000E00067020008670200086702000800000000BD
:1000F000000000000000000000000000670200088F
:10010000000000006702000867020008670200089C
:1001100000000000000000000000000000000000DF
:10012000670200086702000867020008670200080B
:10013000670200080000000000000000000000004E
:10014000000000000000000000000000670200083E
:1001500067020008670200086702000867020008DB
:1001600067020008670200080000000000000000AD
:10017000000000000000000000000000000000007F
:1001800000000000670200080000000000000000FE
:100190006702000800F002F800F049F80AA090E8B1
:1001A000000C82448344AAF10107DA4501D100F032
:1001B0003EF8AFF2090EBAE80F0013F0010F18BFB6
:1001C000FB1A43F001031847BC620000DC62000028
:1001D000103A24BF78C878C1FAD8520724BF30C873
:1001E00030C144BF04680C60704700000023002445
:1001F00000250026103A28BF78C1FBD8520728BF37
:1002000030C148BF0B607047662905F0DA840020D2
:1002100070471FB505F0C3FC00F0D4FB04000020BC
:10022000002104F0FDFFE0601FBD10B510BD00F01F
:10023000C9FC1146FFF7EDFF02F0EEFB00F0E7FC12
:1002400003B4FFF7F2FF03BC00F028FD0948804724
:1002500009480047FEE7FEE7FEE7FEE7FEE7FEE7A8
:10026000FEE7FEE7FEE7FEE704480549054A064BC0
:1002700070470000FD290008950100089005002046
:10028000900B0020900700209007002053EA020CFA
:1002900000F069802DE9F04B4FF00006002B1FBFE6
:1002A000B3FA83F503FA05F424FA05F65E4012BFAB
:1002B0001643B2FA82F502FA05F4C5F120051EBF15
:1002C00022FA05FC44EA0C04203556EA044C4FEAB5
:1002D000144418BF641C4FF000084FF0000990420E
:1002E00071EB030C39D3002919BFB1FA81F701FA78
:1002F00007F6B0FA80F700FA07F6C7F120071EBF2D
:1003000020FA07FC46EA0C062037B6FBF4FCA7EB04
:100310000507103F07F01F0BCBF120062CFA06F65D
:100320000CFA0BFB44BFB3460026202FA4BF5E4649
:100330004FF0000B5BEA060C08BF4FF0010B19EB06
:100340000B0948EB0608ABFB027C06FB02CC0BFB5F
:1003500003CCC01B71EB0C01C1E70B4602464146C2
:100360004846BDE8F08B13B5084318BF4FF0FF3087
:100370000146AFF30080BDE81C4070470FB41CB5C8
:10038000074B06AA7B4469460090059800F001FBE4
:100390000020694600F010FB1CBC5DF814FB000057
:1003A000310600002DE9F0474FF0000A8946044667
:1003B000C0F820A02046E1688847002876D025288C
:1003C00006D0D4E901219047206A401C2062F1E761
:1003D000E168204600258847C4F81CA0064600278F
:1003E000C4F818A02A2E09D0304604F005FF38B30F
:1003F00004EB8708303EC8F8186019E059F8041B70
:10040000204604EB87029161E1688847012F064688
:1004100018D1E069002820DA25F020051DE0D8F881
:10042000180000EB800006EB40003038C8F81800D8
:100430002046E1688847064604F0DEFE0028EED13B
:10044000012F0AD02E2E08D12046E16888477F1C54
:100450000646022F45F02005C4DBA069002803DA18
:10046000404245F00105A061E80701D025F01005E4
:10047000B6B1A6F14100192802D8203645F400652E
:100480004A463146204625604D46FFF7BDFE58B12D
:10049000012806D0ED1D25F0070000F1080989E7C5
:1004A00004E005F1040985E730468AE7206ABDE8E3
:1004B000F08710B5203AC0F00B80B1E81850A0E8E2
:1004C0001850B1E81850A0E81850203ABFF4F5AF22
:1004D0005FEA027C24BFB1E81850A0E8185044BF7E
:1004E00018C918C0BDE810405FEA827C24BF51F8EB
:1004F000043B40F8043B08BF7047D20728BF31F8DF
:10050000023B48BF11F8012B28BF20F8023B48BF2F
:1005100000F8012B70474FF0000200B513469446D7
:100520009646203922BFA0E80C50A0E80C50B1F14B
:100530002001BFF4F7AF090728BFA0E80C5048BF5F
:100540000CC05DF804EB890028BF40F8042B08BFFD
:10055000704748BF20F8022B11F0804F18BF00F8F9
:10056000012B70477047704770472DE9FF4F0C46CD
:100570001E464FF0FF378BB0D2E90001DDF86080F6
:100580000A908A46C1F30A5505B93D46002108463E
:100590004FF00000BAF1000F00F4400005DA00EB64
:1005A00080004FF4400101EA50004FEA9059B9F140
:1005B000010F00DDB9460A9850EA4A000ED044F611
:1005C0001050A5F2FF3545432F14B8F1000F1ED08F
:1005D0007542291E1EDDC9F100021CE0B8F1010FB1
:1005E0004FF0000001D0302103E0F24305E0215438
:1005F000401CB042FBDB30460022002121540B9905
:10060000C1F80880C1E900200FB0BDE8F08FBD1B24
:100610006D1CDEE74A4600DA694206A800F05CFA83
:1006200006AB93E8070003AB83E8070050460A993E
:1006300003F0FDFF8DE80700A0F500501F38009083
:100640000398002D0ADD42F21F014A4608440023A8
:1006500003A90390684604F067FA09E0A0F500508A
:100660004A461F38002303A90390684604F071FA34
:100670008DE807000004000C03D04FF0FF30410864
:1006800000E01046B8F1000F03D00022009215469A
:100690001EE0751E05D400F099F9303262556D1ECA
:1006A000F9D5B3460122084302D000227F1C04E0A2
:1006B0002078302801D100227F1E002A099784D09B
:1006C0001DE0112D07DA00F081F9303262556D1C02
:1006D00050EA0102F5D1084302D00098C8B10EE0FB
:1006E0000021681E05E0235C625C63542254401EB6
:1006F000491C8142F7DBAB46A81B401E0990002035
:1007000004F80B000B98099AC0F80880C0E9002B88
:100710007AE711264FF0000857E72DE9F04F884699
:100720000446D21D22F0070191B0D1E90001CDE9C4
:100730000A0104F045FB02460B98C00F01D02D20A2
:1007400007E02068810701D52B2002E0202101EA83
:10075000C000032A099001D0072A05DB0346414661
:10076000204600F079F90BE12078800601D5E06998
:1007700000E00620B8F1650F814606D0B8F1660F9B
:1007800018D0B8F1670F70D131E00020B9F1110F26
:10079000009001DB112301E009F101030AAA01A97C
:1007A0000CA8FFF7E2FEDDE90C70002609F1010557
:1007B000834647E001204B4600904FF000470AAACD
:1007C00001A90CA8FFF7D1FEDDE90DB00C995D463B
:1007D000002610B909F101000D18B9EB050003D48A
:1007E000C0F1FF3609F10105A5EB09002BE0B9F1D5
:1007F000010F01DA4FF001090020B9F1110F00904B
:10080000484601DD112300E003460AAA01A90CA80D
:10081000FFF7ABFEDDE90C704D46002683462078DD
:1008200000070AD4AB4500DA5D4601A8012D04DDBE
:10083000411911F8011C302907D04F4502DA17F190
:10084000040F04DA012082460FE06D1EEEE7002F50
:1008500002DCED1B3E4403E0781CA84200DD7D1C59
:10086000B81B00F1010A4FF000472078000703D4BD
:10087000AA4501DB4FF0FF3A0021B7F1004F0DF11F
:1008800043088DF8431024D002202B23002F01DAD7
:100890007F422D230A21021EA0F1010000DC5FB17E
:1008A00097FBF1FC97FBF1F201FB1C7C17460CF166
:1008B000300C08F801CDEEE7A8F1010003702188A3
:1008C000090501D5452100E06521A0F1010800F8E6
:1008D000011C09980FA9A1EB0807FF1D00B1012019
:1008E000411901EBEA70A1693844081A401EA06161
:1008F0002078C00602D42046AFF30080099828B1C2
:10090000D4E901219047206A401C20622078C0066B
:1009100022D52046AFF300801EE0002E04DBB34555
:1009200002DD01A8805D00E03020D4E9012190477C
:10093000206A401C2062761CAAF101005FEA000ACE
:100940000AD100F03FF8C0680168405CD4E9012199
:100950009047206A401C2062281EA5F10105DCDCBE
:1009600007E0D4E9012118F8010B9047206A401CE8
:100970002062381EA7F10107F3DC2046AFF30080A8
:10098000032011B041E6000001694A1C02610878A9
:10099000704700B58FB0CDE90131002105910549BF
:1009A0007944CDE9031011466846FFF7FBFC0FB010
:1009B00000BD0000E5FFFFFF0A6802F8010B0A60B6
:1009C00070470000004870474800002030B5B0F183
:1009D0000A0271F100034FEA900E4EEA817EB0EBFD
:1009E0000E0061EB91014FEA101E4EEA017E10EB02
:1009F0000E0041EB11114FEA102E4EEA016E10EB82
:100A00000E0041EB11214FEA104E4EEA014E10EB61
:100A10000E0041EB1141401841F100014FEAD000B6
:100A200040EA41704FEAD1014FEA810444EA9074F0
:100A300010EB800544EB01046D1944EB0404521BD8
:100A4000A3414FF0000348BF0A3200D530BD401C1F
:100A500041F1000130BD00002DE9F0411F46044680
:100A600003260168072A01F4006004DB08B116A51B
:100A700005E016A503E008B115A500E015A521F0D5
:100A800010002060A069C01EA0610FB1401EA061CF
:100A90002046AFF300804FB1D4E90121384690479A
:100AA000206A401C2062C01C206206E0206AFAE72F
:100AB000D4E9012115F8010B9047761EF8D22046A3
:100AC000AFF30080BDE8F0814E414E006E616E00D4
:100AD000494E4600696E66002DE9F047814616468C
:100AE0008AB0354878440DC88DE80D003248784406
:100AF000801C03AC0DC884E80D0041F69B3008440F
:100B0000372190FBF1F290FBF1F5A5F1800501FB97
:100B100012041B3C02D56442012000E00020DFF8F3
:100B200098A080460027FA44AAF1BE0A0EE0E0072A
:100B30000AD03246684607EB470101230AEB8101E0
:100B400004F007F88DE8070064107F1C002CEED13C
:100B5000194F7F44AE3F19E0E80715D007EB0410AA
:100B60000DF1180A90E80E008AE80E00C068F04205
:100B700001D1981908903246012306A903A803F071
:100B8000E8FF03AB83E807006D10641C002DE3D180
:100B90004FF0010332466946B8F1000F03A802D0B6
:100BA00003F0C2FF01E003F0D4FFC9E90001C9F876
:100BB00008200AB0BDE8F087F451000000487047F3
:100BC000280000207546FFF7F9FFAE46050069468C
:100BD000534620F00700854618B020B5FFF744FBC8
:100BE000BDE820404FF000064FF000074FF000082E
:100BF0004FF0000BAC46ACE8C009ACE8C009ACE86B
:100C0000C009ACE8C00921F007018D46704710B556
:100C10000446AFF300802046BDE81040FFF710BB4C
:100C200030B44FF0013C50F8042B51F8043BCCFA9F
:100C300052F4D51A20D1FCB950F8042B51F8043BDA
:100C4000CCFA52F4D51A17D1B4B950F8042B51F894
:100C5000043BCCFA52F4D51A0ED16CB950F8042BDF
:100C600051F8043BCCFA52F4D51A05D1002CDAD055
:100C700030BC4FF00000704729BAB1FA81F111F091
:100C80001801D1F120008440F2D1CA40CB4012F0CB
:100C9000FF0213F0FF0330BCD01A7047014918203F
:100CA000ABBEFEE72600020070470000FEE7000032
:100CB00070470000B0B5044600F0F2F8054640F277
:100CC0001000C2F200000078611C18BF044400BF8D
:100CD00000F0E6F8401BA042FAD3B0BD2DE9F04F7A
:100CE00082B000F13E4241F2000502F1FF77C4F20A
:100CF0000205072243F6004E4FEAB726A84208BF76
:100D00000422C4F2010E042E38BF4FEAB722012597
:100D1000002600274FF00008009208E008F10108C3
:100D20000437B8F1100F06F1020600F0A7800C6836
:100D300005FA08F914EA090FF0D0D1F804B003223B
:100D40000BF0030CACF10104B240012C6FEA020A73
:100D500010D88268CC6802EA0A02B440224382605A
:100D60004268CBF3001422EA090204FA08F4224391
:100D7000426005E0BCF1030F02D14FF0030C20E00C
:100D8000C2688C6802EA0A02B4402243BCF1020F36
:100D9000C26016D16FF0030202EA58020244D2F890
:100DA00020C007F01C050F230C69AB402CEA03039D
:100DB00004FA05F52B431362D1F804B001250BF0BA
:100DC000030C02680CFA06F302EA0A021A431BF447
:100DD000403F0260A2D0002243F644030192C4F2D5
:100DE00002031A684FF6084C42F480421A601A68EF
:100DF000CFF6FF7C02F480420192019A28F00302B0
:100E0000724452F80C3007F00C050F24AC40A34399
:100E1000009C04FA05F52B4342F80C30DEF808205C
:100E20004B6842EA090543F60C4CDC0258BF22EA43
:100E30000905CEF80850C4F2010CDCF800209C0231
:100E400042EA090558BF22EA0905CCF80050DEF84D
:100E500004209C0342EA090558BF22EA0905CEF89E
:100E60000450DEF80020DB0342EA090558BF22EAFD
:100E70000905CEF80050012550E700BF02B0BDE8DB
:100E8000F08F0000426902EA0103914341EA034105
:100E900081617047002A08BF090481617047000022
:100EA00040F28850C2F200000068704770B5B8B3D5
:100EB000044690F83D0028B9002084F83C00204604
:100EC00000F0EEFD242084F83D002068016821F048
:100ED00001010160016841F400410160016821F4F1
:100EE0000041016000F06AFF48F28041C0F21E013B
:100EF00040F60013D4F804E088424FF00001C0F23D
:100F00003D0348F2A16C4FF0000238BF0121984226
:100F1000C0F2010C38BF0122E64538BF0A460AB1CB
:100F2000012070BD4DF68361C4F21B31A0FB01129C
:100F30002168950C4B684FF4967623F03F0343EA03
:100F40009243754344F6D3564B60C1F262060B6A76
:100F5000A5FB0656B50923F03F03E64538BF950CBF
:100F60006A1C1A430A62CA6948F2A0664CF6FF730B
:100F7000C0F20106B64522EA03020BD801384FEA57
:100F80004E03B0FBF3F001306FF31F30042898BF1D
:100F900004201EE0A368013863B119230EFB03F39C
:100FA000B0FBF3F001306FF31F3078B100F58040F3
:100FB00008E000BF0EEB4E03B0FBF3F001306FF31F
:100FC0001F3028B100F5004003E000BF012000E021
:100FD00001201043C8610868D4E9072320F0C0004D
:100FE000104318430860886848F2FF3204F10C0689
:100FF00090434CCE18431043A5698860C86820F020
:10100000FF0030432843C860086840F001000860D2
:1010100000202021206484F83D10206384F83E00E5
:1010200070BD00002DE9F04182B01F46164688468B
:101030000446FFF735FF94F83D1020291CD10546E2
:1010400020688169890713D5FFF72AFF401B1928FB
:10105000F6D900202021206384F83D1084F83E005A
:10106000216C41F02001216484F83C0004E000BFC1
:1010700094F83C10012903D1022002B0BDE8F081B0
:10108000012184F83C100168C90703D1016841F0CF
:1010900001010160016821F400610160222184F8EE
:1010A0003D10102184F83E1000212164666267859E
:1010B000618D21850021CFF6FF71E162E16A02684E
:1010C00011F5803F42F48062026018BF012919D1F6
:1010D000016841F4807101604169089EC90724D10B
:1010E000711C18D0002E00F0CB8000BFFFF7D8FE97
:1010F000401BB04200F2C68020684169C907F5D0A4
:1011000013E000BF0829E3D0216B1129E0D0E3E709
:101110004169C90709D14169C90706D14169C907B0
:1011200004BF41695FEAC171F2D02169B1F5804F16
:1011300008D148F00101C9B201614169890740F154
:10114000CC8003E1062101EAD81707F1F001016123
:101150004169090738D44169721C01F4806113D0D8
:10116000002940F0EA80002E00F01082FFF798FE80
:10117000401BB04200F20C8220684169090723D469
:1011800041694905F2D5D8E0002940F0D68041698F
:10119000090719D44169490500F1CF804169090760
:1011A00012D44169490500F1C880416909070BD48F
:1011B0004169490500F1C1804169090704D44169C9
:1011C0004905E4D5B9E000BF5FFA88F101614169E2
:1011D000890739D44169721C01F4806114D0002957
:1011E00040F0AB80002E00F0D181FFF759FE401B8C
:1011F000B04200F2CD8120684169890724D4416959
:101200004905F2D599E000BF002940F09680416978
:10121000890719D44169490500F18F80416989071F
:1012200012D44169490500F18880416989070BD4CE
:101230004169490500F181804169890704D4416908
:101240004905E4D579E000BF002101914169019190
:10125000816901910199016841F4807101604169DE
:10126000C90734D1711C28D056B1FFF719FE401BB5
:10127000B04207D820684169C907F6D027E000BF0F
:10128000FFF70EFE00202021206384F83D1084F833
:101290003E00216C41F020012164216884F83C006B
:1012A0000868C00544BF4FF400702064012002B0FC
:1012B000BDE8F0814169C90709D14169C90706D173
:1012C0004169C90704BF41695FEAC171F2D047F0C3
:1012D000F10101614169890738D44169721C01F447
:1012E000806111D049BB002E00F05081FFF7D8FD7E
:1012F000401BB04200F24C8120684169890725D427
:1013000041694905F2D518E0B9B9416989071DD489
:101310004169490511D44169890717D441694905D3
:101320000BD44169890711D44169490505D4416944
:1013300089070BD441694905E7D5016841F400717B
:1013400001606FF480614161042022E1218D99B137
:10135000022927D001292DD1026822F4806202607F
:10136000002201924269019282690192019A026807
:1013700042F40072026028E000210191416901916C
:10138000816901910199016841F400710160202097
:1013900084F83D00002084F83E0084F83C0002B050
:1013A000BDE8F081026822F480620260026842F4C3
:1013B000006202E0026842F4806202600022019250
:1013C0004269019280690190019888B2032817D878
:1013D00002283FD0012851D1002E00F099802068CA
:1013E000014651F8142F520600F196800868C00695
:1013F00000F1F280FFF754FD401BB042EFD9E0E06E
:1014000086B100BF2068014651F8142F52060ED451
:101410000868C00600F1E080FFF742FD401BB042C3
:10142000F0D9CEE020684169490640F1C3800069E7
:10143000616A0870606A218D01300139606221851E
:101440002268638D013B638553695B0770D5116921
:10145000017064E020684169490745D4711C6BD074
:10146000002E00F0CD80FFF71BFD401BB04200F2C4
:10147000C980206841694907F5D535E02068416990
:1014800049070ED4711C65D0002E00F0B980FFF71B
:1014900007FD401BB04200F2B58020684169490752
:1014A000F5D5016821F4806101600069616A087006
:1014B000606A218D01300139606221852068618D6B
:1014C00001396185416949070ED4711C50D0002E45
:1014D00000F09680FFF7E4FC401BB04200F29280DF
:1014E000206841694907F5D5016841F40071016040
:1014F0000069616A0870606A2268411C6162218D1E
:1015000001392185618D013961851169417006E0DC
:101510002068416949064DD50069616A0870606AB2
:10152000218D0130013960622185608D013860852F
:1015300008047FF44AAF2AE741694907D4D44169D6
:1015400049075CBF41695FEA4171CDD441694907F0
:10155000F2D5C9E741694907A3D4416949075CBF8E
:1015600041695FEA41719CD441694907F2D598E726
:1015700041694907B8D4416949075CBF41695FEADD
:101580004171B1D441694907F2D5ADE7FFF788FC55
:10159000202000212022216384F83D2084F83E1081
:1015A000226C1043206484F83C10012002B0BDE896
:1015B000F08100BF50F8141FC90601460CD4FFF794
:1015C0006FFC00202021206384F83D1084F83E0049
:1015D000206C40F020000AE06FF01000086000204E
:1015E0002021206384F83D1084F83E00206C2064A4
:1015F000002084F83C00012002B0BDE8F08100BF6B
:10160000FFF74EFC00202021206384F83D1084F871
:101610003E00216C41F02001216484F83C0001204F
:1016200002B0BDE8F08100002DE9F04381B01F4613
:10163000164688460446FFF733FC94F83D102029EF
:1016400020D1054620688169890717D5FFF728FC56
:10165000401B1928F6D900202021206384F83D1072
:1016600084F83E00216C022641F02001216484F8B8
:101670003C00304601B0BDE8F08300BF94F83C1058
:10168000012905D10226304601B0BDE8F08300BF34
:10169000012184F83C100168C90703D1016841F0B9
:1016A00001010160016821F400610160212184F8D9
:1016B0003D10102184F83E10002121646662678588
:1016C000618D21850021CFF6FF71E162E16A11F59C
:1016D000803F18BF012919D1016841F48071016070
:1016E0004169DDF82090C90723D119F1010116D015
:1016F000B9F1000F46D000BFFFF7D2FB401B4845B1
:1017000042D820684169C907F6D012E00829E3D021
:10171000216B1229E0D0E3E74169C90709D141698A
:10172000C90706D14169C90704BF41695FEAC171B0
:10173000F2D02169B1F5804F02D1FE2161E000BFF6
:10174000062101EAD811F03101614169090757D436
:10175000416919F1010201F480612FD0002946D1BD
:10176000B9F1000F00F04281FFF79AFB401B48459A
:1017700000F23E8120684169090741D44169490569
:10178000F2D534E0FFF78CFB00202021206384F8A1
:101790003D1084F83E00216C012641F020012164B7
:1017A000216884F83C000868C00544BF4FF400700D
:1017B0002064304601B0BDE8F08300BFB9B941698B
:1017C00009071DD44169490511D44169090717D496
:1017D000416949050BD44169090711D4416949059B
:1017E00005D4416909070BD441694905E7D501686A
:1017F00041F4007101606FF4806141610420F8E000
:10180000FF2101EA08010161416989073AD4416970
:1018100019F1010201F4806112D051BBB9F1000F3E
:1018200000F0E080FFF73CFB401B484500F2DC8005
:1018300020684169890725D441694905F2D518E036
:10184000B9B9416989071DD44169490511D4416974
:10185000890717D4416949050BD44169890711D417
:101860004169490505D4416989070BD44169490596
:10187000E7D5016841F4007101606FF48061416156
:101880000420B6E00026009641690091816900912C
:101890000099218D002900F0958009F10108014689
:1018A00051F8142F120635D4B8F1000F16D0B9F143
:1018B000000F00F0AF8000BF0868400500F1B28063
:1018C000FFF7EEFA401B484500F2A9802068014668
:1018D00051F8142F1206EFD51CE000BF0A6852051C
:1018E00000F1A0800A68120614D40A68520500F1BB
:1018F00099800A6812060DD40A68520500F1928098
:101900000A68120606D40A68520500F18B800A683C
:101910001206E3D5636A194611F8012B0261616270
:10192000618D01396185278D0146A7F1010CA4F86D
:1019300028C051F8142F52070DD55FEA0C420AD087
:101940005A78A7F1020C02619A1C6262628D013A18
:101950006285A4F828C00A6852072FD4B8F1000F96
:1019600014D0B9F1000F7BD00868400500F18080E9
:10197000FFF796FA401B484577D82068014651F892
:10198000142F5207F0D5B4F828C017E00A685205A2
:101990006ED40A68520711D40A68520568D40A68DE
:1019A00052070BD40A68520562D40A68520705D45C
:1019B0000A6852055CD40A685207E7D55FEA0C4111
:1019C0007FF46DAF016841F400710160202084F85C
:1019D0003D0084F83E6084F83C60304601B0BDE8CC
:1019E000F08300BFFFF75CFA202002E0FFF758FA0F
:1019F000202000212022216384F83D2084F83E101D
:101A0000226C01261043206484F83C10304601B05B
:101A1000BDE8F0830868400504D4FFF741FA2020B0
:101A200004E000BF6FF480600860042000212022E1
:101A3000216384F83D2084F83E10226C104320641A
:101A400084F83C10206C042825D120680126016808
:101A500041F400710160304601B0BDE8F08300BF81
:101A60000868400504D4FFF71BFA202004E000BFFB
:101A70006FF480600860042000212022216384F834
:101A80003D2084F83E10226C1043206484F83C1002
:101A9000206C0428D9D00126304601B0BDE8F0837F
:101AA000B0B586B0016845F20040C4F20000814242
:101AB00002D006B0B0BD00BF002443F6300501944B
:101AC000C4F20205296800F5D83041F0020129600E
:101AD000296801F00201019101994FF440710191CF
:101AE0001221CDE90214032104910421059101A9D9
:101AF000FFF7F4F80094286940F400102861286981
:101B000000F400100090009806B0B0BD40F2100044
:101B100040F28851C2F20000C2F2000100780A6867
:101B2000104408607047000080B543F60040C4F2DE
:101B30000200016841F400710160016841F48061B4
:101B40000160016841F480710160032000F076F8C3
:101B5000002000F005F800F027F8002080BD00000C
:101B600070B540F21006C2F2000640F22001327851
:101B7000C2F200014FF47A730968B3FBF2F2044633
:101B8000B1FBF2F1084600F01DFB0F2C4FF00105F0
:101B900008D838B94FF0FF3021460022002500F068
:101BA00021F87460284670BD82B0002043F64001E1
:101BB0000190C4F202014A6842F480424A604A68D5
:101BC00002F480420192019A0090086840F080502F
:101BD0000860086800F0805000900098072002B06C
:101BE00000F02CB810B54EF60C5CCEF2000CDCF810
:101BF0000030C3F3022E8EF00704042C28BF042407
:101C0000BEF103034FF0FF3E0EFA04F438BF002389
:101C1000A14399400EFA03F39A43114300F00F02D7
:101C200000F160430901043A03F56443624400286B
:101C300048BF02F10C03197010BD00004EF60C51A4
:101C4000CEF200010A684FF6FF031A4060F30A2241
:101C500042F0806040F0FD70086070472DE9F0416F
:101C6000002800F08B8043F60808C4F202080446FE
:101C7000D8F8F8030D4600F00700884207D288F82C
:101C8000F853D8F8F80300F00700A84276D120688E
:101C9000810717D5410705D5D8F8001041F4E05168
:101CA000C8F80010010705D5D8F8001041F46041CC
:101CB000C8F80010D8F80010A26821F0F001114314
:101CC000C8F80010C0073FD1D8F8F80300F00700AB
:101CD000A84207D988F8F853D8F8F80300F00700AD
:101CE000A8424BD12068410707D5D8F80010E26818
:101CF00021F4E0511143C8F80010000708D5D8F8C6
:101D00000000216920F4604040EAC100C8F80000EA
:101D100000F068F8D8F8001045F6F442C1F303115A
:101D2000C0F60002515C40F2200220FA01F140F2BC
:101D30001400C2F200000068C2F200021160FFF756
:101D40000FFF0020BDE8F0816068811E022907D2E4
:101D500058F8081C89015CBF0120BDE8F08111E042
:101D6000012807D158F8081C89035CBF0120BDE891
:101D7000F08107E058F8081C890703D40120BDE86A
:101D8000F08100BFD8F8001021F003010843C8F823
:101D90000000FFF785F8064641F28837D8F80000C2
:101DA000616800F00C00B0EB810F8DD0FFF778F880
:101DB000801BB842F2D90320BDE8F08140F2200038
:101DC00043F60801C2F20000C4F20201006809688B
:101DD00045F60452C1F38221C0F60002515CC840AE
:101DE0007047000010B543F60404C4F202046068B2
:101DF00000F00C0142F200400829C0F2F40007D0C4
:101E0000042918BF10BD41F20020C0F27A0010BDB5
:101E1000216801F03F02216823684902C3F3881159
:101E200006D4A1FB00010023FEF730FA07E000BF53
:101E300041F20020C0F27A004843B0FBF2F0216882
:101E40000222C1F3014102EB4101B0FBF1F010BDF0
:101E50002DE9F04182B0002868D00446007843F6AE
:101E60000006C007C4F202060BD0B06800F00C00F8
:101E7000042840F09F803068800302D56068002805
:101E800054D0207880071AD5B06810F00C0F09D014
:101E9000B06800F00C00082840F0A680706840028E
:101EA00000F1A2803068800702D5E06801283DD1AA
:101EB0003068216920F0F80040EAC10030602078E5
:101EC000000737D4207840074CD4A56955B3B068D3
:101ED00000F00C00082840F0BB80012D26D070686F
:101EE000E16900F480028A4220D1216A00F03F02B9
:101EF0008A421BD147F6C071626A0140B1EB821F72
:101F000014D1A16A4FF6FF73C903994300F440321C
:101F1000A1F580318A4209D1E16A00F07060B0EB2E
:101F2000016F03D1002002B0BDE8F081012002B0B2
:101F3000BDE8F0816069002840F20000C4F247204B
:101F400076D00121C0F8801EFEF7AAFF054600BF2B
:101F5000706F8007B6D4FEF7A3FF401B0228F7D9A5
:101F6000DDE000BF306C10F080580AD100200190F5
:101F7000306C40F080503064306C00F08050019044
:101F8000019847F20007C4F200073868C00541D441
:101F9000386840F480703860FEF782FF054600BF65
:101FA0003868C00536D4FEF77BFF401B0228F7D9FE
:101FB000B5E000BFB06800F00C00082803D17068DD
:101FC00040023FF558AF6068B0F5803F07D0B0F5EC
:101FD000A02F40F08D80306840F480203060306861
:101FE00040F4803030608DE0E068002852D000205E
:101FF000C4F2472001210160FEF752FF054600BFF1
:10200000306880073FF554AFFEF74AFF401B0228B7
:10201000F6D984E0A068012805D005284ED1306F9C
:1020200040F004003067306F40F0010030674FE04F
:102030000021C0F8801EFEF733FF0546706F800751
:102040007FF540AFFEF72CFF401B0228F6D966E073
:102050000027C4F2472700203866FEF721FF022D33
:1020600005460BD1306880015ED5FEF719FF401B95
:1020700002284FF00300F5D955E700BF3068800112
:102080007FF550AFFEF70CFF401B02284FF0030016
:10209000F4D948E70020C4F2472000210160FEF790
:1020A000FFFE0546306880077FF509AFFEF7F8FEB2
:1020B000401B02284FF00300F4D934E7316F0028A9
:1020C00021F001013167316F21F0040131674DD0FA
:1020D000FEF7E6FE054641F2883700BF306F800705
:1020E00056D4FEF7DDFE401BB842F7D917E000BF1B
:1020F0003168002821F480313160316821F4802179
:1021000031604FD0FEF7CCFE054600BF306880033B
:102110003FF5B7AEFEF7C4FE401B6428F6D9032096
:1021200002B0BDE8F08100BF04F11C052FCD0843CB
:1021300040EA8210D9034FF6FF729143A1F5803136
:1021400040EA05600843706001203866FEF7A8FE8B
:10215000044600BF306880013FF5E4AEFEF7A0FE04
:10216000001B02284FF00300F4D9DCE6FEF798FECE
:10217000054641F2883700BF306F800708D5FEF76B
:102180008FFE401BB8424FF00300F5D9CBE600BFED
:10219000B8F1000F7FF499AE306C20F080503064BD
:1021A00093E600BFFEF77CFE054600BF3068800363
:1021B0007FF567AEFEF774FE401B64284FF0030006
:1021C000F4D9B0E6411E0020B0EB116F1CBF012016
:1021D00070474EF21002CEF2000251604EF62351CB
:1021E000CEF20001F0230B70072190601160704760
:1021F000FEE700002DE9F04184B040F28808C2F209
:102200000008044648F26B0008F11C05ADF8040014
:10221000642701AA2846D02102230097FFF704FA79
:102220006420FEF747FD2078217900F0070040EA9E
:1022300081106B218DF806108DF807000DF1060254
:102240002846D02102230097FFF7EEF96420FEF71D
:1022500031FDE0781A2100F007008DF808108DF8A4
:10226000090002AA2846D02102230097FFF7DCF9D3
:102270006078182606EAC0001B218DF80A108DF838
:102280000B000DF10A022846D02102230097FFF728
:10229000CBF9A0781C2106EAC0008DF80C108DF84F
:1022A0000D0003AA2846D02102230097FFF7BCF9AE
:1022B00040F21940ADF80E000DF10E022846D02173
:1022C00002230097FFF7B0F9A078032806D96078B9
:1022D00003280BD904B0BDE8F08100BF07A151F875
:1022E0002000C8F8080060780328F3D807A151F847
:1022F0002000C8F80C0004B0BDE8F08100007A3D71
:102300000000FA3D00007A3E0000FA3E0000FA3B71
:1023100000007A3C0000FA3C00007A3D2DE9F043D1
:1023200085B040F28808054604A8C2F20008461CA1
:102330003A2008F11C048DF80A004FF00A090DF14B
:102340000A022046D0210123CDF80090FFF76CF956
:1023500064272046D021324601230097FEF762FE13
:102360009DF81100002846D03B208DF8040001AAFA
:102370002046D0210123CDF80090FFF755F90DF14B
:102380000A022046D02106230097FEF74BFEBDF837
:102390000A00BDF80C1000BA000C288008BABDF87D
:1023A0000E10000C688008BA000CA88043208DF83D
:1023B00012000DF112022046D0210123CDF8009029
:1023C000FFF732F901AA2046D02106230097FEF735
:1023D00029FEBDF80400BDF8061000BA000CA8F8EC
:1023E000000008BABDF80810000CA8F8020008BAEE
:1023F000000CA8F8040005B0BDE8F08310B582B069
:1024000004466846FFF78AFFBDF90000BDF90210D7
:10241000BDF9042000EE100A40F28800C2F200006C
:1024200090ED021A02EE101A03EE102AB8EEC00A5E
:10243000B8EEC22AB8EEC33A21EE000A21EE022A13
:1024400021EE031A84ED000A84ED012A84ED021ABC
:1024500002B010BD40F28801C2F20001B1F90020C3
:10246000B1F90230B1F904C000EE102A91ED031A5F
:1024700002EE103A03EE10CAB8EEC00AB8EEC22A55
:10248000B8EEC33A21EE000A21EE022A21EE031A29
:1024900080ED000A80ED012A80ED021A70470000ED
:1024A00080B5014640F28800C2F200001C30542280
:1024B000FDF7FFFF80BD0000FEE70000FEE7000023
:1024C0007047000040F2F802C2F200021080518012
:1024D000704700002DE9F04F84B040F2F806C2F2D8
:1024E0000006B6F800C00F7807EB0C037F2B07D867
:1024F000B6F802E091F801B00BEB0E033F2B03D9C5
:10250000002004B0BDE8F08FBBF1000F009057D061
:10251000203800263C460190CDF808E004E000BFDA
:10252000002401365E454BD2002CF9D00EEB060399
:102530009DB23F2DF5D801984C680BFB006501203A
:1025400034F815B003F0070400FA04F94FF6807070
:10255000C0F20F0000EA031E6FEA09080024039688
:1025600004E000BF0F780134BC4223D20CEB040717
:102570001FFA87FABAF17F0FF4D80BFA04F31B04A1
:1025800040F23416A2F101001EFA87F3C2F20006EF
:10259000B0FA80F0F75CB2FA82F54FEA501058BFFB
:1025A000680907EA0805002818BF47EA0905F55435
:1025B000D8E700BF91F801B0DDE902E63C46B0E79C
:1025C00040F2F8015CFA87F0C2F2000108805DF881
:1025D000100BBDE8F08F000070B503787BB1144696
:1025E0000D46461CD8B229462246FFF773FF16F85F
:1025F000011C884206D116F8013B002BF2D10020C5
:1026000070BD00BF084670BDF0B581B045F2144002
:1026100040F23413C4F20000002178224FF0100C75
:102620004FF0400EC2F20003002409E050F8145CA1
:10263000013445F40075082C40F8145C00F0D88192
:102640004568AD0707D54568AD0744BF45685FEAF3
:10265000857500F1C78150F8145C45F4807540F829
:10266000145C0568ED0709D10568ED0704BF05682E
:102670005FEAC57502D10568ED07F2D040F8042C79
:102680000568AD070AD40568AD075CBF05685FEA59
:10269000857503D40568AD07F2D500BF45680568A8
:1026A0002D0609D405682D065CBF05685FEA05653F
:1026B00002D405682D06F2D540F8041C05682D06E5
:1026C0000AD405682D065CBF05685FEA056503D47A
:1026D00005682D06F2D500BF04F1B00540F8045C92
:1026E00005686D070AD405686D075CBF05685FEA79
:1026F000457503D405686D07F2D500BF50F8145C2A
:1027000045F4007540F8145C4568AD070AD5456886
:10271000AD0744BF45685FEA857503D54568AD07D9
:10272000F2D400BF50F8145C45F4807540F8145C96
:102730000568ED070AD10568ED0704BF05685FEA83
:10274000C57503D10568ED07F2D000BF40F8042C31
:102750000568AD070AD40568AD075CBF05685FEA88
:10276000857503D40568AD07F2D500BF45680568D7
:102770002D0609D405682D065CBF05685FEA05656E
:1027800002D405682D06F2D540F8041C05682D0614
:102790000AD405682D065CBF05685FEA056503D4A9
:1027A00005682D06F2D500BF40F8041C05686D07CA
:1027B0000AD405686D075CBF05685FEA457503D4F8
:1027C00005686D07F2D500BF50F8145C45F400753C
:1027D00040F8145C4568AD070AD54568AD0744BFAD
:1027E00045685FEA857503D54568AD07F2D400BF3B
:1027F00050F8145C45F4807540F8145C0568ED07EA
:102800000AD10568ED0704BF05685FEAC57503D105
:102810000568ED07F2D000BF40F8042C0568AD074D
:102820000AD40568AD075CBF05685FEA857503D407
:102830000568AD07F2D500BF456805682D0609D4C7
:1028400005682D065CBF05685FEA056502D405686A
:102850002D06F2D540F8041C05682D060AD405683B
:102860002D065CBF05685FEA056503D405682D0683
:10287000F2D500BF40F804CC05686D070AD405689E
:102880006D075CBF05685FEA457503D405686D0791
:10289000F2D500BF50F8145C45F4007540F8145CA4
:1028A000E5014668B60709D54668B60744BF4668DD
:1028B0005FEA867602D54668B607F2D450F8146C03
:1028C00046F4807640F8146C0668F6070AD106686C
:1028D000F60704BF06685FEAC67603D10668F60706
:1028E000F2D000BF40F8042C0668B6070AD4066888
:1028F000B6075CBF06685FEA867603D40668B6074B
:10290000F2D500BF46680096066836060AD4066807
:1029100036065CBF06685FEA066603D406683606BC
:10292000F2D500BF40F804EC066836060AD4066803
:1029300036065CBF06685FEA066603D4066836069C
:10294000F2D500BF1D44002604E000BF0436802EEF
:102950003FF46CAEAF5D40F8047C07687F0709D494
:1029600007687F075CBF07685FEA477702D407689C
:102970007F07F2D546F00107EF5D40F8047C076859
:102980007F0709D407687F075CBF07685FEA47775E
:1029900002D407687F07F2D546F00207EF5D40F8E2
:1029A000047C07687F0709D407687F075CBF076856
:1029B0005FEA477702D407687F07F2D546F003073E
:1029C000EF5D40F8047C07687F07BFD407687F0786
:1029D0005CBF07685FEA4777B8D407687F07F2D51E
:1029E000B4E700BF4568AD073FF52AAE33E600BF48
:1029F00001B0F0BD70470000FFF788B84EF6885070
:102A0000CEF20000016841F47001016070470000DF
:102A1000FEE700000000000094B043F63008C4F266
:102A20000208D8F8000040F20445002645F20044B0
:102A300040F00F00C4F20205C4F20206C4F2000422
:102A4000C8F80000FFF770F8D8F800004CF2020157
:102A500040F00200C8F80000D8F8100040F4001060
:102A6000C8F81000D6F8000440F05500C6F800047D
:102A7000D6F8000440F42020C6F80004286A40F08C
:102A800044002862286840F4407028604FF40040F9
:102A90002060206820F400402060606840F0100052
:102AA0006060E0690843E06111202062206840F026
:102AB0000100206046F20800C0F25100013800BF5A
:102AC000FCD100F04FFA4FF0000ACDE90BAACDF887
:102AD0000CA0D8F80000002640F00400C8F8000060
:102AE000D8F80000C4F2020600F004000390039836
:102AF000CDF80CA0D8F80000202140F00100C8F863
:102B00000000D8F80000002200F0010003900398B4
:102B1000CDF80CA0D8F80000202740F00200C8F83B
:102B20000000D8F8000000F002000390039830463F
:102B3000FEF7B0F94FF4005008904FF404100DF177
:102B40002009CDE9090A05F57F704946FEF7C6F868
:102B50000120CDE9090A304649460897CDF82CA056
:102B6000FEF7BCF840F2345548F2A060C2F200050E
:102B7000C0F201004FF48041C5E900402846C5E994
:102B800002AAC5E9041AC5E906AAC5F820A0FEF7FD
:102B90008DF92846FFF784FC40F20110C0F20100D5
:102BA000CDF8050001A88DF804A0FFF723FB3068DD
:102BB00040F2836140F080003060306A402240F48F
:102BC000E0403062D8F8100040F2000440F40030D9
:102BD000C8F8100044F20C40C4F2000040F8041C95
:102BE0000168C2F2000441F02D010160016841F466
:102BF000005101604EF20411CEF200010A6001683A
:102C000041F020010160206810B100BFFEE700BF65
:102C100040F2FC079FEDC88A9FEDC89A9FEDBEABBE
:102C20009FEDBFBB40F218059FEDC1CB9FEDBEDB12
:102C300009F1040BC2F20007C2F2000500208BE08C
:102C4000B1EE411A80EE010A10EE100A02F036FFD2
:102C500041EC100B02F0CCF851EC100B53EC1A2B9A
:102C600002F034FD53EC1B2B02F0D6FB41EC100BB1
:102C700051EC100B02F0F6FAB8600020C4F202002A
:102C80002021FEF7FFF80A20FEF714F8386866687E
:102C900002F014FF46F27C49C0F6000902460B46DA
:102CA00030464946FDF76AFB07F10C006060786822
:102CB000A66802F003FF02460B4630464946FDF780
:102CC0005DFB07F11200A060B868E66802F0F6FE4E
:102CD00002460B4630464946FDF750FB07F1180007
:102CE000E06005200521FFF7EDFB95A029460122B4
:102CF000FFF772FC05201921FFF7E4FB93A029469A
:102D00000122FFF769FC05202D21FFF7DBFB92A0D4
:102D100029460122FFF760FCFFF776FC4B200521D6
:102D2000FFF7D0FB606829460122FFF755FC4B20D6
:102D30001921FFF7C7FBA06829460122FFF74CFCC9
:102D40004B202D21FFF7BEFBE06829460122FFF74B
:102D500043FCFFF759FC20680028FDD1CBE900AA0D
:102D6000CBE902AACBF810A0CDF80CA0D8F810003F
:102D700047F2000140F08050C8F81000D8F8100069
:102D8000C4F2000100F0805003900398CDF80CA02D
:102D90000868022666F38F300860086800F4404037
:102DA0000390039801200B9010200C9010904FF48A
:102DB000A8701190042012900720139008A808967C
:102DC000CDE90E6AFFF744F80F2003A981E841041A
:102DD0004FF48050CDE9060A03A80221FEF73EFF1A
:102DE00007F12000FFF70AFB07F12C00FFF732FB89
:102DF00097ED080A97ED091A97ED0A2A20EE080ABE
:102E000080EE090A21EE081A22EE082A81EE091A3C
:102E100082EE092AB5EE400AF1EE10FA87ED000ABB
:102E200087ED011A87ED022A05DBB5EE401AF1EEB7
:102E300010FA7FF705AFB5EE400AF1EE10FA1BDB92
:102E4000B5EE401AF1EE10FA16DB81EE000A10EE34
:102E5000100A02F033FE41EC100B01F0C9FF51ECF7
:102E6000100B53EC1A2B02F031FC53EC1B2B02F02D
:102E7000D3FA53EC1C2B49E0B5EE400AF1EE10FA00
:102E800022DCB5EE401AF1EE10FA1DDBB1EE400A7D
:102E900080EE010A10EE100A02F010FE41EC100B59
:102EA00001F0A6FF464659EC1A8B51EC100B424636
:102EB0004B4602F00BFC53EC1B2B02F0ADFA4246E2
:102EC000B0464B4622E000BFB5EE400AF1EE10FAE4
:102ED0003FF7D3AEB5EE401AF1EE10FA3FF7CDAEA4
:102EE00081EE000A10EE100A02F0E8FD41EC100B32
:102EF00001F07EFF51EC100B53EC1A2B02F0E6FBB5
:102F000053EC1B2B02F088FA53EC1D2B02F0DCF97A
:102F1000ACE600BF00BF00BF0000000000806640BC
:102F2000A7E8482EFF2109400000000000E07040A3
:102F300000000000008056400000B44200007A44C7
:102F4000477261646F7320583A20000047726164D1
:102F50006F7320593A200000477261646F73205AE2
:102F60003A20000080B545F21440C4F200004168E8
:102F7000890709D54168890744BF41685FEA8171C3
:102F800002D541688907F2D450F8141C41F48071CD
:102F900040F8141C0168C90709D10168C90704BFBA
:102FA00001685FEAC17102D10168C907F2D07821D6
:102FB00040F8041C0168890709D4016889075CBFCF
:102FC00001685FEA817102D401688907F2D541681E
:102FD0000168090609D4016809065CBF01685FEA57
:102FE000016102D401680906F2D5002140F8041CF1
:102FF0000168090609D4016809065CBF01685FEA37
:10300000016102D401680906F2D5AE2140F8041C22
:103010000168490709D4016849075CBF01685FEA94
:10302000417102D401684907F2D550F8141C41F4EB
:10303000007140F8141C4168890709D54168890767
:1030400044BF41685FEA817102D541688907F2D4C3
:1030500050F8141C41F4807140F8141C0168C90731
:1030600009D10168C90704BF01685FEAC17102D1D3
:103070000168C907F2D0782140F8041C016889076B
:1030800009D4016889075CBF01685FEA817102D4D5
:1030900001688907F2D541680168090609D4016809
:1030A00009065CBF01685FEA016102D40168090694
:1030B000F2D5002140F8041C0168090609D4016812
:1030C00009065CBF01685FEA016102D40168090674
:1030D000F2D5202140F8041C0168490709D4016891
:1030E00049075CBF01685FEA417102D40168490782
:1030F000F2D550F8141C41F4007140F8141C4168DA
:10310000890709D54168890744BF41685FEA817131
:1031100002D541688907F2D450F8141C41F480713B
:1031200040F8141C0168C90709D10168C90704BF28
:1031300001685FEAC17102D10168C907F2D0782144
:1031400040F8041C0168890709D4016889075CBF3D
:1031500001685FEA817102D401688907F2D541688C
:103160000168090609D4016809065CBF01685FEAC5
:10317000016102D401680906F2D5002140F8041C5F
:103180000168090609D4016809065CBF01685FEAA5
:10319000016102D401680906F2D5102140F8041C2F
:1031A0000168490709D4016849075CBF01685FEA03
:1031B000417102D401684907F2D550F8141C41F45A
:1031C000007140F8141C4168890709D541688907D6
:1031D00044BF41685FEA817102D541688907F2D432
:1031E00050F8141C41F4807140F8141C0168C907A0
:1031F00009D10168C90704BF01685FEAC17102D142
:103200000168C907F2D0782140F8041C01688907D9
:1032100009D4016889075CBF01685FEA817102D443
:1032200001688907F2D541680168090609D4016877
:1032300009065CBF01685FEA016102D40168090602
:10324000F2D5002140F8041C0168090609D4016880
:1032500009065CBF01685FEA016102D401680906E2
:10326000F2D5B02140F8041C0168490709D401686F
:1032700049075CBF01685FEA417102D401684907F0
:10328000F2D550F8141C41F4007140F8141C416848
:10329000890709D54168890744BF41685FEA8171A0
:1032A00002D541688907F2D450F8141C41F48071AA
:1032B00040F8141C0168C90709D10168C90704BF97
:1032C00001685FEAC17102D10168C907F2D07821B3
:1032D00040F8041C0168890709D4016889075CBFAC
:1032E00001685FEA817102D401688907F2D54168FB
:1032F0000168090609D4016809065CBF01685FEA34
:10330000016102D401680906F2D5002140F8041CCD
:103310000168090609D4016809065CBF01685FEA13
:10332000016102D401680906F2D5C82140F8041CE5
:103330000168490709D4016849075CBF01685FEA71
:10334000417102D401684907F2D550F8141C41F4C8
:10335000007140F8141C4168890709D54168890744
:1033600044BF41685FEA817102D541688907F2D4A0
:1033700050F8141C41F4807140F8141C0168C9070E
:1033800009D10168C90704BF01685FEAC17102D1B0
:103390000168C907F2D0782140F8041C0168890748
:1033A00009D4016889075CBF01685FEA817102D4B2
:1033B00001688907F2D541680168090609D40168E6
:1033C00009065CBF01685FEA016102D40168090671
:1033D000F2D5002140F8041C0168090609D40168EF
:1033E00009065CBF01685FEA016102D40168090651
:1033F000F2D5002140F8041C0168490709D401688E
:1034000049075CBF01685FEA417102D4016849075E
:10341000F2D550F8141C41F4007140F8141C4168B6
:10342000890709D54168890744BF41685FEA81710E
:1034300002D541688907F2D450F8141C41F4807118
:1034400040F8141C0168C90709D10168C90704BF05
:1034500001685FEAC17102D10168C907F2D0782121
:1034600040F8041C0168890709D4016889075CBF1A
:1034700001685FEA817102D401688907F2D5416869
:103480000168090609D4016809065CBF01685FEAA2
:10349000016102D401680906F2D5002140F8041C3C
:1034A0000168090609D4016809065CBF01685FEA82
:1034B000016102D401680906F2D5102140F8041C0C
:1034C0000168490709D4016849075CBF01685FEAE0
:1034D000417102D401684907F2D550F8141C41F437
:1034E000007140F8141C4168890709D541688907B3
:1034F00044BF41685FEA817102D541688907F2D40F
:1035000050F8141C41F4807140F8141C0168C9077C
:1035100009D10168C90704BF01685FEAC17102D11E
:103520000168C907F2D0782140F8041C01688907B6
:1035300009D4016889075CBF01685FEA817102D420
:1035400001688907F2D541680168090609D4016854
:1035500009065CBF01685FEA016102D401680906DF
:10356000F2D5002140F8041C0168090609D401685D
:1035700009065CBF01685FEA016102D401680906BF
:10358000F2D5402140F8041C0168490709D40168BC
:1035900049075CBF01685FEA417102D401684907CD
:1035A000F2D550F8141C41F4007140F8141C416825
:1035B000890709D54168890744BF41685FEA81717D
:1035C00002D541688907F2D450F8141C41F4807187
:1035D00040F8141C0168C90709D10168C90704BF74
:1035E00001685FEAC17102D10168C907F2D0782190
:1035F00040F8041C0168890709D4016889075CBF89
:1036000001685FEA817102D401688907F2D54168D7
:103610000168090609D4016809065CBF01685FEA10
:10362000016102D401680906F2D5002140F8041CAA
:103630000168090609D4016809065CBF01685FEAF0
:10364000016102D401680906F2D5812140F8041C09
:103650000168490709D4016849075CBF01685FEA4E
:10366000417102D401684907F2D550F8141C41F4A5
:10367000007140F8141C4168890709D54168890721
:1036800044BF41685FEA817102D541688907F2D47D
:1036900050F8141C41F4807140F8141C0168C907EB
:1036A00009D10168C90704BF01685FEAC17102D18D
:1036B0000168C907F2D0782140F8041C0168890725
:1036C00009D4016889075CBF01685FEA817102D48F
:1036D00001688907F2D541680168090609D40168C3
:1036E00009065CBF01685FEA016102D4016809064E
:1036F000F2D5002140F8041C0168090609D40168CC
:1037000009065CBF01685FEA016102D4016809062D
:10371000F2D5FF2140F8041C0168490709D401686B
:1037200049075CBF01685FEA417102D4016849073B
:10373000F2D550F8141C41F4007140F8141C416893
:10374000890709D54168890744BF41685FEA8171EB
:1037500002D541688907F2D450F8141C41F48071F5
:1037600040F8141C0168C90709D10168C90704BFE2
:1037700001685FEAC17102D10168C907F2D07821FE
:1037800040F8041C0168890709D4016889075CBFF7
:1037900001685FEA817102D401688907F2D5416846
:1037A0000168090609D4016809065CBF01685FEA7F
:1037B000016102D401680906F2D5002140F8041C19
:1037C0000168090609D4016809065CBF01685FEA5F
:1037D000016102D401680906F2D5A12140F8041C58
:1037E0000168490709D4016849075CBF01685FEABD
:1037F000417102D401684907F2D550F8141C41F414
:10380000007140F8141C4168890709D5416889078F
:1038100044BF41685FEA817102D541688907F2D4EB
:1038200050F8141C41F4807140F8141C0168C90759
:1038300009D10168C90704BF01685FEAC17102D1FB
:103840000168C907F2D0782140F8041C0168890793
:1038500009D4016889075CBF01685FEA817102D4FD
:1038600001688907F2D541680168090609D4016831
:1038700009065CBF01685FEA016102D401680906BC
:10388000F2D5002140F8041C0168090609D401683A
:1038900009065CBF01685FEA016102D4016809069C
:1038A000F2D5A62140F8041C0168490709D4016833
:1038B00049075CBF01685FEA417102D401684907AA
:1038C000F2D550F8141C41F4007140F8141C416802
:1038D000890709D54168890744BF41685FEA81715A
:1038E00002D541688907F2D450F8141C41F4807164
:1038F00040F8141C0168C90709D10168C90704BF51
:1039000001685FEAC17102D10168C907F2D078216C
:1039100040F8041C0168890709D4016889075CBF65
:1039200001685FEA817102D401688907F2D54168B4
:103930000168090609D4016809065CBF01685FEAED
:10394000016102D401680906F2D5002140F8041C87
:103950000168090609D4016809065CBF01685FEACD
:10396000016102D401680906F2D5A82140F8041CBF
:103970000168490709D4016849075CBF01685FEA2B
:10398000417102D401684907F2D550F8141C41F482
:10399000007140F8141C4168890709D541688907FE
:1039A00044BF41685FEA817102D541688907F2D45A
:1039B00050F8141C41F4807140F8141C0168C907C8
:1039C00009D10168C90704BF01685FEAC17102D16A
:1039D0000168C907F2D0782140F8041C0168890702
:1039E00009D4016889075CBF01685FEA817102D46C
:1039F00001688907F2D541680168090609D40168A0
:103A000009065CBF01685FEA016102D4016809062A
:103A1000F2D5002140F8041C0168090609D40168A8
:103A200009065CBF01685FEA016102D4016809060A
:103A3000F2D53F2140F8041C0168490709D4016808
:103A400049075CBF01685FEA417102D40168490718
:103A5000F2D550F8141C41F4007140F8141C416870
:103A6000890709D54168890744BF41685FEA8171C8
:103A700002D541688907F2D450F8141C41F48071D2
:103A800040F8141C0168C90709D10168C90704BFBF
:103A900001685FEAC17102D10168C907F2D07821DB
:103AA00040F8041C0168890709D4016889075CBFD4
:103AB00001685FEA817102D401688907F2D5416823
:103AC0000168090609D4016809065CBF01685FEA5C
:103AD000016102D401680906F2D5002140F8041CF6
:103AE0000168090609D4016809065CBF01685FEA3C
:103AF000016102D401680906F2D5A42140F8041C32
:103B00000168490709D4016849075CBF01685FEA99
:103B1000417102D401684907F2D550F8141C41F4F0
:103B2000007140F8141C4168890709D5416889076C
:103B300044BF41685FEA817102D541688907F2D4C8
:103B400050F8141C41F4807140F8141C0168C90736
:103B500009D10168C90704BF01685FEAC17102D1D8
:103B60000168C907F2D0782140F8041C0168890770
:103B700009D4016889075CBF01685FEA817102D4DA
:103B800001688907F2D541680168090609D401680E
:103B900009065CBF01685FEA016102D40168090699
:103BA000F2D5002140F8041C0168090609D4016817
:103BB00009065CBF01685FEA016102D40168090679
:103BC000F2D5D32140F8041C0168490709D40168E3
:103BD00049075CBF01685FEA417102D40168490787
:103BE000F2D550F8141C41F4007140F8141C4168DF
:103BF000890709D54168890744BF41685FEA817137
:103C000002D541688907F2D450F8141C41F4807140
:103C100040F8141C0168C90709D10168C90704BF2D
:103C200001685FEAC17102D10168C907F2D0782149
:103C300040F8041C0168890709D4016889075CBF42
:103C400001685FEA817102D401688907F2D5416891
:103C50000168090609D4016809065CBF01685FEACA
:103C6000016102D401680906F2D5002140F8041C64
:103C70000168090609D4016809065CBF01685FEAAA
:103C8000016102D401680906F2D5002140F8041C44
:103C90000168490709D4016849075CBF01685FEA08
:103CA000417102D401684907F2D550F8141C41F45F
:103CB000007140F8141C4168890709D541688907DB
:103CC00044BF41685FEA817102D541688907F2D437
:103CD00050F8141C41F4807140F8141C0168C907A5
:103CE00009D10168C90704BF01685FEAC17102D147
:103CF0000168C907F2D0782140F8041C01688907DF
:103D000009D4016889075CBF01685FEA817102D448
:103D100001688907F2D541680168090609D401687C
:103D200009065CBF01685FEA016102D40168090607
:103D3000F2D5002140F8041C0168090609D4016885
:103D400009065CBF01685FEA016102D401680906E7
:103D5000F2D5D52140F8041C0168490709D401684F
:103D600049075CBF01685FEA417102D401684907F5
:103D7000F2D550F8141C41F4007140F8141C41684D
:103D8000890709D54168890744BF41685FEA8171A5
:103D900002D541688907F2D450F8141C41F48071AF
:103DA00040F8141C0168C90709D10168C90704BF9C
:103DB00001685FEAC17102D10168C907F2D07821B8
:103DC00040F8041C0168890709D4016889075CBFB1
:103DD00001685FEA817102D401688907F2D5416800
:103DE0000168090609D4016809065CBF01685FEA39
:103DF000016102D401680906F2D5002140F8041CD3
:103E00000168090609D4016809065CBF01685FEA18
:103E1000016102D401680906F2D5F02140F8041CC2
:103E20000168490709D4016849075CBF01685FEA76
:103E3000417102D401684907F2D550F8141C41F4CD
:103E4000007140F8141C4168890709D54168890749
:103E500044BF41685FEA817102D541688907F2D4A5
:103E600050F8141C41F4807140F8141C0168C90713
:103E700009D10168C90704BF01685FEAC17102D1B5
:103E80000168C907F2D0782140F8041C016889074D
:103E900009D4016889075CBF01685FEA817102D4B7
:103EA00001688907F2D541680168090609D40168EB
:103EB00009065CBF01685FEA016102D40168090676
:103EC000F2D5002140F8041C0168090609D40168F4
:103ED00009065CBF01685FEA016102D40168090656
:103EE000F2D5D92140F8041C0168490709D40168BA
:103EF00049075CBF01685FEA417102D40168490764
:103F0000F2D550F8141C41F4007140F8141C4168BB
:103F1000890709D54168890744BF41685FEA817113
:103F200002D541688907F2D450F8141C41F480711D
:103F300040F8141C0168C90709D10168C90704BF0A
:103F400001685FEAC17102D10168C907F2D0782126
:103F500040F8041C0168890709D4016889075CBF1F
:103F600001685FEA817102D401688907F2D541686E
:103F70000168090609D4016809065CBF01685FEAA7
:103F8000016102D401680906F2D5002140F8041C41
:103F90000168090609D4016809065CBF01685FEA87
:103FA000016102D401680906F2D5222140F8041CFF
:103FB0000168490709D4016849075CBF01685FEAE5
:103FC000417102D401684907F2D550F8141C41F43C
:103FD000007140F8141C4168890709D541688907B8
:103FE00044BF41685FEA817102D541688907F2D414
:103FF00050F8141C41F4807140F8141C0168C90782
:1040000009D10168C90704BF01685FEAC17102D123
:104010000168C907F2D0782140F8041C01688907BB
:1040200009D4016889075CBF01685FEA817102D425
:1040300001688907F2D541680168090609D4016859
:1040400009065CBF01685FEA016102D401680906E4
:10405000F2D5002140F8041C0168090609D4016862
:1040600009065CBF01685FEA016102D401680906C4
:10407000F2D5DA2140F8041C0168490709D4016827
:1040800049075CBF01685FEA417102D401684907D2
:10409000F2D550F8141C41F4007140F8141C41682A
:1040A000890709D54168890744BF41685FEA817182
:1040B00002D541688907F2D450F8141C41F480718C
:1040C00040F8141C0168C90709D10168C90704BF79
:1040D00001685FEAC17102D10168C907F2D0782195
:1040E00040F8041C0168890709D4016889075CBF8E
:1040F00001685FEA817102D401688907F2D54168DD
:104100000168090609D4016809065CBF01685FEA15
:10411000016102D401680906F2D5002140F8041CAF
:104120000168090609D4016809065CBF01685FEAF5
:10413000016102D401680906F2D5122140F8041C7D
:104140000168490709D4016849075CBF01685FEA53
:10415000417102D401684907F2D550F8141C41F4AA
:10416000007140F8141C4168890709D54168890726
:1041700044BF41685FEA817102D541688907F2D482
:1041800050F8141C41F4807140F8141C0168C907F0
:1041900009D10168C90704BF01685FEAC17102D192
:1041A0000168C907F2D0782140F8041C016889072A
:1041B00009D4016889075CBF01685FEA817102D494
:1041C00001688907F2D541680168090609D40168C8
:1041D00009065CBF01685FEA016102D40168090653
:1041E000F2D5002140F8041C0168090609D40168D1
:1041F00009065CBF01685FEA016102D40168090633
:10420000F2D5DB2140F8041C0168490709D4016894
:1042100049075CBF01685FEA417102D40168490740
:10422000F2D550F8141C41F4007140F8141C416898
:10423000890709D54168890744BF41685FEA8171F0
:1042400002D541688907F2D450F8141C41F48071FA
:1042500040F8141C0168C90709D10168C90704BFE7
:1042600001685FEAC17102D10168C907F2D0782103
:1042700040F8041C0168890709D4016889075CBFFC
:1042800001685FEA817102D401688907F2D541684B
:104290000168090609D4016809065CBF01685FEA84
:1042A000016102D401680906F2D5002140F8041C1E
:1042B0000168090609D4016809065CBF01685FEA64
:1042C000016102D401680906F2D5202140F8041CDE
:1042D0000168490709D4016849075CBF01685FEAC2
:1042E000417102D401684907F2D550F8141C41F419
:1042F000007140F8141C4168890709D54168890795
:1043000044BF41685FEA817102D541688907F2D4F0
:1043100050F8141C41F4807140F8141C0168C9075E
:1043200009D10168C90704BF01685FEAC17102D100
:104330000168C907F2D0782140F8041C0168890798
:1043400009D4016889075CBF01685FEA817102D402
:1043500001688907F2D541680168090609D4016836
:1043600009065CBF01685FEA016102D401680906C1
:10437000F2D5002140F8041C0168090609D401683F
:1043800009065CBF01685FEA016102D401680906A1
:10439000F2D58D2140F8041C0168490709D4016851
:1043A00049075CBF01685FEA417102D401684907AF
:1043B000F2D550F8141C41F4007140F8141C416807
:1043C000890709D54168890744BF41685FEA81715F
:1043D00002D541688907F2D450F8141C41F4807169
:1043E00040F8141C0168C90709D10168C90704BF56
:1043F00001685FEAC17102D10168C907F2D0782172
:1044000040F8041C0168890709D4016889075CBF6A
:1044100001685FEA817102D401688907F2D54168B9
:104420000168090609D4016809065CBF01685FEAF2
:10443000016102D401680906F2D5002140F8041C8C
:104440000168090609D4016809065CBF01685FEAD2
:10445000016102D401680906F2D5142140F8041C58
:104460000168490709D4016849075CBF01685FEA30
:10447000417102D401684907F2D550F8141C41F487
:10448000007140F8141C4168890709D54168890703
:1044900044BF41685FEA817102D541688907F2D45F
:1044A00050F8141C41F4807140F8141C0168C907CD
:1044B00009D10168C90704BF01685FEAC17102D16F
:1044C0000168C907F2D0782140F8041C0168890707
:1044D00009D4016889075CBF01685FEA817102D471
:1044E00001688907F2D541680168090609D40168A5
:1044F00009065CBF01685FEA016102D40168090630
:10450000F2D5002140F8041C0168090609D40168AD
:1045100009065CBF01685FEA016102D4016809060F
:10452000F2D5AF2140F8041C0168490709D401689D
:1045300049075CBF01685FEA417102D4016849071D
:10454000F2D550F8141C41F4007140F8141C416875
:10455000890709D54168890744BF41685FEA8171CD
:1045600002D541688907F2D450F8141C41F48071D7
:1045700040F8141C0168C90709D10168C90704BFC4
:1045800001685FEAC17102D10168C907F2D07821E0
:1045900040F8041C0168890709D4016889075CBFD9
:1045A00001685FEA817102D401688907F2D5416828
:1045B0000168090609D4016809065CBF01685FEA61
:1045C000016102D401680906F2D5002140F8041CFB
:1045D0000168090609D4016809065CBF01685FEA41
:1045E000016102D401680906F2D52E2140F8041CAD
:1045F0000168490709D4016849075CBF01685FEA9F
:10460000417102D401684907F2D550F8141C41F4F5
:10461000007140F8141C40F23410C2F200004FF454
:104620008061FBF778FFBDE88040FDF7EDBF5FEAF2
:10463000400C08BF91F0000F4FEA8C234FEAC122D3
:1046400043EA51514FEA1C5018BF00F5F0404FEAC1
:10465000300018BF41F000415FEA6C5C00F0298037
:10466000BCF1FF3F08BF40F080407047130C06BF0D
:1046700012044FF0100C4FF0000C130E04BF120286
:104680000CF1080C130F04BF12010CF1040C930F72
:1046900004BF92000CF1020CD30F04BF52000CF1C6
:1046A000010C11464FF00002A0F11F00A0EB0C001E
:1046B000704711F0004F08BF704731F000413FF4E0
:1046C000D5AF0B0C06BF09044FF0100C4FF0000CD7
:1046D0000B0E04BF09020CF1080C0B0F04BF0901FB
:1046E0000CF1040C8B0F04BF89000CF1020CCB0FF2
:1046F00004BF49000CF1010CCCF1200322FA03F3B2
:1047000041EA030102FA0CF2A0EB0C0000F10100F7
:104710007047000023F07F4720F07F4C80EA0300C1
:1047200000F00040ACEB070303F57C5303F1FF03FB
:104730002DE9804909B44FEA144324EA03484FEABB
:10474000154B25EA0B4E0FF2042606EB13273E7895
:1047500003FB0667C7F5000707FB06F64FEAD646D8
:1047600006F102064FEA543707FB066CCCF1005CF9
:104770004FEA1C472CEA074C0CFB06F507FB06F436
:1047800004EB15464FEA961649085FEA320234BF39
:1047900000204FF000404FEAD13706FB07FC4FEAFC
:1047A0001C4C0CFB0BF7D21B03FB0CF761EB070156
:1047B0000CFB0EF7B0EB074072EB17420CFB08F74F
:1047C00034BFA2EB0742B2EB074261EB17414FEA5D
:1047D0000C444FEA910706FB07FC4FEA1C4C0CFB0C
:1047E0000BF7B0EBC74072EB573203FB0CF734BF4B
:1047F000A2EBC742B2EBC74261EB57310CFB0EF79D
:10480000B0EBC70072EB57720CFB08F734BFA2EB9A
:10481000C702B2EBC70261EB57714FEA816141EA0F
:1048200092114FEA826242EA90124FEA806004EBF2
:10483000CC04039F4FEAD13706FB07FC4FEA1C4C20
:104840000CFB0BF7D21B03FB0CF761EB07010CFB16
:104850000EF7B0EB074072EB17420CFB08F734BFC2
:10486000A2EB0742B2EB074261EB17414FEA8C55CE
:1048700004EB9C244FEA910706FB07FC4FEA1C4C13
:104880000CFB0BF7B0EBC74072EB573203FB0CF796
:1048900034BFA2EBC742B2EBC74261EB57310CFB0E
:1048A0000EF7B0EBC70072EB57720CFB08F734BF82
:1048B000A2EBC702B2EBC70261EB57714FEA81610D
:1048C00041EA92114FEA826242EA90124FEA806016
:1048D00015EB4C2544F100044FEAD13706FB07FCE9
:1048E0004FEA1C4C0CFB0BF7D21B03FB0CF761EBE4
:1048F00007010CFB0EF7B0EB074072EB17420CFB05
:1049000008F734BFA2EB0742B2EB074261EB174155
:104910004FEA813141EA92414FEA823242EA9042C3
:104920004FEA80304FEA0C7615EB1C1544F1000479
:1049300048EA03434EEA0B484FF0000EB2EB080C76
:1049400071EB030724BF624639464EEB0E0E4FF063
:10495000000B0018524149414BEB0B0BB2EB080C1A
:1049600071EB03077BF1000B24BF624639464EEB27
:104970000E0E4FF0000B0018524149414BEB0B0B50
:10498000B2EB080C71EB03077BF1000B24BF62460E
:1049900039464EEB0E0E51EA020718BF46F00106EB
:1049A00016EB0E7655F1000254F1000103D5BDE877
:1049B0008901BDE80088BDE88901BDE80048B61955
:1049C000524141EB0101A3F10103704780807F7EDA
:1049D0007D7C7B7A79787776767574737271717075
:1049E0006F6E6E6D6C6C6B6A6A6968686766666527
:1049F0006464636362616160605F5F5E5E5D5D5CB5
:104A00005C5B5B5A5A595958585757565655555525
:104A10005454535352525251515050504F4F4F4E85
:104A20004E4D4D4D4C4C4C4B4B4B4A4A4A494949D3
:104A30004848484747474746464645454544444415
:104A40004443434343424242424141419C46002B3E
:104A500030D477002BD04FEA37071CB503B44FF0A2
:104A600010004FF01001BAF1000F06D0BCF1000F9A
:104A7000DCBF40F0080040F008014FF000000FBC20
:104A8000BDE810400BF1010BBBF1010F08BF5FEA5D
:104A9000170722BF12F1010211F101014FF000418D
:104AA00043F1000300F0004043EA00007047F9D3EF
:104AB0005708D0E746EA06464FEA164613F1400F7C
:104AC0001FDD13F1200FDFBF16430A4600212033FC
:104AD0005B42BED0C3F1200746EA06464FEA1646BF
:104AE00002FA07F746EA070622FA03F2C3F12007A3
:104AF00001FA07F742EA070221FA03F14FF0000337
:104B0000A7E746EA020646EA06464FEA164646EA9E
:104B10000106BCBF46EA0646360C4FF000034FF0D4
:104B200000024FF0000194E72DE9804C70B49A46E2
:104B3000934691E8380007C831EA400C48BF34EA90
:104B4000430C03D5FFF7E6FDFFF780FFF0BCBDE89F
:104B5000008C2DE9804C70B49A46934691E8380059
:104B600007C810F0804F08BF13F0804F03D100F04A
:104B700005F8FFF76BFFF0BCBDE8008C20F07F4725
:104B800023F07F4C80EA030000F0004007EB0C03A9
:104B9000A3F57C53A3F1FE0392F0000F00F0B38065
:104BA00095F0000F00F077802DE901494FEA1140A0
:104BB00021EA00484FEA144624EA064700FB06FCB7
:104BC00008FB06F607FB08F818EB06484CEB164CFA
:104BD00000FB07F718EB07484CEB17404FEA124B66
:104BE00022EA0B4E4FEA154625EA06470BFB06FC68
:104BF0000EFB06F607FB0EFE1EEB064E4CEB164CAC
:104C00000BFB07F71EEB074E4CEB174B18EB0B0893
:104C100040F1000018EB0E0B58EB000840F10000CB
:104C20008F1A4FF000014FF000063CBFC943661BCE
:104C300014BFB5EB040C00213CBFC943F61B4FEA7F
:104C4000174427EA04454FEA1C472CEA074C04FBAB
:104C5000076205FB07F70CFB05F616EB074642EB70
:104C6000174204FB0CFC16EB0C4642EB1C421BEB00
:104C7000060658EB020241414EEA8E0E46EA9E06B7
:104C800001D5BDE80189B619524141EB0101A3F1FB
:104C90000103BDE801894FEA144524EA05464FEABD
:104CA000114721EA074C05FB07F406FB07F70CFB4D
:104CB00006F111EB074144EB174405FB0CFC11EB2B
:104CC0000C4144EB1C444FEA124722EA074C05FB17
:104CD00007F206FB07F70CFB06F616EB074642EB5E
:104CE000174205FB0CFC16EB0C4642EB1C456A1800
:104CF00054F1000148BF7047B619524141EB010120
:104D0000A3F10103704795F0000F37D04FEA11422D
:104D100021EA02464FEA144724EA074C02FB07F156
:104D200006FB07F70CFB06F414EB074441EB1741B5
:104D300002FB0CFC14EB0C4441EB1C414FEA154701
:104D400025EA074C02FB07F506FB07F70CFB06F606
:104D500016EB074645EB174502FB0CFC16EB0C4621
:104D600045EB1C42121951F1000148BF7047B619BA
:104D7000524141EB0101A3F1010370474FEA144591
:104D800024EA05464FEA114721EA074C05FB07F1E3
:104D900006FB07F70CFB06F212EB074241EB17414B
:104DA00005FB0CFC12EB0C4251EB1C414FF00006D2
:104DB00048BF7047921841EB0101A3F1010370470E
:104DC00003B401984100009850EAC12018BF0420A4
:104DD0004A0D18BF40F0010040F2FF72B2EB515F84
:104DE00008BF40F00200012808BF052002B070474C
:104DF00070B59B482DED020B2DED068B079D25F020
:104E00000044A04218DC9748844202DC0AD106988C
:104E100040B19DED060BBDEC068B02B0BDE87040C5
:104E200000F0CEB9002DCCBF9FED8F0B9FED900B06
:104E3000BDEC068B02B070BD8F48A04215DD8F48D7
:104E4000A042D8BF4FF0FF3458DD9DED060B51EC6A
:104E5000100BFFF7B5FF042808BF00F0BDF99DED6A
:104E6000060BBDEC068B02B070BD9DED060B51EC40
:104E7000100B00F0C8F9CDE9060181489FED828B47
:104E8000A0423CDD8248A0421FDD00249FED82ABA2
:104E90009DED060B53EC1A2B51EC100B00F014FA9D
:104EA0009DED060B41EC190B53EC1A2B51EC100B3A
:104EB00000F00CFC53EC182B00F012FD53EC192BF6
:104EC00000F0AAFACDE9060149E09DED060B0124A8
:104ED00053EC182B51EC100B00F0F6F99DED060B7E
:104EE00041EC190B53EC182B51EC100B00F0F8FCB3
:104EF00053EC192B00F090FACDE906012FE0684839
:104F0000A0421FDD02249FED689B9DED060B53EC34
:104F1000192B51EC100B00F0D9FB53EC182B00F0BF
:104F2000D3F99DED060B41EC180B53EC192B51EC0A
:104F3000100B00F0D5FC53EC182B00F06DFACDE906
:104F400006010CE09DED060B032453EC102B9FEDA6
:104F5000580B51EC100B00F05FFACDE906019DED06
:104F6000060B53EC102B51EC100B00F0AFFB41EC97
:104F7000180B53EC182B00F0A9FB41EC190B4E4811
:104F80000621B0EE490AF0EE690A784400F09CF878
:104F900053EC182B51EC100B00F098FB41EC180B64
:104FA0004648B0EE490AF0EE690A0521784400F05F
:104FB0008BF853EC192B51EC100B00F087FB41ECF4
:104FC000100B51EC180B53EC102B002C0EDA00F0E8
:104FD0007BF99DED061B53EC112B00F077FB9DED4B
:104FE000061B53EC112B00F06FFC35E000F06CF960
:104FF0009DED061B53EC112B00F068FB41EC100BF0
:105000002F48784400EBC40090ED001B51EC100BCE
:1050100053EC112B00F064FC9DED061B53EC112B9F
:1050200000F05EFC41EC100B2648784400EBC40015
:1050300090ED001B51EC100B53EC112B00F044FCD5
:1050400041EC100B002DA2BFBDEC068B02B070BD71
:1050500051EC100B00F0FAF841EC100B01E70000E6
:10506000000010440000F07F182D4454FB21F93F4C
:10507000182D4454FB21F9BF0000DC3F0000203E06
:105080000000F33F00000000000000000000F03FBF
:105090000000E63F000000000000000000000040AB
:1050A0000080034000000000000000000000F83F06
:1050B000000000000000F0BFA20C0000580C00002F
:1050C000E20B00009A0B000070B504462DED028B38
:1050D0004D1E00EBC500B0EE408AF0EE608A90ED08
:1050E000000B35F0060017D053EC182B51EC100BC9
:1050F00000F0ECFA41EC100B6D1E04EBC50090EDD6
:10510000001B51EC100B53EC112B00F0DDF841ECBF
:10511000100B35F00600E7D1022D36D0042D1CD03F
:10512000062D1CBFBDEC028B70BD53EC182B51EC4F
:10513000100B00F0CBFA94ED0A1B53EC112B00F08E
:10514000C3F853EC182B00F0C1FA94ED081B53EC94
:10515000112B00F0B9F841EC100B53EC182B51EC6B
:10516000100B00F0B3FA94ED061B53EC112B00F07A
:10517000ABF853EC182B00F0A9FA94ED040B53ECA8
:10518000102B00F0A1F841EC100B53EC182B51EC54
:10519000100B00F09BFA94ED021B53EC112B00F066
:1051A00093F853EC182B00F091FA94ED001B53EC9C
:1051B000112B00F089F8BDEC028B41EC100B70BD97
:1051C00010B553EC102B51EC100B00F07DF841ECB6
:1051D000100B10BD000000009FED050B10B553EC47
:1051E000102B51EC100B00F071FA41EC100B10BDBC
:1051F000000000000000001030380A2801D2012011
:1052000070470020704782B0CDE9000121F00040D6
:1052100001909DED000B02B051EC100B70470000A7
:1052200010B500290AD00878002807D0054878442E
:10523000FBF7F6FC002801D0002010BD024878449E
:1052400010BD0000761200006E12000081F00041D7
:10525000704780F00040704721F00041704720F017
:105260000040704721F0004201F00043A2F160527B
:10527000B2F5801F28BFD2F17F6C0BD95FEA001C0A
:1052800043EAC20242EB507018BF704728BF20F0BB
:1052900001007047B2F5801FBCBF184670474FEA47
:1052A000410C1CF5001F02D2084600F085BC70B509
:1052B00000F0B6FA00000089FFF7F6BF4FF000409B
:1052C000A0F580007047000010B591EA030F48BFB9
:1052D00083F0004300F10C83841A71EB030C05D2B8
:1052E000121943EB0C03001B61EB0C014FEA115444
:1052F000A4EB135CDFF81CE11EEA430F18BF9EEA23
:10530000445F00F0748021EA045123EA0E0343F461
:105310008013DCF1200E32D322FA0CFE10EB0E00CB
:1053200023FA0CFE41EB0E01CCF1200E03FA0EFE27
:1053300010EB0E00CCF1200E51F10001B1F5801FF1
:1053400032D201EB045112FA0EF2BDE8104058BF00
:105350007047401C38BF5FEA420218BF7047002800
:1053600014BF20F0010041F100014FEA410313F5A1
:10537000001F38BF7047A1F1C04100F09FBA012A59
:1053800043EB0302ACF1200CDCF11F0E32BF4FF0F7
:10539000000E23FA0CF310EB030041EB0451B4EBC5
:1053A000115FD0D0A1EB045101F58011490801EB48
:1053B00004515FEA30000ED350F1000038BF12FAFA
:1053C0000EFE08D1BDE81040C9E7401C38BF5FEAB7
:1053D0004202CAD1C3E7BDE810404FEA410313F5CA
:1053E000001F38BF7047A1F1C04100F067BA9EEAC4
:1053F000445F08D011EA5E0FBDE8104004BF01F021
:10540000004100207047BDE8104070B500F008FA78
:1054100064FBBE3E0000E0FF2DE9C04130B4DFF880
:10542000A4C23CEA111418BF3CEA131400F0ED804A
:105430001CEA111481EA030544EAD57418BF1CEA7A
:10544000131500F0C880A4EB050404F17F7404F583
:1054500000344FF0004545EAC12145EAC32341EA43
:10546000505143EA52534FEAC0204FEAC2229942B8
:1054700008BF904200F09D804FEA13650FF244167A
:10548000765D4FEA134506FB05F7C7F1807706FB0B
:1054900007F74FEAD737A7FB03687642A7FB06CE8C
:1054A000C8F5803838BFA8F1010807FB08E6A6FB5D
:1054B000028C4FF0000EE6FB03CEDCF1000CCEF1C7
:1054C000004E38BFAEF1010EA6FB0C584FF000079E
:1054D000E6FB0E87A1FB08C6A0FB07CE16EB0E0667
:1054E0004FF0000545F10005E1FB076515F1E04EC1
:1054F0007EBFA4F580345FEA46066D4116F1800751
:1055000045F100054FEA172747EA05674FEA1525D9
:105510004FEA0666A6F1DE46B6F1805F20D938462E
:1055200005EBC47124F0010C01EB0C11BCF1FE6F12
:1055300002D8F0BCBDE8008124425CBF01F5801EAA
:105540009EEAC47F02D4F0BCBDE80081244200F191
:105550003980A1F1C041F0BCBDE8004100F0AEB916
:105560004FEAD02040EA41504FEAD1214FEAD222FF
:1055700042EA43524FEAD323A7FB028607FB0366A6
:1055800005FB02661EEA0E0F58BFA6EB0056B6EBEF
:1055900000564FEA520E4EEAC37E18EB0E0E56EB43
:1055A000530EBCD518EB02085E417F1C55F1000577
:1055B000B5E74FF480154FF000074FF000064FF0AD
:1055C0000008ACE701F1C04101F000414FF00000DC
:1055D000F0BCBDE800810CEA131511EA0C1F00D0E5
:1055E0000CE013EA0C1F00F026804FF0000081EA67
:1055F000030101F00041F0BCBDE80081F0BCBDE852
:10560000004181EA030100F059B9F0BCBDE8004156
:1056100070B500F005F900BF097EFC3E00F007B848
:105620004FF0000081EA030101F00041704781EA78
:10563000030100F043B9F0BCBDE8004122494FF03E
:1056400000007047FFFDFBF9F7F5F4F2F0EEEDEB2B
:10565000E9E8E6E4E3E1E0DEDDDBDAD8D7D5D4D370
:10566000D1D0CFCDCCCBCAC8C7C6C5C4C2C1C0BFBC
:10567000BEBDBCBBBAB9B8B7B6B5B4B3B2B1B0AFC2
:10568000AEADACABAAA9A8A8A7A6A5A4A3A3A2A1A6
:10569000A09F9F9E9D9C9C9B9A9999989797969561
:1056A00095949393929191908F8F8E8E8D8C8C8BFD
:1056B0008B8A898988888787868585848483838285
:1056C000828181800000FF070000F87F70B5DFF85D
:1056D00048C11CEA111E1EBF1CEA13159EEA0C0FDE
:1056E00095EA0C0F00F06F8081EA03044EEAD47E45
:1056F000AE4421EA4C1123EA4C1341F4801143F4E7
:105700008013AEF17F7EA1FB024CA0FB036536192E
:1057100055EB0C05A1FB034C4CF10003A0FB021C54
:1057200016EB0C06654153F10003094218BF46F021
:10573000010613F4007F0BD14FEA03314FEA053025
:1057400041EA155140EA165034036FF003020AE0B3
:105750004FEAC3214FEAC52041EA555140EA56506D
:10576000F4026FF0020202EB2E4201EB025585EAD1
:10577000CE710AD05FEA440C18BF24F0004450F107
:10578000000041F1000120EAD47040F2FE7C624545
:1057900000D270BDA84214BF4FF080444FF0404487
:1057A000002E08BF0024BEF1806FA8BFA1F1C04148
:1057B000BDE8704080F2828001F1C04101F00041FB
:1057C0004FF0000070470CEA13159EEA0C0F18BF4B
:1057D00095EA0C0F06D081EA030E4FF000000EF0A0
:1057E000004170BD00F01CF88900013E00F007B8D0
:1057F00000F009B84FEA430C5FEA5C5C08D081EA2C
:10580000030100F05BB84FEA410C5FEA5C5CF6D143
:1058100002494FF0000070470000FF070000F87FCA
:105820000EF1020E2EF0030E5EF8046B364205D424
:10583000012A43EB030515F5001F12D8012841EB9F
:10584000010C1CF5001F0CD80ED14FEAD17C0CEBDB
:105850004C0C0CF1020C15F5001F08BF4CEBD37C6F
:1058600004E04FF0080C01E04FEAD37C0CEB4C0550
:1058700026FA05F606F00706B6F1040C06D20EEB82
:10588000860CBDE870404CF0010C6047DFE80CF07E
:10589000090B02024FF00041A1F500214FF000007A
:1058A00070BD19461046012851EB010418BFD4F50C
:1058B000001484BF002001F0004170BD0808A0F56D
:1058C00000114FEA3101704710B591EA030F81F0E2
:1058D00000413FF501AD83F0004300F009B800003E
:1058E00010B591EA030F48BF83F000433FF5F4ACD5
:1058F000841A71EB030C07D28CF0004C121943EBA5
:105900000C03001B61EB0C014FEA1154A4EB135C78
:10591000DFF8A4E11EEA430F18BF9EEA445F00F0DF
:10592000B48021EA045123EA6E035242C3EB6E03B2
:1059300038BF5B1EDCF1200E25D322FA0CFE10EBE3
:105940000E0043FA0CFE41EB0E01CCF1200E03FADF
:105950000EFE10EB0E00CCF1200E51F1000129D407
:1059600001EB045112FA0EF2BDE8104058BF704727
:10597000401C1CBFB2F1004F704700280CBF491CEF
:1059800020F00100704712EB020E43EB030218BF38
:105990004FF0010E4EEA4202ACF1200CDCF11E0E7B
:1059A00056D943FA0CFE10EB0E00CCF11E0E51F14D
:1059B000FF31D5D50EF1010E12FA0EFE404141EB3A
:1059C000010101EB445C5FEA5C5C10D901EB04511E
:1059D00010EBDE7038BFBEF1004FBDE8104018BFBD
:1059E000704700280CBF491C20F00100704734D2DA
:1059F0004FEAD42C24F4006411F500111BD0B1FA45
:105A000081F20B3AA41AA41ED2F12003914030FA7D
:105A100003F31943904001EBCC7101EB0451002CCE
:105A2000BDE81040A8BF704701F1C04101F000413E
:105A30004FF000007047B0FA80F310FA03F102D182
:105A4000BDE810407047E41A173C4805C90AE2E770
:105A500001EB0451BDE81040704749104FEA300097
:105A600001EB0451BDE8104002E04FF00001704727
:105A70004A0008BF0042F8D0B2F5001F28BF7047A7
:105A800001F000414FF0000070479EEA445F07D0EC
:105A900011EA5E0FBDE8104004BF002100207047EE
:105AA000BDE8104070B5FFF7BBFE00BF40DFF63E1B
:105AB000104683F0004170470000E0FF43004FEACA
:105AC000D30C4FEA3C0C43401FBF40070CF1605120
:105AD00013F0FE4F70471CF0006F03D10CF0004133
