:020000040800F2
:1000000068060020190200082102000823020008E7
:10001000250200082702000829020008000000004D
:100020000000000000000000000000002B0200089B
:100030002D020008000000002F0200083102000815
:1000400033020008330200083302000833020008BC
:1000500033020008330200083302000833020008AC
:10006000330200083302000833020008330200089C
:10007000330200083302000833020008330200088C
:1000800033020008330200083302000800000000B9
:100090000000000000000000000000003302000823
:1000A000330200083302000833020008330200085C
:1000B000330200083302000833020008330200084C
:1000C000330200083302000833020008330200083C
:1000D0003302000833020008330200080000000069
:1000E0003302000833020008330200080000000059
:1000F00000000000000000000000000033020008C3
:100100000000000033020008330200083302000838
:1001100000000000000000000000000000000000DF
:1001200033020008330200083302000833020008DB
:100130003302000800000000000000000000000082
:100140000000000000000000000000003302000872
:1001500033020008330200083302000833020008AB
:100160003302000833020008000000000000000015
:10017000000000000000000000000000000000007F
:100180000000000033020008000000000000000032
:100190003302000800F002F800F02EF80AA090E800
:1001A000000C82448344AAF10107DA4501D100F032
:1001B00023F8AFF2090EBAE80F0013F0010F18BFD1
:1001C000FB1A43F001031847C8040000D8040000DC
:1001D0000023002400250026103A28BF78C1FBD850
:1001E000520728BF30C148BF0B6070471FB500F0F1
:1001F0003DFA1FBD10B510BD00F036F81146FFF7EF
:10020000F5FF00F071F800F054F803B4FFF7F2FFC7
:1002100003BC00F057F80000094880470948004730
:10022000FEE7FEE7FEE7FEE7FEE7FEE7FEE7FEE7A6
:10023000FEE7FEE704480549054A064B7047000003
:10024000D50200089501000868000020680600201B
:100250006802002068020020704770477047000065
:1002600000487047000000207546FFF7F9FFAE46D2
:1002700005006946534620F00700854618B020B5B2
:10028000FFF7D8FFBDE820404FF000064FF0000711
:100290004FF000084FF0000BAC46ACE8C009ACE8EA
:1002A000C009ACE8C009ACE8C00921F007018D46DF
:1002B000704710B50446AFF300802046BDE81040FB
:1002C000FFF7A3BF01491820ABBEFEE726000200DE
:1002D000704700004EF68850CEF20000016841F4ED
:1002E000700101607047000043F63000C4F2020064
:1002F000016843F2000641F00F0101600021C4F2E1
:100300000201D1F80028C4F2010642F00502C1F84A
:10031000002802689FED300B42F0010202600A687B
:1003200040F6140742F42A420A600A6A40F2600B5F
:1003300042F0AA4242F4AA020A62416948F2A16567
:1003400041F4805141613068C4F2020740F0080076
:1003500030603068002440F00300306030684FF0B7
:10036000010940F0040030607068B1EE048A40F08A
:100370000400706030685AEC108B40F4006030600C
:100380003068C2F2000B40F04000C0F2010530605E
:100390003C60F068B0688007FCD5F460B068C007C6
:1003A000FCD0F068B0EE480A4107C7F800900BD4C3
:1003B000C0F3CC0000F045F84246534600F058F830
:1003C00000F00EF800EE100A28468BED000A00BF80
:1003D000013800BFFCD1DBE7000000000000D03F87
:1003E00021F0004201F00043A2F16052B2F5801FFB
:1003F00028BFD2F17F6C0BD95FEA001C43EAC2022E
:1004000042EB507018BF704728BF20F001007047C2
:10041000B2F5801FBCBF184670474FEA410C1CF56F
:10042000001F02D2084600F02EB970B500F0CAF8DD
:1004300000000089FFF7F6BF4FF00040A0F58000F4
:10044000704710F0004248BF4042B0FA80F310FA03
:1004500003F10AD0C3F11D0303F5806302EB0352DD
:100460004FEA415002EBD12170474FF00000704736
:1004700070B5DFF848C11CEA111E1EBF1CEA131537
:100480009EEA0C0F95EA0C0F00F06F8081EA0304DE
:100490004EEAD47EAE4421EA4C1123EA4C1341F4D7
:1004A000801143F48013AEF17F7EA1FB024CA0FBD0
:1004B0000365361955EB0C05A1FB034C4CF1000309
:1004C000A0FB021C16EB0C06654153F10003094228
:1004D00018BF46F0010613F4007F0BD14FEA033139
:1004E0004FEA053041EA155140EA165034036FF0E7
:1004F00003020AE04FEAC3214FEAC52041EA555101
:1005000040EA5650F4026FF0020202EB2E4201EB79
:10051000025585EACE710AD05FEA440C18BF24F078
:10052000004450F1000041F1000120EAD47040F293
:10053000FE7C624500D270BDA84214BF4FF08044DB
:100540004FF04044002E08BF0024BEF1806FA8BFCA
:10055000A1F1C041BDE8704080F2828001F1C0414C
:1005600001F000414FF0000070470CEA13159EEABD
:100570000C0F18BF95EA0C0F06D081EA030E4FF05E
:1005800000000EF0004170BD00F01CF88900013E33
:1005900000F007B800F009B84FEA430C5FEA5C5C72
:1005A00008D081EA030100F05BB84FEA410C5FEA32
:1005B0005C5CF6D102494FF0000070470000FF0775
:1005C0000000F87F0EF1020E2EF0030E5EF8046BB1
:1005D000364205D4012A43EB030515F5001F12D856
:1005E000012841EB010C1CF5001F0CD80ED14FEA7D
:1005F000D17C0CEB4C0C0CF1020C15F5001F08BF64
:100600004CEBD37C04E04FF0080C01E04FEAD37CC4
:100610000CEB4C0526FA05F606F00706B6F1040CBD
:1006200006D20EEB860CBDE870404CF0010C604722
:10063000DFE80CF0090B02024FF00041A1F50021A8
:100640004FF0000070BD19461046012851EB01041F
:1006500018BFD4F5001484BF002001F0004170BD24
:100660000808A0F500114FEA31017047F1EE100AB9
:100670004FF6FF71C0F2C03120EA010040F0407037
:10068000E1EE100A7047FF2141EAD050C0057047E3
:10069000A00600080000002068060000D001000845
:0400000508000219D4
:00000001FF
