:020000040800F2
:10000000980A0020E1020008E9020008EB0200085B
:10001000ED020008EF020008F102000800000000F5
:10002000000000000000000000000000F3020008D3
:10003000F502000800000000F7020008F9020008BD
:10004000FB020008FB020008FB020008FB0200089C
:10005000FB020008FB020008FB020008FB0200088C
:10006000FB020008FB02000835150008FB0200082F
:10007000FB020008FB020008FB020008FB0200086C
:10008000FB020008FB020008FB0200080000000061
:10009000000000000000000000000000FB0200085B
:1000A000FB020008FB020008FB020008FB0200083C
:1000B000AD1F0008FB020008FB020008FB0200085D
:1000C000FB020008FB020008FB020008FB0200081C
:1000D000FB020008FB020008FB0200080000000011
:1000E000FB020008FB020008FB0200080000000001
:1000F000000000000000000000000000FB020008FB
:1001000000000000FB020008FB020008FB020008E0
:1001100000000000000000000000000000000000DF
:10012000FB020008FB020008FB020008FB020008BB
:10013000FB020008000000000000000000000000BA
:10014000000000000000000000000000FB020008AA
:10015000FB020008FB020008FB020008FB0200088B
:10016000FB020008FB020008000000000000000085
:10017000000000000000000000000000000000007F
:1001800000000000FB02000800000000000000006A
:10019000FB02000800F002F800F092F80AA090E8D4
:1001A000000C82448344AAF10107DA4501D100F032
:1001B00087F8AFF2090EBAE80F0013F0010F18BF6D
:1001C000FB1A43F001031847783000009830000014
:1001D000103A24BF78C878C1FAD8520724BF30C873
:1001E00030C144BF04680C60704700000023002445
:1001F00000250026103A28BF78C1FBD8520728BF37
:1002000030C148BF0B6070476E2900F0958170299E
:1002100000F0D782662902F0D083652902F0CD83F1
:10022000672902F0CA83612902F0C98303681B0AA7
:1002300028BF41F08001692900F04281642900F063
:100240003F81752900F03C816F2900F06582782993
:1002500000F0A382E92900F0FF81E42900F0FC818D
:10026000F52900F0F981EF2900F06282F82900F009
:10027000A2820368DB0928BF41F08001632900F0F6
:10028000A387732900F0A887E32900F0B387F32937
:1002900000F0B887002070471FB502F081FB01F025
:1002A0000BF804000020002102F064FB401C606099
:1002B0000020002102F048FBE0601FBD10B510BD1A
:1002C00000F0CCFF1146FFF7E7FF01F011FF01F04E
:1002D000A9F803B4FFF7F2FF03BC01F0EBF800004C
:1002E0000948804709480047FEE7FEE7FEE7FEE7CA
:1002F000FEE7FEE7FEE7FEE7FEE7FEE70448054906
:10030000054A064B70470000991F00089501000838
:1003100098040020980A00209806002098060020E3
:100320000FB41CB5084B06AA7B446946009005989B
:1003300000F01BF904460020694600F029F9204628
:100340001CBC5DF814FB000065020000002800DA08
:100350004042704702F0FF0343EA032242EA0242AE
:1003600000F002B84FF000020429C0F0128010F033
:10037000030C00F01B80CCF1040CBCF1020F18BF81
:1003800000F8012BA8BF20F8022BA1EB0C0100F014
:100390000DB85FEAC17C24BF00F8012B00F8012BE7
:1003A00048BF00F8012B70474FF0000200B513461C
:1003B00094469646203922BFA0E80C50A0E80C5085
:1003C000B1F12001BFF4F7AF090728BFA0E80C5036
:1003D00048BF0CC05DF804EB890028BF40F8042B2F
:1003E00008BF704748BF20F8022B11F0804F18BF9C
:1003F00000F8012B704770477047704770B504468E
:1004000085690068C10601D5302600E02026C007B6
:1004100007D070BDD4E9012130469047206A401CC6
:1004200020626D1EF6D570BD70B5044685690078F2
:10043000C00707D170BDD4E9012120209047206A70
:10044000401C20626D1EF6D570BD09684A0501D5B5
:1004500040B27047C905FCD500B2704709684A052B
:1004600001D5C0B27047C905FCD580B2704770B5E0
:100470000C460546012A05D02878800600D5EA6991
:10048000002302E0012305E05B1C934202D2E05C02
:100490000028F9D1A869E618C01AA861286A18448A
:1004A00028622846FFF7AAFF04E0D5E9012114F8E5
:1004B000010B9047B442F8D32846FFF7B5FF70BD53
:1004C0002DE9F0410646002410687529314616A52D
:1004D00010D0FFF7BAFF002802DA404213A507E068
:1004E00031688A0701D512A502E0490704D511A594
:1004F000012401E0FFF7B2FF00210A2206F12407E0
:1005000009E0B0FBF2FCB0FBF2F302FB1C00303060
:1005100078541846491C0028F3D123462A46304611
:10052000BDE8F04100F061BA000000002D000000BD
:100530002B0000002000000011680268006A5305CB
:1005400001D508700AE0D30501D5088006E013063E
:1005500003D5C217C1E9000200E00860012070471E
:1005600001694A1C02610878704700B58FB0CDE977
:1005700001310021059105497944CDE90310114667
:10058000684600F029F90FB000BD0000E5FFFFFF4D
:100590000A6802F8010B0A60704700002DE9FF5F4E
:1005A00015468A460446DFF8AC80F8440027D8E9AF
:1005B00000103E46CDE9001010E03AF816106A46E9
:1005C00002A800F023FE411C07D02178890603D53C
:1005D000E269391891420DD80744761C20788006CC
:1005E00002D5E069B84205DDAE42E6DB3AF8160016
:1005F0000028E2D1A069C01BA0612046FFF7FEFEE3
:10060000D8E90010CDE90010002017E03AF81810E2
:100610006A4602A800F0FAFDB0F1FF3F81460BD018
:1006200000250DF1080B05E0D4E901211BF80500B8
:1006300090476D1C4D45F7D308F10100B04280464C
:10064000E4DB206A384420622046FFF7EDFEBDE877
:10065000FF9F0000162400002DE9F0418046D21DC6
:1006600022F007020025D2E90002F52915A614D0D0
:10067000011E72F1000106DA0023D0EB030063EBE8
:10068000020211A608E0D8F800108B0701D50FA6CA
:1006900002E0490701D50EA601251146002408F104
:1006A000240704E000F05CF930323A55641C50EA4B
:1006B0000102F7D12B46324621464046BDE8F041C3
:1006C00000F093B9000000002D0000002B00000096
:1006D0002000000030B4002100F1240408E002F002
:1006E0000705D208303542EA4372DB086554491CDD
:1006F00052EA0305F3D10468002310A2250708D5A8
:1007000004F020040C4304D0C46901230CA2641E2D
:10071000C46130BC00F069B910B5044621461068C8
:10072000FFF79CFE02462046BDE810400023D1E7BB
:10073000D21D22F00701D1E90023CBE70000000021
:1007400030000000F0B40D460188090502D5214CA7
:100750007C4402E01F4C7C440E34002100F124064E
:1007600008E002F00F071209E75D42EA03721B0975
:100770007754491C52EA0307F3D102780023120789
:1007800004D5702D06D009B1022311342246F0BCE5
:1007900000F02BB901231034F8E770B504460D467C
:1007A00021461068FFF75AFE024629462046BDE85A
:1007B00070400023C6E7D21D22F00703D3E90023CF
:1007C000C0E70368126843F0200303600823C36195
:1007D0000023B7E7782200002DE9F05F8946044640
:1007E0004FF0000ADFF874B1FB44C0F820A02046A7
:1007F000E1688847002874D0252806D0D4E9012173
:100800009047206A401C2062F1E700265F462046A0
:10081000E16888472028054607DB312D05D2781985
:1008200010F8200C08B10643F1E7B00701D526F017
:100830000406C4F81CA00027C4F818A02A2D09D06B
:10084000284602F079F838B304EB8708303DC8F841
:10085000185019E059F8041B204604EB87029161F7
:10086000E1688847012F054618D1E069002820DAA1
:1008700026F020061DE0D8F8180000EB800005EBFC
:1008800040003038C8F818002046E168884705461F
:1008900002F052F80028EED1012F0AD02E2D08D1F7
:1008A0002046E16888477F1C0546022F46F0200657
:1008B000C4DBA069002803DA404246F00106A061CB
:1008C000F00701D026F010066C2D0BD0682D09D052
:1008D0004C2D39D06A2D35D0742D35D07A2D33D0AA
:1008E00016E038E0E1682F4620468847B8420546C2
:1008F00009D16C2F26D04FF48060E1680643204672
:100900008847054604E06C2F1AD04FF480700643E8
:100910000DB3A5F14100192802D8203546F4006630
:100920004A462946204626604E46FFF76DFC80B1B8
:1009300001280BD0F61D26F0070000F1080956E744
:100940004020E4E78020D8E70020D6E706F104093C
:100950004DE7284652E7206ABDE8F09F08220000D4
:1009600030B5B0F10A0271F100034FEA900E4EEA81
:10097000817EB0EB0E0061EB91014FEA101E4EEA52
:10098000017E10EB0E0041EB11114FEA102E4EEAE2
:10099000016E10EB0E0041EB11214FEA104E4EEAB2
:1009A000014E10EB0E0041EB1141401841F10001E6
:1009B0004FEAD00040EA41704FEAD1014FEA81048A
:1009C00044EA907410EB800544EB01046D1944EB8C
:1009D0000404521BA3414FF0000348BF0A3200D564
:1009E00030BD401C41F1000130BD2DE9F0470D46FE
:1009F00099469246044600F124080168880604D509
:100A0000E06921F01001216000E00120A84201DD31
:100A1000471B00E00027A1697A1902EB0900081AB8
:100A2000A0612078C00602D42046FFF7E7FC00262C
:100A300008E0D4E901211AF806009047206A401C1A
:100A4000761C20624E45F4DB2078C0060AD520468D
:100A5000FFF7D4FC06E0D4E9012130209047206A5A
:100A6000401C2062381EA7F10107F4DC07E0D4E93E
:100A7000012118F805009047206A401C2062281EBA
:100A8000A5F10105F3DC2046FFF7CEFC2078000637
:100A900002D50220BDE8F0870120FBE72DE9FF4FDA
:100AA0000C461E464FF0FF378BB0D2E90001DDF84F
:100AB00060800A908A46C1F30A5505B93D46002177
:100AC00008464FF00000BAF1000F00F4400005DACC
:100AD00000EB80004FF4400101EA50004FEA9059CA
:100AE000B9F1010F00DDB9460A9850EA4A000ED06C
:100AF00044F61050A5F2FF3545432F14B8F1000F0E
:100B00001ED07542291E1EDDC9F100021CE0B8F19D
:100B1000010F4FF0000001D0302103E0F24305E067
:100B20002154401CB042FBDB3046002200212154FE
:100B30000B99C1F80880C1E900200FB0BDE8F08F23
:100B4000BD1B6D1CDEE74A4600DA694206A800F0CC
:100B5000F7FB06AB93E8070003AB83E807005046BA
:100B60000A9901F009FB8DE80700A0F500501F3835
:100B700000900398002D0ADD42F21F014A46084406
:100B8000002303A90390684601F072FD09E0A0F577
:100B900000504A461F38002303A90390684601F01D
:100BA0007CFD8DE807000004000C03D04FF0FF30FF
:100BB000410800E01046B8F1000F03D00022009277
:100BC00015461EE0751E05D4FFF7CAFE3032625589
:100BD0006D1EF9D5B3460122084302D000227F1CC6
:100BE00004E02078302801D100227F1E002A0997D6
:100BF00084D01DE0112D07DAFFF7B2FE30326255C6
:100C00006D1C50EA0102F5D1084302D00098C8B12A
:100C10000EE00021681E05E0235C625C63542254F0
:100C2000401E491C8142F7DBAB46A81B401E0990C1
:100C3000002004F80B000B98099AC0F80880C0E95E
:100C4000002B7AE711264FF0000857E72DE9F04F07
:100C500088460446D21D22F0070191B0D1E9000177
:100C6000CDE90A0101F050FE02460B98C00F01D0F9
:100C70002D2007E02068810701D52B2002E02021EC
:100C800001EAC000032A099001D0072A05DB0346C8
:100C90004146204600F014FB0BE12078800601D588
:100CA000E06900E00620B8F1650F814606D0B8F192
:100CB000660F18D0B8F1670F70D131E00020B9F19C
:100CC000110F009001DB112301E009F101030AAAD1
:100CD00001A90CA8FFF7E2FEDDE90C70002609F17E
:100CE0000105834647E001204B4600904FF0004746
:100CF0000AAA01A90CA8FFF7D1FEDDE90DB00C99F5
:100D00005D46002610B909F101000D18B9EB050088
:100D100003D4C0F1FF3609F10105A5EB09002BE072
:100D2000B9F1010F01DA4FF001090020B9F1110FFB
:100D30000090484601DD112300E003460AAA01A9FC
:100D40000CA8FFF7ABFEDDE90C704D46002683468C
:100D5000207800070AD4AB4500DA5D4601A8012DD2
:100D600004DD411911F8011C302907D04F4502DA82
:100D700017F1040F04DA012082460FE06D1EEEE742
:100D8000002F02DCED1B3E4403E0781CA84200DD8E
:100D90007D1CB81B00F1010A4FF0004720780007C6
:100DA00003D4AA4501DB4FF0FF3A0021B7F1004F11
:100DB0000DF143088DF8431024D002202B23002F7F
:100DC00001DA7F422D230A21021EA0F1010000DC7E
:100DD0005FB197FBF1FC97FBF1F201FB1C7C17461E
:100DE0000CF1300C08F801CDEEE7A8F1010003701A
:100DF0002188090501D5452100E06521A0F1010800
:100E000000F8011C09980FA9A1EB0807FF1D00B10C
:100E10000120411901EBEA70A1693844081A401E0B
:100E2000A0612078C00602D42046FFF7E7FA0998AF
:100E300028B1D4E901219047206A401C2062207823
:100E4000C00622D52046FFF7D9FA1EE0002E04DBAB
:100E5000B34502DD01A8805D00E03020D4E9012126
:100E60009047206A401C2062761CAAF101005FEACC
:100E7000000A0AD100F020FAC0680168405CD4E999
:100E800001219047206A401C2062281EA5F101051F
:100E9000DCDC07E0D4E9012118F8010B9047206A57
:100EA000401C2062381EA7F10107F3DC2046FFF743
:100EB000BBFA032011B041E62DE9F04F04460D4680
:100EC000D21D22F0070089B0D0E900974846394684
:100ED00001F01AFD0246F80F01D02D2307E020682B
:100EE000810701D52B2302E0202101EAC0038DF800
:100EF00020300BB1012000E00020032A824601D0FF
:100F0000072A04DB2946204600F0DAF93FE1207881
:100F1000800601D40D2500E0E569C7F30A560D2DC2
:100F200049DA00214FEA175B08464FF00000002F16
:100F300000F4400007DA00EB80004FF4400100EBC2
:100F4000D07001EA60008115012901DD4FF0FF3109
:100F500000224FEA850CBCF1180F06D31346ACF102
:100F600018004FF08052C24003E04FF4801323FA80
:100F70000CF30CF10C0CBCF1200F04D3ACF1200CE1
:100F800009FA0CF001E007FA0CF000294FF00048D4
:100F900001DD18B90FE00ED140450CD319EB020961
:100FA0005F4121B9404502D19F4329EA0209BBEBC9
:100FB000175F00D0761C2088000502D57B48784456
:100FC00002E07A487844193808AA302302F80A3037
:100FD000037C0AF10101002E0AF1020A53546A4609
:100FE00002DC4FF0300101E04FF031014FF0010819
:100FF0008DF8001002D0A6F2FF3603E059EA47014F
:1010000000D06B4E002D02DC2178090704D54FF08B
:1010100002082E218DF80110C44600210BE0C7F311
:1010200003433F01C35C491C6D1E02F808300529CB
:1010300008F1010801DA002DF1DC00210CE000EBE1
:101040001973491C1B786D1E082902F808304FEAF5
:10105000091908F1010801DA002DF0DC21688B067E
:1010600002D516E0A8F10108E04505DD02EB080312
:1010700013F8013C302BF5D0B8F1000F09DD02EB7D
:10108000080313F8013C2E2B03D1090701D4A8F162
:101090000108002D05DD3E2102F808106D1E08F143
:1010A0000108407C002E02F8080008F1010804DA6B
:1010B0002D20764202F8080002E02B2002F80800FA
:1010C0000A214FF47A70864208F101080BDB96FB87
:1010D000F0F3303302F8083096FBF0F308F1010822
:1010E00000FB136601E0642E0CDB642096FBF0F33A
:1010F000303302F8083096FBF0F308F1010800FBEA
:10110000136601E00A2E06DB96FBF1F0303002F8A0
:10111000080008F1010896FBF1F001FB1060303087
:1011200002F80800A16908F1010808EB050202EBCA
:101130000A00081AA0612078C00602D42046FFF7F2
:101140005DF9216A08AE01EB0A00206204E0D4E9EF
:10115000012116F8010B9047BAF1010AF7D2207865
:10116000C00602D52046FFF749F96E4609E016F899
:10117000010B3E280FD0D4E901219047206A401C82
:101180002062B8F10108F2D22046FFF74DF909B00C
:101190000320BDE8F08F206A2844206203E0D4E9F0
:1011A0000121302090476D1EEBD3F8E7561A00005E
:1011B00002FCFFFF10B5436913B1AFF3008001E0FB
:1011C000FFF755F9012010BD127800F124010A70D3
:1011D00000224A700122EDE711684FF0FF32E9E783
:1011E00010B5436913B1AFF3008001E0FFF7D6F902
:1011F000012010BD128800F1240182840022C284E3
:101200000122EDE711684FF0FF32E9E72DE9F041E7
:1012100016460C46054600F047F8036893F80101AE
:10122000012807D0FF2C12D8185D80B101202C7046
:10123000BDE8F081D3F807013246214603F20713D7
:10124000C7182846BC46BDE8F041002360474FF070
:10125000FF30EDE700487047280000207546FFF793
:10126000F9FFAE4605006946534620F00700854663
:1012700018B020B5FFF742F8BDE820404FF0000657
:101280004FF000074FF000084FF0000BAC46ACE801
:10129000C009ACE8C009ACE8C009ACE8C00921F05D
:1012A00007018D467047000010B500F005F8001DDD
:1012B00010BD00BFC1160000004870474800002064
:1012C0002DE9F0411F46044603260168072A01F470
:1012D000006004DB08B116A505E016A503E008B11F
:1012E00015A500E015A521F010002060A069C01E22
:1012F000A0610FB1401EA0612046FFF77FF84FB1FB
:10130000D4E9012138469047206A401C2062C01C65
:10131000206206E0206AFAE7D4E9012115F8010B02
:101320009047761EF8D22046FFF77EF8BDE8F081A0
:101330004E414E006E616E00494E4600696E660079
:101340002DE9F047814616468AB0354878440DC8E5
:101350008DE80D0032487844801C03AC0DC884E849
:101360000D0041F69B300844372190FBF1F290FBD1
:10137000F1F5A5F1800501FB12041B3C02D5644286
:10138000012000E00020DFF898A080460027FA4402
:10139000AAF1BE0A0EE0E0070AD03246684607EB23
:1013A000470101230AEB810101F077F98DE807007D
:1013B00064107F1C002CEED1194F7F44AE3F19E022
:1013C000E80715D007EB04100DF1180A90E80E009D
:1013D0008AE80E00C068F04201D1981908903246A0
:1013E000012306A903A801F058F903AB83E807001D
:1013F0006D10641C002DE3D14FF0010332466946A5
:10140000B8F1000F03A802D001F032F901E001F0B9
:1014100044F9C9E90001C9F808200AB0BDE8F0871D
:101420005817000010B50446AFF300802046BDE811
:101430001040FEF74EBF000030B44FF0013C50F8B2
:10144000042B51F8043BCCFA52F4D51A20D1FCB944
:1014500050F8042B51F8043BCCFA52F4D51A17D1AA
:10146000B4B950F8042B51F8043BCCFA52F4D51A15
:101470000ED16CB950F8042B51F8043BCCFA52F45D
:10148000D51A05D1002CDAD030BC4FF000007047DF
:1014900029BAB1FA81F111F01801D1F1200084408C
:1014A000F2D1CA40CB4012F0FF0213F0FF0330BC70
:1014B000D01A704701491820ABBEFEE72600020093
:1014C0007047000080B543F64001C4F2020108688D
:1014D00040F0010008604FF08041012008600C21BD
:1014E000C4F2000108602C21C4F200014FF4A07086
:1014F00008602821C4F200014CF2503008601C2022
:1015000000F0AAFD80BD000082B001900020009094
:10151000FFE7009801994FF42F725143884206DA91
:10152000FFE700BFFFE7009801300090F1E702B04D
:101530007047000043F61441C4F2010108684FF6F9
:10154000FF721043086040F29041C2F20001086847
:10155000013008607047000085B08DF813008DF8E9
:10156000121003928DF80B30FFE745F21840C4F2D9
:10157000000000688007002801D5FFE7F5E745F285
:101580000041C4F20001086840F480700860FFE781
:1015900045F21440C4F200000068C00708B9FFE734
:1015A000F6E79DF81300400045F21041C4F2000137
:1015B0000860FFE745F21440C4F2000000688007AD
:1015C000002801D4FFE7F5E745F21840C4F2000017
:1015D00000680190FFE745F21440C4F20000006883
:1015E0000006002801D4FFE7F5E79DF8120045F258
:1015F0001041C4F200010860FFE745F21440C4F254
:10160000000000680006002801D4FFE7F5E700208D
:101610008DF80300FFE79DF803009DF80B1088424A
:101620001BDAFFE703989DF80310405C45F2104178
:10163000C4F200010860FFE745F21440C4F2000064
:1016400000684007002801D4FFE7F5E7FFE79DF8B1
:10165000030001308DF80300DDE745F20041C4F2DC
:101660000001086840F40070086005B07047000091
:1016700043F63001C4F20201086840F0020008603D
:1016800043F64001C4F20201086840F4001008600B
:1016900040F20041C4F20201086840F420200860D2
:1016A00040F22441C4F20201086840F0440008609E
:1016B00040F20441C4F20201086840F4407008603E
:1016C00045F20041C4F200014FF400400860086890
:1016D00020F40040086045F20442C4F200021068A1
:1016E00040F02A00106045F21C42C4F2000210686B
:1016F0004CF202031843106045F22042C4F200028B
:1017000014201060086840F0010008607047000075
:1017100082B08DF807008DF806108DF80520FFE7E0
:1017200045F21840C4F2000000688007002801D587
:10173000FFE7F5E745F20041C4F20001086840F414
:1017400080700860FFE745F21440C4F200000068B2
:10175000C00708B9FFE7F6E79DF80700400045F22B
:101760001041C4F200010860FFE745F21440C4F2E2
:10177000000000688007002801D4FFE7F5E745F284
:101780001840C4F2000000680090FFE745F21440E2
:10179000C4F2000000680006002801D4FFE7F5E766
:1017A0009DF8060045F21041C4F200010860FFE711
:1017B00045F21440C4F2000000680006002801D47D
:1017C000FFE7F5E79DF8050045F21041C4F200017E
:1017D0000860FFE745F21440C4F2000000684007CB
:1017E000002801D4FFE7F5E745F20041C4F200010B
:1017F000086840F40070086002B0704780B543F696
:101800003001C4F20201086840F00F000860FFF7E1
:101810002FFF00F0A3F900F027FB80BD80B543F651
:101820004401C4F20201086840F4804008600C21C1
:10183000C4F20201086840F40070086043F60841F1
:10184000C4F201011020086043F60041C4F2010116
:10185000086043F60C01C4F20101002008600A2070
:1018600000F0FAFB80BD000080B586B000F04AF8B9
:1018700069460120059008607B22029205230193AE
:101880001846194600F046F8019A0598694608601E
:101890003C2303931046114600F03CF80198029A4D
:1018A000039B0599EC46CCF80010194600F032F87D
:1018B0000199029A039B0598EC46CCF8000010466B
:1018C00000F028F819200A2100F008F9059A40F2E2
:1018D0000800C2F2000040F20001C2F200010491CF
:1018E00000F062FA0F20232100F0F8F80499059A1D
:1018F00040F21800C2F2000000F056FA00F07EFA42
:1019000006B080BD80B5002000F0D4F800F076FA73
:1019100080BD000080B58AB084460C98ADF826C022
:10192000ADF82410ADF82220ADF820308DF81F005E
:10193000BDF82200BDF82610401AFEF707FD0690FC
:10194000BDF82000BDF82410401AFEF7FFFC0590FA
:10195000BDF82610BDF822204FF0FF30914201461D
:10196000B8BF01210491BDF82410BDF82020914298
:10197000B8BF0120039006980599401A0290FFE72E
:10198000BDF82610BDF8222001209142009009D117
:10199000FFE7BDF82400BDF82010401A18BF012051
:1019A0000090FFE70098C00768B3FFE7BDF8260086
:1019B000BDF824109DF81F2000F028F80298400080
:1019C000019001980599494288420BDDFFE705998E
:1019D0000298401A02900499BDF826000844ADF818
:1019E0002600FFE70198069988420BDAFFE706997F
:1019F0000298084402900399BDF824000844ADF809
:101A00002400FFE7BCE70AB080BD000082B0ADF85B
:101A10000600ADF804108DF80320BDF806007F28FD
:101A200005DCFFE7BDF80400402801DBFFE73FE0ED
:101A300040F28800C2F20000007940B1FFE79DF853
:101A40000300B0FA80F040098DF80300FFE79DF82D
:101A50000300012816D1FFE7BDF8042002F00701BA
:101A6000012000FA01F3BDF806006FF0700101EAF1
:101A70000211421840F28E01C2F20001885C184344
:101A8000885415E0BDF8042002F00701012000FA97
:101A900001F3BDF806006FF0700101EA021142186F
:101AA00040F28E01C2F20001885C98438854FFE73F
:101AB00002B0704780B582B08DF807009DF807200E
:101AC000002A18BFFF2240F28E00C2F200004FF43D
:101AD0008061FEF73FFC02B080BD000081B0ADF830
:101AE0000200ADF80010BDF8020040F28801C2F219
:101AF00000010880BDF80000488001B07047000078
:101B000080B5C4B08DF80F018DF80E114292ADF87A
:101B1000063100208DF80500FFE79DF80500BDF8AF
:101B2000061188420EDAFFE742989DF80520805C96
:101B30000DF106018854FFE79DF8050001308DF88E
:101B40000500EAE79DF80F019DF80E11429A9DF8F5
:101B50000631FFF701FD44B080BD000080B584B0C0
:101B60003C20029000210391AE22FFF7D1FD0298A4
:101B7000039920220192FFF7CBFD029803991022CE
:101B80000092FFF7C5FD02980399B022FFF7C0FD50
:101B900002980399C822FFF7BBFD0298039A1146E9
:101BA000FFF7B6FD009A02980399FFF7B1FD02987E
:101BB00003994022FFF7ACFD029803998122FFF7B9
:101BC000A7FD02980399FF22FFF7A2FD029803994F
:101BD000A122FFF79DFD02980399A622FFF798FD29
:101BE00002980399A822FFF793FD029803993F22D8
:101BF000FFF78EFD02980399A422FFF789FD029852
:101C00000399D322FFF784FD0298039A1146FFF748
:101C10007FFD02980399D522FFF77AFD0298039978
:101C2000F022FFF775FD02980399D922FFF770FDA6
:101C3000029803992222FFF76BFD02980399DA229A
:101C4000FFF766FD029803991222FFF761FD0298E3
:101C50000399DB22FFF75CFD019A02980399FFF7D5
:101C600057FD029803998D22FFF752FD02980399C0
:101C70001422FFF74DFD02980399AF22FFF748FDAC
:101C8000029803992E22FFF743FD0398FFF712FFF6
:101C900000F0B4F804B080BD80B586B08DF81600B1
:101CA00004918DF80F2040F28800C2F200000088F5
:101CB0000499097808447F280BDCFFE740F288008C
:101CC000C2F200004088049949780844402804DBA7
:101CD000FFE700208DF8170061E000200290FFE789
:101CE00002980499497888424BD2FFE7049A5068D9
:101CF0009DF8161020395278029B11FB023130F802
:101D00001100019000200090FFE7009804990978E5
:101D1000884231D2FFE701980099884000040028EA
:101D200011D5FFE740F28801C2F200010888009A4D
:101D300010444988029A11449DF80F2080B289B25C
:101D4000FFF764FE13E040F28801C2F20001088848
:101D5000009A10444988029A11449DF80F20B2FA63
:101D600082F2520980B289B2FFF750FEFFE7FFE727
:101D7000009801300090C8E7FFE702980130029018
:101D8000AEE70498027840F28801C2F200010888A8
:101D9000104408809DF816008DF81700FFE79DF8A5
:101DA000170006B080BD000080B584B0029001919C
:101DB0008DF80320FFE702980078A8B1FFE70298AA
:101DC000007801999DF80320FFF766FF02990978D2
:101DD000884205D0FFE7029800788DF80F0008E0F0
:101DE000029801300290E6E7029800788DF80F0023
:101DF000FFE79DF80F0004B080BD000080B584B0FF
:101E000000208DF80F00FFE79DF80F00072828DC61
:101E1000FFE79DF80F00B030C2B23C2002900021D5
:101E20000191FFF775FC019A02981146FFF770FCCB
:101E3000019902981022FFF76BFC02989DF80F2081
:101E400040F28E01C2F2000101EBC2124021802358
:101E5000FFF756FEFFE79DF80F0001308DF80F00E9
:101E6000D2E704B080BD000086B000210591049146
:101E7000022003900291019043F60800C4F2020090
:101E8000006800F00C0005900598009040B1FFE755
:101E9000009804280ED0FFE70098082814D059E0D5
:101EA00040F21401C2F2000142F20040C0F2F4001C
:101EB000086059E040F21401C2F2000147F6400008
:101EC000C0F27D1008604FE043F60400C4F2020047
:101ED0000168C1F380510291006800F03F00019059
:101EE000029888B1FFE7019947F64000C0F27D10E3
:101EF000B0FBF1F043F60401C4F202010968C1F33A
:101F000088114843049010E0019942F20040C0F269
:101F1000F400B0FBF1F043F60401C4F202010968D9
:101F2000C1F3881148430490FFE743F60400C4F26C
:101F30000200006800F44031022000EBD130039031
:101F400004980399B0FBF1F040F21401C2F20001D1
:101F5000086009E040F21401C2F2000142F20040C0
:101F6000C0F2F4000860FFE743F60800C4F2020084
:101F70000068C0B2010942F6C020C0F60000405C13
:101F80000590059A40F21401C2F200010868D040A1
:101F9000086006B0704700004EF68851CEF200018E
:101FA000086840F4700008607047000080B584B095
:101FB0001021C4F200016FF00100086040F6140126
:101FC000C4F20201086880F0010008600020ADF84A
:101FD0000C00029043F23000C0F2300001903C202F
:101FE0002321FFF77BFD40F29040C2F200000090F9
:101FF0000068C0EB0010820043F23C21C0F60001F3
:1020000001A8FEF78DF90098006840F29441C2F2F1
:102010000001086000F090F80098006848B9FFE7F8
:1020200043F23C21C0F6000101A80022FEF778F936
:10203000FFE740F20001C2F2000101A80122FFF710
:10204000B3FEFFF7DBFE40F29041C2F20001002038
:10205000086004B080BD000081B08DF803009DF9D8
:10206000030000280ED4FFE79DF9031001F01F02C2
:10207000012090404A094EF20011CEF2000141F8D1
:102080002200FFE701B0704781B08DF803009DF991
:10209000030000280ED4FFE79DF9031001F01F0292
:1020A000012090404A094EF20011CEF2000141F8A1
:1020B0002200FFE701B0704780B543F64001C4F24B
:1020C0000201086840F40030086044F20841C4F29C
:1020D000000140F28360086044F20C41C4F2000148
:1020E00042F22C1008602620FFF7CEFF80BD0000D2
:1020F00080B582B000200190FFF780FBFFF7DCFF86
:102100000021C4F20201086840F0A000086020210C
:10211000C4F20201086840F4EE400860FFF7A4FB37
:10212000FFF77CFB40F60001C4F2020105200860C5
:10213000FFF7C8F9FFE7FEE780B584B044F2044139
:10214000C4F2000101912320029008601E20039038
:10215000FFF7DAF9019A039840F29441C2F20001C4
:1021600009681160FFF7D0F9019A0299039811608C
:10217000FFF7CAF904B080BD5FEA400C08BF91F0D8
:10218000000F4FEA8C234FEAC12243EA51514FEA34
:102190001C5018BF00F5F0404FEA300018BF41F066
:1021A00000415FEA6C5C00F02980BCF1FF3F08BF92
:1021B00040F080407047130C06BF12044FF0100C23
:1021C0004FF0000C130E04BF12020CF1080C130F99
:1021D00004BF12010CF1040C930F04BF92000CF128
:1021E000020CD30F04BF52000CF1010C11464FF04A
:1021F0000002A0F11F00A0EB0C00704711F0004F8F
:1022000008BF704731F000413FF4D5AF0B0C06BF5B
:1022100009044FF0100C4FF0000C0B0E04BF090224
:102220000CF1080C0B0F04BF09010CF1040C8B0F0F
:1022300004BF89000CF1020CCB0F04BF49000CF164
:10224000010CCCF1200322FA03F341EA030102FA64
:102250000CF2A0EB0C0000F10100704723F07F4767
:1022600020F07F4C80EA030000F00040ACEB070355
:1022700003F57C5303F1FF032DE9804909B44FEACC
:10228000144324EA03484FEA154B25EA0B4E0FF29C
:10229000042606EB13273E7803FB0667C7F5000705
:1022A00007FB06F64FEAD64606F102064FEA543718
:1022B00007FB066CCCF1005C4FEA1C472CEA074C8C
:1022C0000CFB06F507FB06F404EB15464FEA9616E1
:1022D00049085FEA320234BF00204FF000404FEA65
:1022E000D13706FB07FC4FEA1C4C0CFB0BF7D21B4B
:1022F00003FB0CF761EB07010CFB0EF7B0EB07409B
:1023000072EB17420CFB08F734BFA2EB0742B2EBAB
:10231000074261EB17414FEA0C444FEA910706FB75
:1023200007FC4FEA1C4C0CFB0BF7B0EBC74072EB01
:10233000573203FB0CF734BFA2EBC742B2EBC742E4
:1023400061EB57310CFB0EF7B0EBC70072EB577225
:102350000CFB08F734BFA2EBC702B2EBC70261EB7C
:1023600057714FEA816141EA92114FEA826242EA73
:1023700090124FEA806004EBCC04039F4FEAD13700
:1023800006FB07FC4FEA1C4C0CFB0BF7D21B03FBB4
:102390000CF761EB07010CFB0EF7B0EB074072EB9B
:1023A00017420CFB08F734BFA2EB0742B2EB07421F
:1023B00061EB17414FEA8C5504EB9C244FEA9107DF
:1023C00006FB07FC4FEA1C4C0CFB0BF7B0EBC740BD
:1023D00072EB573203FB0CF734BFA2EBC742B2EBF0
:1023E000C74261EB57310CFB0EF7B0EBC70072EB45
:1023F00057720CFB08F734BFA2EBC702B2EBC7025F
:1024000061EB57714FEA816141EA92114FEA8262B2
:1024100042EA90124FEA806015EB4C2544F100042B
:102420004FEAD13706FB07FC4FEA1C4C0CFB0BF7BD
:10243000D21B03FB0CF761EB07010CFB0EF7B0EBB3
:10244000074072EB17420CFB08F734BFA2EB0742C0
:10245000B2EB074261EB17414FEA813141EA924109
:102460004FEA823242EA90424FEA80304FEA0C76DD
:1024700015EB1C1544F1000448EA03434EEA0B48EF
:102480004FF0000EB2EB080C71EB030724BF62465D
:1024900039464EEB0E0E4FF0000B001852414941E9
:1024A0004BEB0B0BB2EB080C71EB03077BF1000B52
:1024B00024BF624639464EEB0E0E4FF0000B00185B
:1024C000524149414BEB0B0BB2EB080C71EB03078C
:1024D0007BF1000B24BF624639464EEB0E0E51EAEB
:1024E000020718BF46F0010616EB0E7655F1000202
:1024F00054F1000103D5BDE88901BDE80088BDE8BD
:102500008901BDE80048B619524141EB0101A3F130
:102510000103704780807F7E7D7C7B7A7978777637
:1025200076757473727171706F6E6E6D6C6C6B6AB0
:102530006A6968686766666564646363626161604E
:10254000605F5F5E5E5D5D5C5C5B5B5A5A595958CB
:102550005857575656555555545453535252525135
:10256000515050504F4F4F4E4E4D4D4D4C4C4C4B8B
:102570004B4B4A4A4A4949494848484747474746D2
:10258000464645454544444444434343434242420E
:10259000424141419C46002B30D477002BD04FEA7A
:1025A00037071CB503B44FF010004FF01001BAF11B
:1025B000000F06D0BCF1000FDCBF40F0080040F077
:1025C00008014FF000000FBCBDE810400BF1010BFB
:1025D000BBF1010F08BF5FEA170722BF12F101022A
:1025E00011F101014FF0004143F1000300F0004000
:1025F00043EA00007047F9D35708D0E746EA064699
:102600004FEA164613F1400F1FDD13F1200FDFBF15
:1026100016430A46002120335B42BED0C3F1200797
:1026200046EA06464FEA164602FA07F746EA070662
:1026300022FA03F2C3F1200701FA07F742EA070280
:1026400021FA03F14FF00003A7E746EA020646EA43
:1026500006464FEA164646EA0106BCBF46EA06466B
:10266000360C4FF000034FF000024FF0000194E7EA
:102670002DE9804C70B49A46934691E8380007C81B
:1026800031EA400C48BF34EA430C03D5FFF7E6FDBE
:10269000FFF780FFF0BCBDE8008C2DE9804C70B4E2
:1026A0009A46934691E8380007C810F0804F08BF5B
:1026B00013F0804F03D100F005F8FFF76BFFF0BC7B
:1026C000BDE8008C20F07F4723F07F4C80EA0300B8
:1026D00000F0004007EB0C03A3F57C53A3F1FE03CD
:1026E00092F0000F00F0B38095F0000F00F07780BB
:1026F0002DE901494FEA114021EA00484FEA14460A
:1027000024EA064700FB06FC08FB06F607FB08F870
:1027100018EB06484CEB164C00FB07F718EB074884
:102720004CEB17404FEA124B22EA0B4E4FEA15468C
:1027300025EA06470BFB06FC0EFB06F607FB0EFE22
:102740001EEB064E4CEB164C0BFB07F71EEB074E31
:102750004CEB174B18EB0B0840F1000018EB0E0B7D
:1027600058EB000840F100008F1A4FF000014FF0C5
:1027700000063CBFC943661B14BFB5EB040C002127
:102780003CBFC943F61B4FEA174427EA04454FEA0A
:102790001C472CEA074C04FB076205FB07F70CFB00
:1027A00005F616EB074642EB174204FB0CFC16EB52
:1027B0000C4642EB1C421BEB060658EB0202414161
:1027C0004EEA8E0E46EA9E0601D5BDE80189B6198D
:1027D000524141EB0101A3F10103BDE801894FEA38
:1027E000144524EA05464FEA114721EA074C05FB48
:1027F00007F406FB07F70CFB06F111EB074144EB6E
:10280000174405FB0CFC11EB0C4144EB1C444FEA54
:10281000124722EA074C05FB07F206FB07F70CFB01
:1028200006F616EB074642EB174205FB0CFC16EBCF
:102830000C4642EB1C456A1854F1000148BF704732
:10284000B619524141EB0101A3F10103704795F024
:10285000000F37D04FEA114221EA02464FEA1447EF
:1028600024EA074C02FB07F106FB07F70CFB06F412
:1028700014EB074441EB174102FB0CFC14EB0C4436
:1028800041EB1C414FEA154725EA074C02FB07F5CF
:1028900006FB07F70CFB06F616EB074645EB17455C
:1028A00002FB0CFC16EB0C4645EB1C42121951F1D5
:1028B000000148BF7047B619524141EB0101A3F135
:1028C000010370474FEA144524EA05464FEA1147D1
:1028D00021EA074C05FB07F106FB07F70CFB06F2A4
:1028E00012EB074241EB174105FB0CFC12EB0C42CB
:1028F00051EB1C414FF0000648BF7047921841EB66
:102900000101A3F10103704703B40198410000984D
:1029100050EAC12018BF04204A0D18BF40F0010042
:1029200040F2FF72B2EB515F08BF40F00200012895
:1029300008BF052002B0704730380A2801D20120B4
:10294000704700207047000010B500290AD00878B1
:10295000002807D005487844FEF76EFD002801D016
:10296000002010BD0248784410BD00000A09000094
:102970000209000010B500290AD00878002807D005
:1029800005487844FEF758FD002801D0002010BD0E
:102990000248784410BD0000FA080000F208000068
:1029A000F1EE100A4FF6FF71C0F2C03120EA0100CB
:1029B00040F04070E1EE100A7047FEF747B9FEF7AD
:1029C0007BBA00000000000000000000303132330C
:1029D0003435363738394142434445464030580053
:1029E0003031323334353637383961626364656685
:1029F00040307800040000080000000000000002E1
:102A00000001000010303132333435363738396147
:102A1000626364656678700030313233343536373E
:102A200038394142434445465850000002400000B6
:102A3000000000A00000000005400000000000C8E9
:102A4000000000000C4000000000409C000000005E
:102A5000194000000020BCBE00000000344000000F
:102A6000BFC91B8E00000004B5400000504BCFD002
:102A70006607E2CF010000006C4100003E8251AACF
:102A8000DFEEA73401000000D9420000DCB5A0E26F
:102A90003A301F97FFFFFFFFB4450000FD25A0C897
:102AA000E9A3C14FFFFFFFFFFF3F000000000080D0
:102AB00000000000FF3F0000000000800000000058
:102AC00000000000000000000102030406070809DE
:102AD00000000000000000000000000000000000F6
:102AE0000000000000100010001000100010001086
:102AF000000000100000000000280028002800004E
:102B0000000000000000000000000000002400247D
:102B1000007C00240048007C0048004800000000C1
:102B2000003800540050003800140054005400389D
:102B3000001000000020005400580030002800540D
:102B400000140008000000000010002800280010F9
:102B5000003400480048003400000000001000105D
:102B60000010000000000000000000000000000055
:102B7000000800100020002000200020002000207D
:102B800000100008002000100008000800080008DD
:102B90000008000800100020001000380010002875
:102BA0000000000000000000000000000000000025
:102BB00000100010007C0010001000000000000059
:102BC00000000000000000000000000000000010F5
:102BD000001000100000000000000000000000389D
:102BE00000000000000000000000000000000000E5
:102BF00000000000000000100000000000080008B5
:102C00000010001000100010002000200000000044
:102C1000003800440044005400440044004400389C
:102C200000000000001000300050001000100010E4
:102C300000100010000000000038004400440004B0
:102C4000000800100020007C000000000038004454
:102C500000040018000400040044003800000000D4
:102C600000080018002800280048007C0008000820
:102C700000000000007C00400040007800040004D8
:102C80000044003800000000003800440040007894
:102C9000004400440044003800000000007C0004B0
:102CA000000800100010002000200020000000009C
:102CB0000038004400440038004400440044003818
:102CC000000000000038004400440044003C0004C0
:102CD0000044003800000000000000000010000068
:102CE00000000000000000100000000000000000D4
:102CF0000000001000000000000000100010001094
:102D000000000000000C003000400030000C00000B
:102D100000000000000000000000007C0000007CBB
:102D2000000000000000000000000000006000182B
:102D3000000400180060000000000000003800449B
:102D40000004000800100010000000100000000047
:102D500000380044004C0054005C00400040003843
:102D60000000000000100028002800280028007C37
:102D70000044004400000000007800440044007853
:102D80000044004400440078000000000038004483
:102D900000400040004000400044003800000000B7
:102DA00000700048004400440044004400480070A3
:102DB00000000000007C00400040007C004000401B
:102DC0000040007C00000000007C004000400078D3
:102DD0000040004000400040000000000038004477
:102DE00000400040005C0044004400380000000047
:102DF000004400440044007C00440044004400447B
:102E0000000000000038001000100010001000103A
:102E1000001000380000000000040004000400045A
:102E20000004000400440038000000000044004892
:102E300000500060005000480048004400000000BE
:102E40000040004000400040004000400040007C46
:102E5000000000000044006C006C0054004400447A
:102E6000004400440000000000440064006400547A
:102E70000054004C004C00440000000000380044A6
:102E800000440044004400440044003800000000B6
:102E900000780044004400440078004000400040B6
:102EA0000000000000380044004400440044004496
:102EB000005400380004000000780044004400443E
:102EC000007800480048004400000000003800443A
:102ED00000400030000800040044003800000000FA
:102EE000007C0010001000100010001000100010F6
:102EF000000000000044004400440044004400443A
:102F00000044003800000000004400440044002851
:102F100000280028001000100000000000440044B9
:102F2000005400540054006C0028002800000000E9
:102F30000044002800280010001000280028004449
:102F40000000000000440044002800280010001089
:102F50000010001000000000007C000400080010B9
:102F6000001000200040007C00000000001800104D
:102F700000100010001000100010001000100018C9
:102F800000200020001000100010001000080008B1
:102F900000000000003000100010001000100010B1
:102FA000001000100010003000100028002800441D
:102FB0000000000000000000000000000000000011
:102FC000000000000000000000000000000000FE03
:102FD00000200010000000000000000000000000C1
:102FE000000000000000000000380044003C0044E5
:102FF000004C003400000000004000400058006415
:10300000004400440064005800000000000000007C
:103010000038004400400040004400380000000038
:10302000000400040034004C00440044004C003410
:10303000000000000000000000380044007C004058
:103040000044003800000000000C0010007C00105C
:103050000010001000100010000000000000000030
:103060000034004C00440044004C0034000400785C
:103070000040004000580064004400440044004404
:103080000000000000100000007000100010001090
:103090000010001000000000001000000070001080
:1030A0000010001000100010001000E00040004070
:1030B000004800500060005000480044000000003C
:1030C0000070001000100010001000100010001020
:1030D000000000000000000000780054005400547C
:1030E000005400540000000000000000005800647C
:1030F00000440044004400440000000000000000C0
:10310000003800440044004400440038000000003F
:1031100000000000005800640044004400640058AF
:1031200000400040000000000034004C0044004417
:10313000004C00340004000400000000005800644B
:10314000004000400040004000000000000000007F
:10315000003800440030000800440038000000003F
:10316000002000200078002000200020002000180F
:10317000000000000000000000440044004400443F
:10318000004C003400000000000000000044004437
:1031900000280028002800100000000000000000A7
:1031A000005400540054006C002800280000000067
:1031B0000000000000440028001000100028004417
:1031C0000000000000000000004400440028002827
:1031D000001000100010006000000000007C0008DB
:1031E000001000200040007C0000000000180010CB
:1031F0000010001000200020001000100010001827
:10320000001000100010001000100010001000103E
:10321000001000100030001000100010000800081E
:1032200000100010001000300000000000000074CA
:10323000004C0000000000000000000025640000B9
:103240008C3300080000002024000000D00100089A
:10325000B033000828000020700A0000EC010008CC
:103260001C00000043000000F8FFFFFF0C000000FE
:103270000E0000000F0000002E00000010010000F2
:1032800043000000F8FFFFFF004040404040404046
:103290004040414141414140404040404040404029
:1032A00040404040404040404005020202020202CD
:1032B000020202020202020202202020202020201C
:1032C0002020200202020202020290909090909030
:1032D00010101010101010101010101010101010EE
:1032E0001010101002020202020288888888888862
:1032F000080808080808080808080808080808084E
:103300000808080802020202400000000000000055
:1033100000000000000000000000000000000000AD
:10332000000000000000000000000000000000009D
:10333000000000000000000000000000000000008D
:10334000000000000000000000000000000000007D
:10335000000000000000000000000000000000006D
:10336000000000000000000000000000000000005D
:10337000000000000000000000000000000000004D
:10338000000000000000000000000000070A00002C
:10339000D02A00087C54414C4C45522052504D7C60
:1033A0000024F40052504D3D3E000000000000009B
:04000005080002E10C
:00000001FF
