:020000040800F2
:1000000010070020690200083915000829150008AA
:100010003115000861040008F11A00080000000012
:10002000000000000000000000000000491500086A
:10003000690400080000000041150008511500087F
:10004000830200088302000883020008830200087C
:10005000830200088302000883020008830200086C
:10006000830200088302000883020008830200085C
:10007000830200088302000883020008830200084C
:10008000830200088302000883020008830200083C
:10009000830200088302000883020008830200082C
:1000A000830200088302000883020008830200081C
:1000B000830200088302000883020008830200080C
:1000C00083020008830200088302000883020008FC
:1000D00083020008B11A00088302000883020008A6
:1000E00083020008830200088302000883020008DC
:1000F00083020008830200088302000883020008CC
:1001000083020008830200088302000883020008BB
:1001100083020008830200088302000883020008AB
:10012000830200088302000883020008830200089B
:10013000830200088302000883020008830200088B
:10014000830200088302000883020008830200087B
:10015000830200088302000883020008830200086B
:10016000830200088302000883020008830200085B
:1001700083020008830200088302000800000000D8
:10018000830200088302000883020008830200083B
:10019000830200088302000883020008830200082B
:1001A000830200088302000883020008830200081B
:1001B000830200088302000883020008830200080B
:1001C000830200088302000800F002F800F03CF807
:1001D0000AA090E8000C82448344AAF10107DA45A2
:1001E00001D100F031F8AFF2090EBAE80F0013F0B8
:1001F000010F18BFFB1A43F001031847101B000042
:10020000301B0000103A24BF78C878C1FAD85207D2
:1002100024BF30C830C144BF04680C607047000080
:100220000023002400250026103A28BF78C1FBD8FF
:10023000520728BF30C148BF0B6070471FB501F09F
:100240003BFD1FBD10B510BD00F0D0F81146FFF703
:10025000F5FF01F051FC00F0EEF803B4FFF7F2FFF8
:1002600003BC00F0F5F80000094880470948004742
:10027000FEE7FEE7FEE7FEE7FEE7FEE7FEE7FEE756
:10028000FEE7FEE704480549054A064B70470000B3
:1002900059150008C90100081001002010070020AE
:1002A000100300201003002053EA020C00F06980C4
:1002B0002DE9F04B4FF00006002B1FBFB3FA83F57A
:1002C00003FA05F424FA05F65E4012BF1643B2FAAB
:1002D00082F502FA05F4C5F120051EBF22FA05FCDD
:1002E00044EA0C04203556EA044C4FEA144418BF83
:1002F000641C4FF000084FF00009904271EB030CB2
:1003000039D3002919BFB1FA81F701FA07F6B0FA1B
:1003100080F700FA07F6C7F120071EBF20FA07FC96
:1003200046EA0C062037B6FBF4FCA7EB0507103FA6
:1003300007F01F0BCBF120062CFA06F60CFA0BFB8C
:1003400044BFB3460026202FA4BF5E464FF0000BEB
:100350005BEA060C08BF4FF0010B19EB0B0948EBE9
:100360000608ABFB027C06FB02CC0BFB03CCC01BDC
:1003700071EB0C01C1E70B46024641464846BDE819
:10038000F08B13B5084318BF4FF0FF300146AFF3B1
:100390000080BDE81C4070474FF0000200B51346D6
:1003A00094469646203922BFA0E80C50A0E80C5095
:1003B000B1F12001BFF4F7AF090728BFA0E80C5046
:1003C00048BF0CC05DF804EB890028BF40F8042B3F
:1003D00008BF704748BF20F8022B11F0804F18BFAC
:1003E00000F8012B7047704770477047754600F062
:1003F0002BF8AE4605006946534620F007008546B7
:1004000018B020B5FFF73EFFBDE820404FF00006D2
:100410004FF000074FF000084FF0000BAC46ACE87F
:10042000C009ACE8C009ACE8C009ACE8C00921F0DB
:1004300007018D46704710B50446AFF30080204693
:10044000BDE81040FFF709BF0048704718000020C2
:1004500001491820ABBEFEE72600020070470000ED
:10046000FEE70000000000007047000000000000F0
:10047000EFF3108072B600BFFEE70000000000003E
:100480002DE9F04F82B000F13E420A2302F1FF77DE
:1004900042F20042C4F2020243F6004B90424FEA9D
:1004A000B72208BF0923092AC4F2010B38BF4FEA5B
:1004B000B72300244FF0010E00270026009306E02A
:1004C00001360437102E04F1020400F0A9800EFA60
:1004D00006F80B6813EA080FF2D0D1F804A0032243
:1004E0000AF0030C02FA04F5ACF101036FEA050906
:1004F000012B0FD88368CD6803EA0903A5402B437D
:100500008360CAF30015436823EA0803B5402B4310
:10051000436005E0BCF1030F02D14FF0030C22E071
:10052000C3688D6803EA0903A540BCF1020F43EAE2
:100530000503C36017D16FF003020F2502EA5603CB
:1005400007F01C02034405FA02FAD3F820C00D6933
:100550002CEA0A0C05FA02F242EA0C021A62D1F8FD
:1005600004A00AF0030C02680CFA04F302EA090280
:100570001AF4403F42EA03020260A1D043F644036A
:100580004FF60849C4F20203CFF6FF790F251A6827
:1005900042F480421A601A6826F0030302F4804293
:1005A00001920BEB0302019B07F00C0352F809C008
:1005B0009D402CEA050C009D05FA03F343EA0C0369
:1005C00042F80930DBF808C04B684CEA0805DA024B
:1005D00058BF2CEA080543F60C499A02C4F20109F7
:1005E000CBF80850D9F800C04CEA080558BF2CEAEF
:1005F00008059A03C9F80050DBF804C04CEA080566
:1006000058BF2CEA0805DB03CBF80450DBF80020C8
:1006100042EA080558BF22EA0805CBF800504FE728
:1006200002B0BDE8F08F000040F20810C2F20000F6
:10063000006870470000000040F2080040F2081116
:10064000C2F20000C2F2000100780A68104408609B
:10065000704700000000000080B5032000F0C8F8DB
:100660000F2000F005F800F077F8002080BD0000B2
:1006700070B540F2080640F21001C2F20006C2F264
:1006800000014FF47A73044632780968B3FBF2F242
:10069000B1FBF2F1084600F097FE0F2C4FF0010578
:1006A00008D838B94FF0FF3000222146002500F06D
:1006B0006FF87460284670BDB0B502784EF69C5C49
:1006C000CEF2000C43784CF8043CFAB14368CCF805
:1006D0000030037BC17A90F80AE0457B447A42EA15
:1006E0000372837B42EA0161C27B41EACE41007A18
:1006F00041EA854141EA434141EA024141EA04219C
:1007000041EA4000CCF80400B0BD00BF0020CCF8A6
:100710000000CCF80400B0BD4EF62450CEF200002C
:10072000BFF35F8F016821F4803101600021016710
:1007300070470000000000004EF6245140F0010018
:10074000CEF200010867086840F480300860BFF30B
:100750004F8FBFF36F8F704782B043F64000C4F2F3
:100760000200016841F080510160016801F0805190
:1007700001910199416841F480414160406800F471
:1007800080400090009802B0704700000000000018
:1007900070B54EF60C5C4FF0FF36CEF2000C00F157
:1007A000604505F56445DCF80030C3F3022E8EF099
:1007B0000703042B28BF0423BEF1030406FA03F346
:1007C00021EA030100F00F0338BF0024043B002896
:1007D000634406FA04F048BF03F10C05A14022EA85
:1007E000000008430001287070BD000000000000F8
:1007F0004EF60C514FF6FF03CEF200010A681A4084
:1008000060F30A2242F0806040F0FD70086070479B
:100810002DE9F04782B0D0F800A043F690060446D8
:100820005FEACA70C4F202061AD14FF000095FEA0B
:100830000A3028D556F8040CE16B20F44010B1F5CD
:10084000801F40EA010046F8040CB1FA81F04FEA3B
:10085000501808BF4FF001095FEACA2018D429E0F8
:1008600056F8880C20F4000046F8880C606B56F8A7
:10087000881C014346F8881CB0FA80F04FEA5019F2
:100880005FEA0A30D6D44FF000085FEACA2011D5DB
:1008900056F8040C216C20F44000B1F5800F40EABA
:1008A000010008BF4FF00109002908BF4FF00108FF
:1008B00046F8040C5FEA8A6057465CD556F8500C3F
:1008C00047F2000740F0805046F8500CC4F2000791
:1008D00056F8500C00F0805001900198386840F4B0
:1008E00080703860FFF7A0FE054600BF3868C0057D
:1008F00006D4FFF799FE401B6428F7D928E200BF11
:1009000056F8200C10F440701BD0216B01F440719C
:10091000884216D056F8200C56F8201C41F480313D
:1009200046F8201C56F8201C20F4407021F4803139
:1009300046F8201C46F8200C56F8200CC00740F062
:100940000B824FF6FF432768206B56F8882CC0F6C1
:10095000FF7300F4407122F4F81203406FF31F306C
:10096000B1F5407F08BF1A4346F8882C56F8201C82
:10097000084346F8200CF8062CD4780438D4380400
:100980003ED4F80344D4B8034AD4780650D4380689
:1009900056D4F8055CD4B80562D4780568D4380517
:1009A0006ED4F80475D4B8047CD4780200F1838046
:1009B000B80200F18980780300F1958038020AF0CE
:1009C000807000F19B80002808BFB9F1000F40F053
:1009D000BF809FE056F8040C20F0807046F8040CAD
:1009E000A06B56F8041C084346F8040C7804C6D5DE
:1009F0003068616E20F44030084330603804C0D560
:100A00003068A16E20F4402008433060F803BAD566
:100A10003068E16E20F4401008433060B803B4D56C
:100A20003068216F20F44000084330607806AED56E
:100A30003068616C20F00300084330603806A8D5A8
:100A40003068A16C20F00C0008433060F805A2D596
:100A50003068E16C20F0300008433060B8059CD568
:100A60003068216D20F0C00008433060780596D5CD
:100A70003068616D20F4407008433060380590D5CF
:100A80003068A16D20F4406008433060F8047FF5C1
:100A90008AAF3068E16D20F4405008433060B804FC
:100AA0007FF583AF3068216E20F44040084330600A
:100AB00078027FF57DAF3068A16F20F08060084339
:100AC0003060B8027FF577AF3068E16F20F00060EA
:100AD000B1F1006F40EA010008BF4FF0010830603B
:100AE00078037FF56BAF3068616F20F0407008438A
:100AF000306038020AF080707FF565AF3168D4F855
:100B0000802021F0805111433160002808BFB9F1E5
:100B1000000F1DD117F000701AD117F0080008BFA0
:100B2000B8F1000F00F0A68056F8900C20F080502D
:100B300046F8900CFFF778FD054600BF56F8900C7C
:100B4000800029D5FFF770FD401B6428F6D9FFE02F
:100B500056F8900C20F0806046F8900CFFF764FD8A
:100B6000054600BF56F8900C000105D5FFF75CFD67
:100B7000401B6428F6D9EBE02068C10702D0616B06
:100B800000297BD0010340F18D80E16BB1F5801F1E
:100B900040F088808CE000BF2068010301D5E16B44
:100BA00019B1C1021ED5216CE1B956F8081C56F8DE
:100BB000082C01F4403102F0E04263691144A2695B
:100BC00041EA8311A76A41EA026146F8081C56F817
:100BD000041C6FF0FF0221F4F85102EB07221143CD
:100BE00046F8041C810214D5E16FB1F1006F10D1F9
:100BF00056F8081C56F8082C01F0706102F0E0422B
:100C00006369276A114441EA831141EA074146F8C2
:100C1000081C000718D556F8080C56F8081C00F0F8
:100C2000706001F4403162690844E16940EA821071
:100C3000E36A40EA017046F8080C56F8040C20F408
:100C40004030184346F8040C56F8900C40F08050A1
:100C500046F8900CFFF7E8FC044600BF56F8900CED
:100C6000800007D4FFF7E0FC001B6528F6D30320C3
:100C700084E000BF002002B0BDE8F08756F80C1CED
:100C800056F80C2C01F4403102F07062D4E90135C1
:100C9000114441EA831141EA057146F80C1C010335
:100CA0003FF573AFC1021DD5216CB1F5800F19D18D
:100CB00056F80C1C56F80C2C01F4403102F0E042BE
:100CC00063681144E26841EA8311656A41EA02619E
:100CD00046F80C1C56F8041C6A1E21F01F01114333
:100CE00046F8041CC10110D556F80C1C56F80C2C03
:100CF00001F0706102F0E04263682569114441EA45
:100D0000831141EA054146F80C1C80010CD560684E
:100D1000A368D4E90321090441EA801040EA026093
:100D200040EA037046F80C0C56F8900C40F08060D6
:100D300046F8900CFFF778FC054600BF56F8900C7B
:100D400000013FF5EAAEFFF76FFC401B6428F5D9C0
:100D5000032002B0BDE8F087FFF766FC054641F2CC
:100D6000883700BF56F8200C80073FF5EAADFFF743
:100D70005BFC401BB8424FF00300F3D902B0BDE862
:100D8000F0870000000000002DE9F041002800F08D
:100D9000CF8043F608080446C4F202080D46D8F88E
:100DA000F80300F00F0088420DD2D8F8F80320F0C5
:100DB0000F002843C8F8F803D8F8F80300F00F0034
:100DC000A84240F0B5802068810717D5410705D5B6
:100DD000D8F8001041F4E051C8F80010010705D51B
:100DE000D8F8001041F46041C8F80010D8F800109D
:100DF000A26821F0F0011143C8F80010C00725D106
:100E0000D8F8F80300F00F00A8420DD9D8F8F8037D
:100E100020F00F002843C8F8F803D8F8F80300F0D2
:100E20000F00A84240F08480206841071AD40007D0
:100E300022D4D8F8000000F00C0008282BD0042899
:100E40004CD147F64000C0F27D104BE060680228AC
:100E500062D0012868D158F8081C89036CD401209D
:100E6000BDE8F081D8F80010E26821F4E0511143A8
:100E7000C8F800100007DCD5D8F80000216920F47C
:100E8000604040EAC100C8F80000D8F8000000F057
:100E90000C000828D3D158F8042C58F8040C400250
:100EA00047F6400058F8041CC0F27D105CBF42F2C7
:100EB0000040C0F2F400C1F3881102F03F02A0FB31
:100EC00001010023FFF7F0F958F8041C0222C1F3D6
:100ED000014102EB4101B0FBF1F003E042F20040BE
:100EE000C0F2F400D8F8001041F6D242C0F6000279
:100EF000C1F30311515C40F20C02C2F20002C8407F
:100F000040F21001C2F2000108601068FFF7B0FB68
:100F10000020BDE8F08100BF58F8081C89010BD4FF
:100F20000120BDE8F08100BF58F8081C890703D4F0
:100F30000120BDE8F08100BFD8F8001021F00301C6
:100F40000843C8F80000FFF76FFB064641F28837F8
:100F5000D8F80000616800F00C00B0EB810F3FF49E
:100F60004FAFFFF761FB801BB842F1D90320BDE80A
:100F7000F08100000000000040F2100043F608017C
:100F8000C2F20000C4F2020141F6E24200680968C0
:100F9000C0F60002C1F38221515CC84070470000D6
:100FA00040F2100043F60801C2F20000C4F2020150
:100FB00041F6E24200680968C0F60002C1F342311E
:100FC000515CC8407047000010B543F60404C4F2F9
:100FD0000204606800F00C00082807D0042825D11E
:100FE00047F64000C0F27D1010BD00BF22682068A7
:100FF000400247F640002168C0F27D105CBF42F21B
:101000000040C0F2F400C1F3881102F03F02A0FBDF
:1010100001010023FFF748F921680222C1F30141D1
:1010200002EB4101B0FBF1F010BD00BF42F2004005
:10103000C0F2F40010BD00002DE9F04182B000289C
:1010400068D00446007843F60006C007C4F20206E2
:101050000BD0B06800F00C00042840F09980306894
:10106000800302D56068002854D0207880071AD504
:10107000B06810F00C0F09D0B06800F00C00082820
:1010800040F0A4807068400200F1A08030688007C2
:1010900002D5E06801283DD13068216920F0F800D0
:1010A00040EAC10030602078000737D4207840073C
:1010B00048D4A56955B3B06800F00C00082840F08A
:1010C000B980012D706825D000F48001E269914259
:1010D00020D100F03F01226A91421BD147F6C07136
:1010E000626A0140B1EB821F14D1A16A4FF6FF7210
:1010F000C903914300F44032A1F580318A4209D1FD
:10110000E16A00F07060B0EB016F03D1002002B023
:10111000BDE8F081012002B0BDE8F08160690028DF
:10112000706F77D040F001007067FFF77DFA0546D9
:10113000706F8007BAD4FFF777FA401B0228F7D9FF
:1011400015E100BF306C10F0805808D1306C40F0D1
:1011500080503064306C00F080500190019847F26C
:101160000007C4F200073868C00543D4386840F46B
:1011700080703860FFF758FA054600BF3868C00530
:1011800038D4FFF751FA401B6428F7D9EFE000BFCD
:10119000B06800F00C00082803D1706840023FF5E9
:1011A0005EAF6068002800F0B580B0F5A02F00F0B9
:1011B000C980B0F5803F00F0C980306820F48030ED
:1011C0003060306820F48020C3E000BFE068002871
:1011D000306851D040F001003060FFF725FA054635
:1011E000306880073FF558AFFFF71EFA401B022812
:1011F000F6D9BCE0A068002850D0052868D00128A6
:101200006AD0306F20F001003067306F20F00400AA
:1012100065E000BF20F001007067FFF705FA0546A2
:10122000706F80077FF542AFFFF7FEF9401B022881
:10123000F6D99CE0306820F080703060FFF7F4F958
:10124000022D05460CD100BF3068800140F194802A
:10125000FFF7EAF9401B02284FF00300F4D956E7E4
:10126000306880017FF552AFFFF7DEF9401B02289E
:101270004FF00300F4D94AE720F001003060FFF797
:10128000D3F90546306880077FF50DAFFFF7CCF93D
:10129000401B02284FF00300F4D938E7306F20F0EC
:1012A00001003067306F20F004003067FFF7BCF9B1
:1012B000054641F2883700BF306F800720D5FFF721
:1012C000B3F9401BB8424FF00300F5D91FE700BF48
:1012D000306F40F004003067306F40F0010030673D
:1012E000FFF7A2F9054641F2883700BF306F80074B
:1012F00006D4FFF799F9401BB842F7D937E000BF91
:10130000B8F1000F7FF4D5AE306C20F0805030641F
:10131000CFE600BF306820F480303060306820F4C1
:1013200080203060FFF780F9054600BF30688003F9
:101330007FF59BAEFFF778F9401B64284FF0030060
:10134000F4D9E4E6306840F480203060306840F43E
:1013500080303060FFF768F9054600BF30688003D1
:101360003FF583AEFFF760F9401B6428F6D90320F0
:1013700002B0BDE8F08100BF04F11C074FF6FF7515
:101380008FCFDB03084323EA050140EA8210A1F571
:10139000803140EA0760084340F0005070603068D8
:1013A00040F080703060FFF73FF9044630688001FC
:1013B0003FF5ACAEFFF738F9001B02284FF00300F1
:1013C000F4D9A4E600000000411E0020B0EB116F2C
:1013D00002D00120704700BF4EF21002F023CEF27F
:1013E000000251604EF62351CEF200010B7007212E
:1013F0009060116070470000B0B582B0A0B10446A3
:10140000C06F28B9002084F87800204600F048F822
:101410002420E0672068016821F001010160204676
:1014200000F016F9012803D10125284602B0B0BD0D
:10143000606A10B1204600F09BF8206800254168E2
:1014400021F490414160816821F02A0181600168A6
:1014500041F001010160C4F88450FFF7E5F821680C
:10146000096809070ED503464FF4001100226FF0FA
:101470007E400090204600F00BFA18B10325284664
:1014800002B0B0BD2020E067C4F880002566656624
:1014900084F87850284602B0B0BD0000000000007B
:1014A000B0B5A6B00446684641F20005043080217C
:1014B000C4F20105FEF770FF2068A84202D026B0F2
:1014C000B0BD00BF40200090684602241194FFF791
:1014D0009FF908B1FEF7CCFF43F63000C4F20200DA
:1014E000416941F010014161416901F01001219110
:1014F0002199016841F001010160006821A900F013
:101500000100219021984FF4C060CDE92104002012
:101510002390032024900720259005F57040FEF7C6
:10152000AFFF26B0B0BD0000FEE7000000000000E5
:10153000FEE7000000000000FEE7000000000000E1
:10154000704700000000000070470000000000002D
:10155000FFF772B8000000004EF68850CEF200008F
:10156000016841F470010160704700000000000054
:10157000416ACA070CD18A0715D44A071ED40A0744
:1015800027D4CA0630D48A0639D44A0655D541E054
:101590000268D0F828C0536823F4003343EA0C03F0
:1015A00053608A07E9D50268D0F82CC0536823F449
:1015B000803343EA0C0353604A07E0D50268D0F851
:1015C00030C0536823F4802343EA0C0353600A07B6
:1015D000D7D50268D0F834C0536823F4004343EAF7
:1015E0000C035360CA06CED50268D0F838C09368A1
:1015F00023F4805343EA0C0393608A06C5D502683E
:10160000D0F83CC0936823F4005343EA0C03936082
:101610004A0612D50268D0F840C05368BCF5801F56
:1016200023F4801343EA0C03536006D1536823F478
:10163000C00C436C43EA0C035360090658BF704763
:101640000168806C4A6822F40022104348607047A9
:1016500070B506460168806846F6F315D6E9033290
:1016600002437069D6F81CC00C68CEF6FF751043B3
:1016700004EA0502104340EA0C000860486820F4C0
:10168000405018434860B06947F2FF73326AC4F2B1
:10169000000310438A6822F43062994240EA020053
:1016A0004FF01002886019DC44F6FF30C4F20000ED
:1016B00081422DDC44F20040C4F2000081424DD052
:1016C00044F60000C4F20000814271D143F690005C
:1016D000C4F202000068010956E000BF40F6FF7046
:1016E000C4F20100814227DC47F60000C4F200008A
:1016F00081423BD047F60040C4F20000814257D1FE
:1017000043F69000C4F202000068810B3CE000BF89
:1017100044F60040C4F2000081422FD045F20000A0
:10172000C4F20000814243D143F69000C4F20200AB
:101730000068010A28E000BF41F20040C4F2010045
:10174000814227D041F20000C4F2010081422FD132
:1017500043F69000C4F20200016821E043F69000D5
:10176000C4F20200006881080EE000BF43F690005A
:10177000C4F202000068010B06E000BF43F69000CF
:10178000C4F202000068810941F6FC42C0F6000282
:101790000AE000BF43F69000C4F202000068810A2C
:1017A00041F6EC42C0F6000201F0030052F820209E
:1017B00042F20040BCF5004FC0F2F4000ED1082AFE
:1017C0004FF0010122D8DFE802F0051929211D217F
:1017D00021212700FFF7D0FB00BB16E0082A4FF0BD
:1017E000010113D8DFE802F0062E3812321212126D
:1017F000360000BFFFF7C0FB70BB3AE0FFF7D0FB3D
:1018000060B902E0FFF7E0FB40B900210020C6E923
:101810001A00084670BD00BF4FF4004071684A08C6
:1018200002EB40004FF6EF72B0FBF1F0A0F11001B7
:10183000914225D84FF6F0710140C0F342000844B0
:1018400015E000BFFFF7ACFB30B912E0FFF7BCFBBF
:1018500010B90EE04FF4004071684FF6EF7200EBE4
:101860005100B0FBF1F0A0F11001914208D83168AD
:10187000C86000210020C6E91A00084670BD00BFFC
:1018800001210020C6E91A00084670BD00000000D2
:101890002DE9F041044600680D46C7693940491BEF
:1018A000B1FA81F14909914240F0A580DDF8188034
:1018B000B8F1000F2AD0164618F1010140F08480DB
:1018C000C1692940491BB1FA81F14909B14240F08F
:1018D0009280C1692940491BB1FA81F14909B1429D
:1018E00001BFC1692940491BB1FA81F104BF49090F
:1018F000B14240F08080C1692940491BB1FA81F1B1
:101900004909B142DCD00020BDE8F081FEF78CFE31
:10191000206850E8000F216820F4D07041E80002F0
:10192000F2B1206850E8000F216820F4D07041E83F
:101930000002002A1FBF206850E8000F216820F431
:10194000D0701CBF41E80002002A09D0206850E88E
:10195000000F216820F4D07041E80002002AD7D19E
:10196000206850E8020F216820F0010041E80202DF
:10197000F2B1206850E8020F216820F0010041E830
:101980000202002A1FBF206850E8020F216820F0E1
:1019900001001CBF41E80202002A09D0206850E87B
:1019A000020F216820F0010041E80202002AD7D18D
:1019B0002020E06704F1800020210160002084F8ED
:1019C00078000320BDE8F0811F4600BFFEF72CFE23
:1019D000C01B40459CD820680168490744BFC169C5
:1019E0005FEA01510AD4C0692840401BB0FA80F078
:1019F0004009B042EAD00020BDE8F0814FF4006118
:101A00000162206850E8000F216820F4D07041E89E
:101A10000002F2B1206850E8000F216820F4D07075
:101A200041E80002002A1FBF206850E8000F21682B
:101A300020F4D0701CBF41E80002002A09D02068C1
:101A400050E8000F216820F4D07041E80002002A1D
:101A5000D7D1206850E8020F216820F0010041E84A
:101A60000202F2B1206850E8020F216820F0010064
:101A700041E80202002A1FBF206850E8020F2168D7
:101A800020F001001CBF41E80202002A09D02068B2
:101A900050E8020F216820F0010041E80202002A0C
:101AA000D7D12020E067C4F8800004F1840083E7E8
:101AB00041F22400C4F20100006800EE100AA0F117
:101AC0003101012940F20411C2F20001B8EE400ACE
:101AD00081ED000A88BF704740F200013238B0FA49
:101AE00080F0C2F200014009086070470000000069
:101AF000FEE700000000000092B043F6300847F215
:101B00000005C4F20208C4F2000501260696FEF79D
:101B100003FE06AC48F21F70089040F201100990D5
:101B2000204600270797FEF7C7FD0420FEF704FEB6
:101B3000FEF792FD201D2C21FEF72EFC0597CDE926
:101B40000377CDE90177D8F8100040F08050C8F84D
:101B50001000D8F8100000F080500090009828681D
:101B600066F38F302860286800F4404000900098A9
:101B70000220069010200A90204609960C97FFF745
:101B80005BFA28B1EFF3108072B600BFFEE700BF2A
:101B90000F200021CDE9010701A80597CDE90377C2
:101BA000FFF7F2F820B1EFF3108072B6FEE700BF46
:101BB000D8F8000005F5204240F00100C8F8000008
:101BC000D8F8000000F0010006900698D8F8000050
:101BD00040F00100C8F800000020C4F202000168D3
:101BE00041F440710160D8F81000002140F000502D
:101BF000C8F81000D5F8000440F00100C5F8000452
:101C000040F27C00C5F80814C2F2000002604FF4F4
:101C10001652C0E90121C0E903110C224162C0E95A
:101C20000521C0E90711FFF7E7FB28B1EFF31080AA
:101C300072B600BFFEE700BF40F20000BFEE000A30
:101C4000C2F200009FED192A9FED193A40F2780385
:101C500090ED011AC2F2000331EE000A9FED121A54
:101C600080EE010AB7EE001AA0EE023A9FED112AAB
:101C7000A0EE021ABDEEC30ABDEEC11A10EE101A94
:101C800011EE102A03E000BF1A60C5F808240768A7
:101C9000012FF9D0022F03D11960C5F80814F6E717
:101CA0001F68C5F80874F2E700703B4500C0FF44A8
:101CB0000010004500E0FF44F1EE100A4FF6FF71FE
:101CC000C0F2C03120EA010040F04070E1EE100A9D
:101CD0007047000000000000000001020304060736
:101CE00008090000000001020304000001000000D8
:101CF00004000000020000000800000000000000D6
:101D0000040000000200000008000000301D000870
:101D1000000000201800000004020008481D000810
:101D200018000020F8060000200200080000000053
:101D30000200000000803B45010000001000000090
:081D40000024F4000000000083
:04000005080001C925
:00000001FF
