:020000040800F2
:1000000038070020350200083D0200083F020008C2
:1000100041020008430200084502000800000000F9
:10002000000000000000000000000000470200087F
:1000300049020008000000004B0200084D020008C1
:100040004F0200084F0200084F0200084F0200084C
:100050004F0200084F0200084F0200084F0200083C
:100060004F0200084F0200080D0300084F0200086D
:100070004F0200084F0200084F0200084F0200081C
:100080004F0200084F0200084F0200080000000065
:100090000000000000000000000000003503000820
:1000A0004F0200084F0200084F0200084F020008EC
:1000B0004F0200084F0200084F0200084F020008DC
:1000C0004F0200084F0200084F0200084F020008CC
:1000D0004F0200084F0200084F0200080000000015
:1000E0004F0200084F0200084F0200080000000005
:1000F0000000000000000000000000004F020008A7
:10010000000000004F0200084F0200084F020008E4
:1001100000000000000000000000000000000000DF
:100120004F0200084F0200084F0200084F0200086B
:100130004F02000800000000000000000000000066
:100140000000000000000000000000004F02000856
:100150004F0200084F0200084F0200084F0200083B
:100160004F0200084F0200080000000000000000DD
:10017000000000000000000000000000000000007F
:10018000000000004F020008000000000000000016
:100190004F02000800F002F800F03CF80AA090E8D6
:1001A000000C82448344AAF10107DA4501D100F032
:1001B00031F8AFF2090EBAE80F0013F0010F18BFC3
:1001C000FB1A43F001031847D8140000F81400008C
:1001D000103A24BF78C878C1FAD8520724BF30C873
:1001E00030C144BF04680C60704700000023002445
:1001F00000250026103A28BF78C1FBD8520728BF37
:1002000030C148BF0B6070471FB501F02BFA1FBD0E
:1002100010B510BD00F044F81146FFF7F5FF00F0EF
:1002200017FF00F062F803B4FFF7F2FF03BC00F021
:1002300065F800000948804709480047FEE7FEE7E7
:10024000FEE7FEE7FEE7FEE7FEE7FEE7FEE7FEE786
:1002500004480549054A064B70470000CD030008D5
:1002600095010008380100203807002038030020DD
:100270003803002070477047704710B500F008F849
:10028000006810BD10B5044600F002F8046010BD0F
:1002900000487047A800002000487047A8000020D0
:1002A0007546FFF7F9FFAE4605006946534620F054
:1002B0000700854618B020B5FFF7CAFFBDE820400B
:1002C0004FF000064FF000074FF000084FF0000B12
:1002D000AC46ACE8C009ACE8C009ACE8C009ACE881
:1002E000C00921F007018D46704710B50446AFF3F1
:1002F00000802046BDE81040FFF795BF0149182057
:10030000ABBEFEE7260002007047000080B543F652
:100310001441C4F2010108684FF6FF7210430860EF
:1003200040F21811C2F200010020086000F06CF9E0
:1003300080BD000080B51020C4F202000068800675
:10034000002810D4FFE743F61441C4F20101086805
:100350004FF6FF721043086040F21811C2F200011C
:1003600001200860FFE71020C4F202000068400688
:10037000002810D4FFE743F61441C4F201010868D5
:100380004FF6FF721043086040F21811C2F20001EC
:1003900002200860FFE71020C4F202000068000697
:1003A000002810D4FFE743F61441C4F201010868A5
:1003B0004FF6FF721043086040F21811C2F20001BC
:1003C00003200860FFE700F01FF980BD4EF688515A
:1003D000CEF20001086840F4700008607047000029
:1003E00080B584B003908DED020A00200190FFE7F4
:1003F000019847F2FF01C0F20201884206DCFFE7E4
:1004000000BFFFE7019801300190F1E703980090E9
:10041000072800F281800099DFE801F00405121F2F
:100420002C4A556078E040F22410C2F2000090EDB2
:10043000000A9DED021A30EE010A80ED000A6BE021
:1004400040F22410C2F2000090ED000A9DED021A65
:1004500030EE410A80ED000A5EE040F22410C2F264
:10046000000090ED000A9DED021A20EE010A80EDD9
:10047000000A51E09DED020AB5EE400AF1EE10FAD5
:1004800008D1FFE740F21411C2F200014FF07E5094
:1004900008600CE040F22410C2F2000090ED000A67
:1004A0009DED021A80EE010A80ED000AFFE733E0BD
:1004B0009DED020A00F03EF840F22410C2F2000066
:1004C00080ED000A28E09DED020A00F029F840F2D4
:1004D0002410C2F2000080ED000A1DE09DED020A2A
:1004E0009FED0E1AB4EE410AF1EE10FA08D1FFE7C3
:1004F00040F21411C2F200014FF07E5008600AE091
:100500009DED020A00F020F840F22410C2F2000033
:1005100080ED000AFFE7FFE704B080BD0000B442B1
:1005200080B582B08DED010A9DED010A00F0AEFDAF
:1005300002B080BD80B582B08DED010A9DED010A4B
:1005400000F04CFE02B080BD80B582B08DED010A96
:100550009DED010A00F00AFF02B080BD81B00020CD
:100560000090FFE7009849F2DF31C0F204018842B1
:1005700006DCFFE700BFFFE7009801300090F1E7DD
:1005800001B0704780B582B000200190FFE701986C
:10059000042818DCFFE7019940F24000C2F2000095
:1005A00050F821001421C4F202010860019840F2C1
:1005B0000C11C2F200010860FFF7D0FFFFE70198BD
:1005C00001300190E3E740F20810C2F20000006839
:1005D00040F21011C2F20001096840F23012C2F27A
:1005E0000002126840F21C13C2F200031B6840F2C2
:1005F000201CC2F2000CDCF800C0EE46CEF800C0B1
:1006000000F076FC02B080BD80B5A0B040F21810BA
:10061000C2F20000006800EB800140F25800C2F214
:10062000000000EB810040F20C11C2F200010968E9
:1006300050F821000A3801461F91092800F2118460
:100640001F99DFE811F00A003B00C50111025E02AC
:10065000AA02F60243039003DD0303209FEDD90AAB
:10066000FFF7BEFE40F25401C2F2000100201E90CE
:10067000086040F23011C2F20001086040F210112F
:10068000C2F20001086040F20811C2F200010860E5
:1006900040F21C11C2F20001086040F22011C2F2C7
:1006A0000001086040F22811C2F20001086040F227
:1006B0002C11C2F20001086000F016BC40F2540098
:1006C000C2F200001D9090ED000ABDEEC00A10EECF
:1006D000100A40F23011C2F20001096840F2101213
:1006E000C2F20002126802EB820201EB420340F206
:1006F0000811C2F200010968642201FB023100EE18
:10070000101AB8EEC00AFFF76BFE1D9900200860B2
:1007100040F21410C2F2000090ED000AB7EE001A89
:10072000B4EE410AF1EE10FA25D1FFE740F23011A4
:10073000C2F200010E20086040F21011C2F2000166
:10074000086040F20811C2F20001086040F21C117A
:10075000C2F20001086040F22011C2F200010860FC
:1007600040F22811C2F20001086040F22C11C2F2DE
:100770000001086025E140F22410C2F2000090ED73
:10078000000AB5EE400AF1EE10FAC0F2A380FFE7CE
:1007900040F2241EC2F2000E9EED000A9FED8A2A4E
:1007A00080EE020ABDEEC00A40F2081CC2F2000C44
:1007B0008CED000A9EED000ADCF800006422504334
:1007C00001EE100AB8EEC11A30EE410AB2EE041A78
:1007D00080EE010ABDEEC00A40F21013C2F200031F
:1007E00083ED000A9EED000ADCF80000504303EEA2
:1007F000100AB8EEC33A30EE430A186800EB8000E6
:10080000400003EE100AB8EEC33A30EE430ABDEEE4
:10081000C00A40F23011C2F2000181ED000A9EEDE3
:10082000000ADCF80000504303EE100AB8EEC33AA9
:1008300030EE430A186800EB8000400003EE100A17
:10084000B8EEC33A30EE430A91ED003AB8EEC33A3F
:1008500030EE430A20EE010ABDEEC00A40F21C1041
:10086000C2F2000080ED000A9EED000ADCF800C034
:1008700042F2107E0CFB0EFC01EE10CAB8EEC11A5B
:1008800020EE020A30EE410A1B684FF47A7C03FB2B
:100890000CF301EE103AB8EEC11A30EE410A0968C5
:1008A000514301EE101AB8EEC11A30EE410A006849
:1008B00000EB8000400001EE100AB8EEC11A30EEE5
:1008C000410ABDEEC00A40F22010C2F2000080EDE5
:1008D000000A75E040F2241CC2F2000C9CED000AF4
:1008E0009FED3A1A80EE010ABDEEC00A40F20812EE
:1008F000C2F2000282ED000A9CED000AB1EE400A4D
:1009000010686423584301EE100AB8EEC11A30EEA5
:10091000410AB2EE041A80EE010ABDEEC00A40F2AE
:100920001011C2F2000181ED000A9CED000AB1EE47
:10093000400A1068584302EE100AB8EEC22A30EEA0
:10094000420A086800EB8000400002EE100AB8EE90
:10095000C22A30EE420ABDEEC00A40F23010C2F2A6
:10096000000080ED000A9CED000AB1EE400A12681A
:100970005A4302EE102AB8EEC22A30EE420A096843
:1009800001EB8101490002EE101AB8EEC22A30EEE6
:10099000420A90ED002AB8EEC22A30EE420A20EE5A
:1009A000010ABDEEC00A40F21C10C2F2000080ED48
:1009B000000A40F22011C2F200010F200860FFE798
:1009C000FFE791E2000000000000C8420000C8C23A
:1009D00040F25400C2F20000199090ED000ABDEE02
:1009E000C00A10EE100A40F23011C2F200011A9152
:1009F000096840F21012C2F200021B92126802EB68
:100A0000820201EB420340F20811C2F200011C9184
:100A10000968642201FB023100EE101AB8EEC00A28
:100A2000FFF7DEFCDDF864C01A9B1B9A1C994FF09F
:100A30008140CCF80000002018601060086040F28F
:100A40001C11C2F20001086040F22011C2F2000144
:100A5000086040F22811C2F20001086040F22C1137
:100A6000C2F2000108603FE240F25400C2F200000E
:100A7000159090ED000ABDEEC00A10EE100A40F28B
:100A80003011C2F200011691096840F21012C2F250
:100A900000021792126802EB820201EB420340F25D
:100AA0000811C2F2000118910968642201FB0231A9
:100AB00000EE101AB8EEC00AFFF792FCDDF854C041
:100AC000169B179A18990020C4F24000CCF8000039
:100AD000002018601060086040F21C11C2F2000192
:100AE000086040F22011C2F20001086040F22811B3
:100AF000C2F20001086040F22C11C2F2000108604D
:100B0000F2E140F25400C2F20000119090ED000AB0
:100B1000BDEEC00A10EE100A40F23011C2F2000120
:100B20001291096840F21012C2F200021392126888
:100B300002EB820201EB420340F20811C2F2000113
:100B400014910968642201FB023100EE101AB8EE1C
:100B5000C00AFFF745FCDDF844C0129B139A1499B4
:100B60004FF08040CCF80000002018601060086052
:100B700040F21C11C2F20001086040F22011C2F2E2
:100B80000001086040F22811C2F20001086040F242
:100B90002C11C2F200010860A6E140F25400C2F23A
:100BA00000000D9090ED000ABDEEC00A10EE100A94
:100BB00040F23011C2F200010E91096840F21012A9
:100BC000C2F200020F92126802EB820201EB4203B2
:100BD00040F20811C2F2000110910968642201FB81
:100BE000023100EE101AB8EEC00AFFF7F9FBDDF88B
:100BF00034C00E9B0F9A10994FF07E50CCF8000035
:100C0000002018601060086040F21C11C2F2000160
:100C1000086040F22011C2F20001086040F2281181
:100C2000C2F20001086040F22C11C2F2000108601B
:100C30005AE140F25400C2F20000099090ED000A1F
:100C4000BDEEC00A10EE100A40F23011C2F20001EF
:100C50000A91096840F21012C2F200020B92126867
:100C600002EB820201EB420340F20811C2F20001E2
:100C70000C910968642201FB023100EE101AB8EEF3
:100C8000C00AFFF7ADFBDDF824C00A9B0B9A0C9954
:100C90000020C4F2A000CCF8000000201860106012
:100CA000086040F21C11C2F20001086040F22011FD
:100CB000C2F20001086040F22811C2F2000108608F
:100CC00040F22C11C2F2000108600DE140F2540024
:100CD000C2F20000059090ED000ABDEEC00A10EED1
:100CE000100A40F23011C2F200010691096840F288
:100CF0001012C2F200020792126802EB820201EBAC
:100D0000420340F20811C2F200010891096864220E
:100D100001FB023100EE101AB8EEC00AFFF760FBCB
:100D2000DDF814C0069B079A08990020C4F2C000A1
:100D3000CCF80000002018601060086040F21C1120
:100D4000C2F20001086040F22011C2F20001086006
:100D500040F22811C2F20001086040F22C11C2F2E8
:100D600000010860C0E040F25400C2F200000190AF
:100D700090ED000ABDEEC00A10EE100A40F23011EC
:100D8000C2F200010291096840F21012C2F20002A0
:100D90000392126802EB820201EB420340F2081157
:100DA000C2F2000104910968642201FB023100EEE5
:100DB000101AB8EEC00AFFF713FBDDF804C0029B5F
:100DC000039A04990020C4F2E000CCF8000000204F
:100DD00018601060086040F21C11C2F20001086047
:100DE00040F22011C2F20001086040F22811C2F264
:100DF0000001086040F22C11C2F20001086073E0AB
:100E000003209FED3A0AFFF7EBFA40F25401C2F2D9
:100E100000014FF07E50086040F23011C2F2000134
:100E20000020086040F21011C2F20001086040F298
:100E30000811C2F20001086040F21C11C2F2000168
:100E4000086040F22011C2F20001086040F228114F
:100E5000C2F20001086040F22C11C2F200010860E9
:100E600042E040F22810C2F20000006808BBFFE731
:100E700040F21810C2F20000006800EB800140F25E
:100E80005800C2F2000000EB810040F20C11C2F2E7
:100E90000001096850F8210040F23011C2F200014F
:100EA000086040F22811C2F20001086801300860B1
:100EB00019E040F21810C2F20000006800EB800157
:100EC00040F25800C2F2000000EB810040F20C1129
:100ED000C2F20001096850F8210040F21011C2F27C
:100EE00000010860FFE7FFE720B080BD00000000C0
:100EF00080B586B0DDF820C005900491039202937E
:100F0000059940F20000C2F20000009050F8210064
:100F100040F61401C4F2020101910860086840F42F
:100F2000F0500860FFF71AFB00980199049A50F8F6
:100F300022000860086840F4E8500860FFF70EFBE4
:100F400000980199039A50F822000860086840F45C
:100F5000D8500860086840F080000860FFF7FEFA8B
:100F600000980199029A50F822000860086840F43D
:100F7000B8500860FFF7F2FA00980199089A50F803
:100F800022000860086840F470600860FFF7E6FA25
:100F9000FFF7E4FA06B080BD80B543F63001C4F235
:100FA00002010720086043F64401C4F20201086808
:100FB00040F4804008600021C4F202010020C0F229
:100FC0005510086040F60001C4F2020145F2555088
:100FD000C0F2551008600C21C4F2020145F2005025
:100FE000C0F25510086043F60C41C4F201010868D4
:100FF00040F0F000086043F60041C4F201010868C7
:1010000040F0F000086043F60C01C4F2010100203A
:1010100008600A2000F004F8172000F001F880BDF5
:1010200081B08DF803009DF9030000280ED4FFE77E
:101030009DF9031001F01F02012090404A094EF271
:101040000011CEF2000141F82200FFE701B0704725
:1010500080B582B000200190FFF79EFFFFE7FFF709
:1010600091FAFCE74100080218BF04200A0E18BFDD
:1010700040F001004FF07F4232EA010108BF40F02A
:101080000200012808BF05207047000010EE101A6A
:1010900008B5444A6846B2EB410F28D94FF0E64004
:1010A000B0EB410F94BF00204FF0FF30009000984C
:1010B000002861DB60EE000A10F0010F45D010F04F
:1010C000020FDFED391A9FED391A00EEA11ADFED9C
:1010D000381A40EE811A21EEA01AF0EE400A40EED6
:1010E000010A08BFF1EE600AB0EE600A08BD314B9C
:1010F00021F0004293423CD911F0004FDFED2E0A5F
:1011000020EE201ADFED2D0A19BF31EE601A71EEC4
:10111000200A31EE201A71EE600ABDEEE01A11EEDF
:10112000100A9FED271A00F0030000EEC10A9FEDA0
:10113000251A009000EEC10A9FED231A00EEC10AA5
:101140009FED221A00EEC10AB1E79FED211A9FED33
:10115000210A10F0020F00EE810A9FED1F1A00EE27
:10116000801AB7EE000A00EE810A18BFB1EE400AFD
:1011700008BD00F0CDF99AE710EE100A4000B0F17A
:101180007F4F3CBFB7EE000A08BD07D14FF001000A
:10119000FFF778F8BDE8084000F0AAB9BDE80840BC
:1011A00000F0A2B9B61F927E336D4CB9DA82083CCA
:1011B000A0AA2ABE490E494683F9223F0000004BEF
:1011C0000000C93F00A0FD390020A2331A61342C71
:1011D000B93AB2BACA9F2A3DDDFFFFBE00B510EE94
:1011E000101A2DED028B81B0524A6846B2EB410FC6
:1011F0002ED94FF0E640B0EB410F94BF00204FF0E6
:10120000FF3000900098B0EE408A00286ADB10F0B2
:10121000010F4BD068EE080A9FED471A9FED470A71
:1012200000EE810A9FED461A10F0020F00EE801AC0
:10123000B7EE000A00EE810A02BF01B0BDEC028BDE
:1012400000BD00BF01B0B1EE400ABDEC028B00BD95
:101250003C4B21F00042934241D911F0004FDFEDA9
:101260003A0A20EE201ADFED390A19BF31EE601A72
:1012700071EE200A31EE201A71EE600ABDEEE01A1E
:1012800011EE100A9FED321A00F0030000EEC10AC1
:101290009FED301A009000EEC10A9FED2F1A00EE6C
:1012A000C10A9FED2E1A00EEC10AABE728EE080A2C
:1012B0009FED2B1ADFED2B0A10F0020F40EE010A12
:1012C0009FED291A00EE201A61EE000AB0EE480ADE
:1012D00008EE200AB6D101B0BDEC028B00BD00F0D3
:1012E00017F98FE718EE100A4000B0F17F4F0DD2CA
:1012F00018EE100AFFF7B6FE042808BF00F000F948
:10130000B0EE480A01B0BDEC028B00BD09D101204E
:10131000FEF7B8FF01B0BDEC028B5DF804EB00F006
:10132000E7B801B0B0EE480ABDEC028B5DF804EB03
:1013300000F0DAB8B61F927EB93AB2BACA9F2A3D17
:10134000DDFFFFBE490E494683F9223F0000004BF6
:101350000000C93F00A0FD390020A2331A61342CDF
:10136000336D4CB9DA82083CA0AA2ABE00B510EE53
:10137000101A2DED028B81B04D4A6846B2EB410F39
:101380003CD94FF0E640B0EB410F94BF00204FF046
:10139000FF3000900098B0EE408A00285FDB28EE16
:1013A000080ADFED440A9FED441A00EE201ADFED33
:1013B000430A40EE010A9FED421A00EE201ADFEDCB
:1013C000410A10F0010F40EE010A9FED3F1A00EEB6
:1013D000201A61EE000AB0EE480A08EE200A02BFA9
:1013E00001B0BDEC028B00BDBFEE001A01B0C1EE32
:1013F000000ABDEC028BB0EE600A00BD334B21F059
:101400000042934228D911F0004FDFED310A20EE5F
:10141000201ADFED300A19BF31EE601A71EE200A92
:1014200031EE201A71EE600ABDEEE01A11EE100ADC
:101430009FED291A00F0030000EEC10A9FED271A64
:10144000009000EEC10A9FED261A00EEC10A9FED42
:10145000251A00EEC10A9DE700F05AF89AE718EE47
:10146000100A4000B0F17F4F0DD218EE100AFFF7BE
:10147000F9FD042808BF00F043F8B0EE480A01B0B7
:10148000BDEC028B00BD09D10120FEF7FBFE01B0CF
:10149000BDEC028B5DF804EB00F02AB801B0B0EEB1
:1014A000480ABDEC028B5DF804EB00F01DB80000AB
:1014B000B61F927EBCE9223C0B6D063B8A76CE3C81
:1014C000ACB5593D35A1083E29AAAA3E490E494668
:1014D00083F9223F0000004B0000C93F00A0FD3906
:1014E0000020A2331A61342C30EE000A704700004D
:1014F000DFED020A80EEA00A704700000000000045
:101500009FED020A20EE000A704700000000001064
:101510002DE9F0014FF07F42B2EB410F9FBF4FF03A
:10152000FF310160BDE8F00170474FF0004242EA30
:101530000123C1F3C752783A551112F01F0C434CE6
:10154000CCF120067C44C1F3C752A2F178024FEAE5
:10155000621204EB820254F8254008BFD2E901561A
:1015600012D0556804FA0CF425FA06F73C43976844
:1015700005FA0CF527FA06F8D26807FA0CFCF240D7
:1015800045EA08054CEA0206A4FB034CA5FB0352FE
:10159000A6FB03631D449D4234BF01260026131998
:1015A000334416B1934202D903E0934201D201229F
:1015B00000E00022624402F1200C9206DC0C42EAB8
:1015C000443200EE102A5B03DFED210AF8EEC01A68
:1015D00000EE103A4FEA9C1C11F0004FB8EE400AA2
:1015E000C0F800C020EE201A00EE105ADFED190AF4
:1015F000B8EE400A20EE200A71EE810A70EE800AF1
:1016000010EE902A02F500626FF30B0200EE902AB2
:1016100070EEE11A31EEC11ADFED101A30EE411A08
:101620009FED0D0A20EE800A01EE210A9FED0C1AB3
:1016300000EE810A04BFBDE8F0017047CCF1805193
:101640000160BDE8F001B1EE400A704738010000CA
:10165000000000360000802C22AAFD29DB0FC92FD4
:101660000000C92FF1EE100A4FF6FF71C0F2C03131
:1016700020EA010040F04070E1EE100A70470000DF
:10168000000000006E83F9A22915444ED15727FCB3
:10169000C0DD34F5999562DB4190433CAB6351FE6C
:1016A000C016000800000020A8000000D0010008BB
:1016B00068170008A800002090060000EC01000850
:1016C0003F000000060000005B0000004F0000002B
:1016D000660000006D0000007D00000007000000B3
:1016E0007F0000006F000000770000007C00000019
:1016F000390000005E000000790000007100000069
:10170000FF1E0000FF1D0000FF1B0000FF17000070
:10171000FF0F00000000803F1000000001000000EB
:1017200004000000070000000A0000001100000093
:10173000020000000500000008000000000000009A
:101740001200000003000000060000000900000075
:101750000B0000000A0000000F0000000E00000057
:081760000D0000000C00000068
:0400000508000235B8
:00000001FF
