:020000040800F2
:10000000C80B002039020008410200084302000822
:1000100045020008470200084902000800000000ED
:100020000000000000000000000000004B0200087B
:100030004D020008000000004F02000819030008EC
:10004000530200085302000853020008530200083C
:10005000530200085302000853020008530200082C
:10006000530200085302000853020008530200081C
:10007000530200085302000853020008530200080C
:100080005302000853020008530200080000000059
:100090000000000000000000000000005302000803
:1000A00053020008530200085302000853020008DC
:1000B00053020008530200085302000853020008CC
:1000C00053020008530200085302000853020008BC
:1000D0005302000853020008530200080000000009
:1000E00053020008530200085302000800000000F9
:1000F00000000000000000000000000053020008A3
:1001000000000000530200085302000853020008D8
:1001100000000000000000000000000000000000DF
:10012000530200085302000853020008530200085B
:100130005302000800000000000000000000000062
:100140000000000000000000000000005302000852
:10015000530200085302000853020008530200082B
:1001600053020008530200080000000000000000D5
:10017000000000000000000000000000000000007F
:100180000000000053020008000000000000000012
:100190005302000800F002F800F03EF80AA090E8D0
:1001A000000C82448344AAF10107DA4501D100F032
:1001B00033F8AFF2090EBAE80F0013F0010F18BFC1
:1001C000FB1A43F00103184790220000B022000000
:1001D000103A24BF78C878C1FAD8520724BF30C873
:1001E00030C144BF04680C60704700000023002445
:1001F00000250026103A28BF78C1FBD8520728BF37
:1002000030C148BF0B6070471FB501F08AFF00F096
:1002100037F81FBD10B510BD00F044F81146FFF7C8
:10022000F3FF01F089F900F062F803B4FFF7F2FF81
:1002300003BC00F06BF800000948804709480047FC
:10024000FEE7FEE7FEE7FEE7FEE7FEE7FEE7FEE786
:10025000FEE7FEE704480549054A064B70470000E3
:100260008904000895010008C8050020C80B00207B
:10027000C8070020C807002070477047704700007B
:1002800070B5064C7C44064D7D4404E02046016870
:1002900008448047241DAC42F8D170BDF021000015
:1002A000F0210000754600F02BF8AE4605006946C7
:1002B000534620F00700854618B020B5FFF7CAFF67
:1002C000BDE820404FF000064FF000074FF0000857
:1002D0004FF0000BAC46ACE8C009ACE8C009ACE894
:1002E000C009ACE8C00921F007018D46704710B580
:1002F0000446AFF300802046BDE81040FFF795BFED
:10030000004870471800002070470000014918207D
:10031000ABBEFEE72600020040F2C050C2F2000071
:1003200001680131016000680F280DDBFFE740F232
:10033000A051C2F200010120086040F2C051C2F297
:1003400000010020086006E040F2A051C2F2000166
:1003500000200860FFE7704786B0002105910491F6
:10036000022003900291019043F60800C4F20200BB
:10037000006800F00C0005900598009040B1FFE780
:10038000009804280ED0FFE70098082814D059E000
:1003900040F20001C2F2000142F20040C0F2F4005B
:1003A000086059E040F20001C2F2000141F2002071
:1003B000C0F27A0008604FE043F60400C4F2020085
:1003C0000168C1F380510291006800F03F00019084
:1003D000029888B1FFE7019941F20020C0F27A004B
:1003E000B0FBF1F043F60401C4F202010968C1F365
:1003F00088114843049010E0019942F20040C0F295
:10040000F400B0FBF1F043F60401C4F20201096804
:10041000C1F3881148430490FFE743F60400C4F297
:100420000200006800F44031022000EBD13003905C
:1004300004980399B0FBF1F040F20001C2F2000110
:10044000086009E040F20001C2F2000142F20040FF
:10045000C0F2F4000860FFE743F60800C4F20200AF
:100460000068C0B2010942F24610C0F60000405CCC
:100470000590059A40F20001C2F200010868D040E0
:10048000086006B0704700004EF68851CEF20001B9
:10049000086840F4700008607047000080B501F003
:1004A00041F880BD80B5FFF757FF4EF6FC51CEF204
:1004B0000001086840F08070086041F20001CEF24F
:1004C0000001086840F00100086080BD00000000E5
:1004D00080B584B00390039801F0FFFB41EC100B52
:1004E0008DED000B40F20000C2F20000006801F048
:1004F000F4FB41EC100B9FED161B53EC112B51EC50
:10050000100B01F027FA9DED000B41EC110B53ECA1
:10051000112B51EC100B01F06BFC41EC100B51EC6A
:10052000100B01F0ADFB029041F20401CEF200018C
:1005300000200860FFE741F20400CEF200000068EE
:100540000299884201D2FFE7F5E704B080BD00BF01
:100550000000000080842E4180B584B00390039891
:1005600001F0BBFB41EC100B8DED000B40F20000E5
:10057000C2F20000006801F0B0FB41EC100B9FEDEF
:10058000161B53EC112B51EC100B01F0E3F99DED10
:10059000000B41EC110B53EC112B51EC100B01F043
:1005A00027FC41EC100B51EC100B01F069FB0290A1
:1005B00041F20401CEF2000100200860FFE741F2A1
:1005C0000400CEF2000000680299884201D2FFE7E1
:1005D000F5E704B080BD00BF0000000000408F4080
:1005E00085B040F21402C2F200021068049040F29A
:1005F0000401C2F2000191ED000A40F20C00C2F2C7
:10060000000090ED001A30EE010A8DED030A9DED19
:10061000030A40F21000C2F2000090ED001A30EE22
:10062000011A80EE010A8DED020A9DED041A9DED7E
:10063000020A40F2B450C2F2000090ED002A32EEFD
:10064000412A20EE020A30EE010A8DED010A9DEDED
:10065000021AB7EE000A30EE410A9DED031A20EEB1
:10066000010A8DED000A019810600098086005B03D
:10067000704700000000000080B584B0039003982C
:1006800001F02BFB41EC100B8DED000B40F2000054
:10069000C2F20000006801F020FB41EC100B9FED5E
:1006A000161B53EC112B51EC100B01F053F99DED7F
:1006B000000B41EC110B53EC112B51EC100B01F022
:1006C00097FB41EC100B51EC100B01F0D9FA0290A2
:1006D00041F20401CEF2000100200860FFE741F280
:1006E0000400CEF2000000680299884201D2FFE7C0
:1006F000F5E704B080BD00BF0000000000408F405F
:1007000080B582B0009000980138B0F1807F03D3AB
:10071000FFE70120019019E0009801384EF2140122
:10072000CEF2000108604FF0FF300F2100F012F808
:100730004EF21801CEF20001002008604EF21002C5
:10074000CEF20002072111600190FFE7019802B08C
:1007500080BD000082B08DF8070000919DF9070070
:1007600000280AD4FFE7009800019DF907104EF217
:100770000042CEF2000288540BE0009800019DF880
:10078000071001F00F014EF61452CEF20002885409
:10079000FFE702B07047000080B588B0079006916F
:1007A0000592049307980190002003900698029008
:1007B0000498007808B9FFE718E0FFE70498039968
:1007C000405C98B1FFE701980299059A049BDDF817
:1007D0000CC00CF1010ECDF80CE013F80C3000F059
:1007E0008BF90146029808440290E7E708B080BD03
:1007F00084B00390029103990091029800780864F4
:1008000002984078486408200190FFE70198012889
:1008100010DBFFE70098406C0199B0EBC10F04D8E2
:10082000FFE700990198C864FFE7FFE701980138E6
:100830000190EBE70099086C88648A6CC86C50439F
:10084000013008650298486504B0704781B0009097
:1008500001B070478AB084460A98CDF820C007914D
:10086000069205938DF8130008989DF8131020390F
:10087000026D514303910599CA1701EB5271C910DA
:1008800002910599029AA1EBC2010191C06C0699EF
:10089000029A00FB01200399084401300090079957
:1008A000009808448078019A42F29831C0F600011D
:1008B00051F82210084204D0FFE701208DF82700EC
:1008C00003E000208DF82700FFE79DF827000AB01D
:1008D0007047000080B586B00590049103928DF8B2
:1008E0000B300598416D049A039B9DF80BC0EE46B2
:1008F000CEF800C0FFF7AEFF06B080BD80B586B071
:10090000DDF820C0059004910392029305980190B0
:100910000498029988420AD1FFE701980499039A42
:10092000089BD0F800C0DCF808C0E047ABE00398B3
:10093000089988420AD1FFE701980499029A039B1B
:10094000D0F800C0DCF80CC0E0479CE001980299A8
:10095000049A891A41600899039A891A816041684A
:100960004900C160816849000161049941610399AE
:1009700081610121C16101624068B0F1FF3F0BDC80
:10098000FFE701994FF0FF30C86148684042486076
:10099000C8684042C860FFE701988068B0F1FF3F37
:1009A0000BDCFFE701994FF0FF3008628868404296
:1009B0008860086940420861FFE701980499039A3A
:1009C00003685B68984701980299089A03685B6816
:1009D000984701984168806888422ADCFFE70199BE
:1009E00000204862FFE701984169C26911444161F2
:1009F0000269416A114441624168406A88420ADDE5
:100A0000FFE7019988690A6A10448861CA68486AE0
:100A1000801A4862FFE701980368416982695B6850
:100A20009847FFE70198406902998842DBD1FFE7C8
:100A300029E0019900208862FFE701988169026A34
:100A400011448161C268816A114481628168806A4F
:100A500088420ADDFFE701994869CA691044486184
:100A60000A69886A801A8862FFE701980368416909
:100A700082695B689847FFE7019880690899884216
:100A8000DBD1FFE7FFE706B080BD000083B0029036
:100A90000191009203B0704784B0039002910192DB
:100AA000009304B07047000084B00390029101925B
:100AB000009304B07047000082B00190009101994A
:100AC000009881F834000098000A81F8350002B0DF
:100AD0007047000083B002908DF8071002989DF8CF
:100AE00007102039026D51430091416D0098084470
:100AF000807803B07047000080B588B007900691F9
:100B000005928DF81330079800909DF81310FFF7A9
:100B1000E1FF039000200290FFE7029803998842CA
:100B200027DAFFE700200190FFE700990198496C60
:100B3000884219D2FFE700980299019A9DF8133074
:100B4000FFF7C8FE58B1FFE700980299069A1144D2
:100B5000019A059B1A4403685B689847FFE7FFE723
:100B6000019801300190E0E7FFE702980130029020
:100B7000D3E70398013008B080BD000081B0009039
:100B800001B0704780B582B001900198009042F2A8
:100B90001841C0F60001083101600021C162016303
:100BA0008163C16380F8341080F8351042F2561129
:100BB000C0F60001FFF71CFE009802B080BD0000E7
:100BC00080B584B003908DF80B10039801909DF8C8
:100BD0000B1000F00FF8019801794A00012101FA89
:100BE00002F30268116819431160002100F0AAF8AD
:100BF00004B080BD84B003908DF80B100398009072
:100C00009DF80B0000F0F0000146019180B1FFE774
:100C1000019810281AD0FFE70198202825D0FFE777
:100C20000198302830D0FFE7019840283BD049E0B8
:100C300000990020C4F20200086043F63001C4F2BB
:100C40000201086840F0010008603BE0009940F2B2
:100C50000040C4F20200086043F63001C4F2020111
:100C6000086840F0020008602CE0009940F600009F
:100C7000C4F20200086043F63001C4F202010868C1
:100C800040F0040008601DE0009940F60040C4F206
:100C90000200086043F63001C4F20201086840F027
:100CA000080008600EE0009941F20000C4F2020062
:100CB000086043F63001C4F20201086840F01000F9
:100CC0000860FFE700989DF80B1001F00F0101711B
:100CD0009DF80B10090941710279012101FA02F214
:100CE0008260027910329140C16001794A0003218B
:100CF00001FA02FC03681A6822EA0C021A6003680F
:100D0000D0F808C05A6822EA0C025A6002795200F0
:100D100001FA02FC03689A6822EA0C029A600279DE
:100D2000520001FA02FC03689A6842EA0C029A60D7
:100D30000279520001FA02F20168C8689043C86063
:100D400004B0704783B002908DF8071002980090AD
:100D50009DF80700C00738B1FFE700980168826876
:100D600088691043886106E000980168C268886954
:100D700010438861FFE703B07047000080B582B080
:100D800001908DF8031001989DF8031001F0010106
:100D9000FFF7D8FF9DF8030000F0010002B080BD0E
:100DA00080B582B00190009101989DF80010FFF786
:100DB00007FF02B080BD000080B582B001908DF8C1
:100DC000031001989DF80310012262F39F1100F0B7
:100DD000A5FA02B080BD000080B58EB0DDF864C019
:100DE000DDF860C0DDF85CC0DDF858C0DDF854C047
:100DF000DDF850C0DDF84CC0DDF848C0DDF844C077
:100E0000DDF840C00D900C910B920A930D9808905C
:100E100000F58B6000900C99FFF7C2FF009800214D
:100E20000691FFF7ABFF089800F58D6001900B99D4
:100E3000FFF7B6FF01980699FFF7A0FF089800F5A5
:100E40008F6004900A99FFF7ABFF04980699FFF7AB
:100E500095FF089800F5916002901099FFF7A0FFA8
:100E600002980699FFF78AFF089800F593600390AF
:100E70001199FFF795FF03980699FFF77FFF0898F0
:100E800000F595601999FFF78BFF089800F59760BA
:100E90001899FFF785FF089800F599601799FFF7F3
:100EA0007FFF089800F59B601699FFF779FF089877
:100EB00000F59D601599FFF773FF089800F59F6096
:100EC0001499FFF76DFF089800F5A1601399FFF7DB
:100ED00067FF089800F5A3601299FFF761FFFFF71D
:100EE000E1FA6420FFF738FB04980699FFF746FF04
:100EF00014200590FFF730FB049801210991FFF7BA
:100F00003DFF0598FFF728FB069A0898099900F01D
:100F10002BFA08983F21079100F000FA06990898EB
:100F2000099A00F021FA0799089800F0F7F9089853
:100F300000F032F80898016809698847089809990B
:100F4000FFF7BAFD0EB080BD80B58CB00B900B984A
:100F5000802181634021C163002180F8341080F832
:100F600035106A46082353621A2313621423D3618F
:100F700015239361132353610A2313611623D3604E
:100F80000723936006235360116027210922012360
:100F9000FFF722FF0CB080BD83B002900298009052
:100FA00000200190FFE70198B0F5806F0BDAFFE7B2
:100FB000009801990144002081F85800FFE701984A
:100FC00001300190EFE703B07047000080B584B0B6
:100FD00003908DF80B10039801909DF80B1001F011
:100FE000010100F59560FFF7C9FE01989DF80B100F
:100FF000C1F3400100F59760FFF7C0FE01989DF82E
:101000000B10C1F3800100F59960FFF7B7FE01985E
:101010009DF80B10C1F3C00100F59B60FFF7AEFE19
:1010200001989DF80B10C1F3001100F59D60FFF7CA
:10103000A5FE01989DF80B10C1F3401100F59F60CB
:10104000FFF79CFE01989DF80B10C1F3801100F58D
:10105000A160FFF793FE01989DF80B10C90900F5F8
:10106000A360FFF78BFE04B080BD000087B0069040
:1010700005910492069802900499CA1701EB5271E7
:10108000C9088DF80F1004999DF80F20A1EBC2013B
:101090008DF80E1090F83400012840F08180FFE7B1
:1010A0009DF80E0001460191072800F27780019912
:1010B000DFE801F00412202E3C4A586602989DF8A1
:1010C0000F20059901EBC211014491F8580040F03E
:1010D000010081F8580062E002989DF80F20059900
:1010E00001EBC211014491F8580040F0020081F870
:1010F000580054E002989DF80F20059901EBC211A9
:10110000014491F8580040F0040081F8580046E08E
:1011100002989DF80F20059901EBC211014491F846
:10112000580040F0080081F8580038E002989DF817
:101130000F20059901EBC211014491F8580040F0CD
:10114000100081F858002AE002989DF80F200599B8
:1011500001EBC211014491F8580040F0200081F8E1
:1011600058001CE002989DF80F20059901EBC21170
:10117000014491F8580040F0400081F858000EE01A
:1011800002989DF80F20059901EBC211014491F8D6
:10119000580040F0800081F8580000E0FFE77FE051
:1011A0009DF80E0001460091072800F27780009913
:1011B000DFE801F00412202E3C4A586602989DF8A0
:1011C0000F20059901EBC211014491F8580000F07D
:1011D000FE0081F8580062E002989DF80F20059902
:1011E00001EBC211014491F8580000F0FD0081F8B4
:1011F000580054E002989DF80F20059901EBC211A8
:10120000014491F8580000F0FB0081F8580046E0D6
:1012100002989DF80F20059901EBC211014491F845
:10122000580000F0F70081F8580038E002989DF867
:101230000F20059901EBC211014491F8580000F00C
:10124000EF0081F858002AE002989DF80F200599D8
:1012500001EBC211014491F8580000F0DF0081F861
:1012600058001CE002989DF80F20059901EBC2116F
:10127000014491F8580000F0BF0081F858000EE0DA
:1012800002989DF80F20059901EBC211014491F8D5
:10129000580000F07F0081F8580000E0FFE7FFE70A
:1012A00007B0704780B586B0059004910392029311
:1012B0000598009003980190FFE7019802998842F1
:1012C0000BDCFFE700980499019A03685B68984774
:1012D000FFE7019801300190EFE706B080BD000004
:1012E00080B586B005900491039202930598009012
:1012F00004980190FFE70198039988420BDCFFE70F
:1013000000980199029A03685B689847FFE7019883
:1013100001300190EFE706B080BD000080B586B0D7
:1013200005908DF813100598009000F58B60002152
:101330000391FFF723FD00989DF81310FFF746FE79
:1013400005200190FFF7C4F8009800F58D60029029
:101350000121FFF713FD0198FFF7BAF802980399EE
:10136000FFF70CFD06B080BD80B584B003908DF80A
:101370000B108DF80A20039801909DF80B2000F5C2
:101380009160012100919143FFF7F8FC00990198C9
:101390009DF80A2000F593609143FFF7EFFC04B03D
:1013A00080BD000080B58CB00B900B980990002098
:1013B0008DF82B00FFE79DF82B00072800F39080A5
:1013C000FFE709980121079100220892FFF7CCFF5F
:1013D00009989DF82B1000F085F809980899FFF7F7
:1013E000EBFC0998079900F58B60FFF7C7FC08989C
:1013F0008DF82A00FFE79DF82A003F2825DCFFE74B
:1014000009989DF82B209DF82A1001EBC211014488
:1014100091F85810FFF7DAFD05200590FFF758F80E
:10142000099800F58D6006900121FFF7A7FC05984B
:10143000FFF74EF806980021FFF7A0FCFFE79DF8A4
:101440002A0001308DF82A00D5E709980021039180
:1014500001220492FFF788FF09989DF82B1000F0F5
:1014600041F803990998FFF7A7FC0998049900F53A
:101470008B60FFF783FC40208DF82900FFE79DF883
:1014800029007F2825DCFFE709989DF82B209DF88F
:10149000291001EBC211014491F85810FFF796FD95
:1014A00005200190FFF714F8099800F58D6002906F
:1014B0000121FFF763FC0198FFF70AF80298002169
:1014C000FFF75CFCFFE79DF8290001308DF829004B
:1014D000D5E7FFE79DF82B0001308DF82B006AE778
:1014E0000CB080BD80B582B001908DF803100198DA
:1014F0009DF80310172262F3DF01FFF70FFF02B020
:1015000080BD000080B582B0019001980090FFF787
:1015100039FB009842F23441C0F600010831016005
:1015200002B080BD80B540F27800C2F20000FFF743
:10153000E9FF80BD0000000080B59AB00020159042
:1015400019906946139108224A621A220A621422EB
:10155000CA6115228A6113224A610A220A6116228F
:10156000CA6007228A6006224A60086040F278005A
:10157000C2F2000027210922149201231793FFF7DA
:101580002BFC1499159843F63003C4F202031A6831
:1015900042F007021A6040F20043C4F202031A68E4
:1015A00042F00C021A6040F6000CC4F2020CDCF8A7
:1015B000002042F03002CCF8002043F6440CC4F284
:1015C000020CDCF8002042F48042CCF80020DCF869
:1015D000002042F48072CCF800201A6842F00C021D
:1015E0001A6042F20403C4F201031A681A6042F25C
:1015F0003402C4F20102116042F20801C4F2010196
:10160000169108606420FFF737F81699179808605C
:10161000FEF7A2FE40F20000C2F200000068FFF7F1
:101620006FF8FFE740F27800C2F2000042F2504348
:10163000C0F6000301213622FFF7AEF840F20800A1
:10164000C2F20000006840F2BC51C2F20001086022
:1016500042F20801C4F20101086840F080400860CD
:10166000FFE742F20000C4F20100006800F002004F
:10167000012802D1FFE700BFF3E742F24C00C4F2B9
:10168000010090ED000AB8EE400A40F2B450C2F2F8
:101690000000129080ED000AFEF7A2FF1298006889
:1016A00000F0A4FC41EC100B9FED831B53EC112BBD
:1016B00051EC100B00F04EF941EC100B51EC100BFB
:1016C0009FED7F0B53EC102B00F092FB41EC100BC5
:1016D00051EC100B00F000F9014640F2B850C2F294
:1016E00000000160006800F081FC41EC100B9FEDF0
:1016F000761B53EC112B51EC100B00F0C5FC68B9B4
:10170000FFE740F2B850C2F2000090ED000AB2EEDE
:10171000041A30EE010A80ED000AFFE740F2B850EB
:10172000C2F2000090ED001A9FED690A30EE410A06
:10173000BDEEC00A40F20801C2F2000181ED000ACC
:1017400040F2AC52C2F2000211680231116040F264
:10175000B052C2F2000211680131116090ED000A2E
:101760009FED5C1AB4EE410AF1EE10FA08DDFFE7D6
:1017700040F2A851C2F20001086801300860FFE79A
:1017800040F2A050C2F200000068012845D1FFE7F6
:1017900040F2A850C2F2000011900068810040F2AF
:1017A000A450C2F200000160016801EB410246F260
:1017B0006761C6F2666152FB01F39A0802EBD372CD
:1017C00030328DF86320006800EB400050FB01F2DE
:1017D000910801EBD27101EB8101A0EB41003030A7
:1017E0008DF862009DF8633040F27800C2F200008C
:1017F00010901E2136220F92FFF77EF90F9A109853
:101800009DF862302421FFF777F94FF47A70FEF7E4
:1018100033FF11990020086012E040F27800C2F214
:1018200000000E901E2136220C9220230D93FFF70C
:1018300063F90C9A0D9B0E982421FFF75DF9FFE7E1
:1018400040F2AC50C2F200000B900368991E40F2C7
:10185000BC50C2F200000068421D40F20800C2F213
:10186000000000680530EC46CCF8000040F278003B
:10187000C2F200000A90FFF741F80A98FFF792FDC4
:101880000A98022136222023FFF736F90B980068C8
:101890007F280DDBFFE740F27800C2F20000FFF77F
:1018A0007BFB40F2AC51C2F2000100200860FFE770
:1018B000B8E600BF00BF00BF0000000000FEAF4060
:1018C000000000000000494000000000000044400B
:1018D0000000484200001C4221F0004201F0004399
:1018E000A2F16052B2F5801F28BFD2F17F6C0BD9F4
:1018F0005FEA001C43EAC20242EB507018BF704717
:1019000028BF20F001007047B2F5801FBCBF184609
:1019100070474FEA410C1CF5001F02D2084600F048
:101920000DBC70B500F00EFB00000089FFF7F6BF9C
:101930004FF00040A0F580007047491058BFC1F13A
:1019400040415B1058BFC3F140438B42EFF300802E
:10195000704700002DE9C04130B4DFF8A4C23CEA72
:10196000111418BF3CEA131400F0ED801CEA1114A6
:1019700081EA030544EAD57418BF1CEA131500F088
:10198000C880A4EB050404F17F7404F500344FF023
:10199000004545EAC12145EAC32341EA505143EAE3
:1019A00052534FEAC0204FEAC222994208BF9042E8
:1019B00000F09D804FEA13650FF24416765D4FEA02
:1019C000134506FB05F7C7F1807706FB07F74FEADB
:1019D000D737A7FB03687642A7FB06CEC8F5803849
:1019E00038BFA8F1010807FB08E6A6FB028C4FF000
:1019F000000EE6FB03CEDCF1000CCEF1004E38BF4A
:101A0000AEF1010EA6FB0C584FF00007E6FB0E8767
:101A1000A1FB08C6A0FB07CE16EB0E064FF0000593
:101A200045F10005E1FB076515F1E04E7EBFA4F529
:101A300080345FEA46066D4116F1800745F10005E6
:101A40004FEA172747EA05674FEA15254FEA06666A
:101A5000A6F1DE46B6F1805F20D9384605EBC471A9
:101A600024F0010C01EB0C11BCF1FE6F02D8F0BCAC
:101A7000BDE8008124425CBF01F5801E9EEAC47F60
:101A800002D4F0BCBDE80081244200F13980A1F10C
:101A9000C041F0BCBDE8004100F0A2BA4FEAD0203E
:101AA00040EA41504FEAD1214FEAD22242EA435262
:101AB0004FEAD323A7FB028607FB036605FB0266FA
:101AC0001EEA0E0F58BFA6EB0056B6EB00564FEAC3
:101AD000520E4EEAC37E18EB0E0E56EB530EBCD5DB
:101AE00018EB02085E417F1C55F10005B5E74FF485
:101AF00080154FF000074FF000064FF00008ACE7EC
:101B000001F1C04101F000414FF00000F0BCBDE820
:101B100000810CEA131511EA0C1F00D00CE013EA47
:101B20000C1F00F026804FF0000081EA030101F055
:101B30000041F0BCBDE80081F0BCBDE8004181EA95
:101B4000030100F04DBAF0BCBDE8004170B500F0F3
:101B5000F9F900BF097EFC3E00F007B84FF0000025
:101B600081EA030101F00041704781EA030100F0BE
:101B700037BAF0BCBDE8004122494FF00000704781
:101B8000FFFDFBF9F7F5F4F2F0EEEDEBE9E8E6E442
:101B9000E3E1E0DEDDDBDAD8D7D5D4D3D1D0CFCDC9
:101BA000CCCBCAC8C7C6C5C4C2C1C0BFBEBDBCBB02
:101BB000BAB9B8B7B6B5B4B3B2B1B0AFAEADACABFD
:101BC000AAA9A8A8A7A6A5A4A3A3A2A1A09F9F9ED7
:101BD0009D9C9C9B9A999998979796959594939389
:101BE000929191908F8F8E8E8D8C8C8B8B8A898920
:101BF00088888787868585848483838282818180A3
:101C00000000FF070000F87F51EA030C17D41CF511
:101C1000801F58BFBCF5801F00F10680994218BF95
:101C2000704708BF9042704707D711F5801F58BF13
:101C300013F5801F19D499427047894270471CF5EB
:101C4000801F08D5BCF5801FF7D58B4218BF7047A1
:101C500008BF824270474FF4001C1CEB410F38BF95
:101C60001CEB430F01D28B42704770B500F06AF94C
:101C7000922449004FF000514FF08053FFF75DBEB2
:101C80004FEA1153A3F58063D3F11E03A8BFD3F12C
:101C9000200C08DB4FF0004242EAC12252EA5052C7
:101CA00032FA03F0704709420BD4102BC4BF002056
:101CB000704703F5787CBCF1FF3F05D04FF0FF3053
:101CC00070474FF00000704770B500F03BF900BF5F
:101CD0004992248000207047F0E7B0FA80F310FAB0
:101CE00003F10AD0C3F11D0303F580634FEA0352E9
:101CF0004FEA415002EBD12170474FF0000070478E
:101D000051EA030C17D41CF5801F58BFBCF5801F87
:101D100000F10680994218BF704708BF9042704793
:101D200007D711F5801F58BF13F5801F19D49942AA
:101D30007047894270471CF5801F08D5BCF5801F8D
:101D4000F7D58B4218BF704708BF824270474FF4E7
:101D5000001C1CEB410F38BF1CEB430F01D28B4220
:101D6000704770B500F0EEF8922449004FF08051B2
:101D70004FF00053FFF7E1BD51EA030C17D41CF5F7
:101D8000801F58BFBCF5801F00F10680994218BF24
:101D9000704708BF9042704707D711F5801F58BFA2
:101DA00013F5801F19D499427047894270471CF57A
:101DB000801F08D5BCF5801FF7D58B4218BF704730
:101DC00008BF824270474FF4001C1CEB410F38BF24
:101DD0001CEB430F01D28B42704770B500F0B2F894
:101DE000922449004FF000514FF08053FFF7A5BDFA
:101DF00070B5DFF848C11CEA111E1EBF1CEA13159E
:101E00009EEA0C0F95EA0C0F00F06F8081EA030444
:101E10004EEAD47EAE4421EA4C1123EA4C1341F43D
:101E2000801143F48013AEF17F7EA1FB024CA0FB36
:101E30000365361955EB0C05A1FB034C4CF100036F
:101E4000A0FB021C16EB0C06654153F1000309428E
:101E500018BF46F0010613F4007F0BD14FEA03319F
:101E60004FEA053041EA155140EA165034036FF04D
:101E700003020AE04FEAC3214FEAC52041EA555167
:101E800040EA5650F4026FF0020202EB2E4201EBE0
:101E9000025585EACE710AD05FEA440C18BF24F0DF
:101EA000004450F1000041F1000120EAD47040F2FA
:101EB000FE7C624500D270BDA84214BF4FF0804442
:101EC0004FF04044002E08BF0024BEF1806FA8BF31
:101ED000A1F1C041BDE8704080F2828001F1C041B3
:101EE00001F000414FF0000070470CEA13159EEA24
:101EF0000C0F18BF95EA0C0F06D081EA030E4FF0C5
:101F000000000EF0004170BD00F01CF88900013E99
:101F100000F007B800F009B84FEA430C5FEA5C5CD8
:101F200008D081EA030100F05BB84FEA410C5FEA98
:101F30005C5CF6D102494FF0000070470000FF07DB
:101F40000000F87F0EF1020E2EF0030E5EF8046B17
:101F5000364205D4012A43EB030515F5001F12D8BC
:101F6000012841EB010C1CF5001F0CD80ED14FEAE3
:101F7000D17C0CEB4C0C0CF1020C15F5001F08BFCA
:101F80004CEBD37C04E04FF0080C01E04FEAD37C2B
:101F90000CEB4C0526FA05F606F00706B6F1040C24
:101FA00006D20EEB860CBDE870404CF0010C604789
:101FB000DFE80CF0090B02024FF00041A1F500210F
:101FC0004FF0000070BD19461046012851EB010486
:101FD00018BFD4F5001484BF002001F0004170BD8B
:101FE0000808A0F500114FEA3101704743004FEA9D
:101FF000D30C4FEA3C0C43401FBF40070CF160512B
:1020000013F0FE4F70471CF0006F03D10CF000413D
:10201000002070470CF0004343EA507040EACC00C7
:1020200010B500F038F800BF000000924FEA000140
:10203000FFF7D6BF4FF00041A1F500214FF000009F
:10204000704710B5FFF7E0FD0CBF0120002010BD68
:1020500010B5FFF7D9FD14BF0120002010BD10B549
:10206000FFF74EFE8CBF0120002010BD10B5FFF71A
:1020700047FE2CBF0120002010BD10B5FFF77CFEED
:1020800094BF0120002010BD10B5FFF775FE34BFCE
:102090000120002010BD0EF1020E2EF0030E5EF89E
:1020A000044B244204D44FEA4102B2F17F4F11D8CD
:1020B0004FEA4003B3F17F4F0CD80ED14FEAD07CEA
:1020C0000CEB4C0C0CF1020CB2F17F4F08BF4CEB47
:1020D000D17C04E04FF0080C01E04FEAD17C0CEB1E
:1020E0004C0324FA03F404F00704B4F1040C06D200
:1020F0000EEB840CBDE810404CF0010C6047DFE8AB
:102100000CF0070802024FF00040A0F5800010BD5F
:102110000846420018BFD2F1807288BF00F000402C
:1021200010BDF1EE100A4FF6FF71C0F2C03120EA87
:10213000010040F04070E1EE100A7047FF2141EAD3
:10214000D050C005704700000000000000000102F0
:102150000304060708090507030000000000030048
:10216000004F000004000700070005147F147F14CF
:1021700005242A7F2A12052313086462053649566E
:10218000205803000503000004001C224100040045
:1021900041221C000522147F14220508083E08086D
:1021A00004000050300005080808080803006060BB
:1021B0000000052010080402053E5149453E040078
:1021C000427F4000054261514946052141454B315E
:1021D000051814127F10052745454539053C4A4925
:1021E0004930050101710D03053649494936050697
:1021F0004949291E03006C6C00000300563600009C
:10220000040814224100051414141414050041227A
:102210001408050201510906053E415D551E057C65
:102220001211127C057F49494936053E4141412240
:10223000057F4141221C057F49494941057F090924
:102240000901053E4149497A057F0808087F0400D5
:10225000417F4100052040413F01057F0814224194
:10226000057F40404040057F020C027F057F040847
:10227000107F053E4141413E057F09090906053EA3
:102280004151215E057F09192946052649494932F0
:102290000501017F0101053F4040403F051F2040EF
:1022A000201F053F4038403F0563140814630503B1
:1022B0000478040305615149454304007F4141000E
:1022C000050204081020040041417F0005040201BA
:1022D0000204054040404040040000030500052082
:1022E00054545478057F48444438053844444444A1
:1022F00005384444487F0538545454180504047E76
:10230000050505085454543C057F0804047804006E
:10231000447D4000042040443D0005007F102844D7
:102320000400417F4000057C04780478057C0804A3
:102330000478053844444438057C1414140805080E
:102340001414147C05007C080404054854545420DB
:102350000504043F4444053C4040207C051C2040CB
:10236000201C053C4030403C054428102844050C06
:102370005050503C054464544C44050008364141DB
:102380000300007F000004414136080005020102FD
:102390000402056058465860010000000200000079
:1023A00004000000080000001000000020000000F1
:1023B000400000008000000000010000000200005A
:1023C00000040000000800000010000000200000D1
:1023D000004000000080000000000100000002003A
:1023E00000000400000008000000100000002000B1
:1023F000000040000000800000000001000000021A
:102400000000000400000008000000100000002090
:1024100000000040000000800000000000000000FC
:102420004D0800088D0A0008990A0008A90A00084A
:102430007D0B00080000000000000000490F0008AC
:102440006D100008A5120008E1120008A51300088D
:1024500042504D3A200000007C240008000000207B
:1024600018000000D0010008942400081800002083
:10247000B00B0000EC01000825E0FFFF0024F40091
:10248000CDCCCC3D1E0000000000803FA323B93B13
:042490000000A04068
:0400000508000239B4
:00000001FF
