:020000040800F2
:10000000780601204D02000855020008570200083A
:10001000590200085B0200085D02000800000000B1
:100020000000000000000000000000005F02000867
:100030006102000800000000630200086502000879
:1000400067020008670200086702000867020008EC
:1000500067020008670200086702000867020008DC
:1000600067020008670200086702000867020008CC
:1000700067020008670200086702000867020008BC
:1000800067020008670200086702000867020008AC
:10009000670200086702000867020008670200089C
:1000A000670200086702000867020008670200088C
:1000B000670200086702000867020008670200087C
:1000C000670200086702000867020008670200086C
:1000D000670200086702000867020008670200085C
:1000E000670200086702000867020008670200084C
:1000F000670200086702000867020008670200083C
:10010000670200086702000867020008670200082B
:100110002103000867020008670200086702000860
:10012000670200086702000867020008670200080B
:1001300067020008670200086702000867020008FB
:1001400067020008670200086702000867020008EB
:1001500067020008670200086702000867020008DB
:1001600067020008670200086702000867020008CB
:10017000670200086702000867020008000000002C
:1001800067020008670200086702000867020008AB
:10019000670200086702000867020008670200089B
:1001A000670200086702000867020008670200088B
:1001B000670200086702000867020008670200087B
:1001C000670200086702000800F002F800F02EF84D
:1001D0000AA090E8000C82448344AAF10107DA45A2
:1001E00001D100F023F8AFF2090EBAE80F0013F0C6
:1001F000010F18BFFB1A43F001031847380600002F
:10020000480600000023002400250026103A28BFDD
:1002100078C1FBD8520728BF30C148BF0B60704778
:100220001FB500F0FAFA1FBD10B510BD00F036F88A
:100230001146FFF7F5FF00F09BFA00F054F803B405
:10024000FFF7F2FF03BC00F057F8000009488047B1
:1002500009480047FEE7FEE7FEE7FEE7FEE7FEE7A8
:10026000FEE7FEE7FEE7FEE704480549054A064BC0
:100270007047000009030008C90100087800012048
:10028000780601207802012078020120704770472B
:100290007047000000487047000001207546FFF7D6
:1002A000F9FFAE4605006946534620F00700854633
:1002B00018B020B5FFF7D8FFBDE820404FF000068A
:1002C0004FF000074FF000084FF0000BAC46ACE8D1
:1002D000C009ACE8C009ACE8C009ACE8C00921F02D
:1002E00007018D46704710B50446AFF300802046E5
:1002F000BDE81040FFF7A3BF01491820ABBEFEE7E1
:1003000026000200704700004EF68850CEF2000032
:10031000016841F4700101607047000000000000B6
:10032000B0B544F6244040F26C05C4F20000C2F2BD
:10033000010540F264040068C2F2010400EE100AF4
:100340003128B8EE400A85ED000A03D10120206073
:1003500000F05EF895ED000A9FED251AB4EE410A13
:10036000F1EE10FA03D10220206000F029F995ED9A
:10037000000A9FED201A30EE010A40F26800C2F236
:1003800001009FED1D1A40F2700180ED000A20EE81
:10039000010A2068C2F20101022881ED000A0FD093
:1003A000012818BFB0BDBFEE001A9FED172A30EE2E
:1003B000010A9FED121A80EE011AB7EE000A0BE057
:1003C000BFEE001A9FED0E2A30EE010A9FED0B1AC8
:1003D00080EE011A9FED0B0AA1EE020A40F26000C6
:1003E000C2F20100BDEEC00A80ED000AB0BD00BF40
:1003F00000004842000040C20080A64300703B4518
:1004000000C0FF440010004500E0FF440000000071
:1004100040F6180044F24021C4F20200C0F20F017D
:100420004FF4602202604FF4801202600A4600BF5F
:10043000013A00BFFCD1102202600A46013A00BF17
:10044000FCD14EF260324FF48013C0F2160203600A
:10045000134600BF013B00BFFCD10823C0F20603D6
:1004600003604FF4801303600B4600BF013B00BFE5
:10047000FCD1102303600B46013B00BFFCD14FF4BD
:1004800080130360134600BF013B00BFFCD104236F
:10049000C0F20A0303604FF4801303600B4600BFF1
:1004A000013B00BFFCD1102303600B46013B00BFA2
:1004B000FCD14FF480130360134600BF013B00BF23
:1004C000FCD10C23C0F2020303604FF480130360DD
:1004D0000B4600BF013B00BFFCD1102303600B465D
:1004E000013B00BFFCD14FF480130360134600BFF3
:1004F000013B00BFFCD10223C0F20C0303604FF4A8
:10050000801303600B4600BF013B00BFFCD11023EA
:1005100003600B46013B00BFFCD14FF48013036026
:10052000134600BF013B00BFFCD10A23C0F2040305
:1005300003604FF4801303600B4600BF013B00BF14
:10054000FCD1102303600B46013B00BFFCD14FF4EC
:1005500080130360134600BF013B00BFFCD106239C
:10056000C0F2080303604FF4801303600B4600BF22
:10057000013B00BFFCD1102303600B46013B00BFD1
:10058000FCD14FF480130360134600BF013B00BF52
:10059000FCD10E2303604FF4801303600B4600BFB1
:1005A000013B00BFFCD11023036000BF013900BF35
:1005B000FCD14FF480110160013A00BFFCD17047BB
:1005C00040F6180044F24021C4F20200C0F20F01CC
:1005D0000E2202604FF4801202600A46013A00BF08
:1005E000FCD1102202600A46013A00BFFCD14EF253
:1005F00060324FF48013C0F216020360134600BF4E
:10060000013B00BFFCD10623C0F2080303604FF496
:10061000801303600B4600BF013B00BFFCD11023D9
:1006200003600B46013B00BFFCD14FF48013036015
:10063000134600BF013B00BFFCD10A23C0F20403F4
:1006400003604FF4801303600B4600BF013B00BF03
:10065000FCD1102303600B46013B00BFFCD14FF4DB
:1006600080130360134600BF013B00BFFCD102238F
:10067000C0F20C0303604FF4801303600B4600BF0D
:10068000013B00BFFCD1102303600B46013B00BFC0
:10069000FCD14FF480130360134600BF013B00BF41
:1006A000FCD10C23C0F2020303604FF480130360FB
:1006B0000B4600BF013B00BFFCD1102303600B467B
:1006C000013B00BFFCD14FF480130360134600BF11
:1006D000013B00BFFCD10423C0F20A0303604FF4C6
:1006E000801303600B4600BF013B00BFFCD1102309
:1006F00003600B46013B00BFFCD14FF48013036045
:10070000134600BF013B00BFFCD10823C0F2060323
:1007100003604FF4801303600B4600BF013B00BF32
:10072000FCD1102303600B46013B00BFFCD14FF40A
:1007300080130360134600BF013B00BFFCD14FF4A0
:10074000602303604FF4801303600B46013B00BF3E
:10075000FCD11023036000BF013900BFFCD14FF46E
:1007600080110160013A00BFFCD170470000000019
:1007700043F6300040F60002C4F20200C4F2020266
:10078000016841F001010160016841F0040101606C
:100790004FF60001CFF6FF71535843F440735350A6
:1007A000116841F4AA711160016841F0060101600D
:1007B000016941F400210161116841F420011160D7
:1007C00040F624014FF40842C4F202010A6044F6E4
:1007D0000041C4F2000140F28362CA602D220A6027
:1007E0004EF20411CEF200014FF480120A6047F27B
:1007F0000041C4F20001026942F00052026108683F
:1008000040F0010008600020886040F26000C2F201
:10081000010000BF02688A60FCE7F1EE100A4FF6A3
:10082000FF71C0F2C03120EA010040F04070E1EEFB
:10083000100A7047440800080000012078060000F4
:0408400004020008A6
:040000050800024DA0
:00000001FF
