:020000040800F2
:10000000780601204D02000855020008570200083A
:10001000590200085B0200085D02000800000000B1
:100020000000000000000000000000005F02000867
:100030006102000800000000630200086502000879
:1000400067020008670200086702000867020008EC
:1000500067020008670200086702000867020008DC
:1000600067020008670200086702000867020008CC
:1000700067020008670200086702000867020008BC
:1000800067020008670200086702000867020008AC
:10009000670200086702000867020008670200089C
:1000A000670200086702000867020008670200088C
:1000B000670200086702000867020008670200087C
:1000C000670200086702000867020008670200086C
:1000D000670200086702000867020008670200085C
:1000E000670200086702000867020008670200084C
:1000F000670200086702000867020008670200083C
:10010000670200086702000867020008670200082B
:10011000670200086702000867020008670200081B
:10012000670200086702000867020008670200080B
:1001300067020008670200086702000867020008FB
:1001400067020008670200086702000867020008EB
:1001500067020008670200086702000867020008DB
:1001600067020008670200086702000867020008CB
:10017000670200086702000867020008000000002C
:1001800067020008670200086702000867020008AB
:10019000670200086702000867020008670200089B
:1001A000670200086702000867020008670200088B
:1001B000670200086702000867020008670200087B
:1001C000670200086702000800F002F800F02EF84D
:1001D0000AA090E8000C82448344AAF10107DA45A2
:1001E00001D100F023F8AFF2090EBAE80F0013F0C6
:1001F000010F18BFFB1A43F0010318477C020000EF
:100200008C0200000023002400250026103A28BF9D
:1002100078C1FBD8520728BF30C148BF0B60704778
:100220001FB500F01BF91FBD10B510BD00F031F86F
:100230001146FFF7F5FF00F073F800F04FF803B434
:10024000FFF7F2FF03BC00F057F8000009488047B1
:1002500009480047FEE7FEE7FEE7FEE7FEE7FEE7A8
:10026000FEE7FEE7FEE7FEE704480549054A064BC0
:100270007047000009030008C90100087800012048
:10028000780601207802012078020120704770472B
:100290007047754600F02CF8AE4605006946534697
:1002A00020F00700854618B020B5FFF7DDFFBDE858
:1002B00020404FF000064FF000074FF000084FF0CD
:1002C000000BAC46ACE8C009ACE8C009ACE8C0091A
:1002D000ACE8C00921F007018D46704710B504460F
:1002E000AFF300802046BDE81040FFF7A8BF000034
:1002F000004870470000012001491820ABBEFEE70E
:1003000026000200704700004EF68851CEF2000130
:10031000086840F4700008607047000000000000AA
:1003200082B00020019043F63002C4F2020211684C
:1003300041F0010111600022C4F20202116841F48F
:100340004071116043F64002C4F20202116841F0AC
:100350000051116047F20042C4F20002116841F0FE
:100360000101116047F20841C4F200010860FFE793
:1003700040F26C00C2F2010090ED000A9FED321ACB
:1003800030EE010A40F26800C2F2010080ED000A7E
:1003900090ED000AB3EE0E1A20EE010A40F2700052
:1003A000C2F2010080ED000A40F26400C2F20100D6
:1003B00000680090012804D0FFE7009802281BD0B5
:1003C00037E040F27000C2F2010090ED001AB7EE83
:1003D000000A31EE401A9FED1D2A81EE021A9FEDB0
:1003E0001E2AA1EE020ABDEEC00A40F26000C2F26F
:1003F000010080ED000A1CE040F27000C2F2010032
:1004000090ED000ABFEE001A30EE010A9FED0F1AC0
:1004100080EE011A9FED0E2A9FED0E0AA1EE020A50
:10042000BDEEC00A40F26000C2F2010080ED000A99
:10043000FFE740F26000C2F20100006847F20841A5
:10044000C4F20001086093E7000040C200703B4521
:1004500000C0FF440010004500E0FF44F1EE100A28
:100460004FF6FF71C0F2C03120EA010040F0407049
:10047000E1EE100A70470000880400080000012027
:080480007806000004020008E8
:040000050800024DA0
:00000001FF
