:020000040800F2
:10000000E8060020350200083D0200083F02000813
:1000100041020008430200084502000800000000F9
:10002000000000000000000000000000470200087F
:1000300049020008000000004B0200084D020008C1
:100040004F0200084F0200084F0200084F0200084C
:100050004F0200084F020008F1020008A90300083F
:10006000050500084F020008290600084F02000895
:100070004F0200084F0200084F0200084F0200081C
:100080004F0200084F0200084F0200080000000065
:100090000000000000000000000000004F02000807
:1000A0004F0200084F0200084F0200084F020008EC
:1000B0004F0200084F0200084F0200084F020008DC
:1000C0004F0200084F0200084F0200084F020008CC
:1000D0004F0200084F020008C1070008000000009E
:1000E0004F0200084F0200084F0200080000000005
:1000F0000000000000000000000000004F020008A7
:10010000000000004F0200084F0200084F020008E4
:1001100000000000000000000000000000000000DF
:100120004F0200084F0200084F0200084F0200086B
:100130004F02000800000000000000000000000066
:100140000000000000000000000000004F02000856
:100150004F0200084F0200084F0200084F0200083B
:100160004F0200084F0200080000000000000000DD
:10017000000000000000000000000000000000007F
:10018000000000004F020008000000000000000016
:100190004F02000800F002F800F03CF80AA090E8D6
:1001A000000C82448344AAF10107DA4501D100F032
:1001B00031F8AFF2090EBAE80F0013F0010F18BFC3
:1001C000FB1A43F001031847D4150000F415000092
:1001D000103A24BF78C878C1FAD8520724BF30C873
:1001E00030C144BF04680C60704700000023002445
:1001F00000250026103A28BF78C1FBD8520728BF37
:1002000030C148BF0B6070471FB501F0B1FA1FBD88
:1002100010B510BD00F036F81146FFF7F5FF01F0FC
:1002200045FA00F054F803B4FFF7F2FF03BC00F006
:1002300057F800000948804709480047FEE7FEE7F5
:10024000FEE7FEE7FEE7FEE7FEE7FEE7FEE7FEE786
:1002500004480549054A064B70470000AD070008F1
:1002600095010008E8000020E8060020E8020020D0
:10027000E802002070477047704700000048704750
:10028000500000207546FFF7F9FFAE4605006946AD
:10029000534620F00700854618B020B5FFF7D8FF79
:1002A000BDE820404FF000064FF000074FF0000877
:1002B0004FF0000BAC46ACE8C009ACE8C009ACE8B4
:1002C000C009ACE8C00921F007018D46704710B5A0
:1002D0000446AFF300802046BDE81040FFF7A3BFFF
:1002E00001491820ABBEFEE726000200704700005F
:1002F0004CF25030013800BFFCD12DE9F04740F2FC
:10030000144440F2E00740F200080625C4F202045B
:100310000126C2F20007C2F200084FF00A094FF0AE
:10032000000A04E000F098FE01350A2D27D0681E6F
:1003300006FA00F0206054F8040C10F0010001D01F
:10034000062DEFD020B1072D02D100F0E1FCEBE744
:1003500020B1082D02D100F037FBE5E70028E3D0FB
:10036000092DE1D141F28830013800BFFCD1386855
:100370000A2848F8209008BFC7F800A0D4E74EF23A
:100380006030C0F2160000BF013800BFFCD14FF44E
:10039000F070206043F61440C4F201004FF6FF7184
:1003A0000160BDE8F08700004CF25030013800BF1A
:1003B000FCD12DE9F04F81B040F2144440F2D00B53
:1003C00040F2D40840F2B00940F2E00A0625C4F237
:1003D000020401260027C2F2000BC2F20008C2F29A
:1003E0000009C2F2000A04E000F0C2FE01350A2D45
:1003F00074D0681E06FA00F0206054F8040C10F067
:10040000020001D0062DEFD020B1072D02D100F05F
:100410000BFDEBE720B1082D02D100F061FBE5E711
:100420000028E3D0092DE1D140F2B400C2F200006F
:10043000076040F2B800C2F20000076040F2BC0062
:10044000C2F20000076040F2C000C2F20000076084
:1004500040F2C400C2F20000076040F2C800C2F2DD
:100460000000076040F2CC00C2F200000760D9F83B
:100470000000CBF80070411CC8F80070C9F80010EB
:1004800088B1012823D141F2883000BF013800BF74
:10049000FCD1DAF8000040F200010A28C2F20001A3
:1004A0004FF020020EE041F28831401A013000BFC7
:1004B000FCD3DAF8000040F200010A28C2F2000181
:1004C0004FF0300241F8202008BFCAF80070D9F878
:1004D0000000022808BFC9F8007087E74EF26030BC
:1004E000C0F21600013800BFFCD14FF4F07020605C
:1004F00043F61440C4F201004FF6FF71016001B0F1
:10050000BDE8F08F4CF25030013800BFFCD12DE92E
:10051000F04F81B040F2144440F2E00940F2D408B8
:1005200040F2000A0625C4F202040126C2F20009C4
:100530000027C2F20008C2F2000A4FF47A7B04E0FE
:1005400000F0A2FE01350A2D5AD0681E06FA00F00E
:10055000206054F8040C10F0040001D0062DEFD0F8
:1005600020B1072D02D100F0EBFCEBE720B1082D04
:1005700002D100F041FBE5E70028E3D0092DE1D1ED
:1005800041F28830013800BFFCD140F2B001C2F224
:1005900000010F6040F2B401C2F200010F6040F2AE
:1005A000B801C2F200010F6040F2BC01C2F20001CA
:1005B0000F6040F2C001C2F200010F6040F2C401BE
:1005C000C2F200010F6040F2C801C2F200010F60E8
:1005D00040F2CC01D9F80000C2F200010F6040F2F5
:1005E000D0010130C2F20001C9F800000F60C8F864
:1005F00000700A284AF820B008BFC9F80070A1E7C7
:100600004EF26030C0F21600013800BFFCD14FF44A
:10061000F070206043F61440C4F201004FF6FF7101
:10062000016001B0BDE8F08F4CF25030013800BFDE
:10063000FCD12DE9F04140F2144040F2E00340F2D9
:10064000000C0621C4F202000122C2F20003C2F231
:10065000000C4FF00C0E00240D250E264FF00F0855
:1006600004E000BF1C6001310A2946D04F1E02FA87
:1006700007F7076050F8047C17F010070ED0062922
:100680000CD141F2883700BF013F00BFFCD11F6889
:100690000A2F4CF827E0E5D0E5E700BF77B107293E
:1006A0000CD141F2883700BF013F00BFFCD11F6869
:1006B0000A2F4CF82750D5D0D5E700BF77B10829CD
:1006C0000CD141F2883700BF013F00BFFCD11F6849
:1006D0000A2F4CF8276008BF1C60C4E7002FC2D067
:1006E0000929C0D141F28837013F00BFFCD11F6802
:1006F0000A2F4CF82780B5D0B5E74EF26031C0F232
:10070000160100BF013900BFFCD14FF4F071016048
:1007100043F61440C4F201004FF6FF710160BDE8DA
:10072000F081000080B543F60400C4F20200416885
:1007300001F00C0242F20041082AC0F2F40106D096
:10074000042A20D147F64001C0F27D111BE0D0F809
:1007500000C00368026803F03F03C2F3881E5FEA2B
:100760004C2247F64002C0F27D1258BF0A46B2FB47
:10077000F3F102680223C2F301420EFB01F103EB25
:100780004202B1FBF2F140F22802C2F20002116013
:10079000406841F28A71C0F30310C0F60001085CA2
:1007A000116821FA00F0106080BD00004EF68850FC
:1007B000CEF20000016841F4700101607047000052
:1007C00044F20440C4F20000006840F2DC01C2F2CE
:1007D000000108707047000043F6440140F6140021
:1007E000C4F202010F22C4F2020041F8142C50F8A6
:1007F000142C45F25553C0F255531A4340F8142CAB
:100800000A6840F22A2342F480420A600021C4F2BE
:1008100002010A6842F0A0020A600A6A42F4EE424B
:100820000A62D1F8002442F4AA32C1F800244FF63B
:10083000F831CFF6FF7142581A43425043F608018F
:10084000C4F201010A6840F211131A430A604A68AF
:1008500042F001024A60D1F8F82342F01702C1F8D1
:10086000F823D1F8002442F01702C1F800244EF218
:100870000011CEF200014FF4B8620A604FF6004159
:10088000CFF6FF714FF4F072425040F24C01C2F2C9
:1008900000010978026802F47F4202600268114395
:1008A0000160016821F480710160016841F4007108
:1008B000016041F2883100BF013900BFFCD10168FD
:1008C00021F40071016040F22D01C2F200010978AB
:1008D000026802F47F42026002681143016001680D
:1008E00021F480710160016841F40071016041F2FE
:1008F000883100BF013900BFFCD1016821F40071CB
:10090000016040F23D01C2F200010978026802F480
:100910007F420260026811430160016821F4807126
:100920000160016841F40071016041F2883100BF4B
:10093000013900BFFCD1016821F40071016040F26F
:100940002C01C2F200010978026802F47F420260C1
:10095000026811430160016821F48071016001683F
:1009600041F40071016041F2883100BF013900BFDC
:10097000FCD1016821F40071016042F2107100BFE6
:10098000013900BFFCD140F23B01C2F200010978FD
:10099000026802F47F42026002681143016001684C
:1009A00021F480710160016841F40071016041F23D
:1009B000883100BF013900BFFCD1016821F400710A
:1009C000016000F035BD000040F2B000C2F200004E
:1009D0000022026040F2B800C2F20000026040F261
:1009E000BC00C2F20000026040F2C000C2F200008F
:1009F000026040F2C400C2F20000026040F2C8008F
:100A0000C2F20000026040F2CC00C2F200000260BC
:100A100040F2D000C2F20000026040F2B400C2F224
:100A2000000040F2D4030168C2F200031A604A1CBD
:100A3000032902604DD8DFE801F00213233341F2AD
:100A40008832891A013100BFFCD340F2E001C2F2C2
:100A50000001096840F20002C2F2000231232EE0D8
:100A600041F28831013900BFFCD140F2E001C2F20D
:100A70000001096840F20002C2F2000261231EE098
:100A800041F28831013900BFFCD140F2E001C2F2ED
:100A90000001096840F20002C2F2000262230EE087
:100AA00041F28831013900BFFCD140F2E001C2F2CD
:100AB0000001096840F20002C2F2000263230A2921
:100AC00042F8213005D140F2E001C2F200010022DB
:100AD0000A600168042904BF00210160704700001A
:100AE00040F2B000C2F200000022026040F2B40006
:100AF000C2F20000026040F2BC00C2F200000260DC
:100B000040F2C000C2F20000026040F2C400C2F233
:100B10000000026040F2C800C2F20000026040F231
:100B2000CC00C2F20000026040F2D000C2F200002D
:100B3000026040F2B800C2F2000040F2D403016843
:100B4000C2F200031A604A1C032902604DD8DFE894
:100B500001F00213233341F28832891A013100BFB8
:100B6000FCD340F2E001C2F20001096840F2000249
:100B7000C2F2000232232EE041F28831013900BF77
:100B8000FCD140F2E001C2F20001096840F200022B
:100B9000C2F2000264231EE041F28831013900BF35
:100BA000FCD140F2E001C2F20001096840F200020B
:100BB000C2F2000265230EE041F28831013900BF24
:100BC000FCD140F2E001C2F20001096840F20002EB
:100BD000C2F2000266230A2942F8213005D140F210
:100BE000E001C2F2000100220A600168042904BF8A
:100BF000002101607047000040F2B000C2F2000026
:100C00000022026040F2B400C2F20000026040F232
:100C1000B800C2F20000026040F2C000C2F2000060
:100C2000026040F2C400C2F20000026040F2C8005C
:100C3000C2F20000026040F2CC00C2F2000002608A
:100C400040F2D000C2F20000026040F2BC00C2F2EA
:100C5000000040F2D4030168C2F200031A604A1C8B
:100C6000032902604DD8DFE801F00213233341F27B
:100C70008832891A013100BFFCD340F2E001C2F290
:100C80000001096840F20002C2F2000233232EE0A4
:100C900041F28831013900BFFCD140F2E001C2F2DB
:100CA0000001096840F20002C2F2000267231EE060
:100CB00041F28831013900BFFCD140F2E001C2F2BB
:100CC0000001096840F20002C2F2000268230EE04F
:100CD00041F28831013900BFFCD140F2E001C2F29B
:100CE0000001096840F20002C2F2000269230A29E9
:100CF00042F8213005D140F2E001C2F200010022A9
:100D00000A600168042904BF0021016070470000E7
:100D100040F2B000C2F200000022026040F2B400D3
:100D2000C2F20000026040F2B800C2F200000260AD
:100D300040F2BC00C2F20000026040F2C400C2F205
:100D40000000026040F2C800C2F20000026040F2FF
:100D5000CC00C2F20000026040F2D000C2F20000FB
:100D6000026040F2C000C2F2000040F2D403016809
:100D7000C2F200031A604A1C032902604DD8DFE862
:100D800001F00213233341F28832891A013100BF86
:100D9000FCD340F2E001C2F20001096840F2000217
:100DA000C2F2000234232EE041F28831013900BF43
:100DB000FCD140F2E001C2F20001096840F20002F9
:100DC000C2F200026A231EE041F28831013900BFFD
:100DD000FCD140F2E001C2F20001096840F20002D9
:100DE000C2F200026B230EE041F28831013900BFEC
:100DF000FCD140F2E001C2F20001096840F20002B9
:100E0000C2F200026C230A2942F8213005D140F2D7
:100E1000E001C2F2000100220A600168042904BF57
:100E2000002101607047000040F2B000C2F20000F3
:100E30000022026040F2B400C2F20000026040F200
:100E4000B800C2F20000026040F2BC00C2F2000032
:100E5000026040F2C000C2F20000026040F2C8002E
:100E6000C2F20000026040F2CC00C2F20000026058
:100E700040F2D000C2F20000026040F2C400C2F2B0
:100E8000000040F2D4030168C2F200031A604A1C59
:100E9000032902604DD8DFE801F00213233341F249
:100EA0008832891A013100BFFCD340F2E001C2F25E
:100EB0000001096840F20002C2F2000235232EE070
:100EC00041F28831013900BFFCD140F2E001C2F2A9
:100ED0000001096840F20002C2F200026D231EE028
:100EE00041F28831013900BFFCD140F2E001C2F289
:100EF0000001096840F20002C2F200026E230EE017
:100F000041F28831013900BFFCD140F2E001C2F268
:100F10000001096840F20002C2F200026F230A29B0
:100F200042F8213005D140F2E001C2F20001002276
:100F30000A600168042904BF0021016070470000B5
:100F400040F2B000C2F200000022026040F2B400A1
:100F5000C2F20000026040F2B800C2F2000002607B
:100F600040F2BC00C2F20000026040F2C000C2F2D7
:100F70000000026040F2C400C2F20000026040F2D1
:100F8000CC00C2F20000026040F2D000C2F20000C9
:100F9000026040F2C800C2F2000040F2D4030168CF
:100FA000C2F200031A604A1C032902604DD8DFE830
:100FB00001F00213233341F28832891A013100BF54
:100FC000FCD340F2E001C2F20001096840F20002E5
:100FD000C2F2000236232EE041F28831013900BF0F
:100FE000FCD140F2E001C2F20001096840F20002C7
:100FF000C2F2000270231EE041F28831013900BFC5
:10100000FCD140F2E001C2F20001096840F20002A6
:10101000C2F2000271230EE041F28831013900BFB3
:10102000FCD140F2E001C2F20001096840F2000286
:10103000C2F2000272230A2942F8213005D140F29F
:10104000E001C2F2000100220A600168042904BF25
:10105000002101607047000040F2B000C2F20000C1
:101060000022026040F2B400C2F20000026040F2CE
:10107000B800C2F20000026040F2BC00C2F2000000
:10108000026040F2C000C2F20000026040F2C40000
:10109000C2F20000026040F2C800C2F2000002602A
:1010A00040F2D000C2F20000026040F2CC00C2F276
:1010B000000040F2D4030168C2F200031A604A1C27
:1010C000032902604DD8DFE801F00213233341F217
:1010D0008832891A013100BFFCD340F2E001C2F22C
:1010E0000001096840F20002C2F2000237232EE03C
:1010F00041F28831013900BFFCD140F2E001C2F277
:101100000001096840F20002C2F2000273231EE0EF
:1011100041F28831013900BFFCD140F2E001C2F256
:101120000001096840F20002C2F2000274230EE0DE
:1011300041F28831013900BFFCD140F2E001C2F236
:101140000001096840F20002C2F2000275230A2978
:1011500042F8213005D140F2E001C2F20001002244
:101160000A600168042904BF002101607047000083
:1011700040F2B000C2F200000022026040F2B4006F
:10118000C2F20000026040F2B800C2F20000026049
:1011900040F2BC00C2F20000026040F2C000C2F2A5
:1011A0000000026040F2C400C2F20000026040F29F
:1011B000C800C2F20000026040F2CC00C2F200009F
:1011C000026040F2D000C2F2000040F2D403016895
:1011D000C2F200031A604A1C032902604DD8DFE8FE
:1011E00001F00213233341F28832891A013100BF22
:1011F000FCD340F2E001C2F20001096840F20002B3
:10120000C2F2000238232EE041F28831013900BFDA
:10121000FCD140F2E001C2F20001096840F2000294
:10122000C2F2000276231EE041F28831013900BF8C
:10123000FCD140F2E001C2F20001096840F2000274
:10124000C2F2000277230EE041F28831013900BF7B
:10125000FCD140F2E001C2F20001096840F2000254
:10126000C2F2000278230A2942F8213005D140F267
:10127000E001C2F2000100220A600168042904BFF3
:10128000002101607047000040F2B000C2F200008F
:101290000022026040F2B400C2F20000026040F29C
:1012A000B800C2F20000026040F2BC00C2F20000CE
:1012B000026040F2C000C2F20000026040F2C400CE
:1012C000C2F20000026040F2C800C2F200000260F8
:1012D00040F2CC00C2F20000026040F2D400C2F240
:1012E000000040F2D0030168C2F200031A604A1CF9
:1012F000026099B1012923D002293AD141F2883103
:10130000013900BFFCD140F2E001C2F200010968DE
:1013100040F20002C2F200027A2320E041F2883259
:10132000891A00BF013100BFFCD340F2E001C2F2D4
:101330000001096840F20002C2F2000239230EE007
:1013400041F28831013900BFFCD140F2E001C2F224
:101350000001096840F20002C2F2000279230A2962
:1013600042F8213005D140F2E001C2F20001002232
:101370000A600168032904BF002101607047000072
:1013800080B540F2D800C2F200000068002818BF03
:1013900080BD40F6140140F23C0C40F2000E0020EB
:1013A000C4F20201C2F2000CC2F2000E9CF800204E
:1013B0000B68024403F47F430B600B68D2B21A43FC
:1013C0000A600A6822F480720A600A6842F40072B5
:1013D0000A6041F2883200BF013A00BFFCD10A68BE
:1013E00022F400720A601EF820200B6803F47F4389
:1013F0000B600B681A430A600A6842F480720A6044
:101400000A6842F400720A6041F28832013A00BF71
:10141000FCD10A6822F400720A6046F2A81200BFEA
:10142000013A00BFFCD101300A28BFD180BD0000C5
:1014300080B540F2D800C2F20000016840F6140006
:101440000129C4F202006FD0002918BF80BD40F20C
:101450002C01C2F200010978026802F47F420260A6
:10146000026811430160016821F480710160016824
:1014700041F40071016041F2883100BF013900BFC1
:10148000FCD1016840F2440C21F400710160C2F209
:10149000000CDCF8001001292ADB40F2370E002294
:1014A000C2F2000E1EF80210036803F47F430360CB
:1014B000036819430160016841F4807101600168AB
:1014C00041F40071016041F2883100BF013900BF71
:1014D000FCD1016821F4007101604FF4FA7100BF82
:1014E000013900BFFCD1DCF8001001328A42D9DB9F
:1014F00040F23B02C2F2000212780368114403F486
:101500007F4202600268C9B211430160016821F4A0
:1015100080710160016841F40071016041F288311D
:10152000013900BFFCD1BCE040F22C01C2F2000145
:101530000978026802F47F42026002681143016088
:10154000016821F480710160016841F4007101605B
:1015500041F28831013900BFFCD1016840F2400CF2
:1015600021F400710160C2F2000CDCF800100129C6
:101570002ADB40F22E0E0022C2F2000E1EF80210EC
:10158000036803F47F430360036819430160016843
:1015900041F480710160016841F40071016041F221
:1015A000883100BF013900BFFCD1016821F400710E
:1015B00001604FF4FA7100BF013900BFFCD1DCF8C3
:1015C000001001328A42D9DB40F23B02C2F2000233
:1015D00012780368114403F47F4202600268C9B2C2
:1015E00011430160016821F480710160016841F4D8
:1015F0000071016041F28831013900BFFCD10168FE
:1016000040F2480C21F400710160C2F2000CDCF8D9
:10161000001001292ADB40F2DC0E0022C2F2000E8B
:101620009EF80010036803F47F43036003681943C6
:101630000160016841F480710160016841F400714A
:10164000016041F2883100BF013900BFFCD101685F
:1016500021F4007101604FF4FA7100BF013900BF3D
:10166000FCD1DCF8001001328A42D9DB40F23C02A6
:10167000C2F2000212780368114403F47F42026050
:101680000268C9B211430160016821F480710160F0
:10169000016841F40071016041F28831013900BFF5
:1016A000FCD1016821F40071016080BD4EF210048C
:1016B000CEF20004FFF790F843F64000C4F20200B7
:1016C000016840F2836241F40031016044F2084055
:1016D000C4F20000016811430160416842F22C121B
:1016E000114341604020C4F8F400FFF71BF840F2BA
:1016F0002800C2F200000068411E0020B0EB116F0C
:1017000009D161604EF62351CEF20001F0220A7039
:10171000A0600720206040F6140440F23B0540F230
:101720004006C4F20204C2F20005C2F2000600BF85
:101730002878317808442168013001F47F41216024
:101740002168C0B208432060206820F480702060C7
:10175000206840F40070206041F28830013800BFFA
:10176000FCD1206820F400702060FFF709FEDFE75D
:10177000F1EE100A4FF6FF71C0F2C03120EA01000D
:1017800040F04070E1EE100A7047000000000000D9
:10179000000001020304060708090000BC17000846
:1017A0000000002050000000D00100080C180008C4
:1017B0005000002098060000EC0100082000000006
:1017C0002000000020000000200000002000000099
:1017D0002000000020000000200000002000000089
:1017E000200000000024F400010C506C6174616E54
:1017F0006F3A00596F3A0080C006000008000000F0
:0C180000030000000A0000003800000097
:0400000508000235B8
:00000001FF
