:020000040800F2
:10000000C8060020350200083D0200083F02000833
:1000100041020008430200084502000800000000F9
:10002000000000000000000000000000470200087F
:1000300049020008000000004B020008DD0E000825
:100040004F0200084F0200084F0200084F0200084C
:100050004F0200084F0200084F0200084F0200083C
:100060004F0200084F0200084F0200084F0200082C
:100070004F0200084F0200084F0200084F0200081C
:100080004F0200084F0200084F0200080000000065
:100090000000000000000000000000001D0C00082F
:1000A0004F0200084F0200084F0200084F020008EC
:1000B0004F0200084F0200084F0200084F020008DC
:1000C0004F0200084F0200084F0200084F020008CC
:1000D0004F0200084F020008B10F000800000000A6
:1000E000F10200084F0200084F0200080000000063
:1000F0000000000000000000000000004F020008A7
:10010000000000004F0200084F0200084F020008E4
:1001100000000000000000000000000000000000DF
:100120004F0200084F0200084F0200084F0200086B
:100130004F02000800000000000000000000000066
:100140000000000000000000000000004F02000856
:100150004F0200084F0200084F0200084F0200083B
:100160004F0200084F0200080000000000000000DD
:10017000000000000000000000000000000000007F
:10018000000000004F020008000000000000000016
:100190004F02000800F002F800F03CF80AA090E8D6
:1001A000000C82448344AAF10107DA4501D100F032
:1001B00031F8AFF2090EBAE80F0013F0010F18BFC3
:1001C000FB1A43F001031847E41C0000041D000063
:1001D000103A24BF78C878C1FAD8520724BF30C873
:1001E00030C144BF04680C60704700000023002445
:1001F00000250026103A28BF78C1FBD8520728BF37
:1002000030C148BF0B6070471FB501F039FE1FBDFC
:1002100010B510BD00F036F81146FFF7F5FF01F0FC
:100220008BFA00F054F803B4FFF7F2FF03BC00F0C0
:1002300057F800000948804709480047FEE7FEE7F5
:10024000FEE7FEE7FEE7FEE7FEE7FEE7FEE7FEE786
:1002500004480549054A064B704700009D0F0008F9
:1002600095010008C8000020C8060020C802002030
:10027000C802002070477047704700000048704770
:10028000480000207546FFF7F9FFAE4605006946B5
:10029000534620F00700854618B020B5FFF7D8FF79
:1002A000BDE820404FF000064FF000074FF0000877
:1002B0004FF0000BAC46ACE8C009ACE8C009ACE8B4
:1002C000C009ACE8C00921F007018D46704710B5A0
:1002D0000446AFF300802046BDE81040FFF7A3BFFF
:1002E00001491820ABBEFEE726000200704700005F
:1002F0002DE9F04F81B040F6140440F20707C4F234
:100300000204C2F200073878216801F47F412160BD
:10031000216808432060206843F2AF6120F48070B8
:100320002060206840F40070206000200090009859
:10033000884208DC43F2B06000BF009901310091AF
:1003400000998142F8DB206843F6144B20F40070DA
:10035000C4F2010B2060DBF8000042F2E02A40F218
:10036000210E40F2B40540F2BC0C40F2400340F2D2
:10037000A80940F2AC0640F22408C0F2020A400587
:10038000C2F2000EC2F20005C2F2000CC2F200037B
:10039000C2F20009C2F20006C2F2000840F1238155
:1003A000DBF800004FF6FF710843CBF80000002097
:1003B000009000BF0099514504DA00BF0099013157
:1003C0000091F7E79EF800102A782368114403F49F
:1003D0007F4222602268C9B211432160216821F462
:1003E00080712160216841F40071216000900098C3
:1003F00043F2AF61884208DC43F2B06000BF00996D
:100400000131009100998142F8DB206840F24003FD
:1004100020F40070206040F23C00DCF80010C2F2D2
:10042000000000680029C2F2000308BF01280DD0B7
:10043000002908BF02280BD0002908BF032809D0D3
:10044000002908BF042808D1462204E0322202E035
:10045000442200E0452289F80020012908BF012834
:100460000DD0012908BF02280BD0012908BF03289D
:1004700009D0012908BF042808D14F2204E0352201
:1004800002E04D2200E04E2289F80020022908BF38
:1004900001280DD0022908BF02280BD0022908BF6D
:1004A000032809D0022908BF042808D1582204E0F3
:1004B000382202E0562200E0572289F80020032962
:1004C00008BF01280DD0032908BF02280BD003293B
:1004D00008BF032809D0032908BF042808D12D200C
:1004E00004E0302002E02C2000E02B2089F80000FE
:1004F000002000900099514504DA00BF00990131B5
:100500000091F7E799F80010326808F8021000BF70
:1005100000900098504503DA00BF00980130F7E7DB
:1005200099F80000216801F47F41216021680843A7
:100530002060206843F2AF6140F480702060206842
:1005400040F400702060002000900098884208DC91
:1005500043F2B06000BF00990131009100998142DF
:10056000F8DB206840F23C0220F400702060C2F208
:1005700000021168481C106040F238020120C2F2EB
:100580000002106004291860A2BF40F23C01C2F2D0
:10059000000108609EF8000029782268084402F4EF
:1005A0007F4121602168C0B208432060206843F287
:1005B000AF6120F480702060206840F400702060FB
:1005C000002000900098884209DC43F2B06000BF30
:1005D00000BF00990131009100998142F8DB206849
:1005E00020F400702060DBF80000000540F153812A
:1005F000DBF800004FF6FF710843CBF80000002045
:10060000009000BF0099514504DA00BF0099013104
:100610000091F7E79EF800102A782368114403F44C
:100620007F4222602268C9B211432160216821F40F
:1006300080712160216841F4007121600090009870
:1006400043F2AF61884208DC43F2B06000BF00991A
:100650000131009100998142F8DB206840F24003AB
:1006600020F400702060DCF80000C2F2000319687A
:10067000002808BF01290DD0002808BF02290BD08F
:10068000002808BF032909D0002808BF042908D181
:10069000492204E0332202E0472200E0482289F8A0
:1006A0000020012808BF01290DD0012808BF022918
:1006B0000BD0012808BF032909D0012808BF04294D
:1006C00008D1522204E0362202E0502200E05122FA
:1006D00089F80020022808BF01290ED0022808BF8F
:1006E00002290CD0022808BF03290AD0022808BF1B
:1006F000042908D003280BD055E0392104E0592102
:1007000002E05A2100E02E2189F8001003284AD186
:1007100000F07EFF00200090009941F65732914290
:1007200009DC41F6583100BF00BF009A0132009247
:10073000009A8A42F8DB4FF020312860C8E90011A6
:10074000C8E9021130603978226802F47F422260E1
:10075000226811432160216821F4807121602168A1
:1007600041F4007121600090009843F2AF6188422B
:1007700009DC43F2B06000BF00BF00990131009175
:1007800000998142F8DB206840F2BC0C40F2210E57
:1007900040F2400320F40070C2F2000CC2F2000EDE
:1007A000C2F2000320600020009000BF0099514574
:1007B00004DA00BF009901310091F7E799F80010C1
:1007C000326808F8021000BF00900098504503DA24
:1007D00000BF00980130F7E799F80000216801F4A4
:1007E0007F412160216808432060206843F2AF61A7
:1007F00040F480702060206840F400702060002089
:1008000000900098884208DC43F2B06000BF009975
:100810000131009100998142F8DB206840F23C02EE
:1008200020F4007020601968C2F20002481C0429FC
:1008300040F2380118604FF00100C2F20001106070
:100840000860A8BF18609EF8000029782268084454
:1008500002F47F4121602168C0B208432060206813
:1008600043F2AF6120F480702060206840F4007093
:100870002060002000900098884208DC43F2B060BD
:1008800000BF00990131009100998142F8DB206896
:1008900020F400702060DBF80000C00440F1BB8150
:1008A000DBF800004FF6FF710843CBF80000002092
:1008B00000900098504503DA00BF00980130F7E738
:1008C000DCF80000002864D140F238010120C2F2B7
:1008D0000001086040F23C01C2F200010860296892
:1008E0001860481C31682860481C30600020009067
:1008F000009A41F27011C0F201018A4207DA00BF8A
:1009000000BF009A01320092009A8A42F8DB9EF8FA
:1009100000102A782368114403F47F422260226881
:10092000C9B211432160216821F4807121602168DE
:1009300041F4007121600090009843F2AF61884259
:1009400009DC43F2B06000BF00BF009901310091A3
:1009500000998142F8DB206820F4007020600020BC
:100960000090009944F2C050C0F20400814206DABF
:1009700000BF00990131009100998142F8DB40F2FB
:10098000B80040F24003C2F200000121C2F20003AD
:100990000160DCF80000012840F0908040F238014E
:1009A0000120C2F20001086040F23C01C2F20001E5
:1009B000086018603068202108F80010206843F2B1
:1009C000AF6200F47F402060206840F0200020608B
:1009D000206840F480702060206840F4007020603F
:1009E000002000900099914209DC43F2B06100BF01
:1009F00000BF009A01320092009A8A42F8DB216817
:100A000021F4007121602968326801392960511E82
:100A100031600090009941F27010C0F201008142F3
:100A200007DA00BF00BF00990131009100998142AF
:100A3000F8DB9EF8000029782268084402F47F4120
:100A400021602168C0B208432060206843F2AF6291
:100A500020F480702060206840F400702060002046
:100A600000900099914208DC43F2B06100BF009A07
:100A700001320092009A8A42F8DB216821F4007169
:100A800021600090009944F2C050C0F204008142FD
:100A900007DA00BF00BF009901310091009981423F
:100AA000F8DB99F8000040F23601C2F2000108704C
:100AB00040F2B800C2F2000001210160DCF8000041
:100AC000022839D19EF80000216801F47F4121609D
:100AD000216808432060206843F2AF6120F48070F1
:100AE0002060206840F40070206000200090009892
:100AF000884208DC43F2B06000BF009901310091E8
:100B000000998142F8DB216844F2004021F4007131
:100B1000A9466546C4F200002160002118F80120B2
:100B200003681B06FCD5013110294260F6D10F2065
:100B300000F004FBAC464D46DCF8000003286AD107
:100B400040F20500C2F200000078216843F2AF6273
:100B500001F47F412160216808432060206820F46F
:100B600080702060206840F40070206000200090B9
:100B70000099914209DC43F2B06100BF00BF009AC6
:100B800001320092009A8A42F8DB216821F4007158
:100B900021600090009841F65731884209DC41F607
:100BA000583000BF00BF0099013100910099814287
:100BB000F8DB40F2B000C2F20000002101604FF00B
:100BC00020302960C8E90000C8E9020031603878A7
:100BD000226802F47F42226022681043206020686D
:100BE00020F480702060206840F400702060009144
:100BF000009843F2AF61884209DC43F2B06000BF65
:100C000000BF00990131009100998142F8DB206812
:100C100020F40070206001B0BDE8F08FF0B581B025
:100C200040F6140040F20701C4F20200C2F20001D3
:100C30000978026802F47F42026002681143016091
:100C4000016843F2AF6221F480710160016841F4F0
:100C500000710160002100910099914209DC43F28A
:100C6000B06100BF00BF009A01320092009A8A4230
:100C7000F8DB026843F6144122F40072C4F2010169
:100C800002600A68920540F126810A684FF6FF73F8
:100C90001A4340F2210C40F2B40E0A60C2F2000C7A
:100CA000C2F2000E9CF800109EF800200368114468
:100CB00003F47F4202600268C9B211430160016817
:100CC00043F2AF6221F480710160016841F4007168
:100CD0000160002100910099914208DC43F2B0616B
:100CE00000BF009A01320092009A8A42F8DB016844
:100CF00040F2380321F40071016040F2BC01C2F2FD
:100D000000010C68C2F200031A6840F2A801002C2E
:100D1000C2F2000108BF012A0DD0002C08BF022A30
:100D20000BD0002C08BF032A09D0002C08BF042ACE
:100D300007D1432504E0312502E0412500E04225AA
:100D40000D70012C08BF012A0DD0012C08BF022A0A
:100D50000BD0012C08BF032A09D0012C08BF042A9C
:100D600007D14C2504E0342502E04A2500E04B255C
:100D70000D70022C08BF012A0DD0022C08BF022AD8
:100D80000BD0022C08BF032A09D0022C08BF042A6A
:100D900007D1552504E0372502E0532500E054250E
:100DA0000D70032C08BF012A0DD0032C08BF022AA6
:100DB0000BD0032C08BF032A09D0032C08BF042A38
:100DC00007D1EF2204E0EE2202E0212200E0AF2270
:100DD0000A7000240094009D42F2E022C0F2020258
:100DE000954206DA00BF009D01350095009D9542B1
:100DF000F8DB40F2AC06C2F200060D78366840F22D
:100E00002407C2F20007BD550094009C944203DA07
:100E100000BF009C0134F7E70978026802F47F42C2
:100E20000260026811430160016843F2AF6241F45D
:100E300080710160016841F400710160002100913E
:100E40000099914209DC43F2B06100BF00BF009AF3
:100E500001320092009A8A42F8DB016840F23C04B9
:100E600021F4007101601A68C2F20004511C19607B
:100E70000121216040F24004C2F20004042A2160F2
:100E8000A8BF19609CF800109EF800200368114468
:100E900003F47F4202600268C9B211430160016835
:100EA00043F2AF6221F480710160016841F4007186
:100EB0000160002100910099914208DC43F2B06189
:100EC00000BF009A01320092009A8A42F8DB016862
:100ED00021F40071016001B0F0BD000040F2C000DB
:100EE000C2F2000001680329C2BF002101607047FF
:100EF000102202FA01F140F21442C4F2020211601F
:100F0000016840F2BC02C2F20002116001310160CE
:100F10007047000080B543F60400C4F20200416847
:100F200001F00C0242F20041082AC0F2F40106D09E
:100F3000042A20D147F64001C0F27D111BE0D0F811
:100F400000C00368026803F03F03C2F3881E5FEA33
:100F50004C2247F64002C0F27D1258BF0A46B2FB4F
:100F6000F3F102680223C2F301420EFB01F103EB2D
:100F70004202B1FBF2F140F20002C2F20002116043
:100F8000406841F69A61C0F30310C0F60001085CA6
:100F9000116821FA00F0106080BD00004EF6885004
:100FA000CEF20000016841F470010160704700005A
:100FB000F0B581B040F6140440F20700C4F2020418
:100FC000C2F200000078216801F47F4121602168AD
:100FD00008432060206843F2AF6120F480702060F5
:100FE000206840F40070206000200090009A8A423F
:100FF00009DC43F2B06200BF00BF009B01330093E5
:10100000009B9342F8DB226840F2200722F4007232
:1010100040F2B0052260C2F20007C2F200053A7841
:101020002B7826681A4406F47F4323602368D2B2E3
:101030001A432260226822F480722260226842F4FD
:101040000072226000900098884208DC43F2B06091
:1010500000BF00990131009100998142F8DB2068BE
:1010600043F2AF6320F40070206044F20040C4F209
:10107000000001684068216801F47F412160226816
:10108000C1B242EA01002060206840F48070206014
:10109000206840F40070206000200090009A9A427E
:1010A00009DC43F2B06200BF00BF009B0133009334
:1010B000009B9342F8DB226822F4007222600090C9
:1010C000009841F65732904209DC41F6583000BF93
:1010D00000BF009A01320092009A8242F8DB286831
:1010E0002E2900F10100286026D100F0FDF93878A2
:1010F000216843F2AF6201F47F4121602168084317
:101100002060206820F480702060206840F4007027
:101110002060002000900099914208DC43F2B06109
:1011200000BF009A01320092009A8A42F8DB2168DF
:1011300021F400712160286001B0F0BD10B581B0CC
:1011400040F61401C4F202010A6840F2210C02F4D4
:101150007F420A60C2F2000C9CF800200B68024437
:1011600003F47F430B600B68D2B21A430A600A682B
:101170004FF0000E22F480720A600A6842F4007296
:101180000A60CDF800E0009B43F2AF62934208DCB6
:1011900043F2B06300BF009C01340094009C9C4269
:1011A000F8DB0B6823F400730B6040F20403C2F217
:1011B00000031B780C6804F47F440C600C68234324
:1011C0000B600B6823F480730B600B6843F40073AF
:1011D0000B60CDF800E0009B934208DC43F2B06264
:1011E00000BF009B01330093009B9342F8DB0A6829
:1011F0004FF0000E22F400720A600A6843F2AF63F7
:1012000002F47F420A600A6842F01F020A600A681C
:1012100042F480720A600A6842F400720A60CDF8F3
:1012200000E0009A9A4208DC43F2B06200BF009CE2
:1012300001340094009C9442F8DB0A6822F40072A6
:101240000A600A6802F47F420A600A6842F01E02DD
:101250000A600A6842F480720A600A6842F4007206
:101260000A60CDF800E0009A9A4208DC43F2B062CE
:1012700000BF009B01330093009B9342F8DB0A6898
:101280004FF0000E22F400720A600A6843F2AF6366
:1012900002F47F420A600A6842F01C020A600A688F
:1012A00042F480720A600A6842F400720A60CDF863
:1012B00000E0009A9A4208DC43F2B06200BF009C52
:1012C00001340094009C9442F8DB0A6822F4007216
:1012D0000A600A6802F47F420A600A6842F0090262
:1012E0000A600A6842F480720A600A6842F4007276
:1012F0000A60CDF800E0009A9A4208DC43F2B0623E
:1013000000BF009B01330093009B9342F8DB0A6807
:101310004FF0000E22F400720A600A6843F2AF63D5
:1013200002F47F420A600A6842F003020A600A6817
:1013300042F480720A600A6842F400720A60CDF8D2
:1013400000E0009A9A4208DC43F2B06200BF009CC1
:1013500001340094009C9442F8DB0A6822F4007285
:101360000A600A6802F47F420A600A6842F01702C3
:101370000A600A6842F480720A600A6842F40072E5
:101380000A60CDF800E0009A9A4208DC43F2B062AD
:1013900000BF009B01330093009B9342F8DB0A6877
:1013A0004FF0000E22F400720A600A6843F2AF6345
:1013B00002F47F420A600A6842F01F020A600A686B
:1013C00042F480720A600A6842F400720A60CDF842
:1013D00000E0009A9A4208DC43F2B06200BF009C31
:1013E00001340094009C9442F8DB0A6822F40072F5
:1013F0000A600A6802F47F420A600A6842F01F022B
:101400000A600A6842F480720A600A6842F4007254
:101410000A60CDF800E0009A9A4208DC43F2B0621C
:1014200000BF009B01330093009B9342F8DB0A68E6
:1014300022F400720A609CF800200B68104403F448
:101440007F420A600A68C0B210430860086843F22D
:10145000AF6320F480700860086840F40070086092
:1014600000200090009A9A4209DC43F2B06200BF6B
:1014700000BF009B01330093009B9342F8DB0A6896
:1014800022F400720A6000BF00900098B0F52F7F30
:1014900003DA00BF00980130F6E7086843F2AF6254
:1014A00000F47F400860086840F0030008600868A6
:1014B00040F480700860086840F400700860002004
:1014C00000900098904208DC43F2B06000BF009AA0
:1014D00001320092009A8242F8DB086820F4007022
:1014E000086001B010BD000080B581B040F6140165
:1014F00040F20602C4F20201C2F2000212780B6846
:101500004FF0000C03F47F430B600B6843F2AF6EA7
:101510001A430A600A6822F480720A600A6842F478
:1015200000720A60CDF800C0009A724509DC43F2EF
:10153000B06200BF00BF009B01330093009B934249
:10154000F8DB0A6822F400720A6040F22002C2F25C
:10155000000212780B68024403F47F430B600B68AF
:10156000D2B21A430A600A6822F480720A600A68DA
:1015700042F400720A60CDF800C0009A724508DC9F
:1015800043F2B06200BF009B01330093009B934283
:10159000F8DB0A680F2822F400720A6036DC4FF08C
:1015A000000C43F2AF6E43F2B06202E0013010284B
:1015B0002CD00B6803F47F430B600B6843F02003CF
:1015C0000B600B6843F480730B600B6843F400738B
:1015D0000B60CDF800C0009B734506DC00BF009B8C
:1015E00001330093009B9342F8DB0B6823F40073F4
:1015F0000B60CDF800C0009B7345D7DC00BF009B9B
:1016000001330093009B9342F8DBCFE701B080BD2C
:1016100080B581B040F6140040F20601C4F2020029
:10162000C2F20001097802684FF0000C02F47F4218
:101630000260026811430160016843F2AF6221F465
:1016400080710160016841F400710160CDF800C053
:10165000009B934209DC43F2B06300BF00BF0099D6
:101660000131009100999942F8DB016821F4007181
:10167000016040F22101C2F200010978036803F41D
:101680007F430360036819430160016821F480719E
:101690000160016841F400710160CDF800C000995B
:1016A000914208DC43F2B06100BF009A013200921F
:1016B000009A8A42F8DB01684FF0000C21F40071B7
:1016C000016043F2AF6E43F2B063002103E000BF5C
:1016D000013110292CD0026802F47F4202600268B6
:1016E00042F020020260026842F4807202600268E6
:1016F00042F400720260CDF800C0009A724506DC28
:1017000000BF009A01320092009A9A42F8DB026808
:1017100022F400720260CDF800C0009A7245D7DC56
:1017200000BF009A01320092009A9A42F8DBCFE79C
:1017300001B080BD0000000082B043F63000C4F26A
:101740000200016840F6140441F0010101600168E3
:10175000C4F2020441F002010160016845F25553F0
:1017600041F0040101600021C4F202010A68C0F2E4
:10177000050342F4A0620A6054F8142C00251A43B1
:1017800044F8142C0A684EF200160A604FF4AA427C
:10179000C1F800244FF6F832CFF6FF72A358CEF20C
:1017A000000643F42A43A350CA6842F02A72CA6072
:1017B0000A6842F020020A600A6842F080020A6069
:1017C0000A6A42F4E0620A620A6A42F4E0420A6289
:1017D000016940F2826241F40031016144F20C413E
:1017E000C4F2000141F8042C0A6842F00C020A60BD
:1017F0004D608D600A6842F400520A6040227260B7
:101800000B6843F020030B60416941F6136341F418
:101810008041416143F60C40C4F201000168194364
:10182000016043F60800C4F20100D0F8F813194330
:10183000C0F8F81301680160416841608168816007
:10184000C168C1603260802030604FF480603060D9
:101850004FF4807070604FF400003060FFF75AFB67
:1018600040F20000C2F20000006800F0F8F99FEDBD
:10187000C80B53EC102B00F005FA00F0C3F9013847
:10188000B5EB106F0CD146F8EC0C4EF62350CEF2AF
:101890000000F0210170072046F8E85C46F8F00CE3
:1018A00040F23500C2F200000078216801F47F4167
:1018B0002160216808432060206820F48070206047
:1018C000206840F4007020600195019943F2AF60F8
:1018D000814208DC43F2B06100BF019A01320192FB
:1018E000019A8A42F8DB216821F40071216040F2FC
:1018F0000701C2F200010978226802F47F422260E7
:10190000226811432160216821F4807121602168DF
:1019100041F40071216000210191019A824208DCAA
:1019200043F2B06000BF019A01320192019A8242F3
:10193000F8DB206820F40070206040F23400C2F22E
:1019400000000078226802F47F422260226810437F
:101950002060206820F480702060206840F40070CF
:1019600020600191019943F2AF60814209DC43F2AA
:10197000B06100BF00BF019A01320192019A8A4210
:10198000F8DB216840F2050C21F400712160C2F2FD
:10199000000C9CF80010226802F47F42226022684A
:1019A00011432160216821F480712160216841F494
:1019B0000071216000210191019A824209DC43F209
:1019C000B06000BF00BF019A01320192019A8242C9
:1019D000F8DB206820F4007020600191019943F247
:1019E000AF60814209DC43F2B06100BF00BF019AE1
:1019F00001320192019A8A42F8DB40F22001C2F2E0
:101A0000000109782268023102F47F4222602268D4
:101A1000C9B2114321602168002321F48071216043
:101A2000216841F40071216001930199814208DC31
:101A300043F2B06000BF01990131019101998142E7
:101A4000F8DB206841F2701120F4007040F21308B6
:101A500040F2C40EC0F201012060C2F20008C2F2DE
:101A6000000E43F2AF6543F2B060002203E000BF16
:101A700001320C2A2AD018F802708EF800702668FD
:101A800006F47F46266026683E432660266846F4B4
:101A900080762660266846F4007626600193019ED3
:101AA000AE4206DC00BF019E01360196019E8642D1
:101AB000F8DB266826F4007626600193019E8E42AC
:101AC000D6DA00BF019E01360196F7E740F2210009
:101AD000C2F2000000782268033002F47F422260E4
:101AE0002268C0B2104320602068002320F4807078
:101AF0002060206843F2AF6840F4007020600193DA
:101B00000198404509DC43F2B06000BF00BF019A74
:101B100001320192019A8242F8DB206840F2080506
:101B200020F400702060C2F2000543F2B060002291
:101B300003E000BF01320A2A2ED0AF5C8EF800709D
:101B4000266806F47F46266026683E43266026689F
:101B500046F480762660266846F400762660019377
:101B6000019E464507DC00BF00BF019E013601967D
:101B7000019E8642F8DB266826F4007626600193F3
:101B8000019E8E42D6DA00BF019E01360196F7E72C
:101B9000FCA9F1D24D62503F00200190019A40F61D
:101BA0002031C0F220018A4207DA00BF00BF019A4B
:101BB00001320192019A8A42F8DB9CF800102268F7
:101BC00002F47F422260226811432160216821F4DF
:101BD00080712160216841F40071216001900198B9
:101BE00043F2AF61884208DC43F2B06000BF019964
:101BF0000131019101998142F8DB206820F40070E5
:101C0000206000004FEA1153A3F58063D3F11E0357
:101C1000A8BFD3F1200C08DB4FF0004242EAC122FA
:101C200052EA505232FA03F0704709420BD4102B9B
:101C3000C4BF0020704703F5787CBCF1FF3F05D09E
:101C40004FF0FF3070474FF00000704770B500F064
:101C5000C3F800BF4992248000207047F0E7B0FA33
:101C600080F310FA03F10AD0C3F11D0303F580637A
:101C70004FEA03524FEA415002EBD12170474FF037
:101C80000000704770B5DFF848C11CEA111E1EBF86
:101C90001CEA13159EEA0C0F95EA0C0F00F06F80FA
:101CA00081EA03044EEAD47EAE4421EA4C1123EAD1
:101CB0004C1341F4801143F48013AEF17F7EA1FBFD
:101CC000024CA0FB0365361955EB0C05A1FB034C38
:101CD0004CF10003A0FB021C16EB0C06654153F10E
:101CE0000003094218BF46F0010613F4007F0BD130
:101CF0004FEA03314FEA053041EA155140EA1650E8
:101D000034036FF003020AE04FEAC3214FEAC52013
:101D100041EA555140EA5650F4026FF0020202EBDC
:101D20002E4201EB025585EACE710AD05FEA440CDF
:101D300018BF24F0004450F1000041F1000120EAF6
:101D4000D47040F2FE7C624500D270BDA84214BF40
:101D50004FF080444FF04044002E08BF0024BEF1F5
:101D6000806FA8BFA1F1C041BDE8704080F28280C1
:101D700001F1C04101F000414FF0000070470CEA52
:101D800013159EEA0C0F18BF95EA0C0F06D081EAD6
:101D9000030E4FF000000EF0004170BD00F01CF883
:101DA0008900013E00F007B800F009B84FEA430C83
:101DB0005FEA5C5C08D081EA030100F05BB84FEA9F
:101DC000410C5FEA5C5CF6D102494FF000007047BD
:101DD0000000FF070000F87F0EF1020E2EF0030E48
:101DE0005EF8046B364205D4012A43EB030515F572
:101DF000001F12D8012841EB010C1CF5001F0CD864
:101E00000ED14FEAD17C0CEB4C0C0CF1020C15F509
:101E1000001F08BF4CEBD37C04E04FF0080C01E03E
:101E20004FEAD37C0CEB4C0526FA05F606F00706C4
:101E3000B6F1040C06D20EEB860CBDE870404CF0F7
:101E4000010C6047DFE80CF0090B02024FF0004183
:101E5000A1F500214FF0000070BD19461046012881
:101E600051EB010418BFD4F5001484BF002001F029
:101E7000004170BD0808A0F500114FEA310170471C
:101E8000F1EE100A4FF6FF71C0F2C03120EA0100F6
:101E900040F04070E1EE100A7047000000000000C2
:101EA000000001020304060708090000CC1E000818
:101EB0000000002044000000D0010008101F0008AE
:101EC0004800002080060000EC0100080024F40017
:101ED00058010C0E43686174205553415254004C14
:101EE00061622036204D6963726F730080C000000C
:101EF00020202020202020202020202020202020E2
:101F00000638200001000000010000000100000070
:0400000508000235B8
:00000001FF
