:020000040800F2
:10000000A8060020350200083D0200083F02000853
:1000100041020008430200084502000800000000F9
:10002000000000000000000000000000470200087F
:1000300049020008000000004B0200084D020008C1
:100040004F0200084F0200084F0200084F0200084C
:100050004F0200084F0200084F0200084F0200083C
:100060004F0200084F0200084F0200084F0200082C
:100070004F0200084F0200084F0200084F0200081C
:100080004F0200084F0200084F0200080000000065
:10009000000000000000000000000000F102000865
:1000A0004F0200084F0200084F0200084F020008EC
:1000B0004F0200084F0200084F0200084F020008DC
:1000C0004F0200084F0200084F0200084F020008CC
:1000D0004F0200084F0200084F0200080000000015
:1000E0004F0200084F0200084F0200080000000005
:1000F0000000000000000000000000004F020008A7
:10010000000000004F0200084F0200084F020008E4
:1001100000000000000000000000000000000000DF
:100120004F0200084F0200084F0200084F0200086B
:100130004F02000800000000000000000000000066
:100140000000000000000000000000004F02000856
:100150004F0200084F0200084F0200084F0200083B
:100160004F0200084F0200080000000000000000DD
:10017000000000000000000000000000000000007F
:10018000000000004F020008000000000000000016
:100190004F02000800F002F800F03CF80AA090E8D6
:1001A000000C82448344AAF10107DA4501D100F032
:1001B00031F8AFF2090EBAE80F0013F0010F18BFC3
:1001C000FB1A43F00103184788030000A80300004E
:1001D000103A24BF78C878C1FAD8520724BF30C873
:1001E00030C144BF04680C60704700000023002445
:1001F00000250026103A28BF78C1FBD8520728BF37
:1002000030C148BF0B6070471FB500F094F91FBDA7
:1002100010B510BD00F036F81146FFF7F5FF00F0FD
:1002200025F900F054F803B4FFF7F2FF03BC00F027
:1002300057F800000948804709480047FEE7FEE7F5
:10024000FEE7FEE7FEE7FEE7FEE7FEE7FEE7FEE786
:1002500004480549054A064B704700005904000848
:1002600095010008A8000020A8060020A802002090
:10027000A802002070477047704700000048704790
:10028000400000207546FFF7F9FFAE4605006946BD
:10029000534620F00700854618B020B5FFF7D8FF79
:1002A000BDE820404FF000064FF000074FF0000877
:1002B0004FF0000BAC46ACE8C009ACE8C009ACE8B4
:1002C000C009ACE8C00921F007018D46704710B5A0
:1002D0000446AFF300802046BDE81040FFF7A3BFFF
:1002E00001491820ABBEFEE726000200704700005F
:1002F00040F2A001C2F200010A6840F6100001328B
:10030000C4F202000A600E214160016801F4F0713C
:10031000E039FF290FD84909CAB2D12323FA02F2E2
:10032000D20708D02CA252F8211040F2A40209688A
:10033000C2F2000211600D214160016801F4F07108
:10034000E039FF290FD84909CAB2D12323FA02F2B2
:10035000D20708D028A252F8211040F2A40209685E
:10036000C2F2000211600B214160016801F4F071DA
:10037000E039FF290FD84909CAB2D12323FA02F282
:10038000D20708D024A252F8211040F2A402096832
:10039000C2F20002116007214160006800F4F070B1
:1003A000E038FF280FD84009C1B2D12222FA01F16A
:1003B000C90708D020A151F8200040F2A40100682C
:1003C000C2F20001086043F61440C4F201004FF687
:1003D000FF710160704700BF280000201C00002052
:1003E0001C0000201C000020240000201C00002015
:1003F000200000201C0000202C0000201000002005
:100400001000002010000020180000201000002024
:100410001400002010000020300000200400002004
:1004200004000020040000200C0000200400002034
:100430000800002004000020340000203C000020C0
:100440003C0000203C000020380000203C00002040
:10045000000000203C0000204EF68850CEF2000044
:10046000016841F4700101607047000043F64401E7
:10047000C4F202010A6840F2144042F480420A6069
:100480000F22C4F2020041F8142C5521C0F8EC13DD
:100490004FF4AA31C0F8F8130021C4F202014FF062
:1004A0005532C1F8002405220A6043F60C01C4F25B
:1004B00001010A6842F220231A430A604A6840F2A6
:1004C000A00C42F002024A60D1F8F42340F2A40EDC
:1004D00042F4F072C1F8F423D1F80024C2F2000C07
:1004E00042F4F072C1F800244EF20011CEF2000185
:1004F0004FF400020A600021C2F2000E02E000BFC9
:100500003F220260C0F80014DCF80020002AF7D077
:10051000012A03D1DEF800200260F3E7012200BFC8
:100520000160DEF80030013A0360DEF8003001605F
:100530000360F5D0E6E7F1EE100A4FF6FF71C0F266
:10054000C03120EA010040F04070E1EE100A70472F
:10055000700500080000002040000000D0010008E5
:10056000B00500084000002068060000EC0100080B
:100570003F000000060000005B0000004F0000008C
:10058000660000006D0000007D0000000700000014
:100590007F00000067000000770000007C00000082
:1005A000390000005E0000007900000071000000CA
:0400000508000235B8
:00000001FF
