:020000040800F2
:10000000B8060020350200083D0200083F02000843
:1000100041020008430200084502000800000000F9
:10002000000000000000000000000000470200087F
:1000300049020008000000004B0200084D020008C1
:100040004F0200084F0200084F0200084F0200084C
:100050004F0200084F020008F10200084F0200089A
:100060004F0200084F0200084F0200084F0200082C
:100070004F0200084F0200084F0200084F0200081C
:100080004F0200084F0200084F0200080000000065
:100090000000000000000000000000004F02000807
:1000A0004F0200084F0200084F0200084F020008EC
:1000B0004F0200084F0200084F0200084F020008DC
:1000C0004F0200084F0200084F0200084F020008CC
:1000D0004F0200084F020008FD0400080000000065
:1000E0004F0200084F0200084F0200080000000005
:1000F0000000000000000000000000004F020008A7
:10010000000000004F020008C10400084F02000870
:1001100000000000000000000000000000000000DF
:100120004F0200084F0200084F0200084F0200086B
:100130004F02000800000000000000000000000066
:100140000000000000000000000000004F02000856
:100150004F0200084F0200084F0200084F0200083B
:100160004F0200084F0200080000000000000000DD
:10017000000000000000000000000000000000007F
:10018000000000004F020008000000000000000016
:100190004F02000800F002F800F03CF80AA090E8D6
:1001A000000C82448344AAF10107DA4501D100F032
:1001B00031F8AFF2090EBAE80F0013F0010F18BFC3
:1001C000FB1A43F001031847F42D0000142E000021
:1001D000103A24BF78C878C1FAD8520724BF30C873
:1001E00030C144BF04680C60704700000023002445
:1001F00000250026103A28BF78C1FBD8520728BF37
:1002000030C148BF0B6070471FB502F0D4FD1FBD61
:1002100010B510BD00F031F81146FFF7F5FF00F002
:1002200073FB00F04FF803B4FFF7F2FF03BC00F0DC
:1002300057F800000948804709480047FEE7FEE7F5
:10024000FEE7FEE7FEE7FEE7FEE7FEE7FEE7FEE786
:1002500004480549054A064B70470000AD040008F4
:1002600095010008B8000020B8060020B802002060
:10027000B8020020704770477047754600F02CF8B0
:10028000AE4605006946534620F00700854618B083
:1002900020B5FFF7DDFFBDE820404FF000064FF02E
:1002A00000074FF000084FF0000BAC46ACE8C00967
:1002B000ACE8C009ACE8C009ACE8C00921F007010E
:1002C0008D46704710B50446AFF300802046BDE868
:1002D0001040FFF7A8BF000000487047080000204A
:1002E00001491820ABBEFEE726000200704700005F
:1002F000B0B52DED028B82B043F61440C4F201007C
:10030000016848F207021143016040F2B00140F277
:100310006C00C2F20001C2F2000002680B68002A01
:1003200003F101020A6000F09F8040F29801C2F2DE
:10033000000191ED008A0024046018EE100A02F01A
:10034000C9FC9FED570A40F2940580EE088A41EC03
:10035000100B40F2A000C2F2000080ED000BC2F2D0
:10036000000518EE100A85ED008A02F0B3FC9FED3F
:10037000480B53EC102B02F0C1FA9FED470B53ECE6
:10038000102B02F061F902F085F89FED460A40F269
:10039000AC01C2F20001B4EE408AF1EE10FA08603E
:1003A000C2BF43F60040C4F21C60286095ED000A0D
:1003B0009FED3D1A40F2840080EE011AC2F2000067
:1003C000BDEEC00A44F6D351C1F26201BDEEC11ABE
:1003D00080ED001A10EE100A50FB01F18A1102EBB9
:1003E000D1714FF47A7201FB120048F21F52C5F22C
:1003F000EB1250FB02F2531103EBD27240F268038E
:10040000C2F200031A60642302FB130046F2676223
:10041000C6F2666250FB02F2931003EBD27240F216
:100420007C03C2F2000340F28C011A6002EB8202EC
:10043000C2F20001A0EB4200086040F2A801C2F243
:10044000000108600194019945F23070C0F2050086
:10045000814206DA00BF019901310191019981427F
:10046000F8DB002028600DE00121016040F29800D7
:10047000C2F200000021016040F2A000C2F20000C0
:10048000C0E9001102B0BDEC028BB0BD00BF00BFDF
:100490007A008BFCFA2119400000000000004E4059
:1004A00000606A47003C1C4600007A444EF68850C3
:1004B000CEF20000016841F4700101607047000055
:1004C00040F61040C4F20000016821F00101016013
:1004D00040F26C00C2F200000068012818BF7047AB
:1004E00040F29800C2F2000090ED000AB7EE001A48
:1004F00030EE010A80ED000A7047000040F2700003
:10050000C2F2000001684A1C026044F20042C4F2D8
:10051000000213685268002940F28801D2B2C2F288
:10052000000108BF0A700B784D2B15D0562B25D132
:1005300040F27403C2F20003562A1A7003D1562304
:100540000B7001230360442A19D0492A20D04D2A78
:1005500014D14D220A7018E040F28003C2F2000369
:10056000562A1A7003D156230B70012303604D2ABB
:1005700018BF70474D220A70012101607047562054
:10058000087040F61400C4F20200012101607047B7
:100590005620087040F61400C4F2020002210160E7
:1005A0007047000081B01421C4F2020151F8140C0C
:1005B00040F2051240F4006041F8140C51F8140C9C
:1005C00040F4005041F8140C51F8140C40F4004071
:1005D00041F8140C51F8140C104341F8140C08683D
:1005E00043F6440240F0100008600868C4F20202BA
:1005F00040F002000860086840F001000860C86828
:1006000040F4A000C860C86840F0A060C860C86836
:1006100040F0A040C860136843F2080043F48053E0
:10062000C4F201001360002240F8042C40F8082CAA
:1006300050F8083C43F0080340F8083C50F8043CEC
:1006400043F0040340F8043C50F8083C43F0040332
:1006500040F8083C50F8083C43F0400340F8083CA0
:10066000009200BF009BB3F5AF6F04DA00BF009BA0
:1006700001330093F6E70B6823F002030B6000924E
:10068000009A43F2AF639A4209DC43F2B06200BFC2
:1006900000BF009B01330093009B9342F8DB0A6884
:1006A00042F002020A600A6822F010020A60002288
:1006B000009200BF009BB3F5AF6F04DA00BF009B50
:1006C00001330093F6E70B6823F001030B6000BFD2
:1006D0000092009AB2F5AF6F03DA00BF009A0132C0
:1006E000F6E72122426000220092009AB2F5AF6F35
:1006F00004DA00BF009A0132F6E700BF02689207F1
:10070000FCD500BF02681206FCD40A6822F0100271
:100710000A600022009200BF009BB3F5AF6F04DABD
:1007200000BF009B01330093F6E70B6823F0010341
:100730000B6000BF0092009AB2F5AF6F03DA00BF02
:10074000009A0132F6E7B922426000220092009A34
:10075000B2F5AF6F04DA00BF009A0132F6E700BFCE
:1007600002689207FCD500BF02681206FCD40A6832
:1007700022F010020A600022009200BF009BB3F535
:10078000AF6F04DA00BF009B01330093F6E70B68FC
:1007900023F001030B6000BF0092009AB2F5AF6F27
:1007A00003DA00BF009A0132F6E704224260002219
:1007B0000092009AB2F5AF6F04DA00BF009A0132DE
:1007C000F6E700BF02689207FCD500BF0268120678
:1007D000FCD40A6822F010020A600022009200BFD6
:1007E000009BB3F5AF6F04DA00BF009B01330093A9
:1007F000F6E70B6823F001030B6000BF0092009A3C
:10080000B2F5AF6F03DA00BF009A0132F6E71422A7
:10081000426000220092009AB2F5AF6F04DA00BF86
:10082000009A0132F6E700BF02689207FCD500BFCC
:1008300002681206FCD40A6822F010020A60002244
:10084000009200BF009BB3F5AF6F04DA00BF009BBE
:1008500001330093F6E70B6823F001030B6000BF40
:100860000092009AB2F5AF6F03DA00BF009A01322E
:10087000F6E72022426000220092009AB2F5AF6FA4
:1008800004DA00BF009A0132F6E700BF026892075F
:10089000FCD500BF02681206FCD40A6822F01002E0
:1008A0000A600022009200BF009BB3F5AF6F04DA2C
:1008B00000BF009B01330093F6E70B6823F00103B0
:1008C0000B6000920099B1F5AF6F04DA00BF009998
:1008D00001310091F6E70C2141600021009100995F
:1008E000B1F5AF6F04DA00BF00990131F6E700BF40
:1008F00001688907FCD500BF01680906FCD401B076
:10090000704700000000000082B043F64009C4F2C6
:10091000020959F8100C4EF20418142643F2080785
:1009200042F2080441F2701A40F00700CEF20008CB
:10093000C4F20206C4F20107C4F20104C0F2010AC3
:1009400049F8100CFFF72EFED9F80400002540F4FA
:100950008040C9F8040043F60040C4F20100C168B9
:1009600041F00101C160016841F001010160D7F867
:10097000000840F00100C7F80008402048F8040CC7
:10098000D9F8041041F48041C9F80410D9F80410D2
:1009900041F48071C9F80410D6F8EC1341F00C0151
:1009A000C6F8EC1354F8041C44F8041C0921E16255
:1009B000256001950199514504DA00BF0199013183
:1009C0000191F7E742F208010122C4F201010A6035
:1009D000D9F800104FF0FF3241F00801C9F80010BB
:1009E00040F60041C4F200014A620B689FEDA48BFF
:1009F00043F001030B6040F2E733CB620F238B62BD
:100A00004FF48023C8F80030CB689FED9F9B43F0E4
:100A10000103CB6056F8141C182341F0004146F83E
:100A2000141C3169C4F2000341F080513161D9F8DE
:100A3000001042F6DA5B41F00101C9F80010DA60FB
:100A40004FF080410A689FED92BA42F001020A60BD
:100A500040F237225A611A611A689FED8FCB42F03B
:100A600070021A601A689FED8EDA42F008021A606E
:100A70009A689FED8CEA42F003029A600A689FED43
:100A80008AFA42F080020A600A68DFED88AA42F022
:100A900001020A60D96A44F20C4241F40041D96271
:100AA00056F8141CC4F2000241F0200146F8141C50
:100AB00056F8141CDFED7EDA41F0800146F8141C74
:100AC000F168DFED7CEA41F4E061F160F168DFEDAF
:100AD0007AFA41F4E041F160D9F80010B6EE00AACC
:100AE00041F40031C9F8001040F2826142F8041C60
:100AF0001168C0F6000B41F00C0111605560956063
:100B00001168F2EE04BA41F400511160C8F8000017
:100B1000106840F2591840F020001060D6F8EC0739
:100B200040F2131940F05500C6F8EC0742F20801F4
:100B3000C4F20101086840F08040086051F8080CD8
:100B400091ED110A40F27800B8EE400AC2F20000BE
:100B500080ED000A10EE100A02F0BCF853EC182BDE
:100B600001F072FD53EC194B2246009301F0C6FED2
:100B700001F090FC40F29401C2F2000191ED000AF4
:100B800040F29001C2F20001086020EE0A0A44F22D
:100B90000C40BDEEC00AC4F2000000ED020A01954F
:100BA0000198504504DA00BF019801300190F7E741
:100BB00040F20000C2F200000068316821F010012C
:100BC000316001950199B1F5AF6F05DA00BF019968
:100BD00001310191F6E700BF316821F00101316078
:100BE000019500BF0199B1F5AF6F05DA00BF01991A
:100BF00001310191F6E700BF786001950198B0F5E9
:100C0000AF6F05DA00BF019801300190F6E700BF31
:100C100038688007FCD500BF38680006FCD440F275
:100C20000400C2F200000068316821F01001316058
:100C3000019500BF0199B1F5AF6F05DA00BF0199C9
:100C400001310191F6E700BF316821F00101316007
:100C5000019500BF0199B1F5AF6F05DA00BF0199A9
:100C600001310191F6E700BF786001950198B0F578
:100C7000AF6F23DA00BF019801300190F6E700BFA3
:100C80000000000000FEAF400000000000005940DE
:100C90000000444200BF00BF0000000000004940C7
:100CA0000000C8420000C642A4707D3F00C00D4451
:100CB0000000404200004C42000048423868800773
:100CC000FCD500BF38680006FCD4FA2031681BF858
:100CD000002041F0100131607A6000BF3968890757
:100CE000FCD500BF39680906FCD40130FF28EDD1DE
:100CF000306840F0100030607D6000BF38688007C9
:100D0000FCD500BF38680006FCD4F02031681BF821
:100D1000002041F0100131607A6000BF3968890716
:100D2000FCD500BF39680906FCD40130F528EDD1A7
:100D3000306840F0100030607D6000BF3868800788
:100D4000FCD500BF38680006FCD4E12031681BF8F0
:100D5000002041F0100131607A6000BF39688907D6
:100D6000FCD500BF39680906FCD40130E628EDD176
:100D7000306840F0100030607D6000BF3868800748
:100D8000FCD500BF38680006FCD4822031681BF80F
:100D9000002041F0100131607A6000BF3968890796
:100DA000FCD500BF39680906FCD401308728EDD195
:100DB000306840F0100030607D6000BF3868800708
:100DC000FCD500BF38680006FCD440F28400C2F2B3
:100DD0000000006800EB800101F1500055318842AD
:100DE00012DA00BF32681BF8003042F010023260A5
:100DF0007B6000BF3A689207FCD500BF3A681206D4
:100E0000FCD401308842EDD1306840F010003060F1
:100E10007D6000BF38688007FCD500BF38680006D9
:100E2000FCD440F26800C2F20000006800EB8001D0
:100E300001F150005531884212DA00BF32681BF8C8
:100E4000003042F0100232607B6000BF3A689207C7
:100E5000FCD500BF3A681206FCD401308842EDD1BF
:100E6000306840F0100030607D6000BF3868800757
:100E7000FCD500BF38680006FCD440F27C00C2F20A
:100E80000000006800EB800101F1500055318842FC
:100E900012DA00BF32681BF8003042F010023260F4
:100EA0007B6000BF3A689207FCD500BF3A68120623
:100EB000FCD401308842EDD1306840F01000306041
:100EC0007D6000BF38688007FCD500BF3868000629
:100ED000FCD440F2A800C2F20000006800EB8001E0
:100EE00001F150005531884212DA00BF32681BF818
:100EF000003042F0100232607B6000BF3A68920717
:100F0000FCD500BF3A681206FCD401308842EDD10E
:100F1000306840F0100030607D6000BF38688007A6
:100F2000FCD500BF38680006FCD4002031681BF8EF
:100F3000002041F0100131607A6000BF39688907F4
:100F4000FCD500BF39680906FCD401300528EDD175
:100F5000306840F0100030607D6000BF3868800766
:100F6000FCD500BF38680006FCD440F28800C2F20D
:100F700000000078562817D04D287FF4D7AD40F2F6
:100F80000400C2F200000068316821F010013160F5
:100F9000019500BF0199B1F5AF6F19DA00BF019952
:100FA00001310191F6E700BF40F20400C2F20000F7
:100FB0000068316821F01001316001950199B1F5A7
:100FC000AF6F15DA00BF019901310191F6E700BF5B
:100FD000316821F001013160019500BF0199B1F53F
:100FE000AF6F43DA00BF019901310191F6E700BF0D
:100FF000316840F2091321F0010131600195019936
:10100000B1F5AF6F08DA00BF00BF0199013101915E
:101010000199B1F5AF6FF7DB05307860019500BF3E
:101020000198B0F5AF6F05DA00BF0198013001906B
:10103000F6E700BF38688007FCD500BF38680006B7
:10104000FCD440F20000C2F200000068316821F0D8
:1010500010013160019500BF0199B1F5AF6F2FDA32
:1010600000BF019901310191F6E700BF05307860BA
:10107000019500BF0198B0F5AF6F05DA00BF019888
:1010800001300190F6E700BF38688007FCD500BF4B
:1010900038680006FCD440F20000C2F2000000688C
:1010A000316821F010013160019500BF0199B1F55F
:1010B000AF6F15DA00BF019901310191F6E700BF6A
:1010C000316821F001013160019500BF0199B1F54E
:1010D000AF6F15DA00BF019901310191F6E700BF4A
:1010E000316821F001013160019500BF0199B1F52E
:1010F000AF6F80F2F38100BF019901310191F5E7F3
:10110000786001950198B0F5AF6F05DA00BF0198DE
:1011100001300190F6E700BF38688007FCD500BFBA
:1011200038680006FCD4E12031681BF8002041F04B
:10113000100131607A6000BF39688907FCD500BFB3
:1011400039680906FCD40130E628EDD1306840F05A
:10115000100030607D6000BF38688007FCD500BF9C
:1011600038680006FCD440F28B1000BF31681BF8D1
:10117000002041F0100131607A6000BF39688907B2
:10118000FCD500BF39680906FCD40130B0F5C87F32
:10119000ECD1306840F0100030607D603868800726
:1011A000FCD500BF38680006FCD44FF4AA7000BF1D
:1011B00031681BF8002041F0100131607A6000BFF7
:1011C00039688907FCD500BF39680906FCD40130AD
:1011D0004045EDD1306840F0100030607D6000BFC8
:1011E00038688007FCD500BF38680006FCD440F2A0
:1011F0008B1000BF31681BF8002041F010013160F6
:101200007A6000BF39688907FCD500BF39680906D4
:10121000FCD40130B0F5C87FECD1306840F010004C
:1012200030607D6038688007FCD500BF38680006F4
:10123000FCD4822031681BF8002041F0100131609D
:101240007A6000BF39688907FCD500BF3968090694
:10125000FCD401308728EDD1306840F010003060B8
:101260007D6000BF38688007FCD500BF3868000685
:10127000FCD4002031681BF8002041F010013160DF
:101280007A6000BF39688907FCD500BF3968090654
:10129000FCD401300528EDD1306840F010003060FA
:1012A0007D6000BF38688007FCD500BF3868000645
:1012B000FCD44FF4877000BF31681BF8002041F068
:1012C000100131607A6000BF39688907FCD500BF22
:1012D00039680906FCD401304845EDD1306840F04A
:1012E000100030607D6000BF38688007FCD500BF0B
:1012F00038680006FCD4CD2031681BF8002041F08E
:10130000100131607A6000BF39688907FCD500BFE1
:1013100039680906FCD40130D228EDD1306840F09C
:10132000100030607D6000BF38688007FCD500BFCA
:1013300038680006FCD4FA2031681BF8002041F020
:10134000100131607A6000BF39688907FCD500BFA1
:1013500039680906FCD40130FF28EDD1306840F02F
:10136000100030607D6000BF38688007FCD500BF8A
:1013700038680006FCD44FF4827000BF31681BF857
:10138000002041F0100131607A6000BF39688907A0
:10139000FCD500BF39680906FCD401309842EDD174
:1013A000306840F0100030607D6000BF3868800712
:1013B000FCD500BF38680006FCD440F2091000BF1D
:1013C00031681BF8002041F0100131607A6000BFE5
:1013D00039688907FCD500BF39680906FCD401309B
:1013E000B0F5877FECD1306840F0100030607D6050
:1013F00038688007FCD500BF38680006FCD4A520FB
:1014000031681BF8002041F0100131607A6000BFA4
:1014100039688907FCD500BF39680906FCD401305A
:10142000AA28EDD1306840F0100030607D6000BF28
:1014300038688007FCD500BF38680006FCD4DC2083
:1014400031681BF8002041F0100131607A6000BF64
:1014500039688907FCD500BF39680906FCD401301A
:10146000E128EDD1306840F0100030607D6000BFB1
:1014700038688007FCD500BF38680006FCD440F20D
:101480007400C2F20000007846F69061CFF6FB715E
:1014900041F65D0210FB021048F21F51C5F2EB113C
:1014A00050FB01F0411101EBD0701821C4F2000192
:1014B000C86140F20400C2F200000068316821F007
:1014C00010013160019500BF0199B1F5AF6F80F255
:1014D000158200BF019901310191F5E7786001950E
:1014E0000198B0F5AF6F05DA00BF019801300190A7
:1014F000F6E700BF38688007FCD500BF38680006F3
:10150000FCD4E12031681BF8002041F0100131606B
:101510007A6000BF39688907FCD500BF39680906C1
:10152000FCD40130E628EDD1306840F01000306086
:101530007D6000BF38688007FCD500BF38680006B2
:10154000FCD440F28B1000BF31681BF8002041F042
:10155000100131607A6000BF39688907FCD500BF8F
:1015600039680906FCD40130B0F5C87FECD1306889
:1015700040F0100030607D6038688007FCD500BF07
:1015800038680006FCD44FF4AA7000BF31681BF81D
:10159000002041F0100131607A6000BF396889078E
:1015A000FCD500BF39680906FCD401304045EDD1B7
:1015B000306840F0100030607D6000BF3868800700
:1015C000FCD500BF38680006FCD440F28B1000BF89
:1015D00031681BF8002041F0100131607A6000BFD3
:1015E00039688907FCD500BF39680906FCD4013089
:1015F000B0F5C87FECD1306840F0100030607D60FD
:1016000038688007FCD500BF38680006FCD482200B
:1016100031681BF8002041F0100131607A6000BF92
:1016200039688907FCD500BF39680906FCD4013048
:101630008728EDD1306840F0100030607D6000BF39
:1016400038688007FCD500BF38680006FCD400204D
:1016500031681BF8002041F0100131607A6000BF52
:1016600039688907FCD500BF39680906FCD4013008
:101670000528EDD1306840F0100030607D6000BF7B
:1016800038688007FCD500BF38680006FCD4E1202C
:1016900031681BF8002041F0100131607A6000BF12
:1016A00039688907FCD500BF39680906FCD40130C8
:1016B000E628EDD1306840F0100030607D6000BF5A
:1016C00038688007FCD500BF38680006FCD4A52028
:1016D00031681BF8002041F0100131607A6000BFD2
:1016E00039688907FCD500BF39680906FCD4013088
:1016F000AA28EDD1306840F0100030607D6000BF56
:1017000038688007FCD500BF38680006FCD4E620A6
:1017100031681BF8002041F0100131607A6000BF91
:1017200039688907FCD500BF39680906FCD4013047
:10173000EB28EDD1306840F0100030607D6000BFD4
:1017400038688007FCD500BF38680006FCD440F23A
:10175000091000BF31681BF8002041F01001316012
:101760007A6000BF39688907FCD500BF396809066F
:10177000FCD40130B0F5877FECD1306840F0100028
:1017800030607D6038688007FCD500BF386800068F
:10179000FCD4A52031681BF8002041F01001316015
:1017A0007A6000BF39688907FCD500BF396809062F
:1017B000FCD40130AA28EDD1306840F01000306030
:1017C0007D6000BF38688007FCD500BF3868000620
:1017D000FCD4DC2031681BF8002041F0100131609E
:1017E0007A6000BF39688907FCD500BF39680906EF
:1017F000FCD40130E128EDD1306840F010003060B9
:101800007D6000BF38688007FCD500BF38680006DF
:10181000FCD4002031681BF8002041F01001316039
:101820007A6000BF39688907FCD500BF39680906AE
:10183000FCD401300528EDD1306840F01000306054
:101840007D6000BF38688007FCD500BF386800069F
:10185000FCD440F29000C2F2000090ED000AB5EE18
:10186000400AF1EE10FAC0F21E82B4EE4B0AF1EE1D
:1018700010FA00F3188240F614010120C4F20201AC
:10188000086010EE100A01F025FA02460B4651ECF2
:101890001C0B01F031F9009B224600F0D5FE0246F8
:1018A0000B4600F029FE00F0F5FD00EE100A20EED8
:1018B0000D1AB4EE4E1AF1EE10FAC8BFB0EE4F0A90
:1018C00020EE2A1A1820BCEEC11AC4F2000080EDE6
:1018D000071A40F20400C2F200000068316821F0EB
:1018E00010013160019500BF0199B1F5AF6F80F231
:1018F000298200BF019901310191F5E7316821F09A
:1019000001013160019500BF0199B1F5AF6F05DAB2
:1019100000BF019901310191F6E700BF0230786004
:10192000019500BF0198B0F5AF6F05DA00BF0198CF
:1019300001300190F6E700BF38688007FCD500BF92
:1019400038680006FCD440F20000C2F200000068D3
:10195000316821F010013160019500BF0199B1F5A6
:10196000AF6F05DA00BF019901310191F6E700BFC1
:10197000316821F001013160019500BF0199B1F595
:10198000AF6F05DA00BF019901310191F6E700BFA1
:10199000786001950198B0F5AF6F05DA00BF019846
:1019A00001300190F6E700BF38688007FCD500BF22
:1019B00038680006FCD440F27400C2F200000078DF
:1019C000A0F1300109293FF6B1A84FF4877100BF9B
:1019D00032681BF8013042F0100232607B6000BFB9
:1019E0003A689207FCD500BF3A681206FCD4013170
:1019F0004945EDD1316841F0100131607D6000BF93
:101A000039688907FCD500BF39680906FCD440F263
:101A10006D1140F29F1400BF32681BF8013042F094
:101A2000100232607B6000BF3A689207FCD500BFAD
:101A30003A681206FCD40131B1F5B97FECD13168B6
:101A400041F0100131607D6039688907FCD500BF25
:101A500039680906FCD44FF4CD7100BF32681BF819
:101A6000013042F0100232607B6000BF3A6892079A
:101A7000FCD500BF3A681206FCD40131A142EDD179
:101A8000316841F0100131607D6000BF396889071D
:101A9000FCD500BF39680906FCD4822132681BF8E6
:101AA000013042F0100232607B6000BF3A6892075A
:101AB000FCD500BF3A681206FCD401318729EDD16C
:101AC000316841F0100131607D6000BF39688907DD
:101AD000FCD500BF39680906FCD4002132681BF828
:101AE000013042F0100232607B6000BF3A6892071A
:101AF000FCD500BF3A681206FCD401310529EDD1AE
:101B0000316841F0100131607D6000BF396889079C
:101B1000FCD500BF39680906FCD400EB8001A1F1B7
:101B2000A0009C3932681BF8003042F0100232608D
:101B30007B6000BF3A689207FCD500BF3A68120686
:101B4000FCD4884200F10100ECD1306840F0100074
:101B500030607D6038688007FCD500BF38680006BB
:101B6000FCD4502031681BF8002041F01001316096
:101B70007A6000BF39688907FCD500BF396809065B
:101B8000FCD401305528EDD1306840F010003060B1
:101B90007D6000BF38688007FCD500BF386800064C
:101BA000FCD4192031681BF8002041F0100131608D
:101BB0007A6000BF39688907FCD500BF396809061B
:101BC000FCD401301E28EDD1306840F010003060A8
:101BD0007D6000BF38688007FCD500BF386800060C
:101BE000FCD4002031681BF8002041F01001316066
:101BF0007A6000BF39688907FCD500BF39680906DB
:101C0000FCD401300528EDD1306840F01000306080
:101C10007D6000BF38688007FCD500BF38680006CB
:101C2000FCD4002031681BF8002041F01001316025
:101C30007A6000BF39688907FCD500BF396809069A
:101C4000FCD401300528EDD1306840F01000306040
:101C50007D6000BF38688007FCD500BF386800068B
:101C6000FCD4002031681BF8002041F010013160E5
:101C70007A6000BF39688907FCD500BF396809065A
:101C8000FCD401300528EDD1306840F01000306000
:101C90007D6000BF38688007FCD500BF386800064B
:101CA000FCD4FEF743BFB4EE6E0AF1EE10FAC0F2B8
:101CB0001882B4EE4D0AF1EE10FA00F3128240F6EB
:101CC0001400C4F202000221016010EE100A01F0BB
:101CD00001F89FED2D0B53EC102B00F00DFC009B39
:101CE000224600F0B1FC02460B4600F005FC00F075
:101CF000D1FB00EE100A20EE0D1AB4EE4E1AF1EEF2
:101D000010FAC8BFB0EE4F0A20EE2A1A1820BCEE17
:101D1000C11AC4F2000080ED071A40F20400C2F2BA
:101D200000000068316821F010013160019500BFAA
:101D30000199B1F5AF6F80F2E48100BF01990131E3
:101D40000191F5E7316840F29F1421F00101316003
:101D500001950199B1F5AF6F08DA00BF00BF019995
:101D6000013101910199B1F5AF6FF7DB0230786075
:101D7000019500BF0198B0F5AF6F09DA00BF019877
:101D800001300190F6E700BF00000000000049C0EC
:101D900038688007FCD500BF38680006FCD440F2E4
:101DA0000000C2F200000068316821F010013160CB
:101DB000019500BF0199B1F5AF6F04DA00BF019939
:101DC00001310191F6E7316821F00101316001959F
:101DD0000199B1F5AF6F04DA00BF019901310191AA
:101DE000F6E77860019500BF0198B0F5AF6F05DAAE
:101DF00000BF019801300190F6E700BF3868800706
:101E0000FCD500BF38680006FCD420EE0D0A80EE39
:101E10002B1A31EE2D1ABDEEC11A11EE100A00EB8D
:101E20008001A1F1A0009B39884211DA32681BF8C9
:101E3000003042F0100232607B6000BF3A689207C7
:101E4000FCD500BF3A681206FCD401308842EDD1BF
:101E5000306840F0100030607D6000BF3868800757
:101E6000FCD500BF38680006FCD4BDEEC00A46F2BF
:101E7000676110EE100AC6F2666150FB01F18A102C
:101E800002EBD17101EB8101A0EB410000EB80017D
:101E900001F15000543100BF32681BF8003042F0AD
:101EA000100232607B6000BF3A689207FCD500BF29
:101EB0003A681206FCD4884200F10100ECD1306887
:101EC00040F0100030607D6038688007FCD500BFAE
:101ED00038680006FCD4192031681BF8002041F056
:101EE000100131607A6000BF39688907FCD500BFF6
:101EF00039680906FCD401301E28EDD1306840F065
:101F0000100030607D6000BF38688007FCD500BFDE
:101F100038680006FCD4002031681BF8002041F02E
:101F2000100131607A6000BF39688907FCD500BFB5
:101F300039680906FCD401300528EDD1306840F03D
:101F4000100030607D6000BF38688007FCD500BF9E
:101F500038680006FCD4B42031681BF8002041F03A
:101F6000100131607A6000BF39688907FCD500BF75
:101F700039680906FCD40130B928EDD1306840F049
:101F8000100030607D6000BF38688007FCD500BF5E
:101F900038680006FCD440F2591000BF31681BF8C5
:101FA000002041F0100131607A6000BF3968890774
:101FB000FCD500BF39680906FCD40130B0F5AF7F0D
:101FC000ECD1306840F0100030607D6038688007E8
:101FD000FCD500BF38680006FCD44FF4CD7000BFBC
:101FE00031681BF8002041F0100131607A6000BFB9
:101FF00039688907FCD500BF39680906FCD401306F
:10200000A042EDD1306840F0100030607D6000BF2C
:1020100038688007FCD500BF38680006FCD4002073
:1020200031681BF8002041F0100131607A6000BF78
:1020300039688907FCD500BF39680906FCD401302E
:102040000528EDD1306840F0100030607D6000BFA1
:1020500038688007FCD500BF38680006FCD4002033
:1020600031681BF8002041F0100131607A6000BF38
:1020700039688907FCD500BF39680906FCD40130EE
:102080000528EDD1306840F0100030607D6000BF61
:1020900038688007FCD500BF38680006FCD40020F3
:1020A00031681BF8002041F0100131607A6000BFF8
:1020B00039688907FCD500BF39680906FCD40130AE
:1020C0000528EDD1306840F0100030607D6000BF21
:1020D00038688007FCD500BF38680006FCD4FEF7DE
:1020E00025BDB4EE6F0AF1EE10FA7EF41FAD40F696
:1020F0001401C4F20201086820F00F000860FEF726
:1021000015BD316821F00101316001950199B1F5EA
:10211000AF6F04DA00BF019901310191F6E7023097
:1021200078600195019840F2C714B0F5AF6F07DAF7
:1021300000BF0198013001900198B0F5AF6FF7DB57
:1021400038688007FCD500BF38680006FCD440F230
:102150000000C2F200000068316821F01001316017
:10216000019500BF0199B1F5AF6F04DA00BF019985
:1021700001310191F6E7316821F0010131600195EB
:102180000199B1F5AF6F04DA00BF019901310191F6
:10219000F6E77860019500BF0198B0F5AF6F05DAFA
:1021A00000BF019801300190F6E700BF3868800752
:1021B000FCD500BF38680006FCD420EE0D0A80EE86
:1021C0002B1A31EE2D1ABDEEC11A11EE100A00EBDA
:1021D0008001A1F1A0009B39884211DA32681BF816
:1021E000003042F0100232607B6000BF3A68920714
:1021F000FCD500BF3A681206FCD401308842EDD10C
:10220000306840F0100030607D6000BF38688007A3
:10221000FCD500BF38680006FCD4BDEEC00A46F20B
:10222000676110EE100AC6F2666150FB01F18A1078
:1022300002EBD17101EB8101A0EB410000EB8001C9
:1022400001F15000543100BF32681BF8003042F0F9
:10225000100232607B6000BF3A689207FCD500BF75
:102260003A681206FCD4884200F10100ECD13068D3
:1022700040F0100030607D6038688007FCD500BFFA
:1022800038680006FCD4192031681BF8002041F0A2
:10229000100131607A6000BF39688907FCD500BF42
:1022A00039680906FCD401301E28EDD1306840F0B1
:1022B000100030607D6000BF38688007FCD500BF2B
:1022C00038680006FCD4002031681BF8002041F07B
:1022D000100131607A6000BF39688907FCD500BF02
:1022E00039680906FCD401300528EDD1306840F08A
:1022F000100030607D6000BF38688007FCD500BFEB
:1023000038680006FCD4CD2031681BF8002041F06D
:10231000100131607A6000BF39688907FCD500BFC1
:1023200039680906FCD40130D228EDD1306840F07C
:10233000100030607D6000BF38688007FCD500BFAA
:1023400038680006FCD44FF4E17000BF31681BF818
:10235000002041F0100131607A6000BF39688907C0
:10236000FCD500BF39680906FCD40130A042EDD18C
:10237000306840F0100030607D6000BF3868800732
:10238000FCD500BF38680006FCD440F2951000BFB1
:1023900031681BF8002041F0100131607A6000BF05
:1023A00039688907FCD500BF39680906FCD40130BB
:1023B000B0F5CD7FECD1306840F0100030607D602A
:1023C00038688007FCD500BF38680006FCD40020C0
:1023D00031681BF8002041F0100131607A6000BFC5
:1023E00039688907FCD500BF39680906FCD401307B
:1023F0000528EDD1306840F0100030607D6000BFEE
:1024000038688007FCD500BF38680006FCD400207F
:1024100031681BF8002041F0100131607A6000BF84
:1024200039688907FCD500BF39680906FCD401303A
:102430000528EDD1306840F0100030607D6000BFAD
:1024400038688007FCD500BF38680006FCD400203F
:1024500031681BF8002041F0100131607A6000BF44
:1024600039688907FCD500BF39680906FCD40130FA
:102470000528EDD1306840F0100030607D6000BF6D
:1024800038688007FCD500BF38680006FCD4FEF72A
:102490004DBB000021F0004201F00043A2F1605268
:1024A000B2F5801F28BFD2F17F6C0BD95FEA001C08
:1024B00043EAC20242EB507018BF704728BF20F0B9
:1024C00001007047B2F5801FBCBF184670474FEA45
:1024D000410C1CF5001F02D2084600F079BC70B513
:1024E00000F0B6FA00000089FFF7F6BF4FF0004099
:1024F000A0F580007047000010B591EA030F48BFB7
:1025000083F0004300F10083841A71EB030C05D2C1
:10251000121943EB0C03001B61EB0C014FEA115441
:10252000A4EB135CDFF81CE11EEA430F18BF9EEA20
:10253000445F00F0748021EA045123EA0E0343F45F
:102540008013DCF1200E32D322FA0CFE10EB0E00C9
:1025500023FA0CFE41EB0E01CCF1200E03FA0EFE25
:1025600010EB0E00CCF1200E51F10001B1F5801FEF
:1025700032D201EB045112FA0EF2BDE8104058BFFE
:102580007047401C38BF5FEA420218BF70470028FE
:1025900014BF20F0010041F100014FEA410313F59F
:1025A000001F38BF7047A1F1C04100F09FBA012A57
:1025B00043EB0302ACF1200CDCF11F0E32BF4FF0F5
:1025C000000E23FA0CF310EB030041EB0451B4EBC3
:1025D000115FD0D0A1EB045101F58011490801EB46
:1025E00004515FEA30000ED350F1000038BF12FAF8
:1025F0000EFE08D1BDE81040C9E7401C38BF5FEAB5
:102600004202CAD1C3E7BDE810404FEA410313F5C7
:10261000001F38BF7047A1F1C04100F067BA9EEAC1
:10262000445F08D011EA5E0FBDE8104004BF01F01E
:10263000004100207047BDE8104070B500F008FA76
:1026400064FBBE3E0000E0FF2DE9C04130B4DFF87E
:10265000A4C23CEA111418BF3CEA131400F0ED8048
:102660001CEA111481EA030544EAD57418BF1CEA78
:10267000131500F0C880A4EB050404F17F7404F581
:1026800000344FF0004545EAC12145EAC32341EA41
:10269000505143EA52534FEAC0204FEAC2229942B6
:1026A00008BF904200F09D804FEA13650FF2441678
:1026B000765D4FEA134506FB05F7C7F1807706FB09
:1026C00007F74FEAD737A7FB03687642A7FB06CE8A
:1026D000C8F5803838BFA8F1010807FB08E6A6FB5B
:1026E000028C4FF0000EE6FB03CEDCF1000CCEF1C5
:1026F000004E38BFAEF1010EA6FB0C584FF000079C
:10270000E6FB0E87A1FB08C6A0FB07CE16EB0E0664
:102710004FF0000545F10005E1FB076515F1E04EBE
:102720007EBFA4F580345FEA46066D4116F180074E
:1027300045F100054FEA172747EA05674FEA1525D7
:102740004FEA0666A6F1DE46B6F1805F20D938462C
:1027500005EBC47124F0010C01EB0C11BCF1FE6F10
:1027600002D8F0BCBDE8008124425CBF01F5801EA8
:102770009EEAC47F02D4F0BCBDE80081244200F18F
:102780003980A1F1C041F0BCBDE8004100F0AEB914
:102790004FEAD02040EA41504FEAD1214FEAD222FD
:1027A00042EA43524FEAD323A7FB028607FB0366A4
:1027B00005FB02661EEA0E0F58BFA6EB0056B6EBED
:1027C00000564FEA520E4EEAC37E18EB0E0E56EB41
:1027D000530EBCD518EB02085E417F1C55F1000575
:1027E000B5E74FF480154FF000074FF000064FF0AB
:1027F0000008ACE701F1C04101F000414FF00000DA
:10280000F0BCBDE800810CEA131511EA0C1F00D0E2
:102810000CE013EA0C1F00F026804FF0000081EA64
:10282000030101F00041F0BCBDE80081F0BCBDE84F
:10283000004181EA030100F059B9F0BCBDE8004154
:1028400070B500F005F900BF097EFC3E00F007B846
:102850004FF0000081EA030101F00041704781EA76
:10286000030100F043B9F0BCBDE8004122494FF03C
:1028700000007047FFFDFBF9F7F5F4F2F0EEEDEB29
:10288000E9E8E6E4E3E1E0DEDDDBDAD8D7D5D4D36E
:10289000D1D0CFCDCCCBCAC8C7C6C5C4C2C1C0BFBA
:1028A000BEBDBCBBBAB9B8B7B6B5B4B3B2B1B0AFC0
:1028B000AEADACABAAA9A8A8A7A6A5A4A3A3A2A1A4
:1028C000A09F9F9E9D9C9C9B9A999998979796955F
:1028D00095949393929191908F8F8E8E8D8C8C8BFB
:1028E0008B8A898988888787868585848483838283
:1028F000828181800000FF070000F87F70B5DFF85B
:1029000048C11CEA111E1EBF1CEA13159EEA0C0FDB
:1029100095EA0C0F00F06F8081EA03044EEAD47E42
:10292000AE4421EA4C1123EA4C1341F4801143F4E4
:102930008013AEF17F7EA1FB024CA0FB036536192C
:1029400055EB0C05A1FB034C4CF10003A0FB021C52
:1029500016EB0C06654153F10003094218BF46F01F
:10296000010613F4007F0BD14FEA03314FEA053023
:1029700041EA155140EA165034036FF003020AE0B1
:102980004FEAC3214FEAC52041EA555140EA56506B
:10299000F4026FF0020202EB2E4201EB025585EACF
:1029A000CE710AD05FEA440C18BF24F0004450F105
:1029B000000041F1000120EAD47040F2FE7C624543
:1029C00000D270BDA84214BF4FF080444FF0404485
:1029D000002E08BF0024BEF1806FA8BFA1F1C04146
:1029E000BDE8704080F2828001F1C04101F00041F9
:1029F0004FF0000070470CEA13159EEA0C0F18BF49
:102A000095EA0C0F06D081EA030E4FF000000EF09D
:102A1000004170BD00F01CF88900013E00F007B8CD
:102A200000F009B84FEA430C5FEA5C5C08D081EA29
:102A3000030100F05BB84FEA410C5FEA5C5CF6D141
:102A400002494FF0000070470000FF070000F87FC8
:102A50000EF1020E2EF0030E5EF8046B364205D422
:102A6000012A43EB030515F5001F12D8012841EB9D
:102A7000010C1CF5001F0CD80ED14FEAD17C0CEBD9
:102A80004C0C0CF1020C15F5001F08BF4CEBD37C6D
:102A900004E04FF0080C01E04FEAD37C0CEB4C054E
:102AA00026FA05F606F00706B6F1040C06D20EEB80
:102AB000860CBDE870404CF0010C6047DFE80CF07C
:102AC000090B02024FF00041A1F500214FF0000078
:102AD00070BD19461046012851EB010418BFD4F50A
:102AE000001484BF002001F0004170BD0808A0F56B
:102AF00000114FEA3101704710B591EA030F48BF4A
:102B000083F000433FF500AD841A71EB030C07D24C
:102B10008CF0004C121943EB0C03001B61EB0C0111
:102B20004FEA1154A4EB135CDFF8A4E11EEA430F53
:102B300018BF9EEA445F00F0B48021EA045123EA02
:102B40006E035242C3EB6E0338BF5B1EDCF1200EF6
:102B500025D322FA0CFE10EB0E0043FA0CFE41EBDB
:102B60000E01CCF1200E03FA0EFE10EB0E00CCF19C
:102B7000200E51F1000129D401EB045112FA0EF29A
:102B8000BDE8104058BF7047401C1CBFB2F1004F59
:102B9000704700280CBF491C20F00100704712EB61
:102BA000020E43EB030218BF4FF0010E4EEA420241
:102BB000ACF1200CDCF11E0E56D943FA0CFE10EBE2
:102BC0000E00CCF11E0E51F1FF31D5D50EF1010EE4
:102BD00012FA0EFE404141EB010101EB445C5FEA59
:102BE0005C5C10D901EB045110EBDE7038BFBEF114
:102BF000004FBDE8104018BF704700280CBF491CAB
:102C000020F00100704734D24FEAD42C24F4006441
:102C100011F500111BD0B1FA81F20B3AA41AA41ECF
:102C2000D2F12003914030FA03F31943904001EBB5
:102C3000CC7101EB0451002CBDE81040A8BF7047D7
:102C400001F1C04101F000414FF000007047B0FABF
:102C500080F310FA03F102D1BDE810407047E41A86
:102C6000173C4805C90AE2E701EB0451BDE81040F2
:102C7000704749104FEA300001EB0451BDE81040A5
:102C800002E04FF0000170474A0008BF0042F8D050
:102C9000B2F5001F28BF704701F000414FF000005F
:102CA00070479EEA445F07D011EA5E0FBDE810400E
:102CB00004BF002100207047BDE8104070B5FFF749
:102CC000C7FE00BF40DFF63E104683F0004170476C
:102CD0000000E0FF43004FEAD30C4FEA3C0C4340B6
:102CE0001FBF40070CF1605113F0FE4F70471CF0FE
:102CF000006F03D10CF00041002070470CF000433E
:102D000043EA507040EACC0010B500F00EF800BF66
:102D1000000000924FEA0001FFF7E8BE4FF00041CB
:102D2000A1F500214FF0000070470EF1020E2EF0C9
:102D3000030E5EF8044B244204D44FEA4102B2F180
:102D40007F4F11D84FEA4003B3F17F4F0CD80ED11B
:102D50004FEAD07C0CEB4C0C0CF1020CB2F17F4F23
:102D600008BF4CEBD17C04E04FF0080C01E04FEAC7
:102D7000D17C0CEB4C0324FA03F404F00704B4F107
:102D8000040C06D20EEB840CBDE810404CF0010C94
:102D90006047DFE80CF0070802024FF00040A0F5A2
:102DA000800010BD0846420018BFD2F1807288BF73
:102DB00000F0004010BDF1EE100A4FF6FF71C0F2B6
:102DC000C03120EA010040F04070E1EE100A704787
:102DD000FF2141EAD050C00570470000000000000C
:102DE000004F00000007000700147F147F14242AFE
:102DF0007F2A1223130864623649562058000503BF
:102E00000000001C2241000041221C0022147F14FB
:102E10002208083E0808000050300008080808088A
:102E2000006060000020100804023E5149453E0049
:102E3000427F400042615149462141454B311814BF
:102E4000127F1027454545393C4A494930010171F7
:102E50000D033649494936064949291E006C6C0064
:102E600000005636000008142241001414141414F3
:102E7000004122140802015109063E415D551E7CA5
:102E80001211127C7F494949363E414141227F411E
:102E900041221C7F494949417F090909013E4149B5
:102EA000497A7F0808087F00417F41002040413F68
:102EB000017F081422417F404040407F020C027F86
:102EC0007F0408107F3E4141413E7F090909063ECB
:102ED0004151215E7F09192946264949493201019C
:102EE0007F01013F4040403F1F2040201F3F4038AE
:102EF000403F631408146303047804036151494597
:102F000043007F41410002040810200041417F003E
:102F1000040201020440404040400000030500203C
:102F2000545454787F4844443838444444443844E2
:102F300044487F385454541804047E0505085454FA
:102F4000543C7F0804047800447D40002040443D08
:102F500000007F10284400417F40007C0478047802
:102F60007C0804047838444444387C141414080859
:102F70001414147C007C08040448545454200404A1
:102F80003F44443C4040207C1C2040201C3C4030BE
:102F9000403C44281028440C5050503C4464544C4D
:102FA00044000836414100007F00004141360800DE
:102FB000020102040260584658600000DC2F00083D
:102FC0000000002008000000D0010008E42F0008E5
:102FD00008000020B0060000EC010008800000009E
:042FE00040000000AD
:0400000508000235B8
:00000001FF
