:020000040800F2
:1000000068060020190200082102000823020008E7
:10001000250200082702000829020008000000004D
:100020000000000000000000000000002B0200089B
:100030002D020008000000002F0200083102000815
:1000400033020008330200083302000833020008BC
:1000500033020008330200083302000833020008AC
:10006000330200083302000833020008330200089C
:10007000330200083302000833020008330200088C
:1000800033020008330200083302000800000000B9
:100090000000000000000000000000003302000823
:1000A000330200083302000833020008330200085C
:1000B000330200083302000833020008330200084C
:1000C000330200083302000833020008330200083C
:1000D0003302000833020008E902000800000000B3
:1000E0003302000833020008330200080000000059
:1000F00000000000000000000000000033020008C3
:100100000000000033020008330200083302000838
:1001100000000000000000000000000000000000DF
:1001200033020008330200083302000833020008DB
:100130003302000800000000000000000000000082
:100140000000000000000000000000003302000872
:1001500033020008330200083302000833020008AB
:100160003302000833020008000000000000000015
:10017000000000000000000000000000000000007F
:100180000000000033020008000000000000000032
:100190003302000800F002F800F02EF80AA090E800
:1001A000000C82448344AAF10107DA4501D100F032
:1001B00023F8AFF2090EBAE80F0013F0010F18BFD1
:1001C000FB1A43F001031847700200008002000090
:1001D0000023002400250026103A28BF78C1FBD850
:1001E000520728BF30C148BF0B6070471FB500F0F1
:1001F00015F91FBD10B510BD00F036F81146FFF718
:10020000F5FF00F07DF800F054F803B4FFF7F2FFBB
:1002100003BC00F057F80000094880470948004730
:10022000FEE7FEE7FEE7FEE7FEE7FEE7FEE7FEE7A6
:10023000FEE7FEE704480549054A064B7047000003
:10024000D50200089501000868000020680600201B
:100250006802002068020020704770477047000065
:1002600000487047000000207546FFF7F9FFAE46D2
:1002700005006946534620F00700854618B020B5B2
:10028000FFF7D8FFBDE820404FF000064FF0000711
:100290004FF000084FF0000BAC46ACE8C009ACE8EA
:1002A000C009ACE8C009ACE8C00921F007018D46DF
:1002B000704710B50446AFF300802046BDE81040FB
:1002C000FFF7A3BF01491820ABBEFEE726000200DE
:1002D000704700004EF68850CEF20000016841F4ED
:1002E000700101607047000044F20440C4F2000055
:1002F000006840F26401C2F200010860704700002B
:1003000043F64001C4F202010F2041F8100C486886
:10031000002240F480704860C4F20202136842F286
:100320000800C4F2010043F003034FF0000C136017
:10033000C0F82CC050F8043C44F20C4E40F8043C89
:100340008368C4F2000E43F007038360036843F040
:1003500001030360136843F0A0031360136A43F4BE
:10036000EE4313620B6843F400330B6040F2836189
:100370004EF8041C116A41F6787341F4EE411162A3
:10038000DEF8001042F22C121143CEF80010DEF815
:100390000010402241F02D01CEF80010DEF80010D0
:1003A00041F40051CEF800104EF20411CEF20001DB
:1003B0000A60DEF8001040F2600241F02001CEF841
:1003C000001045F6C521C0F67C21C2F2000200BF34
:1003D000C0F82CC0046844F08044046050F8084C15
:1003E000A40700D500BF40F2E93400BF013C00BFC4
:1003F000FCD1446C5C436409A4FB0145EC0900EEAC
:10040000104AB8EE400A82ED000A4EF8084C4CF251
:10041000503400BF013C00BFFCD1D9E7F1EE100A17
:100420004FF6FF71C0F2C03120EA010040F0407089
:10043000E1EE100A704700004804000800000020A8
:0804400068060000D00100086D
:0400000508000219D4
:00000001FF
