:020000040800F2
:10000000E0060020350200083D0200083F0200081B
:1000100041020008430200084502000800000000F9
:10002000000000000000000000000000470200087F
:1000300049020008000000004B0200084D020008C1
:100040004F0200084F0200084F0200084F0200084C
:100050004F0200084F020008F1020008A90300083F
:10006000050500084F020008290600084F02000895
:100070004F0200084F0200084F0200084F0200081C
:100080004F0200084F0200084F0200080000000065
:100090000000000000000000000000004F02000807
:1000A0004F0200084F0200084F0200084F020008EC
:1000B0004F0200084F0200084F0200084F020008DC
:1000C0004F0200084F0200084F0200084F020008CC
:1000D0004F0200084F020008C1070008000000009E
:1000E0004F0200084F0200084F0200080000000005
:1000F0000000000000000000000000004F020008A7
:10010000000000004F0200084F0200084F020008E4
:1001100000000000000000000000000000000000DF
:100120004F0200084F0200084F0200084F0200086B
:100130004F02000800000000000000000000000066
:100140000000000000000000000000004F02000856
:100150004F0200084F0200084F0200084F0200083B
:100160004F0200084F0200080000000000000000DD
:10017000000000000000000000000000000000007F
:10018000000000004F020008000000000000000016
:100190004F02000800F002F800F03CF80AA090E8D6
:1001A000000C82448344AAF10107DA4501D100F032
:1001B00031F8AFF2090EBAE80F0013F0010F18BFC3
:1001C000FB1A43F0010318474413000064130000B6
:1001D000103A24BF78C878C1FAD8520724BF30C873
:1001E00030C144BF04680C60704700000023002445
:1001F00000250026103A28BF78C1FBD8520728BF37
:1002000030C148BF0B6070471FB501F06AF91FBDD0
:1002100010B510BD00F036F81146FFF7F5FF01F0FC
:100220006FF800F054F803B4FFF7F2FF03BC00F0DE
:1002300057F800000948804709480047FEE7FEE7F5
:10024000FEE7FEE7FEE7FEE7FEE7FEE7FEE7FEE786
:1002500004480549054A064B70470000AD070008F1
:1002600095010008E0000020E0060020E0020020E8
:10027000E002002070477047704700000048704758
:10028000480000207546FFF7F9FFAE4605006946B5
:10029000534620F00700854618B020B5FFF7D8FF79
:1002A000BDE820404FF000064FF000074FF0000877
:1002B0004FF0000BAC46ACE8C009ACE8C009ACE8B4
:1002C000C009ACE8C00921F007018D46704710B5A0
:1002D0000446AFF300802046BDE81040FFF7A3BFFF
:1002E00001491820ABBEFEE726000200704700005F
:1002F0004CF25030013800BFFCD12DE9F04740F2FC
:10030000144440F2DC0740F200080625C4F202045F
:100310000126C2F20007C2F200084FF00A094FF0AE
:10032000000A04E000F0CEFD01350A2D27D0681E3A
:1003300006FA00F0206054F8040C10F0010001D01F
:10034000062DEFD020B1072D02D100F017FCEBE70E
:1003500020B1082D02D100F06DFAE5E70028E3D0C6
:10036000092DE1D141F28830013800BFFCD1386855
:100370000A2848F8209008BFC7F800A0D4E744F640
:10038000F010C0F2020000BF013800BFFCD14FF4F2
:10039000F070206043F61440C4F201004FF6FF7184
:1003A0000160BDE8F08700004CF25030013800BF1A
:1003B000FCD12DE9F04F81B040F2144440F2C80B5B
:1003C00040F2CC0840F2A80940F2DC0A0625C4F24B
:1003D000020401260027C2F2000BC2F20008C2F29A
:1003E0000009C2F2000A04E000F0F8FD01350A2D10
:1003F00074D0681E06FA00F0206054F8040C10F067
:10040000020001D0062DEFD020B1072D02D100F05F
:1004100041FCEBE720B1082D02D100F097FAE5E7A7
:100420000028E3D0092DE1D140F2AC00C2F2000077
:10043000076040F2B000C2F20000076040F2B40072
:10044000C2F20000076040F2B800C2F2000007608C
:1004500040F2BC00C2F20000076040F2C000C2F2ED
:100460000000076040F2C400C2F200000760D9F843
:100470000000CBF80070411CC8F80070C9F80010EB
:1004800088B1012823D141F2883000BF013800BF74
:10049000FCD1DAF8000040F200010A28C2F20001A3
:1004A0004FF020020EE041F28831401A013000BFC7
:1004B000FCD3DAF8000040F200010A28C2F2000181
:1004C0004FF0300241F8202008BFCAF80070D9F878
:1004D0000000022808BFC9F8007087E744F6F01052
:1004E000C0F20200013800BFFCD14FF4F070206070
:1004F00043F61440C4F201004FF6FF71016001B0F1
:10050000BDE8F08F4CF25030013800BFFCD12DE92E
:10051000F04F81B040F2144440F2DC0940F2CC08C4
:1005200040F2000A0625C4F202040126C2F20009C4
:100530000027C2F20008C2F2000A4FF47A7B04E0FE
:1005400000F0D8FD01350A2D5AD0681E06FA00F0D9
:10055000206054F8040C10F0040001D0062DEFD0F8
:1005600020B1072D02D100F021FCEBE720B1082DCE
:1005700002D100F077FAE5E70028E3D0092DE1D1B8
:1005800041F28830013800BFFCD140F2A801C2F22C
:1005900000010F6040F2AC01C2F200010F6040F2B6
:1005A000B001C2F200010F6040F2B401C2F20001DA
:1005B0000F6040F2B801C2F200010F6040F2BC01CE
:1005C000C2F200010F6040F2C001C2F200010F60F0
:1005D00040F2C401D9F80000C2F200010F6040F2FD
:1005E000C8010130C2F20001C9F800000F60C8F86C
:1005F00000700A284AF820B008BFC9F80070A1E7C7
:1006000044F6F010C0F20200013800BFFCD14FF4F4
:10061000F070206043F61440C4F201004FF6FF7101
:10062000016001B0BDE8F08F4CF25030013800BFDE
:10063000FCD12DE9F04140F2144040F2DC0340F2DD
:10064000000C0621C4F202000122C2F20003C2F231
:10065000000C4FF00C0E00240D250E264FF00F0855
:1006600004E000BF1C6001310A2946D04F1E02FA87
:1006700007F7076050F8047C17F010070ED0062922
:100680000CD141F2883700BF013F00BFFCD11F6889
:100690000A2F4CF827E0E5D0E5E700BF77B107293E
:1006A0000CD141F2883700BF013F00BFFCD11F6869
:1006B0000A2F4CF82750D5D0D5E700BF77B10829CD
:1006C0000CD141F2883700BF013F00BFFCD11F6849
:1006D0000A2F4CF8276008BF1C60C4E7002FC2D067
:1006E0000929C0D141F28837013F00BFFCD11F6802
:1006F0000A2F4CF82780B5D0B5E744F6F011C0F2C8
:10070000020100BF013900BFFCD14FF4F07101605C
:1007100043F61440C4F201004FF6FF710160BDE8DA
:10072000F081000080B543F60400C4F20200416885
:1007300001F00C0242F20041082AC0F2F40106D096
:10074000042A20D147F64001C0F27D111BE0D0F809
:1007500000C00368026803F03F03C2F3881E5FEA2B
:100760004C2247F64002C0F27D1258BF0A46B2FB47
:10077000F3F102680223C2F301420EFB01F103EB25
:100780004202B1FBF2F140F22802C2F20002116013
:10079000406841F2FC41C0F30310C0F60001085C60
:1007A000116821FA00F0106080BD00004EF68850FC
:1007B000CEF20000016841F4700101607047000052
:1007C00080B540F2D00144F20040C2F200010122A3
:1007D000C4F200000A600168426840F2D401C2F22B
:1007E00000010A700268120601D400BFFAE7087817
:1007F00040F2D501C2F200010870FFF793FF40F20A
:100800002800C2F200000068411E0020B0EB116F0A
:1008100018BF80BD4EF21002CEF2000251604EF6BB
:100820002351CEF20001F0230B709060072010607E
:1008300080BD000040F2A800C2F200000022026069
:1008400040F2B000C2F20000026040F2B400C2F216
:100850000000026040F2B800C2F20000026040F204
:10086000BC00C2F20000026040F2C000C2F2000010
:10087000026040F2C400C2F20000026040F2C80010
:10088000C2F20000026040F2AC00C2F2000040F28E
:10089000CC030168C2F200031A604A1C03290260FB
:1008A0004DD8DFE801F00213233341F28832891A70
:1008B000013100BFFCD340F2DC01C2F20001096843
:1008C00040F20002C2F2000231232EE041F28831F0
:1008D000013900BFFCD140F2DC01C2F2000109681D
:1008E00040F20002C2F2000261231EE041F28831B0
:1008F000013900BFFCD140F2DC01C2F200010968FD
:1009000040F20002C2F2000262230EE041F288319E
:10091000013900BFFCD140F2DC01C2F200010968DC
:1009200040F20002C2F2000263230A2942F8213099
:1009300005D140F2DC01C2F2000100220A60016828
:10094000042904BF002101607047000040F2A800A4
:10095000C2F200000022026040F2AC00C2F20000CD
:10096000026040F2B400C2F20000026040F2B8003F
:10097000C2F20000026040F2BC00C2F2000002605D
:1009800040F2C000C2F20000026040F2C400C2F2B5
:100990000000026040F2C800C2F20000026040F2B3
:1009A000B000C2F2000040F2CC030168C2F20003C2
:1009B0001A604A1C032902604DD8DFE801F00213D7
:1009C000233341F28832891A013100BFFCD340F24F
:1009D000DC01C2F20001096840F20002C2F200022A
:1009E00032232EE041F28831013900BFFCD140F2C0
:1009F000DC01C2F20001096840F20002C2F200020A
:100A000064231EE041F28831013900BFFCD140F27D
:100A1000DC01C2F20001096840F20002C2F20002E9
:100A200065230EE041F28831013900BFFCD140F26C
:100A3000DC01C2F20001096840F20002C2F20002C9
:100A400066230A2942F8213005D140F2DC01C2F2C6
:100A5000000100220A600168042904BF002101602E
:100A60007047000040F2A800C2F2000000220260BD
:100A700040F2AC00C2F20000026040F2B000C2F2EC
:100A80000000026040F2B800C2F20000026040F2D2
:100A9000BC00C2F20000026040F2C000C2F20000DE
:100AA000026040F2C400C2F20000026040F2C800DE
:100AB000C2F20000026040F2B400C2F2000040F254
:100AC000CC030168C2F200031A604A1C03290260C9
:100AD0004DD8DFE801F00213233341F28832891A3E
:100AE000013100BFFCD340F2DC01C2F20001096811
:100AF00040F20002C2F2000233232EE041F28831BC
:100B0000013900BFFCD140F2DC01C2F200010968EA
:100B100040F20002C2F2000267231EE041F2883177
:100B2000013900BFFCD140F2DC01C2F200010968CA
:100B300040F20002C2F2000268230EE041F2883166
:100B4000013900BFFCD140F2DC01C2F200010968AA
:100B500040F20002C2F2000269230A2942F8213061
:100B600005D140F2DC01C2F2000100220A600168F6
:100B7000042904BF002101607047000040F2A80072
:100B8000C2F200000022026040F2AC00C2F200009B
:100B9000026040F2B000C2F20000026040F2B40015
:100BA000C2F20000026040F2BC00C2F2000002602B
:100BB00040F2C000C2F20000026040F2C400C2F283
:100BC0000000026040F2C800C2F20000026040F281
:100BD000B800C2F2000040F2CC030168C2F2000388
:100BE0001A604A1C032902604DD8DFE801F00213A5
:100BF000233341F28832891A013100BFFCD340F21D
:100C0000DC01C2F20001096840F20002C2F20002F7
:100C100034232EE041F28831013900BFFCD140F28B
:100C2000DC01C2F20001096840F20002C2F20002D7
:100C30006A231EE041F28831013900BFFCD140F245
:100C4000DC01C2F20001096840F20002C2F20002B7
:100C50006B230EE041F28831013900BFFCD140F234
:100C6000DC01C2F20001096840F20002C2F2000297
:100C70006C230A2942F8213005D140F2DC01C2F28E
:100C8000000100220A600168042904BF00210160FC
:100C90007047000040F2A800C2F20000002202608B
:100CA00040F2AC00C2F20000026040F2B000C2F2BA
:100CB0000000026040F2B400C2F20000026040F2A4
:100CC000B800C2F20000026040F2C000C2F20000B0
:100CD000026040F2C400C2F20000026040F2C800AC
:100CE000C2F20000026040F2BC00C2F2000040F21A
:100CF000CC030168C2F200031A604A1C0329026097
:100D00004DD8DFE801F00213233341F28832891A0B
:100D1000013100BFFCD340F2DC01C2F200010968DE
:100D200040F20002C2F2000235232EE041F2883187
:100D3000013900BFFCD140F2DC01C2F200010968B8
:100D400040F20002C2F200026D231EE041F288313F
:100D5000013900BFFCD140F2DC01C2F20001096898
:100D600040F20002C2F200026E230EE041F288312E
:100D7000013900BFFCD140F2DC01C2F20001096878
:100D800040F20002C2F200026F230A2942F8213029
:100D900005D140F2DC01C2F2000100220A600168C4
:100DA000042904BF002101607047000040F2A80040
:100DB000C2F200000022026040F2AC00C2F2000069
:100DC000026040F2B000C2F20000026040F2B400E3
:100DD000C2F20000026040F2B800C2F200000260FD
:100DE00040F2BC00C2F20000026040F2C400C2F255
:100DF0000000026040F2C800C2F20000026040F24F
:100E0000C000C2F2000040F2CC030168C2F200034D
:100E10001A604A1C032902604DD8DFE801F0021372
:100E2000233341F28832891A013100BFFCD340F2EA
:100E3000DC01C2F20001096840F20002C2F20002C5
:100E400036232EE041F28831013900BFFCD140F257
:100E5000DC01C2F20001096840F20002C2F20002A5
:100E600070231EE041F28831013900BFFCD140F20D
:100E7000DC01C2F20001096840F20002C2F2000285
:100E800071230EE041F28831013900BFFCD140F2FC
:100E9000DC01C2F20001096840F20002C2F2000265
:100EA00072230A2942F8213005D140F2DC01C2F256
:100EB000000100220A600168042904BF00210160CA
:100EC0007047000040F2A800C2F200000022026059
:100ED00040F2AC00C2F20000026040F2B000C2F288
:100EE0000000026040F2B400C2F20000026040F272
:100EF000B800C2F20000026040F2BC00C2F2000082
:100F0000026040F2C000C2F20000026040F2C8007D
:100F1000C2F20000026040F2C400C2F2000040F2DF
:100F2000CC030168C2F200031A604A1C0329026064
:100F30004DD8DFE801F00213233341F28832891AD9
:100F4000013100BFFCD340F2DC01C2F200010968AC
:100F500040F20002C2F2000237232EE041F2883153
:100F6000013900BFFCD140F2DC01C2F20001096886
:100F700040F20002C2F2000273231EE041F2883107
:100F8000013900BFFCD140F2DC01C2F20001096866
:100F900040F20002C2F2000274230EE041F28831F6
:100FA000013900BFFCD140F2DC01C2F20001096846
:100FB00040F20002C2F2000275230A2942F82130F1
:100FC00005D140F2DC01C2F2000100220A60016892
:100FD000042904BF002101607047000040F2A8000E
:100FE000C2F200000022026040F2AC00C2F2000037
:100FF000026040F2B000C2F20000026040F2B400B1
:10100000C2F20000026040F2B800C2F200000260CA
:1010100040F2BC00C2F20000026040F2C000C2F226
:101020000000026040F2C400C2F20000026040F220
:10103000C800C2F2000040F2CC030168C2F2000313
:101040001A604A1C032902604DD8DFE801F0021340
:10105000233341F28832891A013100BFFCD340F2B8
:10106000DC01C2F20001096840F20002C2F2000293
:1010700038232EE041F28831013900BFFCD140F223
:10108000DC01C2F20001096840F20002C2F2000273
:1010900076231EE041F28831013900BFFCD140F2D5
:1010A000DC01C2F20001096840F20002C2F2000253
:1010B00077230EE041F28831013900BFFCD140F2C4
:1010C000DC01C2F20001096840F20002C2F2000233
:1010D00078230A2942F8213005D140F2DC01C2F21E
:1010E000000100220A600168042904BF0021016098
:1010F0007047000040F2A800C2F200000022026027
:1011000040F2AC00C2F20000026040F2B000C2F255
:101110000000026040F2B400C2F20000026040F23F
:10112000B800C2F20000026040F2BC00C2F200004F
:10113000026040F2C000C2F20000026040F2C4004F
:10114000C2F20000026040F2CC00C2F2000040F2A5
:10115000C8030168C2F200031A604A1C026099B118
:10116000012923D002293AD141F28831013900BF47
:10117000FCD140F2DC01C2F20001096840F2000239
:10118000C2F200027A2320E041F28832891A00BFBD
:10119000013100BFFCD340F2DC01C2F2000109685A
:1011A00040F20002C2F2000239230EE041F288311F
:1011B000013900BFFCD140F2DC01C2F20001096834
:1011C00040F20002C2F2000279230A2942F82130DB
:1011D00005D140F2DC01C2F2000100220A60016880
:1011E000032904BF002101607047000040F2D000D5
:1011F000C2F20000016840F614000129C4F20200A6
:101200003ED0002918BF704740F20121016042F230
:10121000107100BF013900BFFCD1016840F2400CE1
:1012200021F400710160C2F2000CDCF80010012909
:101230001CDB40F235030022C2F20003995C01F589
:101240004071016042F21071013900BFFCD10168A8
:1012500021F4007101604FF4FA7100BF013900BF41
:10126000FCD1DCF8001001328A42E7DBC9B281F41C
:101270002071016042F21071013900BFFCD13AE0E7
:1012800040F20121016042F2107100BF013900BF3C
:10129000FCD1016840F23C0C21F400710160C2F203
:1012A000000CDCF8001001291CDB40F22C030022AA
:1012B000C2F20003995C01F54071016042F21071C5
:1012C000013900BFFCD1016821F4007101604FF4C5
:1012D000FA7100BF013900BFFCD1DCF80010013207
:1012E0008A42E7DBC9B281F42071016042F21071D9
:1012F000013900BFFCD1016821F400710160704721
:1013000043F63006C4F20206306840F6140440F09A
:101310000F0030607069C4F2020440F480407061D4
:1013200054F8140C202740F05530C4F2020744F85A
:10133000140CD7F8E00340F22A2240F4AA30C7F890
:10134000E0034FF6F830CFF6FF7021584EF2001848
:101350001143215057F8200C40F2111240F0A00028
:1013600047F8200C3868CEF2000840F4EE403860B0
:1013700043F60800C4F201000168114301604168AE
:1013800041F001014160D0F8F81341F01701C0F8B5
:10139000F813D0F8001441F01701C0F800144FF40E
:1013A000B860C8F800004FF60040CFF6FF704FF469
:1013B000F07121504FF40E70206042F2107000BFA7
:1013C000013800BFFCD1206820F40070206040F29A
:1013D0000620206042F21070013800BFFCD1206866
:1013E00020F4007020604FF40370206042F210700F
:1013F000013800BFFCD1206844F20C4520F4007095
:10140000C4F200052060FFF7F1FE306942F22C11B2
:1014100040F40030306140F2836045F8040C3868D5
:1014200040F2D00C40F4EE403860286840F2D80317
:1014300008432860286840F2000140F02D00286031
:1014400028684EF2603740F4005028604020C8F809
:1014500004002868C2F2000C40F02000C2F2000133
:101460000322C2F20003C0F216072860DCF8000075
:1014700030BB002606F1C00040F40070206042F24C
:10148000107000BF013800BFFCD1206820F400704C
:10149000206051F8260062F31F20206042F2107095
:1014A000013800BFFCD1206820F40070206046F2B3
:1014B000A81000BF013800BFFCD101360A2ED9D1D7
:1014C00018680128D2D1002651F8260045F8080CEA
:1014D000384600BF013800BFFCD101360A2EF3D1D7
:1014E000C4E7F1EE100A4FF6FF71C0F2C03120EAF6
:1014F000010040F04070E1EE100A7047000000006B
:101500000000000001020304060708092C1500086A
:101510000000002044000000D00100087015000801
:101520004800002098060000EC01000820000000A0
:10153000200000002000000020000000200000002B
:10154000200000002000000020000000200000001B
:10155000200000000024F400506C6174616E6F3A4A
:1015600000596F3A0000000008000000030000006E
:0400000508000235B8
:00000001FF
