:020000040800F2
:10000000780A00203D020008450200084702000867
:10001000490200084B0200084D02000800000000E1
:100020000000000000000000000000004F02000877
:1000300051020008000000005302000855020008A9
:10004000570200085702000857020008570200082C
:10005000570200085702000857020008570200081C
:10006000570200085702000857020008570200080C
:1000700057020008570200085702000857020008FC
:10008000570200085702000857020008000000004D
:1000900000000000000000000000000057020008FF
:1000A00057020008570200085702000857020008CC
:1000B00057020008570200085702000857020008BC
:1000C00057020008570200085702000857020008AC
:1000D00057020008570200085702000800000000FD
:1000E00057020008570200085702000800000000ED
:1000F000000000000000000000000000570200089F
:1001000000000000570200085702000857020008CC
:1001100000000000000000000000000000000000DF
:10012000570200085702000857020008570200084B
:10013000570200080000000000000000000000005E
:10014000000000000000000000000000570200084E
:10015000570200085702000857020008570200081B
:1001600057020008570200080000000000000000CD
:10017000000000000000000000000000000000007F
:10018000000000005702000800000000000000000E
:100190005702000800F002F800F041F80AA090E8C9
:1001A000000C82448344AAF10107DA4501D100F032
:1001B00036F8AFF2090EBAE80F0013F0010F18BFBE
:1001C000FB1A43F001031847001C0000201C00002C
:1001D000103A24BF78C878C1FAD8520724BF30C873
:1001E00030C144BF04680C60704700000023002445
:1001F00000250026103A28BF78C1FBD8520728BF37
:1002000030C148BF0B607047692900F07F80002033
:1002100070471FB500F024FC1FBD10B510BD00F0E5
:1002200059F91146FFF7F5FF00F0A4FB00F077F94C
:1002300003B4FFF7F2FF03BC00F07EF909488047E2
:1002400009480047FEE7FEE7FEE7FEE7FEE7FEE7B8
:10025000FEE7FEE7FEE7FEE704480549054A064BD0
:100260007047000049050008950100087804002047
:10027000780A002078060020780600200FB41CB50C
:10028000074B06AA7B4469460090059800F0E3F806
:100290000020694600F0F2F81CBC5DF814FB000079
:1002A000F50100002DE9F0410E46044600202062D1
:1002B0002046E168884730B3252805D0D4E90121DC
:1002C0009047206A401CF2E7E168204600278847F3
:1002D000050018D0A5F14100192802D820354FF4A7
:1002E00000673246294620462760FFF78DFF40B160
:1002F000012804D0F61D26F007060836D8E7361D7B
:10030000D6E72846DAE7206ABDE8F0812DE9F0411A
:100310000646002410687529314616A510D0AFF3A3
:100320000080002802DA404213A507E031688A07FE
:1003300001D512A502E0490704D511A5012401E069
:10034000AFF3008000210A2206F1240709E0B0FB88
:10035000F2FCB0FBF2F302FB1C003030785418467C
:10036000491C0028F3D123462A463046BDE8F04117
:1003700000F013B8000000002D0000002B0000006A
:100380002000000002F0FF0343EA032242EA024297
:1003900000F07BB87047704770472DE9F0470D4675
:1003A00099469246044600F124080168880604D55F
:1003B000E06921F01001216000E00120A84201DD88
:1003C000471B00E00027A1697A1902EB0900081A0F
:1003D000A0612078C00602D42046AFF3008000263A
:1003E00008E0D4E901211AF806009047206A401C71
:1003F000761C20624E45F4DB2078C0060AD52046E4
:10040000AFF3008006E0D4E9012130209047206A54
:10041000401C2062381EA7F10107F4DC07E0D4E994
:10042000012118F805009047206A401C2062281E10
:10043000A5F10105F3DC2046AFF30080207800062B
:1004400002D50220BDE8F0870120FBE701694A1CC4
:1004500002610878704700B58FB0CDE90131002105
:10046000059105497944CDE9031011466846FFF727
:1004700019FF0FB000BD0000E5FFFFFF0A6802F89A
:10048000010B0A6070474FF0000200B51346944616
:100490009646203922BFA0E80C50A0E80C50B1F1DC
:1004A0002001BFF4F7AF090728BFA0E80C5048BFF0
:1004B0000CC05DF804EB890028BF40F8042B08BF8E
:1004C000704748BF20F8022B11F0804F18BF00F88A
:1004D000012B7047754600F02BF8AE4605006946C3
:1004E000534620F00700854618B020B5FFF7B4FE4C
:1004F000BDE820404FF000064FF000074FF0000825
:100500004FF0000BAC46ACE8C009ACE8C009ACE861
:10051000C009ACE8C00921F007018D46704710B54D
:100520000446AFF300802046BDE81040FFF780BED0
:10053000004870470800002001491820ABBEFEE7C4
:1005400026000200704700004EF68850CEF20000F0
:1005500001684FF0000C41F47001016043F60001A6
:10056000C4F202010A6842F001020A60C1F808C040
:100570000B684FF6FF72CFF6F6621A400A6043F23C
:100580001002C2F200424A600A6822F480220A6025
:10059000C1F80CC04FF0006140F8801C70470000AB
:1005A00080B50246002840F26800C2F200004FF415
:1005B000806118BFFF22FFF7E5FE80BD2DE9F04FF7
:1005C00083B040F2684A0D46C2F2000ABAF8001041
:1005D0002B7819447F290AD840F26A4BC2F2000BEB
:1005E0001646BBF80020697811443F2903D9002042
:1005F00003B0BDE8F08F0190687868B30199B6FA4E
:1006000086F720390024029104E000BF68780134A5
:10061000844221D229780029F8D0029A696800FB27
:1006200002404FF0000931F8108000BFBAF8000016
:10063000BBF8001008FA09F248441204214432467B
:1006400080B289B258BF7A0900F0ACF8287809F175
:1006500001098145EAD3D9E72878BAF8001008449F
:10066000AAF80000019803B0BDE8F08F70B50378D8
:100670007BB114460D46461CD8B229462246FFF7E8
:100680009DFF16F8011C884205D116F8013B002B8E
:10069000F2D1002070BD084670BD000080B500207A
:1006A000FFF77EFF00F09EF880BD000045F2144188
:1006B000C4F200014A689207FCD451F8142C42F4A9
:1006C000807241F8142C00BF0A68D207FCD078224F
:1006D00041F8042C0A689207FCD50A684A6800BFF2
:1006E0000A681206FCD5002241F8042C0A6812069A
:1006F000FCD541F8040C00BF08684007FCD551F850
:10070000140C40F4007041F8140C704740F2684239
:10071000C2F20002108040F26A40C2F20000018082
:100720007047000081B045F2144CC4F2000C00BFC9
:10073000DCF804309B07FBD45CF8143C43F4807372
:100740004CF8143CDCF80030DB07FBD078234CF885
:10075000043C00BFDCF800309B07FBD5DCF804301C
:10076000009300BFDCF800301B06FBD54CF8040CEE
:10077000DCF800000006FBD55AB100200B5C4CF8F9
:10078000043C00BFDCF800305B07FBD50130904231
:10079000F4D15CF8140C40F400704CF8140C01B067
:1007A000704700007F2898BF3F2900D97047B0B537
:1007B0006FF0700301F0070E03EA011140F26805C3
:1007C0000844C2F200054FF0010C2B5C0CFA0EF14C
:1007D00023EA0104012A08BF43EA01042C54BDE8BE
:1007E000B0407047B0B540F268040025C2F2000482
:1007F000A5F15000C0B2FFF759FF0020FFF756FFE8
:100800001020FFF753FF40202146802200F006F819
:100810000135082D04F18004EAD1B0BD80B5D2B213
:10082000FFF780FF80BD00000128B8BF70474FF47C
:10083000FA614843002100BF0131814200BFFBDB68
:100840007047000043F63000C4F20200016841F036
:1008500002010160016941F40011016140F20040B0
:10086000C4F20200016841F420210160C16841F432
:10087000A021C160416A41F044014162416841F4F4
:100880004071416045F20040C4F200004FF4004165
:100890000160016821F400410160416841F01001EC
:1008A0004160C16941F05001C161112101620168DB
:1008B00041F001010160704780B5AE20FFF7F6FE00
:1008C0002020FFF7F3FE1020FFF7F0FEB020FFF727
:1008D000EDFEC820FFF7EAFE0020FFF7E7FE10203C
:1008E000FFF7E4FE4020FFF7E1FE8120FFF7DEFE88
:1008F000FF20FFF7DBFEA120FFF7D8FEA620FFF7C1
:10090000D5FEA820FFF7D2FE3F20FFF7CFFEA420A0
:10091000FFF7CCFED320FFF7C9FE0020FFF7C6FE8D
:10092000D520FFF7C3FEF020FFF7C0FED920FFF768
:10093000BDFE2220FFF7BAFEDA20FFF7B7FE122035
:10094000FFF7B4FEDB20FFF7B1FE2020FFF7AEFE7D
:100950008D20FFF7ABFE1420FFF7A8FEAF20FFF7B6
:10096000A5FE2E20FFF7A2FE0020FFF719FEFFF7DD
:1009700039FF80BD40F61004C4F20204FFF762FFA5
:10098000FFF79AFF43F63000C4F20200016841F01D
:100990000701016005200521FFF7B8FE40F20009BC
:1009A000C2F2000926A049460022FFF75FFE1E2082
:1009B0002321FFF7ABFE24A049460022FFF756FE95
:1009C000FFF710FF40F6B830FFF72EFF40F6B830C3
:1009D000FFF72AFF40F26C460FF27408C2F20006DD
:1009E0001DA700BFFFF75AFE14200A21FFF78EFE55
:1009F0004046494600220025FFF738FEFFF7F2FE89
:100A000001E000BF00BF20688004FBD44FF4FA70FF
:100A1000FFF70AFF2068304639462A46FFF72EFCCA
:100A200028202521FFF772FE304649460122FFF7B4
:100A30001DFEFFF7D7FE0135642DE4D1D2E700BFDC
:100A4000554D4E47000000004D4943524F530000A2
:100A5000434F4E54454F00003D20256900000000E3
:100A6000F1EE100A4FF6FF71C0F2C03120EA01002A
:100A700040F04070E1EE100A7047000000000000F6
:100A80000000000000000000000000000000000066
:100A90000000000000000000000000000000000056
:100AA0000000000000000000000000000000E00363
:100AB000E003E003E003E003E003E003E003C0033E
:100AC000C003C001C001C001C001C001000000009E
:100AD0000000E003E003E00300000000000000006D
:100AE00000003C1E3C1E3C1E3C1E3C1E3C1E3C1E90
:100AF00000000000000000000000000000000000F6
:100B000000000000000000000000000000000000E5
:100B1000000000000000CE01CE03DE039E039C0314
:100B20009C07FF3FFF7F3807380F780F780F780E4C
:100B3000FFFFFFFFF01EF01CE01CE03CE03DE03951
:100B400000000000000000000000FC03FE0FEE1F8C
:100B5000E01EE01EE01EE01EE01FE00FE007F003D5
:100B6000FC01FE01FE01FE01FE01FE01FE01FE3D53
:100B7000FC3FF00FE001E001000000000000033E38
:100B800007F78FE78EE79EE3BCE3B8E7F8E7F0F7F7
:100B9000E03FC001FF03FF07F307F30FF31EF33C31
:100BA000F338F3787FF03FE0000000000000000021
:100BB0000000E007F80F780F781F781F781F780F74
:100BC000F00FE00F801FC37FC3FBE7F3F7F1F7F0EF
:100BD000FFF07FF03EF87F7CFF3FEF1F000000003A
:100BE000000000000000E003E003E003E003E00396
:100BF000C003C00100000000000000000000000071
:100C000000000000000000000000000000000000E4
:100C1000000000000000000000003F007C00F00128
:100C2000E001C003C00780078007800F000F000F9E
:100C3000000F000F000F000F800F80078007C00714
:100C4000C003E001F0017C003F000F000000007EC7
:100C5000001FC007C003E001F001F000F000F80041
:100C6000780078007800780078007800F800F000CC
:100C7000F000F001E001C003C007001F007E007813
:100C80000000E003C003C001CE39FF3F7F3F2003D7
:100C90007003F807780F3C1F3806000000000000C2
:100CA0000000000000000000000000000000000044
:100CB0000000000000000000000000000000000034
:100CC0000000C001C001C001C001C001C001C001DD
:100CD000FFFFFFFFC001C001C001C001C001C00192
:100CE0000000000000000000000000000000000004
:100CF00000000000000000000000000000000000F4
:100D0000000000000000000000000000E003E0031D
:100D1000E003E003E001E001E001C0018003000026
:100D200000000000000000000000000000000000C3
:100D300000000000FE3FFE3F000000000000000039
:100D400000000000000000000000000000000000A3
:100D50000000000000000000000000000000000093
:100D60000000000000000000000000000000000083
:100D700000000000E003E003E003E00300000000E7
:100D80000000000000000F000F001E001E003C00CD
:100D90003C0078007800F000F000E001E001C003C2
:100DA000C00380078007000F000F001E001E003CDC
:100DB000003C0078007800F00000F007F80F7C1F7E
:100DC0003E3E1E3C1F7C1F7C0F780F780F780F78FB
:100DD0000F780F780F781F7C1F7C1E3C3E3E7C1FD7
:100DE000F80FF00700000000000000000000F00015
:100DF000F007F03FF03FF001F001F001F001F001E9
:100E0000F001F001F001F001F001F001F001F0015A
:100E1000F001F001FF3FFF3F000000000000000074
:100E20000000E00FF83F7C3C3C003E003E003E00EE
:100E30003C003C007C00F800F001E003C0078007A4
:100E4000000F001E003E003CFE3FFE3F0000000081
:100E5000000000000000F00FF81F7C1C3E003E0068
:100E60003E003C003C00F800F00FF80F7C003E0014
:100E70001E001E001E001E003E007C1CF81FE01F0E
:100E8000000000000000000000007800F800F800FA
:100E9000F801F803F807F807780F781E781E783CF9
:100EA00078787878FFFFFFFF780078007800780086
:100EB0007800780000000000000000000000FC1F27
:100EC000FC1FFC1F001E001E001E001E001EE01F57
:100ED000F81FFC007C003E003E001E003E003E006D
:100EE0003C007C1CF81FE01F000000000000000018
:100EF0000000FC01FE078E0F001F001E003E003C9C
:100F0000003CF83DFC3F3E7F1F7E0F3C0F3C0F3CFA
:100F10000F3C0F3E1F1E3E1FFC0FF00300000000A1
:100F2000000000000000FF3FFF3FFF3F0F001E00DA
:100F30001E003C0038007800F000F000E001E00105
:100F4000C003C0038007800F800F000F001F001F29
:100F500000000000000000000000F807FC0F3E1F2A
:100F60001E1E1E3E1E3E1E1E3C1FF80FF007F80FF1
:100F7000FC1E3E3E1F3C1F7C0F7C0F7C1F3C3E3FF7
:100F8000FC1FF00700000000000000000000F00758
:100F9000F80F7C1E3E3C1E3C1F7C1F7C1F7C1F7C70
:100FA0001F3C3F3EFF1FEF071F001E001E003E00BC
:100FB0003C00F838F03FE01F000000000000000097
:100FC0000000000000000000000000000000E0033E
:100FD000E003E003E0030000000000000000000068
:100FE00000000000E003E003E003E0030000000075
:100FF00000000000000000000000000000000000F1
:101000000000E003E003E003E00300000000000054
:101010000000000000000000E003E003E003E00344
:10102000E001E001E001C0038003000000000000D7
:1010300000000000000003000F003F00FC00F00370
:10104000C00F003F00FE003FC00FF003FC003F0058
:101050000F0003000000000000000000000000007E
:101060000000000000000000000000000000000080
:101070000000FFFFFFFF000000000000FFFFFFFF78
:101080000000000000000000000000000000000060
:10109000000000000000000000000000000000E070
:1010A00000F8007E801FE007F8017E001F007E0030
:1010B000F801E007801F007E00F800E0000000005B
:1010C000000000000000F01FFC3F3E381F381F38B2
:1010D0001E001E003C007800F000E001C003C003C9
:1010E000C007C007000000000000C007C007C0071D
:1010F00000000000000000000000F803FE0F1E1FAB
:101100000F3E7F3CFF78EF79C773C7F38FF38FF300
:101110008FF39FF39FF3FF73FF7BF779003C1C1F56
:10112000FC0FF803000000000000000000000000B9
:1011300000000000E003E003F007F007F007780F7D
:10114000780F7C0E3C1E3C1E3E3CFE3FFF3F1F784E
:101150000F780FF007F007F000000000000000001B
:101160000000000000000000F83FFC3F3E3C1E3C39
:101170001E3C1E3C3E3C7C3CF03FF83F7E3C1F3C0E
:101180001F3C0F3C0F3C1F3CFE3FF83F000000009F
:10119000000000000000000000000000FF01FF0749
:1011A000871F003E003C007C0078007800780078C3
:1011B0000078007C007C003E003F831FFF07FF019A
:1011C000000000000000000000000000000000001F
:1011D000F07FFC7F7E781F781F780F780F780F786C
:1011E0000F780F780F780F780F781F781E787E7839
:1011F000F87FE07F00000000000000000000000019
:1012000000000000FF3FFF3F003E003E003E003E6A
:10121000003E003EFE3FFE3F003E003E003E003EE0
:10122000003E003EFF3FFF3F0000000000000000C6
:101230000000000000000000FF1FFF1F001E001E36
:10124000001E001E001E001EFF1FFF1F001E001EAE
:10125000001E001E001E001E001E001E00000000DA
:10126000000000000000000000000000FE03FF0F6F
:10127000871F003E007C007C007800F800F87FF8B3
:101280007FF80F780F7C0F7C0F3E8F1FFF0FFE0340
:10129000000000000000000000000000000000004E
:1012A0001F7C1F7C1F7C1F7C1F7C1F7C1F7C1F7C66
:1012B000FF7FFF7F1F7C1F7C1F7C1F7C1F7C1F7C90
:1012C0001F7C1F7C000000000000000000000000E8
:1012D00000000000FF3FFF3FE003E003E003E00306
:1012E000E003E003E003E003E003E003E003E003E6
:1012F000E003E003FF3FFF3F0000000000000000AC
:101300000000000000000000FC1FFC1F7C007C00AF
:101310007C007C007C007C007C007C007C007C00ED
:101320007C0078007800F838F03FC03F00000000F3
:101330000000000000000000000000001F3C1E3CF8
:101340003C3C783CF03CE03DE03FC03F803FC03F4C
:10135000E03FF03DF03C783C7C3C3E3C1F3C0F3C89
:10136000000000000000000000000000000000007D
:10137000003E003E003E003E003E003E003E003E7D
:10138000003E003E003E003E003E003E003E003E6D
:10139000FF3FFF3F000000000000000000000000D1
:1013A000000000001FF81FFC1FFC3FFE3FFE3FFE39
:1013B0007FFF77FF77FFF7F7E7F7E7F3E7F3C7F389
:1013C00007F007F007F007F0000000000000000041
:1013D00000000000000000000F7C0F7C0F7E0F7FDC
:1013E0000F7F8F7F8F7FCF7FEF7BEF79FF79FF7844
:1013F000FF787F783F783F781F781F7800000000E3
:10140000000000000000000000000000F007FC1FCA
:101410003E3E1F7C0F780F780FF80FF80FF80FF88B
:101420000FF80FF80F780F781F7C3E3EFC1FF00777
:1014300000000000000000000000000000000000AC
:10144000FC3FFF3F1F3E0F3E0F3E0F3E0F3E1F3E35
:101450003F3EFC3FF03F003E003E003E003E003E6F
:10146000003E003E00000000000000000000000000
:1014700000000000F007FC1F3E3E1F7C0F780F7835
:101480000FF80FF80FF80FF80FF80FF80F780F7824
:101490001F7C3E3EFC1FF8077C003F000F0003004E
:1014A0000000000000000000F03FFC3F7E3C3E3C9E
:1014B0001E3C1E3C3E3C3C3CFC3CF03FE03FF03DD3
:1014C000F83C7C3C3E3C1E3C1F3C0F3C00000000B6
:1014D000000000000000000000000000FC07FE1FEC
:1014E0000E3E003C003C003C003EC01FF80FFE03D7
:1014F0007F001F000F000F001F203E3CFC3FF01F2D
:1015000000000000000000000000000000000000DB
:10151000FFFFFFFFE003E003E003E003E003E0037D
:10152000E003E003E003E003E003E003E003E003A3
:10153000E003E003000000000000000000000000E5
:10154000000000000F7C0F7C0F7C0F7C0F7C0F7C59
:101550000F7C0F7C0F7C0F7C0F7C0F7C0F7C1E3C64
:101560001E3C3E3EFC1FF007000000000000000093
:10157000000000000000000007F007F007F80F78F7
:101580000F7C1E3C1E3C1E3E3C1E3C1F781F780FED
:10159000F80FF007F007F007E003E0030000000099
:1015A00000000000000000000000000003E003F065
:1015B00003F007F0E7F3E7F3E7F3E773F77BF77F71
:1015C000FF7F7F7F7F7F7E7F7E3F3E3E3E3E3E3E73
:1015D000000000000000000000000000000000000B
:1015E00007F80F7C1E3E3E3E3C1FF80FF007E00759
:1015F000E003E003F007F80F7C0F7C1E3E3C1F78F1
:101600000F780FF000000000000000000000000054
:101610000000000007F807780F7C1E3C1E3E3C1FB0
:10162000780FF80FF007E003E003E003E003E003C6
:10163000E003E003E003E00300000000000000001E
:101640000000000000000000FF7FFF7F0F001F0070
:101650003E007C00F800F000E001E003C007800FCE
:10166000000F001E003E007CFF7FFF7F0000000097
:10167000000000000000FF07800780078007800748
:101680008007800780078007800780078007800722
:101690008007800780078007800780078007800712
:1016A00080078007FF07FF07000000780078003CF4
:1016B000003C001E001E000F000F80078007C003C3
:1016C000C003E001E001F000F000780078003C0089
:1016D0003C001E001E000F000F0007000000F07FFE
:1016E000F000F000F000F000F000F000F000F0007A
:1016F000F000F000F000F000F000F000F000F0006A
:10170000F000F000F000F000F000F000F07FF07F5B
:101710000000C000C001C001E003E003F007F007D3
:101720007807780F380F3C1E3C1E1E3C1E3C0F38BD
:101730000F780778000000000000000000000000A3
:101740000000000000000000000000000000000099
:101750000000000000000000000000000000000089
:101760000000000000000000000000000000000079
:10177000FFFFFFFF000000000000F000000000007D
:101780000000000000000000000000000000000059
:101790000000000000000000000000000000000049
:1017A0000000000000000000000000000000000039
:1017B00000000000000000000000F80FFC3F7C3C2F
:1017C0003E003E003E00FE07FE1F3E3E3E7C3E7851
:1017D0003E7C7E7CFF3FCF1F000000000000000029
:1017E0000000003C003C003C003C003C003CF83D5C
:1017F000FE3F3E3F1F3E0F3C0F3C0F3C0F3C0F3C5B
:101800000F3C1F3C1E3C3E3FFC3FF03B00000000F5
:1018100000000000000000000000000000000000C8
:101820000000FE03FF0F871F003E003E003C007CCF
:10183000007C007C003C003E003E871FFF0FFE0343
:10184000000000000000000000001F001F001F003B
:101850001F001F001F00FF07FF1F3F3E1F3C1F7C94
:101860001F7C1F7C1F781F781F7C1F7C3F3C7F3EA6
:10187000FF1FDF0F0000000000000000000000005C
:1018800000000000000000000000F803FC0F3E1FF5
:101890001E3E1F3C1F7CFF7FFF7F007C007C003CC6
:1018A000003E071FFF0FFE030000000000000000C5
:1018B0000000FF01E103C003C007C007C007FF7FAE
:1018C000FF7FC007C007C007C007C007C007C00729
:1018D000C007C007C007C007C007C007000000005E
:1018E00000000000000000000000000000000000F8
:1018F0000000EF07FF1F7F3E1F3C1F7C1F7C1F78EF
:101900001F781F781F7C1F7C3F3C7F3EFF1FDF0F2F
:101910001E001E001E007C38F83F003C003C003CCE
:10192000003C003C003CFC3DFE3F9E3F1F3F1F3EF5
:101930001F3C1F3C1F3C1F3C1F3C1F3C1F3C1F3CCF
:101940001F3C1F3C00000000000000000000F001F0
:10195000F0010000000000000000E07FE07FE001F7
:10196000E001E001E001E001E001E001E001E0016F
:10197000E001E001E001E0010000000000000000E3
:101980000000F800F8000000000000000000F83F30
:10199000F83FF800F800F800F800F800F800F80048
:1019A000F800F800F800F800F800F800F800F80077
:1019B000F000F071E07F003C003C003C003C003C4B
:1019C000003C1F3C3E3C7C3CF83CF03DE03DC03FD1
:1019D000C03FE03FF03DF83C7C3C3E3C1F3C1F3CA0
:1019E00000000000000000000000F07FF001F001A6
:1019F000F001F001F001F001F001F001F001F0015F
:101A0000F001F001F001F001F001F001F001F0014E
:101A1000F001F001000000000000000000000000E4
:101A2000000000000000000000009EF7FFFFFFFF25
:101A3000FFFFE7FBE7F9C7F1C7F1C7F1C7F1C7F14E
:101A4000C7F1C7F1C7F1C7F10000000000000000B6
:101A50000000000000000000000000000000FC3D4D
:101A6000FE3F9E3F1F3F1F3E1F3C1F3C1F3C1F3C35
:101A70001F3C1F3C1F3C1F3C1F3C1F3C0000000044
:101A80000000000000000000000000000000000056
:101A90000000F007FC1F3E3E1F3C1F7C0F780F78B4
:101AA0000F780F780F781F7C1F3C3E3EFC1FF0071D
:101AB0000000000000000000000000000000000026
:101AC000000000000000F83DFE3F3E3F1F3E0F3C7F
:101AD0000F3C0F3C0F3C0F3C0F3C1F3C1E3E3E3F5B
:101AE000FC3FF83F003C003C003C003C003C000058
:101AF00000000000000000000000EE07FE1F7E3E18
:101B00001E3C1E7C1E781E781E781E781E781E7C59
:101B10003E7C7E3EFE1FDE0F1E001E001E001E00CD
:101B20001E000000000000000000000000007F1FF9
:101B3000FF1FE71FC71F871F001F001F001F001F79
:101B4000001F001F001F001F001F001F00000000DB
:101B50000000000000000000000000000000000085
:101B60000000FC07FE1F0E1E003E003E003FE01F6F
:101B7000FC07FE003E001E001E003E3CFC3FF01F26
:101B80000000000000000000000000000000000055
:101B9000800780078007FF7FFF7F8007800780071F
:101BA0008007800780078007800780078007C007BD
:101BB000FF03FF0100000000000000000000000023
:101BC000000000000000000000001E3C1E3C1E3C07
:101BD0001E3C1E3C1E3C1E3C1E3C1E3C1E3C3E3C15
:101BE0007E3CFE3EFE1FDE0F0000000000000000F5
:101BF000000000000000000000000000000007F0EE
:101C00000F780F781E3C1E3C1E3E3C1E3C1E780F7B
:101C1000780FF00FF007F007E003E003000000008A
:101C200000000000000000000000000000000000B4
:101C3000000003F0E3F1E3F3E7F3F7F3F7F3F77FE3
:101C4000777F7F7F7F7F7F7F3E3E3E3E3E3E3E3EB4
:101C50000000000000000000000000000000000084
:101C60000000000000000F7C1E3E3C3E3C1FF80FB1
:101C7000F007F007E003F007F807F80F7C1E3E3E80
:101C80001F3C1F7800000000000000000000000062
:101C90000000000000000000000007F80F780F7C33
:101CA0001E3C1E3C3C1E3C1E3C1F780FF80FF007EC
:101CB000F007E003E003C003C003C0038007800F08
:101CC000007F000000000000000000000000FF3F57
:101CD000FF3F1F003E007C00F800F001E003C0075A
:101CE000800F001F001E003CFF7FFF7F00000000F0
:101CF000000000000000FE01E003C003C003C003B9
:101D0000C003E001E001E001C001C003803F803F6B
:101D1000C003C001E001E001E001C003C003C00353
:101D2000C003E003FE017E000000C001C001C0014D
:101D3000C001C001C001C001C001C001C001C0019B
:101D4000C001C001C001C001C001C001C001C0018B
:101D5000C001C001C001C001C001C0010000C03FFE
:101D6000E003E001E001E001E001C001C003C003C5
:101D7000C001E001FE00FE00E001C001C003C0039D
:101D8000C001E001E001E001E001E003C03F003FED
:101D90000000000000000000000000000000000043
:101DA0000000000000000000073FC77FE773FFF15D
:101DB0007EF00000000000000000000000000000B5
:101DC0000000000000000000E81D000800000020E6
:101DD00008000000D0010008F01D000808000020E5
:101DE000700A0000EC010008101A00007A0A0008CE
:040000050800023DB0
:00000001FF
