:020000040800F2
:10000000B0060020350200083D0200083F0200084B
:1000100041020008430200084502000800000000F9
:10002000000000000000000000000000470200087F
:1000300049020008000000004B0200084D020008C1
:100040004F0200084F0200084F0200084F0200084C
:100050004F0200084F0200084F0200084F0200083C
:100060004F0200084F0200084F0200084F0200082C
:100070004F0200084F0200084F0200084F0200081C
:100080004F0200084F0200084F0200080000000065
:100090000000000000000000000000004F02000807
:1000A0004F0200084F0200084F0200084F020008EC
:1000B0004F0200084F0200084F0200084F020008DC
:1000C0004F0200084F0200084F0200084F020008CC
:1000D0004F0200084F0200084F0200080000000015
:1000E0004F0200084F0200084F0200080000000005
:1000F0000000000000000000000000004F020008A7
:10010000000000004F0200084F0200084F020008E4
:1001100000000000000000000000000000000000DF
:100120004F0200084F0200084F0200084F0200086B
:100130004F02000800000000000000000000000066
:100140000000000000000000000000004F02000856
:100150004F0200084F0200084F0200084F0200083B
:100160004F0200084F0200080000000000000000DD
:10017000000000000000000000000000000000007F
:10018000000000004F020008000000000000000016
:100190004F02000800F002F800F03CF80AA090E8D6
:1001A000000C82448344AAF10107DA4501D100F032
:1001B00031F8AFF2090EBAE80F0013F0010F18BFC3
:1001C000FB1A43F001031847A0040000C00400001C
:1001D000103A24BF78C878C1FAD8520724BF30C873
:1001E00030C144BF04680C60704700000023002445
:1001F00000250026103A28BF78C1FBD8520728BF37
:1002000030C148BF0B6070471FB500F01FFA1FBD1B
:1002100010B510BD00F031F81146FFF7F5FF00F002
:100220000BFA00F04FF803B4FFF7F2FF03BC00F045
:1002300057F800000948804709480047FEE7FEE7F5
:10024000FEE7FEE7FEE7FEE7FEE7FEE7FEE7FEE786
:1002500004480549054A064B70470000F1020008B2
:1002600095010008B0000020B0060020B002002078
:10027000B0020020704770477047754600F02CF8B8
:10028000AE4605006946534620F00700854618B083
:1002900020B5FFF7DDFFBDE820404FF000064FF02E
:1002A00000074FF000084FF0000BAC46ACE8C00967
:1002B000ACE8C009ACE8C009ACE8C00921F007010E
:1002C0008D46704710B50446AFF300802046BDE868
:1002D0001040FFF7A8BF0000004870474000002012
:1002E00001491820ABBEFEE726000200704700005F
:1002F0004EF68851CEF20001086840F470000860A4
:100300007047000040F2AC01C2F20001002008601A
:10031000FFE740F2AC00C2F2000000684AF21F1191
:10032000C0F20701884209DCFFE7FFE740F2AC01B9
:10033000C2F20001086801300860EAE70020704757
:1003400080B582B01020C4F20200006800F00F00F7
:1003500040F2A001C2F20001086040F61000C4F2B1
:10036000020000688004002818D4FFE740F2A800CB
:10037000C2F20000006838B9FFE740F2A801C2F2FB
:1003800000010120086006E040F2A801C2F200016D
:1003900000200860FFE7FFF7B5FFFFE740F2A80085
:1003A000C2F200000068002840F09480FFE740F2AD
:1003B000A000C2F2000000680190012808D0FFE709
:1003C000019802282FD0FFE70198032856D080E03B
:1003D00040F2A401C2F2000100200860FFE740F2F1
:1003E000A400C2F20000006809281BDCFFE740F20D
:1003F000A400C2F20000016840F20000C2F2000056
:1004000050F8210040F21441C4F202010860FFF7E5
:1004100079FFFFE740F2A401C2F200010868013051
:100420000860DCE755E040F2A401C2F200010020C0
:100430000860FFE740F2A400C2F2000000680F2845
:100440001BDCFFE740F2A400C2F20000016840F2AA
:100450000000C2F2000050F8210040F21441C4F242
:1004600002010860FFF74EFFFFE740F2A401C2F26D
:100470000001086801300860DCE72AE040F2A401CE
:10048000C2F2000100200860FFE740F2A400C2F2BF
:100490000000006808281BDCFFE740F2A400C2F25D
:1004A0000000016840F20000C2F2000050F8210094
:1004B00040F21441C4F202010860FFF723FFFFE796
:1004C00040F2A401C2F20001086801300860DCE7D4
:1004D000FFE792E040F2A000C2F200000068009046
:1004E000012808D0FFE7009802282FD0FFE70098E6
:1004F000032856D080E040F2A401C2F20001092096
:100500000860FFE740F2A400C2F200000068002883
:100510001BD4FFE740F2A400C2F20000016840F2E1
:100520000000C2F2000050F8210040F21441C4F271
:1005300002010860FFF7E6FEFFE740F2A401C2F205
:100540000001086801380860DCE755E040F2A401CA
:10055000C2F200010F200860FFE740F2A400C2F2DF
:100560000000006800281BD4FFE740F2A400C2F29C
:100570000000016840F20000C2F2000050F82100C3
:1005800040F21441C4F202010860FFF7BBFEFFE72E
:1005900040F2A401C2F20001086801380860DCE7FB
:1005A0002AE040F2A401C2F2000108200860FFE73F
:1005B00040F2A400C2F20000006800281BD4FFE74C
:1005C00040F2A400C2F20000016840F20000C2F252
:1005D000000050F8210040F21441C4F2020108600A
:1005E000FFF790FEFFE740F2A401C2F200010868A5
:1005F00001380860DCE7FFE7FFE7002002B080BDBC
:1006000043F63001C4F202010F2008600021C4F259
:1006100002010020086040F20042C4F2020245F2EA
:100620000051C0F21501116040F60002C4F202024E
:1006300040F66D311160704780B582B000200190A6
:10064000FFF7DEFFFFE7FFF77BFEFCE7F1EE100AA6
:100650004FF6FF71C0F2C03120EA010040F0407057
:10066000E1EE100A70470000880600080000002034
:1006700040000000D0010008C8060008400000202B
:1006800070060000EC010008F003000060000000AC
:10069000B0050000F004000060060000D006000075
:1006A000D007000070000000F0070000F006000016
:1006B00070070000C007000090030000E005000084
:0806C000900700001007000084
:0400000508000235B8
:00000001FF
